:1000000008C1000036C1000034C1000032C1000048
:1000100030C100002EC100002CC100002AC1000028
:1000200028C1000026C1000024C1000022C1000038
:1000300020C10000E1C300001CC100001AC1000083
:1000400018C1000016C1000014C1000012C1000058
:1000500010C100000EC100000CC10000CAC40000A5
:1000600008C1000090C4000065C4000002C1000087
:1000700000C10000FEC00000FCC00000FAC000008B
:10008000F8C00000F6C00000F4C00000F2C000009C
:10009000F0C00000EEC00000ECC00000F4C400009E
:1000A000E8C00000E6C00000E4C00000E2C00000BC
:1000B000E0C00000DEC00000DCC00000DAC00000CC
:1000C000D8C00000D6C00000D4C00000D2C00000DC
:1000D000D0C00000CEC00000CCC00000CAC00000EC
:1000E000C8C00000B802BB02AA02AE02B202F2020D
:1000F000BF02C302C902CD02D102D702DB02DF0276
:10010000F202E502E902ED0200000A0B02090C0D01
:100110000E080703040100000000000000000000BA
:1001200000000000000000000000000000000000CF
:10013000000000001211100000000000000000008C
:1001400000000000000000000000000000000200AD
:10015000002200250028002B002E00310034000270
:10016000010000050108010B010000210024002707
:10017000002A002D003000330001010000040107B7
:10018000010A01050505050705080808080202021D
:10019000020A0A0808040404040101010101010122
:1001A000010303030303030303040707070C0C0CF9
:1001B0000C0C0C0C0C0202020206060606060606D1
:1001C000060B0B0B0B0B0B0B0B010210202008086E
:1001D00010204010204080020102010804020101A9
:1001E0000204081020408080402010080402018092
:1001F00004020180402010080402010804020101E9
:1002000002040810204080010204081020408000F1
:10021000740611241FBECFEFD1E2DEBFCDBF00E0D8
:100220000CBF27E0A0E4B2E001C01D92AE38B207D7
:10023000E1F712E0A0E0B2E0EEEFF2E100E00BBF88
:1002400002C007900D92A034B107D9F711E0C9E0C0
:10025000D1E000E006C021970109802FFE010E9435
:100260007109C830D10780E00807A9F75BD70C9463
:100270007D09C6CE90E0FC01E753FE4F2491FC01BE
:10028000ED57FE4F8491882399F090E0880F991FD5
:10029000FC01E759FE4FA591B491FC01E15BFE4FD3
:1002A000859194918FB7F894EC91E22BEC938FBFEA
:1002B0000895CF92DF92EF92FF920F931F93CF9307
:1002C000DF936C017A018B01C0E0D0E0CE15DF0531
:1002D00089F0D8016D918D01D601ED91FC910190CD
:1002E000F081E02DC6011995892B11F47E0102C021
:1002F0002196ECCFC701DF91CF911F910F91FF9015
:10030000EF90DF90CF900895FC01538D448D252F01
:1003100030E0842F90E0821B930B541710F0CF969F
:10032000089501970895FC01918D828D981761F0D1
:10033000828DDF01A80FB11D5D968C91928D9F5F1C
:100340009F73928F90E008958FEF9FEF0895FC01C7
:10035000918D828D981731F0828DE80FF11D858D7A
:1003600090E008958FEF9FEF0895FC01918D228D0D
:10037000892F90E0805C9F4F821B91098F73992792
:10038000089580EB92E0F1DF21E0892B09F420E071
:10039000822F0895FC01848DDF01A80FB11DA35A9F
:1003A000BF4F2C91848D90E001968F739927848F95
:1003B000A689B7892C93A089B1898C9180648C938C
:1003C000938D848D981306C00288F389E02D808177
:1003D0008F7D80830895EF92FF920F931F93CF93A9
:1003E000DF93EC0181E0888F9B8D8C8D981305C085
:1003F000E889F989808185FD23C0F62E0B8D10E0F8
:100400000F5F1F4F0F731127E02E8C8DE8120BC06A
:100410000FB607FCFACFE889F989808185FFF5CF0F
:10042000CE01B8DFF2CF8B8DFE01E80FF11DE35A4C
:10043000FF4FF0820B8FEA89FB898081806207C0C1
:10044000EE89FF896083E889F989808180648083EF
:1004500081E090E0DF91CF911F910F91FF90EF909D
:100460000895CF93DF93EC01888D8823C1F0EA894A
:10047000FB89808185FD05C0A889B9898C9186FD9D
:100480000EC00FB607FCF5CF808185FFF2CFA8899B
:10049000B9898C9185FFEDCFCE017CDFE8CFDF916C
:1004A000CF91089580E090E0892B19F06ADF8111E7
:1004B00025C080E090E0892B41F080E090E0892B1E
:1004C00021F00E94000081111CC080E090E0892B87
:1004D00041F080E090E0892B21F00E940000811122
:1004E00013C080E090E0892BA1F080E090E0892BA0
:1004F00081F00E94000081110AC008950E9400004E
:10050000D8CF0E940000E1CF0E940000EACF0C94F7
:1005100000000895362F90E0FC01E85FFE4F449103
:10052000FC01E753FE4F2491FC01ED57FE4F9491DF
:10053000992309F46AC0442309F454C050E0FA0135
:100540003197E231F10508F04DC08827EE58FF4F92
:100550008F4FC7C6809180008F7707C08091800041
:100560008F7D03C080918000877F809380003AC098
:1005700084B58F7702C084B58F7D84BD33C08091F0
:10058000B0008F7703C08091B0008F7D8093B00062
:1005900029C0809190008F7707C0809190008F7D57
:1005A00003C080919000877F809390001BC0809152
:1005B000A0008F7707C08091A0008F7D03C080913D
:1005C000A000877F8093A0000DC0809120018F77CD
:1005D00007C0809120018F7D03C080912001877F1B
:1005E00080932001E92FF0E0EE0FFF1FE15BFE4F4B
:1005F000A591B4918FB7F894EC91311103C0209577
:100600002E2301C02E2B2C938FBF08953FB7F89453
:100610008091A5029091A602A091A702B091A80294
:1006200026B5A89B05C02F3F19F00196A11DB11D4D
:100630003FBFBA2FA92F982F8827820F911DA11D88
:10064000B11DBC01CD0142E0660F771F881F991FC5
:100650004A95D1F708950596089585ED8093BC00DD
:100660008091BC0084FDFCCF1092950308954091C9
:100670007B02262F30E0240F311D21323105DCF4BE
:10068000209195032430C9F4FC0180E090E08617A6
:1006900058F430917B022191DC01A75ABD4FA30F82
:1006A000B11D2C930196F3CF80917B02680F60936C
:1006B0007B0280E0089581E0089582E00895089526
:1006C000E0914E0380914D03E81730F4F0E0E15BD8
:1006D000FC4F808190E008958FEF9FEF08959091F7
:1006E0004E0380914D03981750F4E92FF0E0E15B41
:1006F000FC4F208130E09F5F90934E0302C02FEFAC
:100700003FEFC901089580914D0390E020914E0381
:10071000821B91090895CF92DF92EF92FF920F937F
:100720001F93CF93DF937C01262F972F8A0180910F
:10073000B903882391F0C62FD72F6E01C40ED51EA2
:10074000CC15DD0569F06991D701ED91FC9101901F
:10075000F081E02DC7011995F3CF642F822F87DF39
:10076000C801DF91CF911F910F91FF90EF90DF9023
:10077000CF900895CF93DF931F92CDB7DEB76983F3
:100780002091B9032223D1F02091B603203240F00A
:1007900021E030E0FC013383228380E090E014C04C
:1007A0008091B703E82FF0E0EA56FC4F99819083DF
:1007B0008F5F8093B7038093B60304C061E0CE01DE
:1007C000019655DF81E090E00F90DF91CF91089581
:1007D000089580E090E008958CD5FC0185E092E0DA
:1007E0009183808312821382148235968EE1DF0119
:1007F0001D928A95E9F708951F920F920FB60F92F6
:1008000011240BB60F922F933F934F935F936F93E7
:100810007F938F939F93AF93BF93EF93FF938091B9
:10082000AC029091AD02A091AE02B091AF02892BC3
:100830008A2B8B2B59F18091AB02E091A902F091A8
:10084000AA029081892780838091AC029091AD02A9
:10085000A091AE02B091AF02181619061A061B0637
:100860000CF055C08091AC029091AD02A091AE0207
:10087000B091AF020197A109B1098093AC029093A6
:10088000AD02A093AE02B093AF0241C080910002CE
:10089000EEE4F1E0E4919FEF90930002E230C9F0C2
:1008A00050F4EE2399F0E13081F590916F009D7F37
:1008B00090936F002AC0E43019F1E0F0E53029F59B
:1008C000909173009D7F909373001FC010926E00F3
:1008D0001CC0909170009D7F9093700091E0909368
:1008E000B0009091B100987F94609093B100109205
:1008F000B3000BC0909171009D7F9093710005C073
:10090000909172009D7F9093720060E003DEFF91F2
:10091000EF91BF91AF919F918F917F916F915F9177
:100920004F913F912F910F900BBE0F900FBE0F90E4
:100930001F9018951F920F920FB60F9211240BB6AD
:100940000F922F933F934F935F936F937F938F9368
:100950009F93AF93BF93EF93FF9380EB92E01ADDE9
:10096000FF91EF91BF91AF919F918F917F916F9187
:100970005F914F913F912F910F900BBE0F900FBE43
:100980000F901F9018951F920F920FB60F9211247F
:100990000BB60F922F938F939F93EF93FF93E0915A
:1009A000C002F091C1028081E091C602F091C702BD
:1009B00082FD12C090818091C9028F5F8F73209158
:1009C000CA02821751F0E091C902F0E0E055FD4FF4
:1009D000958F8093C90201C08081FF91EF919F9113
:1009E0008F912F910F900BBE0F900FBE0F901F9005
:1009F00018951F920F920FB60F9211242F933F93C9
:100A00008F939F93AF93BF938091A1029091A20285
:100A1000A091A302B091A4023091A00223E0230F81
:100A20002D3720F40196A11DB11D05C026E8230F26
:100A30000296A11DB11D2093A0028093A102909364
:100A4000A202A093A302B093A4028091A502909168
:100A5000A602A091A702B091A8020196A11DB11D06
:100A60008093A5029093A602A093A702B093A80238
:100A7000BF91AF919F918F913F912F910F900FBE9A
:100A80000F901F9018951F920F920FB60F9211247E
:100A90000BB60F922F933F934F935F936F937F9378
:100AA0008F939F93AF93BF93EF93FF938091B90080
:100AB000887F803609F49CC068F5883209F45BC0F1
:100AC00090F4803109F454C038F4882309F4F6C056
:100AD000883009F44DC0F5C0883109F44CC080322B
:100AE00009F45DC0EEC0803409F468C048F4803376
:100AF00009F455C0883309F0E4C080939303D8C04B
:100B0000803509F44FC0883509F45DC0883409F098
:100B1000D8C0D6C0883909F4C7C0A8F4883709F40A
:100B200067C038F4883609F463C0803709F460C0C0
:100B3000C8C0883809F4B8C0803909F45FC080386B
:100B400009F0BFC05BC0803B09F486C038F4803A2E
:100B500009F466C0883A09F47FC0B3C0803C09F448
:100B6000A7C0883C09F4A4C0883B09F48AC0A9C086
:100B70008091700310C09091920380919103981717
:100B800070F5E091920381E08E0F80939203F0E084
:100B9000EF58FC4F80818093BB0085EC86C080932A
:100BA00093038EC0E091920381E08E0F80939203B5
:100BB0008091BB00F0E0EF58FC4F8083909192034E
:100BC000809191036EC0E091920381E08E0F80933B
:100BD00092038091BB00F0E0EF58FC4F808380913E
:100BE000940381116DC081E080936F0384EA61C03A
:100BF00083E08093950310929F02CFCF80919F0254
:100C0000803208F051C0E0919F0281E08E0F809306
:100C10009F028091BB00F0E0E158FD4F8083BDCF83
:100C200085EC8093BC001092950380919F028032E6
:100C300030F4E0919F02F0E0E158FD4F10826091A6
:100C40009F0270E0E0917D02F0917E028FE792E0DA
:100C5000199510929F0235C084E0809395031092FD
:100C60007C0210927B02E0917902F0917A02199550
:100C700080917B02811105C081E080937B021092FC
:100C80005902E0917C0281E08E0F80937C02F0E0BB
:100C9000E75AFD4F80818093BB0090917C02809148
:100CA0007B02981708F479CF85E88093BC0009C0CF
:100CB00085EC8093BC001092950303C010929303BF
:100CC000CCDCFF91EF91BF91AF919F918F917F917C
:100CD0006F915F914F913F912F910F900BBE0F90AD
:100CE0000FBE0F901F901895DF92EF92FF920F9317
:100CF0001F93CF93DF931092B3021092B20288EE4B
:100D000093E0A0E0B0E08093B4029093B502A0938A
:100D1000B602B093B7028BE092E09093B102809359
:100D2000B00285EC90E09093BD028093BC0284EC0D
:100D300090E09093BF028093BE0280EC90E090938D
:100D4000C1028093C00281EC90E09093C302809333
:100D5000C20282EC90E09093C5028093C40286ECBC
:100D600090E09093C7028093C6021092C90210923D
:100D7000CA021092CB021092CC0281E08093B90398
:100D800088E68093B8031092B7031092B60360E030
:100D900082E897E0EFDC8091B603813208F045C02D
:100DA000909195039111FCCF92E09093950391E07F
:100DB000909394039FEF90939303109292038093E8
:100DC0009103A6E9B3E021E733E0F9019E2F921BDE
:100DD000981718F49D919193F9CF10927003809118
:100DE0007003806D8093700380916F03813061F494
:100DF00010926F03809170038093BB008091BC00C0
:100E000083FDF8CF85EC01C085EE8093BC00809116
:100E100095038230E1F3809193038F3F31F080910D
:100E20009303803211F0809193031092B7031092D4
:100E3000B6031092B903809195038111FCCF81E034
:100E400080939503809394039FEF90939303109264
:100E5000920397E0909391038093700380917003C5
:100E6000806D8093700380916F03813061F41092E4
:100E70006F03809170038093BB008091BC0083FD61
:100E8000F8CF85EC01C085EE8093BC00809195037E
:100E90008130E1F380919203883018F480919203BD
:100EA00001C088E0A1E7B3E02FE433E0F9019E2F11
:100EB000921B981718F49D919193F9CF10924E03BD
:100EC00080934D0382E897E00ADC9C01332794E08D
:100ED000359527959A95E1F7CAEFD82FC29FD00D87
:100EE000112482E897E0FBDB9C01332744E0359531
:100EF00027954A95E1F7182FC29F100D112482E81B
:100F000097E0EDDB8F73982F92959F70082F9C9F31
:100F1000000D112482E897E0E2DBD82E82E897E00A
:100F2000DEDB9C01332754E0359527955A95E1F790
:100F3000F82EC29FF00C112482E897E0D0DB9C01D0
:100F4000332764E0359527956A95E1F7E82EC29F2F
:100F5000E00C112482E897E0C2DB9C01332774E0A7
:100F6000359527957A95E1F7982FC29F900D11241A
:100F70009093BA03E092BB03F092BC030093BD03CD
:100F80001093BE03D093BF03D092C00385E372D900
:100F900060E085E3BFDA81E36DD960E081E3BADA2E
:100FA00010925605109257058BE4809358058CEDEE
:100FB00094E090935A05809359058EE190E0A0E06B
:100FC000B0E080935B0590935C05A0935D05B093C2
:100FD0005E0581E080935F05809360051092610556
:100FE00010926205109263051092640510926505D7
:100FF0008093A6051092A7051092A8058FEF809305
:10100000A9051092AA058093AB051092AC058093B8
:10101000AD058093AE051092B0051092B105109207
:10102000B2051092B3051092B4051092B505109256
:10103000B6051092B7051092B8051092B905109236
:10104000BA051092BB0584E690E0A0E0B0E0809382
:10105000BC059093BD05A093BE05B093BF0510924B
:10106000C00580E090E0FC01EF53FA4F10820B9630
:101070008E369105C1F710922F0680E396E0ADDB26
:101080001092710610927306109272068DE192E032
:1010900090933106809330061092740681E090E0C0
:1010A00090937606809375061092780610927706D4
:1010B00010927A06109279068BE796E08EDB8CEB25
:1010C00096E08BDB8DEF96E088DB8EE397E085DBA7
:1010D00083E292E090933F0780933E0710927F0750
:1010E0001092810710928007109285071092840752
:1010F00088EE93E0A0E0B0E08093860790938707A6
:10110000A0938807B093890789E292E090938307C0
:1011100080938207DF91CF911F910F91FF90EF9005
:10112000DF900895789484B5826084BD84B5816031
:1011300084BD85B5826085BD85B5816085BD8091A2
:101140006E00816080936E0010928100809181001A
:101150008260809381008091810081608093810012
:10116000809180008160809380008091B1008460D4
:101170008093B1008091B00081608093B000809135
:1011800091008260809391008091910081608093B2
:101190009100809190008160809390008091A100E7
:1011A00082608093A1008091A10081608093A10062
:1011B0008091A00081608093A000809121018260D5
:1011C0008093210180912101816080932101809190
:1011D000200181608093200180917A008460809357
:1011E0007A0080917A00826080937A0080917A0000
:1011F000816080937A0080917A00806880937A0081
:101200001092C100E091C002F091C10282E080839F
:10121000E091BC02F091BD021082E091BE02F0911B
:10122000BF028FEC80831092C802E091C402F0915B
:10123000C50286E08083E091C202F091C302808102
:1012400080618083E091C202F091C3028081886056
:101250008083E091C202F091C30280818068808324
:10126000E091C202F091C30280818F7D80838DE086
:1012700001D8C8EED3E045E050E067E372E080EBD0
:1012800092E017D842E050E06DE372E080EB92E02C
:1012900010D8219781F7BAD94B015C0184E6C82E9A
:1012A000D12CE12CF12CB2D9DC01CB0188199909A0
:1012B000AA09BB09883E9340A105B10558F021E079
:1012C000C21AD108E108F10888EE880E83E0981E62
:1012D000A11CB11CC114D104E104F10421F7E2D82E
:1012E000FECFEE0FFF1F881F8BBF0790F691E02DFA
:0E12F000199481E090E0F89400C0F894FFCFCC
:1012FE00FF000000002B0300000000EB01590184E9
:10130E00013102B5019301A701000000002B03007B
:10131E000000002B0300000000BA038B03E9035FFB
:10132E000383036F03600348454C4C4F000D0A00C6
:00000001FF
