:10000000ECC100001BC2000019C2000017C20000B2
:1000100015C2000013C2000011C200000FC2000090
:100020000DC200000BC2000009C2000007C20000A0
:1000300005C2000003C2000001C20000FFC10000B1
:10004000FDC10000FBC10000F9C10000F7C10000C4
:10005000F5C10000F3C10000F1C100000C94CF1203
:10006000EDC100000C94D0110C94A711E7C1000061
:10007000E5C10000E3C10000E1C10000DFC10000F4
:10008000DDC10000DBC10000D9C10000D7C1000004
:10009000D5C10000D3C10000D1C100000C94E50D12
:1000A000CDC10000CBC10000C9C10000C7C1000024
:1000B000C5C10000C3C10000C1C10000BFC1000034
:1000C000BDC10000BBC10000B9C10000B7C1000044
:1000D000B5C10000B3C10000B1C10000AFC1000054
:1000E000ADC1000021122412131217121D125B124F
:1000F00028122C12321236123A12401244124812AE
:100100005B124E12521256120000200023002600ED
:1001100029002C002F00320000010000030106011D
:10012000090100000A0B02090C0D0E080703040167
:1001300000000000000000000000000000000000BF
:10014000000000000000000000000000000012118C
:10015000100000000000000000000000000000008F
:1001600000000000000000003C454E44204F4620A7
:1001700046494C453E0043414E2754204F50454E82
:100180002046494C452C204D415920424520495498
:1001900020444F45534E2754204E4F542045584934
:1001A0005453204F5220434F5252555054454421EE
:1001B000005343414E4E494E472055534552533A02
:1001C0002000436F64652063616E27742072756E32
:1001D00020776974686F757420534420636172647A
:1001E00021212120537475636B206865726521009D
:1001F000496E6974205344206361726420666169AA
:100200006C65642100496E697420534420636172F7
:1002100064204F4B21004C4F4720544F2053442023
:1002200043415244204641494C4544004C4F4720ED
:10023000544F2053442043415244204641494C45A9
:100240004400414E4F544845522055534552204C8E
:100250004F4747454420494E2100414E4F544845A1
:10026000522055534552204C4F4747454420494E54
:1002700021004C4F434B494E47204D41535445526A
:100280002E2E2E004C4F4720544F205344204341E4
:100290005244204641494C4544004C4F4747454451
:1002A00020494E204245464F52452C204C4F434B4F
:1002B00045442C204E4F5720554E4C4F434B494EF2
:1002C000472E2E2E00796F75722074616720697336
:1002D000206E6F7420737570706F72746564210086
:1002E000206973206E6F7420612076616C696420D0
:1002F000757365722100207761732064657465638E
:1003000074656421007C3C3E5E2B3D3F2F5B5D3B72
:100310002C2A225C0000002200250028002B002E41
:10032000003100340002010000050108010B01004A
:10033000002100240027002A002D00300033000196
:10034000010000040107010A01050505050705086C
:10035000080808020202020A0A0808040404040148
:10036000010101010101010303030303030303046A
:100370000707070C0C0C0C0C0C0C0C0202020206FA
:10038000060606060606060B0B0B0B0B0B0B0B01EA
:100390000210202008081020401020408002010296
:1003A000010804020101020408102040808040205E
:1003B0001008040201800402018040201008040299
:1003C0000108040201010204081020408001020417
:1003D00008102040800096268A2611241FBECFEFE9
:1003E000D1E2DEBFCDBF00E00CBF28E0AAE5B3E05C
:1003F00001C01D92A338B207E1F713E0A0E0B2E01C
:10040000EAE4F4E500E00BBF02C007900D92AA35C4
:10041000B107D9F711E0CCEED1E000E006C021979A
:100420000109802FFE010E949D27CB3ED10780E06D
:100430000807A9F70E94121F0C94142AE1CDDC01D1
:100440005996ED91FC915A973097B9F08389948928
:10045000A589B6894285538564857585841B950B6E
:10046000A60BB70B811520E89207A105B10538F05E
:100470008FEF9FE7A0E0B0E0089580E090E008955E
:10048000CF93DF931F92CDB7DEB76983DC01ED9187
:10049000FC910280F381E02D41E050E0BE016F5FEE
:1004A0007F4F19950F90DF91CF91089585ED80933F
:1004B000BC008091BC0084FDFCCF109260030895C5
:1004C0004091A903262F30E0240F311D2132310540
:1004D000DCF4209160032430C9F4FC0180E090E05A
:1004E000861758F43091A9032191DC01A757BC4F1E
:1004F000A30FB11D2C930196F3CF8091A903680F30
:100500006093A90380E0089581E0089582E0089552
:10051000E0915A03F0915B03309729F01092620347
:100520001092610319940895CF93DF93AC01E09189
:100530005C03F0915D033097F1F09091640380913A
:1005400063039817C0F090E0292F30E02617370793
:1005500054F4D901A759BC4FEA01C20FD31F8881B7
:100560008C939F5FF1CF1092640360936303CB0180
:10057000DF91CF911994DF91CF9108950895E09183
:10058000640380916303E81730F4F0E0E759FC4F0F
:10059000808190E008958FEF9FEF0895909164031C
:1005A00080916303981750F4E92FF0E0E759FC4F6E
:1005B000208130E09F5F9093640302C02FEF3FEFF4
:1005C000C90108958091630390E020916403821B28
:1005D00091090895CF93DF931F921F92CDB7DEB795
:1005E000CB01642F49835A836BDF4981842F5A8161
:1005F000952F0F900F90DF91CF910895CF93DF93B8
:100600001F92CDB7DEB7698361E0CE01019658DF56
:1006100081E090E00F90DF91CF910895089580E000
:1006200090E008953F924F925F926F927F928F92E7
:100630009F92AF92BF92CF92DF92EF92FF920F9371
:100640001F93CF93DF93CDB7DEB72C970FB6F894F7
:10065000DEBF0FBECDBF5C01DC015B968D909C9030
:100660005C971696CD90DD90ED90FC901997C11493
:10067000D104E104F10439F0BFEFCB1ADB0AEB0A35
:10068000FB0A312C07C0F401C080D180E280F380E6
:1006900033243394F40181859285A385B4859C012C
:1006A000AD012F5F3F4F4F4F5F4F29873A874B87F1
:1006B0005C87260137011D821E821F821886F40185
:1006C00081859285A385B4852D813E814F81588592
:1006D000281739074A075B0708F063C089859A85A0
:1006E000AB85BC858C159D05AE05BF0550F482E039
:1006F000C82ED12CE12CF12C92E0492E512C612CEA
:10070000712C9E012F5F3F4FB701A601C4010E94CB
:100710005016882309F445C089819A81AB81BC8138
:10072000892B8A2B8B2B41F0260137019FEF491A29
:10073000590A690A790A05C0C414D504E604F70405
:1007400091F02D813E814F8158852F5F3F4F4F4F54
:100750005F4F2D833E834F8358873FEFC31AD30AE1
:10076000E30AF30AACCF0FEF1FEF2FEF3FE0B30127
:10077000A201C4010E94B015882399F0D5011696F4
:100780004D915D916D917C911997411551056105D0
:10079000710549F093018201C4010E94B0158111D5
:1007A00002C080E02AC0D50116964D925D926D92EE
:1007B0007C921997332051F0D301C2010196A11DFB
:1007C000B11DF40180839183A283B383F5018789EE
:1007D000908DA18DB28D892B8A2B8B2B69F4D5013D
:1007E00057964D925D926D927C925A9714968C9189
:1007F0001497806814968C9381E02C960FB6F89429
:10080000DEBF0FBECDBFDF91CF911F910F91FF9043
:10081000EF90DF90CF90BF90AF909F908F907F90A0
:100820006F905F904F903F9008954F925F926F92BC
:100830007F92AF92BF92CF92DF92EF92FF920F938F
:100840001F93CF93DF9300D01F92CDB7DEB78C01FB
:1008500049835A836B837C835901C12CD12C760147
:10086000412C82E0582E612C712C49815A816B8178
:100870007C819E012F5F3F4FC8010E945016882344
:1008800051F1D301C201F801058404C0880F991FFA
:10089000AA1FBB1F0A94D2F7C80ED91EEA1EFB1E60
:1008A00049815A816B817C818789803129F088EF69
:1008B0009FEFAFEFBFE004C088EF9FEFA0E0B0E094
:1008C000481759076A077B0780F2F501C082D18279
:1008D000E282F38281E00F900F900F900F90DF91F2
:1008E000CF911F910F91FF90EF90DF90CF90BF902D
:1008F000AF907F906F905F904F9008958F929F92EE
:10090000AF92BF92CF92DF92EF92FF920F931F931D
:10091000CF93DF93EC018D81811102C080E077C01D
:100920000B891C892D893E8904171507260737076F
:10093000A8F36A017B01823029F4CA86DB86EC8643
:10094000FD860DC0C114D104E104F10451F41E82EE
:100950001F82188619861A861B861C861D8681E0D2
:1009600056C08A849B84AC84BD84EB8DFC8D258528
:1009700030E0275F3F4FB501A401415051096109A3
:100980007109022E04C076956795579547950A948C
:10099000D2F7D701C6010197A109B10904C0B695E4
:1009A000A795979587952A95D2F784179507A60757
:1009B000B70720F089288A288B2849F44F89588D59
:1009C000698D7A8D4E835F836887798704C0841B25
:1009D000950BA60BB70B4C015D018E010A5F1F4FF3
:1009E00081149104A104B10409F4A7CF4E815F8161
:1009F0006885798598018B8D9C8D0E94501691E0B9
:100A0000891A9108A108B1088111EACF87CFDF9137
:100A1000CF911F910F91FF90EF90DF90CF90BF90FB
:100A2000AF909F908F900895089561E0FC018481BC
:100A30000E945C128091F10381111092F1030895DC
:100A40008EBD00000DB407FEFDCF8EB508958FEF6B
:100A5000F7CF0F931F93CF93DF93EB010E94C31245
:100A60008B01F5DF8F3F49F00E94C312601B710BB1
:100A70006C177D07B0F380E001C081E0DF91CF917A
:100A80001F910F910895CF93DF93EC018E818823FE
:100A900079F08F8198859C012F5F3F4F38872F8396
:100AA0008230924010F4D3DFF4CFCE01BEDF1E823D
:100AB000DF91CF9108958CBD9DBD0895CF93DF93B5
:100AC000EC018091F103811108C081E08093F10372
:100AD0008091160890911708EEDF60E08C81DF911D
:100AE000CF910C945C12CF92DF92FF920F931F93E1
:100AF000CF93DF9300D01F92CDB7DEB76C01F62EF7
:100B000029833A834B835C83BEDFC601D7DF6CE267
:100B100071E0C6019EDF8F2D806492DF08E110E056
:100B20005C814B813A812981DA01C901002E04C020
:100B3000B695A795979587950A94D2F729833A8316
:100B40004B835C837DDF0850110929813A814B81F9
:100B50005C81083F8FEF180739F7FF2029F0E8E0A4
:100B6000FE1204C087E803C085E901C08FEF68DF8B
:100B700010E06DDFF601828787FF04C01F3F11F090
:100B80001F5FF7CF0F900F900F900F90DF91CF91D5
:100B90001F910F91FF90DF90CF900895AF92BF9279
:100BA000CF92DF92EF92FF920F931F93CF93DF9339
:100BB000EC016901C801820F931F8130924008F057
:100BC0006AC08E81882371F088819981AA81BB8156
:100BD000481759076A077B0729F48F819885C8163B
:100BE000D90698F5488359836A837B838B85833044
:100BF00039F089E0440F551F661F771F8A95D1F79A
:100C00009A01AB0161E1CE016EDF882319F083E028
:100C10008D8341C00E94C3125B0119DF8A878F3F19
:100C200049F40E94C3126A197B096D327140A8F31E
:100C30008FE003C08E3F29F08DE08D83CE01F5DE7D
:100C40002AC018861F8281E08E838F8198858C153B
:100C50009D0538F4FCDE8F819885019698878F83F7
:100C6000F4CF6701E00EF11ECE14DF0429F0EFDEB1
:100C7000F60181936F01F8CF8F819885080F191FB6
:100C800018870F838985882319F00115124038F0E1
:100C9000CE01F9DE04C0CE01C8DE80E001C081E0F3
:100CA000DF91CF911F910F91FF90EF90DF90CF9048
:100CB000BF90AF900895EF92FF920F931F93CF9341
:100CC000DF93EC017901411551056105710511F4BE
:100CD00082E134C08B85833039F089E0440F551FA1
:100CE000661F771F8A95D1F79A01AB0168E1CE01A3
:100CF000FADE882311F084E021C08EEFA1DE8701A7
:100D00008EEFF81AF80181918F019ADE0E151F05FA
:100D1000C9F78FEF95DE8FEF93DE99DE8A878F71AB
:100D2000853029F081E18D83CE017FDE08C068E542
:100D300072E0CE018EDE811106C085E18D83CE0189
:100D400074DE80E010C020E030E0A9016DE0CE014B
:100D5000CADE811103C07BDE882311F084E1EECF6F
:100D6000CE0163DE81E0DF91CF911F910F91FF9063
:100D7000EF9008958091F203882399F14091010248
:100D800050910202609103027091040220E034E06D
:100D900080910006909101068EDF811102C080E0F3
:100DA00008954091F3035091F4036091F50370911D
:100DB000F603411551056105710589F020E034E025
:100DC000809100069091010676DF882341F310920E
:100DD000F3031092F4031092F5031092F6031092AD
:100DE000F20381E008958F929F92AF92BF92EF92AB
:100DF000FF920F931F93CF934B015C01C42F8091FF
:100E0000010290910202A0910302B09104028815A0
:100E10009905AA05BB05F1F0ADDF811102C080E0A4
:100E20001FC080E0E82E84E0F82E00E012E020E011
:100E300030E0B501A4018091000690910106AEDE7C
:100E4000882369F38092010290920202A092030229
:100E5000B09204028091F203C82BC093F20381E0A8
:100E6000CF911F910F91FF90EF90BF90AF909F9007
:100E70008F9008952F923F924F925F926F927F9240
:100E80008F929F92AF92BF92CF92DF92EF92FF929A
:100E90000F931F93CF93DF931F921F92CDB7DEB7AF
:100EA000FC018581882309F4D7C0848180FFD4C0E8
:100EB00021E02A83438954896589768982859385CF
:100EC000A485B585481759076A077B0709F41A8274
:100ED0006F013A81832F90E0DE0111964D013F01B1
:100EE000B6E06B0E711C892B09F47DC0D6011A96F1
:100EF0004D915D916D917C911D975A01B1E0BB229E
:100F0000F60125811A012B0189E056944794379404
:100F100027948A95D1F7838D948D223061F4FC015A
:100F2000828D938DA48DB58DBC01CD01620D731D95
:100F3000841D951D45C0DC0114961C911150122191
:100F4000A114B104D1F4111118C0452B462B472B25
:100F500051F4F6018789908DA18DB28D8683978398
:100F6000A087B1870AC0468157816085718593014A
:100F70000E945016882309F46FC0F601238D348D2A
:100F800086819781A085B1850297A109B109AC013D
:100F9000BD01F901058404C0440F551F661F771F6A
:100FA0000A94D2F786859785A089B189840F951F09
:100FB000A61FB71FBC01CD01610F711D811D911DC1
:100FC000D60114962C9126FF14C0009101021091B5
:100FD0000202209103023091040260177107820718
:100FE000930749F506C0FA81FF23B1F1898190E0AA
:100FF00035C040E0F8DE882379F1F501E050FC4F80
:10100000D401CF010196E817F90719F021912D932A
:10101000FACFEFEF8E1A9E0AF60182859385A4859A
:10102000B5850196A11DB11D82879387A487B587D9
:1010300080E090E058CF740101E010E09501AB0131
:10104000BC018091000690910106A8DD882321F063
:10105000BFEF8B1A9B0AE0CF8FEF9FEF0F900F909F
:10106000DF91CF911F910F91FF90EF90DF90CF9084
:10107000BF90AF909F908F907F906F905F904F90B8
:101080003F902F900895FC01818D928D009709F07B
:10109000F1CE8FEF9FEF08950F931F93CF93DF93C0
:1010A000FC01818D928D0097A9F0EF01E3DE8C01A8
:1010B0000F3F8FEF180789F0898D9A8DFC014285CB
:1010C000538564857585415051096109710916DCA4
:1010D000C80105C080E090E002C08FEF9FEFDF9174
:1010E000CF911F910F910895CF93DF93EC018D81E4
:1010F000882391F18C8187FF2CC06E857F8588893C
:10110000998941E070DE882339F1EA8980E2E89F1D
:10111000F0011124DF01A050BC4F1097E9F08D8140
:10112000823050F44B895C896D897E895C964D9341
:101130005D936D937C935F978F89988DA98DBA8D00
:10114000E050FC4F938F828FB58BA48B8C818F776F
:101150008C83DF91CF910ECE80E0DF91CF91089507
:101160008F929F92AF92BF92CF92DF92EF92FF92B7
:101170000F931F93CF93DF9300D01F92CDB7DEB7AD
:101180007C0180E2689F60011124960120503C4F51
:10119000D9011B969C91917121F0842F827409F0E2
:1011A00095C0142FF701628B809101029091020289
:1011B000A0910302B091040286879787A08BB18B20
:1011C000F601E050FC4F4489558960E070E0BA01B7
:1011D00055274427D70157964D935D936D937C9384
:1011E0005A97828D938DA0E0B0E0482B592B6A2B43
:1011F0007B2BD70157964D935D936D937C935A97B4
:10120000D9011B968C91887159F4848D958DA68D8A
:10121000B78DF701838B948BA58BB68B81E011C0C2
:10122000803109F053C097012D5E3F4FD7015B9687
:101230008D919C915C97F9DA882309F447C084E08A
:10124000F7018583812F8F70D70114968C931497A3
:10125000F70116821782108611861A961D921D922A
:101260001D921C921D9716FF33C015968C918130EC
:1012700069F511FF2BC0F701438954896589768987
:10128000452B462B472B09F45EC040E050E0BA01E5
:10129000C70134DB8823D1F0F7018788908CA18CBB
:1012A000B28CC38CD48C82E090E0A0E0B0E0F60178
:1012B00080839183A283B3839E012F5F3F4FB5014B
:1012C000A401C6010E945016811104C080E03BC0F9
:1012D00081E039C000E010E09801B501A401C60129
:1012E0000E94B015882391F389809A80AB80BC80DE
:1012F000D60157968C91803129F088EF9FEFAFEFA0
:10130000BFE004C088EF9FEFA0E0B0E08816990628
:10131000AA06BB0688F2D70157961D921D921D9210
:101320001C925A97F701138A148A158A168A8481A7
:1013300080688483C701D8DE882341F240E050E012
:10134000BA01C701DBDA0F900F900F900F90DF9179
:10135000CF911F910F91FF90EF90DF90CF90BF90B2
:10136000AF909F908F9008954F925F926F927F926F
:10137000AF92BF92CF92DF92EF92FF920F931F93A3
:10138000CF93DF93CDB7DEB72B970FB6F894DEBFC0
:101390000FBECDBF7C01CE0101966C01FC0190E235
:1013A0008BE08C0D91938E13FDCFDA0130E047E096
:1013B0009D91992339F19E3219F0E5E0F3E00AC0DE
:1013C0004A3009F46CC138E04AE0F2CF319689170F
:1013D00009F465C184918111F9CF431708F45FC105
:1013E0008FED890F8E3508F05AC181E0830FF60129
:1013F000E30FF11D3FE9390F3A3108F49052908321
:10140000382FD6CF8981803209F449C1B22E8B01A1
:10141000DB015B968D919C915C97F701948F838F94
:1014200016961D921D921D921C921997FB01128611
:10143000138614861586712CF80182859385A48500
:10144000B585438954896589768984179507A607E8
:10145000B70708F060C025E0B695A79597958795E2
:101460002A95D1F7F82FFF706F2ED80115968C9121
:10147000823008F414C1C801FDDC97FD10C1F801E9
:1014800082859385A485B5854F96A11DB11D828760
:101490009387A487B587F0E26F9EC0011124BC0139
:1014A00060507C4F6115710509F4F9C0DB012C9186
:1014B000222319F0253EC1F427C071100EC0F70198
:1014C000628A409101025091020260910302709180
:1014D000040246875787608B718BFC01E050FC4FFC
:1014E0008081811113C015C04BE050E0C6010E94FD
:1014F000BA29892B09F0A0CF8B2D8073803309F492
:10150000CEC04B2D662DC8C07720C9F277247394C6
:1015100093CF772473948B2D8271823109F0BFC0F1
:101520007720C9F0D7011E966D917D918D919C9188
:10153000519741E058DC882309F4B1C0F701628972
:10154000F0E26F9FB001112460507C4F611571056E
:1015500009F077C0A4C0D80115968C91823009F4A7
:101560009EC0C8015FD8882309F499C0D8015B9652
:10157000ED91FC915C9716964D905D906D907C90EE
:101580001997B2E04B1A510861087108058404C02C
:10159000440C551C661C771C0A94D2F786859785E7
:1015A000A089B189480E591E6A1E7B1EA480E1E005
:1015B0004E1A510861087108AA2001F1DBDB88236B
:1015C00009F46DC0E0E0F4E0119226E0E030F207AB
:1015D000D9F7D301C2018A0D911DA11DB11D8093C0
:1015E000010290930202A0930302B093040280913F
:1015F000F20381608093F203AA94DECFD8015B9658
:10160000ED91FC915C9780E092E0A0E0B0E0058471
:1016100004C0880F991FAA1FBB1F0A94D2F7F801B4
:101620004389548965897689840F951FA61FB71F42
:10163000838B948BA58BB68BD70152961C9260E05E
:1016400074E080E2FB0111928A95E9F78BE0F601E4
:10165000DB0101900D928A95E1F781E298E2DB01CE
:1016600051969C938E93509720E038E01F963C93C0
:101670002E931E9753969C938E93529759969C93B4
:101680008E93589757963C932E93569773DB8823E7
:1016900031F04B2DF7016289C70162DD01C080E0A6
:1016A0002B960FB6F894DEBF0FBECDBFDF91CF9162
:1016B0001F910F91FF90EF90DF90CF90BF90AF9070
:1016C0007F906F905F904F900895CF93DF93EC01E0
:1016D0000BDD882311F01D8281E0DF91CF91089509
:1016E000FC01818D928D009709F0FECC08952F9218
:1016F0003F924F925F926F927F928F929F92AF92A2
:10170000BF92CF92DF92EF92FF920F931F93CF93EE
:10171000DF9300D01F92CDB7DEB78C015B011A01B9
:10172000DC0115968C9115978130C1F414968C913B
:1017300081FF14C082FF1AC0F8014389548965896A
:10174000768982859385A485B58584179507A60734
:10175000B70761F0C801D2D8811108C081E090E0DC
:10176000F8019383828380E090E035C1610182C0FB
:10177000D8015B968D919C915C97FC01248121504E
:101780002A013B0139E076946794579447943A953F
:10179000D1F7722E74207A01F1E0FF22772009F44C
:1017A00075C080E092E08E199F0946018C159D0559
:1017B00008F44C01D8015B962D913C915C971696EC
:1017C0008D919D910D90BC91A02D0297A109B10919
:1017D000F901058404C0880F991FAA1FBB1F0A9432
:1017E000D2F74685578560897189840F951FA61F9A
:1017F000B71F9C01AD01270D311D411D511D290150
:101800003A01811432E0930609F087C08091010209
:1018100090910202A0910302B091040284159505F3
:10182000A605B70559F48FEF9FEFDC018093010205
:1018300090930202A0930302B09304029501B301B6
:10184000A201809100069091010635DA882309F4FF
:1018500085CF9EEFB91AC818D908F80182859385FB
:10186000A485B585880D991DA11DB11D828793871B
:10187000A487B587D8011A964D915D916D917C91A1
:101880001D97C114D10409F073CF85C0E114F10490
:1018900009F087CF16964D915D916D917C911997C6
:1018A000411551056105710559F457968D919D912A
:1018B0000D90BC91A02D0097A105B10541F521C067
:1018C0009E012F5F3F4F0E945016882309F44CCF92
:1018D00089819A81AB81BC81F801238D348DF90116
:1018E0002789203129F048EF5FEF6FEF7FE004C0D8
:1018F00048EF5FEF60E070E084179507A607B70731
:1019000030F0C8010E94120381114BCF27CFF8019C
:1019100086839783A087B18744CFE114F10421F532
:10192000D8011A964D915D916D917C911D975396BA
:101930008D919D910D90BC91A02D481759076A0774
:101940007B0790F017DA882309F408CF4092010250
:101950005092020260920302709204028091F2039C
:1019600081608093F20307C041E0C301B2013BDA1A
:10197000882309F4F3CED501F701E050FC4FCF01E5
:10198000880D991DE817F90719F02D912193FACFC9
:10199000A80CB91C60CF53968D919D910D90BC9170
:1019A000A02D84179507A607B70740F4F801438BCD
:1019B000548B658B768B848180688483D8011496E0
:1019C0008C9183FD02C0C10106C0C8018DDB882354
:1019D00009F4C4CEF8CF0F900F900F900F90DF91C5
:1019E000CF911F910F91FF90EF90DF90CF90BF901C
:1019F000AF909F908F907F906F905F904F903F90AF
:101A00002F900895CF93DF931F92CDB7DEB76983F0
:101A100041E050E0BE016F5F7F4F69DE0F90DF91C4
:101A2000CF910895CF93DF93EC01898D9A8D009724
:101A300039F481E090E09B838A8380E090E00AC0E3
:101A4000FC011382128253DEE98DFA8D22813381EB
:101A5000232B79F7DF91CF910895FC01DB011296DA
:101A60008D919C9113979383828380EA92E0918376
:101A7000808314968C911497848315968C91159776
:101A8000858316964D915D916D917C911997468352
:101A90005783608771871A964D915D916D917C9106
:101AA0001D9742875387648775871E964D915D9178
:101AB0006D917C91519746875787608B718B5296B9
:101AC0008C915297828B53964D915D916D917C9143
:101AD0005697438B548B658B768B57964D915D91C2
:101AE0006D917C915A97478B508F618F728F5B9667
:101AF0008D919C915C97948F838F0895EF92FF92C4
:101B00000F931F93CF93DF93EC017B018A011B821C
:101B10001A8288EE93E0A0E0B0E08C839D83AE83D0
:101B2000BF8380E792E0998388838DE190E00E94F3
:101B3000A5279A8F898F009779F02DE1F701DC01B5
:101B400001900D922A95E1F74CE050E0B801CE01EA
:101B50000C960E94EB29188EDF91CF911F910F9167
:101B6000FF90EF900895CF93CFB7F8948091F00352
:101B7000811123C0EEE7F3E08491E4ECF3E094916B
:101B8000E82FF0E0EE0FFF1FE15DFC4FA591B4914F
:101B9000EC91E92319F461E085E38ED485E30E949A
:101BA000C4198CB580618CBD8CB580648CBD84E318
:101BB0000E94C41983E30E94C4198091F0038F5FCF
:101BC0008093F003CFBFCF9108951F920F920FB66D
:101BD0000F9211240BB60F922F933F934F935F9365
:101BE0006F937F938F939F93AF93BF93EF93FF93E5
:101BF0008091B900887F803609F49CC068F58832EE
:101C000009F45BC090F4803109F454C038F488239F
:101C100009F4F6C0883009F44DC0F6C0883109F4E3
:101C20004CC0803209F45DC0EFC0803409F468C054
:101C300048F4803309F455C0883309F0E5C0809337
:101C4000CC03D8C0803509F44FC0883509F45DC095
:101C5000883409F0D9C0D6C0883909F4C7C0A8F4BF
:101C6000883709F467C038F4883609F463C08037D0
:101C700009F460C0C9C0883809F4B8C0803909F4D3
:101C80005FC0803809F0C0C05BC0803B09F486C0EB
:101C900038F4803A09F466C0883A09F47FC0B4C0C9
:101CA000803C09F4A7C0883C09F4A4C0883B09F42F
:101CB0008AC0AAC08091EF0310C09091EE0380917A
:101CC000ED03981770F5E091EE0381E08E0F80939D
:101CD000EE03F0E0E353FC4F80818093BB0085EC82
:101CE00086C08093CC038EC0E091EE0381E08E0F1E
:101CF0008093EE038091BB00F0E0E353FC4F8083C0
:101D00009091EE038091ED036EC0E091EE0381E0CF
:101D10008E0F8093EE038091BB00F0E0E353FC4F05
:101D2000808380915F0381116DC081E080935E03A9
:101D300084EA61C083E0809360031092CB03CFCF2D
:101D40008091CB03803208F051C0E091CB0381E059
:101D50008E0F8093CB038091BB00F0E0E555FC4FE4
:101D60008083BDCF85EC8093BC001092600380918E
:101D7000CB03803230F4E091CB03F0E0E555FC4F2B
:101D800010826091CB0370E0E0916503F0916603EF
:101D90008BEA93E019951092CB0336C084E08093D0
:101DA00060031092AA031092A903E0916703F091D7
:101DB000680319958091A903811105C081E0809382
:101DC000A90310928903E091AA0381E08E0F80930A
:101DD000AA03F0E0E757FC4F80818093BB0090910D
:101DE000AA038091A903981708F479CF85E8809316
:101DF000BC000AC085EC8093BC001092600304C054
:101E00001092CC030E945602FF91EF91BF91AF91C7
:101E10009F918F917F916F915F914F913F912F9102
:101E20000F900BBE0F900FBE0F901F901895FC01E6
:101E3000538D448D252F30E0842F90E0821B930B2F
:101E4000541710F0CF96089501970895FC01918DD5
:101E5000828D981761F0828DDF01A80FB11D5D960C
:101E60008C91928D9F5F9F73928F90E008958FEF7A
:101E70009FEF0895FC01918D828D981731F0828D2E
:101E8000E80FF11D858D90E008958FEF9FEF089585
:101E9000FC01918D228D892F90E0805C9F4F821BE9
:101EA00091098F739927089582E096E0F1DF21E090
:101EB000892B09F420E0822F0895FC01848DDF0135
:101EC000A80FB11DA35ABF4F2C91848D90E00196AD
:101ED0008F739927848FA689B7892C93A089B1899C
:101EE0008C9180648C93938D848D981306C00288A6
:101EF000F389E02D80818F7D80830895EF92FF929A
:101F00000F931F93CF93DF93EC0181E0888F9B8D1C
:101F10008C8D981305C0E889F989808185FD23C0DF
:101F2000F62E0B8D10E00F5F1F4F0F731127E02E61
:101F30008C8DE8120BC00FB607FCFACFE889F9893F
:101F4000808185FFF5CFCE01B8DFF2CF8B8DFE010A
:101F5000E80FF11DE35AFF4FF0820B8FEA89FB89EE
:101F60008081806207C0EE89FF896083E889F989F2
:101F700080818064808381E090E0DF91CF911F9128
:101F80000F91FF90EF900895CF93DF93EC01888D30
:101F90008823C1F0EA89FB89808185FD05C0A88975
:101FA000B9898C9186FD0EC00FB607FCF5CF8081F4
:101FB00085FFF2CFA889B9898C9185FFEDCFCE013D
:101FC0007CDFE8CFDF91CF91089580E090E0892B0E
:101FD00019F06ADF811125C080E090E0892B41F083
:101FE00080E090E0892B21F00E94000081111CC04C
:101FF00080E090E0892B41F080E090E0892B21F097
:102000000E940000811113C080E090E0892BA1F0B4
:1020100080E090E0892B81F00E94000081110AC0CD
:1020200008950E940000D8CF0E940000E1CF0E94D6
:102030000000EACF0C94000008953FB7F894809117
:10204000FC039091FD03A091FE03B091FF0326B520
:10205000A89B05C02F3F19F00196A11DB11D3FBFE0
:10206000BA2FA92F982F8827820F911DA11DB11D6E
:10207000BC01CD0142E0660F771F881F991F4A956A
:10208000D1F70895E091A20680915407E81748F42B
:10209000F0E0ED58F84FE081F0E0EB5AF84F908116
:1020A00001C090E09093AD06E091A306E81748F4D4
:1020B000F0E0ED58F84FE081F0E0EB5AF84F9081F6
:1020C00001C090E09093AE06E091A406E81748F4B2
:1020D000F0E0ED58F84FE081F0E0EB5AF84F9081D6
:1020E00001C090E09093AF06E091A506E81748F490
:1020F000F0E0ED58F84FE081F0E0EB5AF84F9081B6
:1021000001C090E09093B006E091A606E81748F46D
:10211000F0E0ED58F84FE081F0E0EB5AF84F908195
:1021200001C090E09093B106E091A706E81750F443
:10213000F0E0ED58F84FE081F0E0EB5AF84F2081E5
:10214000318102C020E030E03093B3062093B20624
:10215000E091AA06E81750F4F0E0ED58F84FE0815E
:10216000F0E0EB5AF84F8081918102C080E090E06E
:102170009093B5068093B406089505960895E0916E
:102180000B07F0910C07309709F019940895DC01C2
:10219000ED91FD91BD010190F081E02D40E0199598
:1021A00091E0811190E0892F08950E94B629EF9265
:1021B000FF920F931F93CF93DF93CDB7DEB7C15438
:1021C000D1090FB6F894DEBF0FBECDBF3091B60671
:1021D0002091B706E091A90680911307E81768F4EB
:1021E000F0E0EE5CF84F808190E08C53994FFC0159
:1021F000E05BFF4F308331962083109111078EE111
:10220000E4E1F7E0DE01169601900D928A95E1F780
:102210006091080781E698E00E94FE02612F81E646
:1022200098E00E94FE028E010A5F1F4F7E0184E249
:10223000E80EF11CF80161918F0181E698E00E949F
:10224000FE020E151F05B1F760E08091A8060E94FE
:10225000C51E60E08091AB060E94C51E60E08091C3
:10226000AC06CF5BDF4F0FB6F894DEBF0FBECDBF1D
:10227000DF91CF911F910F91FF90EF900C94C51EAD
:102280001F93CF93DF93CDB7DEB7A0970FB6F89427
:10229000DEBF0FBECDBF10E0909163038091640359
:1022A000981779F0103258F481E698E00E94CE0237
:1022B000E1E0F0E0EC0FFD1FE10FF11D80831F5FF7
:1022C000EBCF89816A816F3FE1F4FE013396A5E58A
:1022D000B7E09E012F5D3F4F91919D93E217F30769
:1022E000D9F7E0910D07F0910E07309731F1A096E4
:1022F0000FB6F894DEBF0FBECDBFDF91CF911F9117
:10230000199490911308691750F420911408309192
:10231000150891E4699F200D311D112402C020E0B1
:1023200030E0FE013396D90115962D5D3F4F919116
:102330009D93A217B307D9F7D4CFA0960FB6F89400
:10234000DEBF0FBECDBFDF91CF911F9108951F92C9
:102350000F920FB60F9211240BB60F922F933F934B
:102360004F935F936F937F938F939F93AF93BF939D
:10237000EF93FF9382E096E0A0DDFF91EF91BF9194
:10238000AF919F918F917F916F915F914F913F910D
:102390002F910F900BBE0F900FBE0F901F901895AE
:1023A0001F920F920FB60F9211240BB60F922F931C
:1023B0008F939F93EF93FF93E0911206F091130692
:1023C0008081E0911806F091190682FD12C090817B
:1023D00080911B068F5F8F7320911C06821751F02E
:1023E000E0911B06F0E0EE5FF94F958F80931B069E
:1023F00001C08081FF91EF919F918F912F910F905C
:102400000BBE0F900FBE0F901F90189590E0FC012F
:102410003197E231F10508F04EC08827EE58FF4FA2
:102420008F4F0C949D27809180008F7703C08091FF
:1024300080008F7D80938000089580918000877F49
:10244000F9CF84B58F7702C084B58F7D84BD0895A0
:102450008091B0008F7703C08091B0008F7D809312
:10246000B0000895809190008F7707C08091900010
:102470008F7D03C080919000877F809390000895A6
:102480008091A0008F7707C08091A0008F7D03C04E
:102490008091A000877F8093A00008958091200103
:1024A0008F7707C0809120018F7D03C0809120012C
:1024B000877F8093200108951F93CF93DF93282F68
:1024C00030E0F901EE5DFE4F8491F901E157FC4FD8
:1024D000D491F901E75BFC4FC491CC23C1F0162FD6
:1024E000811194DFEC2FF0E0EE0FFF1FEB5EFC4F4D
:1024F000A591B4918FB7F894111105C09C91ED2F5F
:10250000E095E92302C0EC91ED2BEC938FBFDF91B6
:10251000CF911F9108958F929F92AF92BF92CF92C9
:10252000DF92EF92FF926B017C0187DD4B015C0132
:10253000C114D104E104F104E9F07FDDDC01CB0139
:1025400088199909AA09BB09883E9340A105B105DC
:1025500078F321E0C21AD108E108F10888EE880E6C
:1025600083E0981EA11CB11CC114D104E104F10444
:1025700021F7DECFFF90EF90DF90CF90BF90AF902C
:102580009F908F9008952FB7F8946091F803709101
:10259000F9038091FA039091FB032FBF08951F92D6
:1025A0000F920FB60F9211242F933F938F939F9307
:1025B000AF93BF938091F8039091F903A091FA0330
:1025C000B091FB033091F70323E0230F2D3720F464
:1025D0000196A11DB11D05C026E8230F0296A11D7D
:1025E000B11D2093F7038093F8039093F903A09310
:1025F000FA03B093FB038091FC039091FD03A0913B
:10260000FE03B091FF030196A11DB11D8093FC0351
:102610009093FD03A093FE03B093FF03BF91AF918E
:102620009F918F913F912F910F900FBE0F901F9010
:102630001895FC018AE692E09183808312821382CE
:10264000148235968EE1DF011D928A95E9F708958F
:102650001F93CF93DF93EC01162F83E590E00E9448
:102660005B0560E08E8528DF812F80680E94200551
:1026700080E00E942005182F61E08E851DDF0E94FA
:102680001405812FDF91CF911F910895EF92FF9252
:102690001F93CF93DF931F92CDB7DEB77C01162F28
:1026A00083E590E049830E945B0560E0F701868541
:1026B00003DF812F0E9420054981842F0E9420057D
:1026C00061E0F7018685F8DE0F90DF91CF911F91D1
:1026D000FF90EF900C941405CF92DF92EF92FF924F
:1026E0000F931F93CF93DF93EC016B01142F7901AC
:1026F00040E062E0CBDF44E06AE0CE01C7DF40E8C3
:1027000064E1CE01C3DFA601612FCE01D1D343E046
:1027100062E0CE01BBDF08E813E16AE0CE0198DF9A
:1027200082FF10C040E062E0CE01B0DF64E4CE0181
:102730008FDFF701808362E4CE018ADFF7018183B6
:1027400080E004C00150110941F783E0DF91CF918F
:102750001F910F91FF90EF90DF90CF900895EF922F
:10276000FF921F93CF93DF931F92CDB7DEB77C010B
:10277000162F49836DDF498140954823612FC7019A
:102780000F90DF91CF911F91FF90EF907FCF8F92AD
:102790009F92AF92CF92EF92FF920F931F93CF939E
:1027A000DF9300D01F921F92CDB7DEB74C0182E0BD
:1027B0008D8340E064E2C40169DF40E066E2C40169
:1027C00065DF46E268E4C40161DF86E28C838D81C7
:1027D000823008F140E86CE1C401C1DF87E08B83FF
:1027E000A12CC12CCE0103967C018E010B5F1F4FE3
:1027F0009E012F5F3F4F41E0BE016C5F7F4FC401E0
:1028000091D381110BC08D81823039F481E09B819D
:10281000911104C008C084E001C081E091E08230E1
:1028200019F090E001C091E0892F0F900F900F9068
:102830000F900F90DF91CF911F910F91FF90EF902C
:10284000CF90AF909F908F9008952F923F924F928C
:102850005F926F927F928F929F92AF92BF92CF9230
:10286000DF92EF92FF920F931F93CF93DF93CDB739
:10287000DEB72D970FB6F894DEBF0FBECDBF413542
:1028800008F006C1342E3B014C0140E86CE167DFE3
:10289000BB24B39422E0B21691F033E0B316E1F01A
:1028A00041E0B412F9C083E989833320D1F081E09B
:1028B000F3019081953008F480E0D12C17C085E9B0
:1028C0008983332081F081E0F3019081983008F40E
:1028D00080E053E0D52E0AC087E9898346E0D42EF4
:1028E00004C0D12C02C033E0D32E80E0532DF8EF8A
:1028F000DF9E500D112457FD50E0882321F098E809
:102900009B8343E001C042E021E0952F977009F4DA
:1029100020E0952F959595959595290F21F488237D
:1029200011F1585F20C0811102C094E001C093E012
:10293000291708F4922F20E030E06D2D70E0E42F8D
:10294000E20FA1E0B0E0AC0FBD1FAE0FB11DF90169
:10295000E60FF71FE60DF71DE181EC932F5F3F4F68
:10296000291768F3DCCF23E0222E5032F4F020E761
:102970002A839C818B8189279D8189279E81892734
:102980008F839E01285F3F4F47E0BE016F5F7F4FFF
:10299000C4015D87A1DE5D858111C9C01B862A86C1
:1029A000CE0107962C0179E01EC0952F97709B876A
:1029B000252F25952595259582E0820F392FE0E179
:1029C0008E9F300D11243A8371E0911101C070E0A7
:1029D000780F44244394512C4C0E5D1E480E511C1C
:1029E00087E0821B8A87CB844C2D4295407F4C0D1B
:1029F0006AE1C4015D877C8749DEA12C9E01255FC9
:102A00003F4F79018E01065F1F4F92017C85472F52
:102A1000BE016F5F7F4FC40185D25D85823091F525
:102A20006CE1C40115DE5D8585FD34C08F7109F44C
:102A300080E2282F30E0452F550F550B42175307E2
:102A40005CF5582FC9010197877099272595259521
:102A5000259531E0320F21E0009709F420E0230FA3
:102A6000E1E0F0E0EC0FFD1FE20FF11D21E030E0AE
:102A700002C0220F331F8A95E2F7C9019081892B8A
:102A8000808373CF811153C0503244F450E26FCF32
:102A900086E04DC082E04BC085E049C08B8188381C
:102AA00009F042C033E023E080E090E06D2D70E05B
:102AB000FC01E60FF71FE60DF71D432F480FA1E0BD
:102AC000B0E0AC0FBD1FA40FB11D4C914183019626
:102AD000821770F38A85833019F58B85811120C0A8
:102AE0009E012D5F3F4F41E0B201C401F5DD811130
:102AF0001EC09B81F2018181981314C09C81828148
:102B0000981310C0808182FF02C0B394C3CEF3013A
:102B100083878B2D880FB80EB394B08280E007C0F6
:102B200081E005C087E003C032E024E0BDCF2D96F0
:102B30000FB6F894DEBF0FBECDBFDF91CF911F91CE
:102B40000F91FF90EF90DF90CF90BF90AF909F904C
:102B50008F907F906F905F904F903F902F9008954F
:102B60004F925F926F927F928F929F92AF92BF929D
:102B7000CF92DF92EF92FF920F931F93CF93DF9349
:102B8000EC016A017B0128013901423051056105E0
:102B9000710510F480E073C089859A85AB85BC858A
:102BA0000196A11DB11D84179507A607B70790F3DD
:102BB0008B889C88AD88BE888F89803129F4BB279B
:102BC000AF2D9E2D8D2D09C0DB01CA0147E0B695C2
:102BD000A795979587954A95D1F7880E991EAA1EB5
:102BE000BB1E8091010290910202A0910302B0915C
:102BF000040288169906AA06BB0679F48F898031EB
:102C0000A1F4DD24EE24FF24C601880F991FFC01E6
:102C1000E050FC4F5182408219C040E0C501B40130
:102C20000E94F3068111EACFB5CFE894C7F8DD24FE
:102C3000EE24FF24C601880F991F880F991FFC01FD
:102C4000E050FC4F40825182628273828091F20395
:102C500081608093F2038A89823080F08D819E8129
:102C6000AF81B885880E991EAA1EBB1E8092F30301
:102C70009092F403A092F503B092F60381E0DF9105
:102C8000CF911F910F91FF90EF90DF90CF90BF9069
:102C9000AF909F908F907F906F905F904F9008952E
:102CA0008F929F92AF92BF92CF92DF92EF92FF925C
:102CB0000F931F93CF93DF93FC0181859285A385AA
:102CC000B4850196A11DB11D84179507A607B70706
:102CD00010F480E05CC083899489A589B689C7898E
:102CE000C03129F4852E962EA72EBB2409C04A0197
:102CF0005B01C7E0B694A79497948794CA95D1F7DF
:102D0000E9016A017B018F01BC01CD01680D791DCC
:102D10008A1D9B1D8090010290900202A0900302E8
:102D2000B0900402681579058A059B0599F4F801AD
:102D300087898031A9F4B701A6015527662777272F
:102D4000440F551FFA01E050FC4F80819181A0E0B3
:102D5000B0E018C040E00E94F3068111E8CFB9CF7F
:102D6000B701A6014F77552766277727440F551FD0
:102D7000440F551FFA01E050FC4F80819181A281E0
:102D8000B381BF7088839983AA83BB8381E0DF917D
:102D9000CF911F910F91FF90EF90DF90CF90BF9058
:102DA000AF909F908F9008950895CF92DF92EF9209
:102DB000FF920F931F93CF93DF936C017A018B01E6
:102DC000C0E0D0E0CE15DF0589F0D8016D918D010E
:102DD000D601ED91FC910190F081E02DC60119958D
:102DE000892B11F47E0102C02196ECCFC701DF913F
:102DF000CF911F910F91FF90EF90DF90CF900895AA
:102E0000CF93DF93EC0188819981009711F00E94A4
:102E10003A28198218821D821C821B821A82DF9135
:102E2000CF9108950F931F93CF93DF93EC01888187
:102E30009981009729F02A813B812617370788F46A
:102E40008B016F5F7F4F0E94D228009761F09983BA
:102E500088831B830A832C813D81232B11F4FC0181
:102E6000108281E001C080E0DF91CF911F910F912E
:102E70000895EF92FF920F931F93CF93DF93EC018E
:102E80007B018A01BA01CEDF811103C0CE01B8DF18
:102E900007C01D830C83B701888199810E94E429B2
:102EA000CE01DF91CF911F910F91FF90EF90089588
:102EB000CF92DF92EF92FF920F931F93CF93DF9306
:102EC0001F921F92CDB7DEB78C01F62E83E590E0FE
:102ED00049835A830E945B0560E0F8018685ECDA3D
:102EE00082E10E9420054981E42EC42E5A81D52E0C
:102EF0008C2D8E198F1530F4F60181916F010E948F
:102F00002005F6CF61E0F8018685D6DA0F900F90A4
:102F1000DF91CF911F910F91FF90EF90DF90CF90B5
:102F20000C9414054F925F926F927F928F929F92B2
:102F3000AF92BF92CF92DF92EF92FF920F931F93C7
:102F4000CF93DF931F921F92CDB7DEB74C012B01B9
:102F5000D42E3901E114F10419F0F701408101C0C8
:102F600040E0B42EF0E1CF9EB00C112440E062E0CE
:102F7000C4018CDB4FE768E0C40188DB40E864E112
:102F8000C40184DBA2016D2DC40192DF4B2D6AE1E7
:102F9000C4017CDB4CE062E0C40178DB6AE1C4017F
:102FA00057DB482F40686AE1C40170DB80ED482E92
:102FB00087E0582E68E0C4014BDB982F907341F4F2
:102FC00080FD04C081E0481A5108A1F783E09AC04F
:102FD0006CE0C4013DDBD82E837109F092C061140E
:102FE000710409F455C00115110509F451C064E1DB
:102FF000C4012EDBB82EF80180818B1508F47BC04C
:10300000B082BB20D9F183E590E00E945B0560E0CF
:10301000F401868551DA82E90E942005CC20A1F0D6
:103020008FEF90E02C0101C0440CCA94EAF782E9CA
:103030000E94200584214094F30190814922842933
:103040008083CC24C39401C0C12CBA944C2C512C45
:10305000460C571CCB1438F482E90E942005F2017B
:103060008083C394F3CF80E00E942005F201808327
:1030700061E0F401868520DA0E94140568E1C4014C
:10308000E7DA8770E114F10421F0F701808301C0D1
:1030900080E0D3FC32C06114710489F1011511057F
:1030A00071F1AA2061F1F8014081413019F48430B6
:1030B00019F41FC0423010F487E024C08111FCCF06
:1030C00042509E012F5F3F4FB301C40105DB8111C8
:1030D00019C0F8018081680E711CF301329790814C
:1030E00089819813E9CF319690818A819813E4CF32
:1030F00006C08FEF07C084E005C082E003C080E017
:1031000001C081E00F900F90DF91CF911F910F913F
:10311000FF90EF90DF90CF90BF90AF909F908F90F7
:103120007F906F905F904F9008958F929F92AF9293
:10313000BF92CF92DF92EF92FF92CF93DF93C82F8F
:1031400088E198E09093010680930006CC2369F112
:10315000C53010F080E00DC140E060E070E0CB01D0
:103160000E94F3068823B1F320E1C29FC00111241D
:1031700080519C4FFC01E254FE4F20812F7751F784
:103180003C964081518162817381443651056105CD
:10319000710500F33497C080D180E280F380C114C0
:1031A000D104E104F10421F4D5CFC12CD12C760156
:1031B00040E0C701B6010E94F306882359F28091CE
:1031C0000B0490910C048115924021F6A0911004FB
:1031D000AA2309F4BFCF60910E0470910F0461150A
:1031E000710509F4B7CF20910D04222309F4B2CF61
:1031F000A09336082093280880E030E0E1E0F0E07A
:10320000C82FAF01082E02C0440F551F0A94E2F7E1
:103210002417350741F0982F8F5F983089F789E0A0
:103220008093310897CF8093310820911604309114
:1032300017042115310519F040E050E008C0209135
:1032400024043091250440912604509127042093B2
:10325000290830932A0840932B0850932C084601E4
:103260005701860E971EA11CB11C809237089092C0
:103270003808A0923908B0923A08E0911104F09110
:103280001204F0933D08E0933C08B0E00E948427CC
:10329000860E971EA81EB91E80923E0890923F0887
:1032A000A0924008B092410885E0EE0FFF1F8A957A
:1032B000E1F7E150FE4FEF2FFF27E6958E0E9F1EA0
:1032C000A11CB11C8092320890923308A09234085D
:1032D000B092350820911304309114042115310562
:1032E00021F0A90160E070E008C0409120045091F5
:1032F00021046091220470912304D701C60188192A
:103300009909AA09BB09840F951FA61FB71F04C0FE
:10331000B695A79597958795CA95D2F780932D086E
:1033200090932E08A0932F08B0933008853F2FE08C
:103330009207A105B10510F48CE018C0853F9F4F9E
:10334000A105B10510F480E111C080912C04909189
:103350002D04A0912E04B0912F0480933E089093E9
:103360003F08A0934008B093410880E280933B0857
:1033700081E0DF91CF91FF90EF90DF90CF90BF90F1
:10338000AF909F908F90089590E0FC01E157FC4F23
:103390002491FC01E75BFC4F8491882399F090E035
:1033A000880F991FFC01E15DFC4FA591B491FC01D0
:1033B000EB5EFC4F859194918FB7F894EC91E22BE2
:1033C000EC938FBF089590915307292F30E02E3151
:1033D0003105B4F481E0890F80935307809154073D
:1033E000E82FF0E0ED58F84F908391E0980F90931C
:1033F0005407891730F4F901EB5AF84F10820895F9
:103400008FEF089590911207292F30E02E3131056A
:10341000ACF481E0890F8093120780911307E82FA5
:10342000F0E0EE5CF84F908391E0980F90931307D3
:1034300060E0ABD480911307815008958FEF089519
:10344000CF93DF93FC0124813581232B71F0FB01A5
:10345000DC01CD91DC9160817181CE010E94FA295D
:10346000009719F08C1B9D0B02C08FEF9FEFDF912F
:10347000CF910895EF92FF920F931F93CF93DF9315
:10348000FC01248135816115710511F480E018C0BB
:1034900041155105A1F07B01EC018A01020F131FB8
:1034A000B801C0DC882391F3288139818C819D810A
:1034B000B701820F931F0E94E4291D830C8381E0D2
:1034C000DF91CF911F910F91FF90EF900895CF93CF
:1034D000DF93EC016115710559F0FB0101900020AB
:1034E000E9F73197AF01461B570BC4DF811102C0CA
:1034F000CE0186DCCE01DF91CF910895CF93DF938B
:10350000EC01FB014481558160817181B3DF811140
:1035100002C0CE0175DCCE01DF91CF910895FB0191
:103520004481558160817181A5CFCF93DF93EC01F8
:103530006115710551F0FB0101900020E9F7319709
:10354000AF01461B570B95DC01C05ADCCE01DF9161
:10355000CF910895CF93DF93EC01FB018617970776
:1035600051F0608171816115710521F044815581AF
:1035700080DC01C045DCCE01DF91CF9108950F932F
:103580001F93CF93DF938C01EB01FC01808191812C
:103590000097B1F0688179816115710579F04281F8
:1035A00053812C813D814217530740F00E94E4294A
:1035B0008C819D81F8019583848313C00E943A28F1
:1035C00088819981F801918380838A819B8193838B
:1035D00082838C819D8195838483198218821B82CA
:1035E0001A821D821C82DF91CF911F910F91089545
:1035F000FC01808191810C943A280F931F93CF9303
:10360000DF93CDB7DEB729970FB6F894DEBF0FBEB4
:10361000CDBF8C01862FF801118210821382128295
:103620001582148250E0BE016F5F7F4F90E00E94D0
:103630005127BE016F5F7F4FC80177DF29960FB614
:10364000F894DEBF0FBECDBFDF91CF911F910F91D8
:103650000895FC0111821082138212821582148255
:1036600079CFFC011182108213821282158214829A
:103670006115710549F0FB0101900020E9F73197D0
:10368000AF01461B570BF5CB08958F929F92AF92D7
:10369000BF92CF92DF92EF92FF920F931F93CF933F
:1036A000DF935C016B01E0909F06F12C47012FEF47
:1036B000821A920A2FE0289DC001299D900D1124A5
:1036C00002960E94A527EC01899299928C01075FCE
:1036D0001F4F88248394912C61E373E0C8010797FE
:1036E000C0DFF8013197108266E373E0C801B9DFEB
:1036F000F80197828682F1E0EF1AF108015F1F4F0F
:103700002FEFE216F20641F710E080919F0618179E
:1037100008F53FE0139F700111248090A00690905F
:10372000A1068E0C9F1CEC0EFD1EB401C70112DF1A
:10373000F4018681F7018683B401695F7F4FC70179
:10374000079608DFF40185859685F70196878587BA
:103750001F5FDBCFB5019E014FE0849F200D311D1F
:103760001124C901F7DE20919F06CE01EFE02E9FC4
:10377000800D911D1124FC012683B6010796EADE17
:103780002091A0063091A10621153105F9F0F9012B
:103790003297408151816FE0649FC001659F900D19
:1037A0001124820F931F2091A0063091A1068C0155
:1037B0000F5011092817390731F0089719DFC80190
:1037C00017DFC801F0CF02970E943A28D093A106D4
:1037D000C093A00680919F068F5F80939F06FFE0B5
:1037E0008F9FC00DD11D11242F978E81DF91CF9116
:1037F0001F910F91FF90EF90DF90CF90BF90AF900F
:103800009F908F900895BF92CF92DF92EF92FF9298
:103810000F931F93CF93DF937C016B018A01E90122
:103820002417350720F4812F8901C42FD82F61E494
:1038300073E0C70116DFD60114968D919C91159700
:1038400008171907C8F48C179D0708F4EC01D60176
:10385000ED91FC911197EC0FFD1FB08010824D91FE
:103860005C91BA01600F711FC7015FDED601ED9157
:10387000FC91EC0FFD1FB082C701DF91CF911F912A
:103880000F91FF90EF90DF90CF90BF900895DC01F3
:10389000ED91FC910280F381E02D42E050E06FE376
:1038A00073E019940F931F93CF93DF93EC01E8819A
:1038B000F981DB0114964D915C9115976D917C9186
:1038C0000280F381E02D19958C01CE01E0DF800F9D
:1038D000911FDF91CF911F910F9108950F931F9327
:1038E000CF93DF93CDB7DEB7E6970FB6F894DEBF80
:1038F0000FBECDBF8C01609173087091740843E1D5
:10390000CE014C965FD0EDA9FEA9309719F08581C4
:1039100081112FC064EF71E080E090E00E948B1273
:10392000609173087091740843E1CE0101964AD00A
:103930008B819C819F8F8E8F8D819E81AF81B88579
:1039400088A399A3AAA3BBA389859A85AB85BC85C7
:103950008CA39DA3AEA3BFA39DE0FE013D96DE0117
:10396000989601900D929A95E1F78A8D9B8D9EAB6A
:103970008DABEDA9FEA9309791F08581882379F070
:10398000B801CE014C968EDF8DA99EA9009749F013
:103990000E94650B8DA99EA90E943A2802C080E072
:1039A00001C081E0E6960FB6F894DEBF0FBECDBF32
:1039B000DF91CF911F910F91089541E050E06DE3A9
:1039C00073E058CD2F923F924F925F926F927F9209
:1039D0008F929F92AF92BF92CF92DF92EF92FF921F
:1039E0000F931F93CF93DF93CDB7DEB7C756D1099F
:1039F0000FB6F894DEBF0FBECDBF5C014B01A6969B
:103A00004FAFA6973E018EE1680E711C62E478E02C
:103A1000C3010E942D0D1C821B8280EA92E09A83D2
:103A200089831E8264018E010F5F1F4F23011801DD
:103A30006FE270E0C6010E94D029009709F442C0ED
:103A4000F60120812F3221F4FFEFCF1ADF0AF0CFE9
:103A50008C198D3008F08CE0E82EF12CA701B6010E
:103A6000CE01885A9F4F0E94EB29E8E5F0E0EC0F69
:103A7000FD1FEE0DFF1D1082C8010E94650BF801AD
:103A80008581882351F01EAE1DAE80EA92E09CAF86
:103A90008BAF21961FAE219721C021E0AE01485A7D
:103AA0005F4FB201C8010E94B409882361F3CE0CB4
:103AB000DF1CC2010E94650B942D852D2801092F62
:103AC000182FB6CFC60188199909A8969FAF8EAF57
:103AD000A897B201CE01CB960E942D0DA896EEAD0F
:103AE000FFADA8978E0E9F1EF4018081811109C041
:103AF000BE01655C7F4FC1010E942D0D44E553E07E
:103B00004BC019A218A280EA92E09F8F8E8F1BA251
:103B100021968FAD2197811113C0F5011382128276
:103B200088EE93E0A0E0B0E084839583A683B7831A
:103B300080E792E091838083128E118E148630C0CC
:103B40008250A6962FADA697A401823040F462E47D
:103B500078E0C3010E94B40981110DC0DECFBE011F
:103B6000655C7F4FC3010E94B4098823B1F2CE0186
:103B7000CB960E94650BA6968FADA697867039F0FE
:103B800049A95AA96BA97CA9C3010E947E04B3016B
:103B9000C1010E942D0DA401B101C5010E947E0D3D
:103BA000C501C959DF4F0FB6F894DEBF0FBECDBFB8
:103BB000DF91CF911F910F91FF90EF90DF90CF9009
:103BC000BF90AF909F908F907F906F905F904F903D
:103BD0003F902F9008950F931F93CF93DF93CDB70E
:103BE000DEB767970FB6F894DEBF0FBECDBF8C016E
:103BF00061E473E036DD8091B0068A3010F4C801CC
:103C0000DCDE4AE06091B006CE014296F6DCBE01F1
:103C10006E5E7F4FCE0101961CDD64E573E0CE0140
:103C2000019655DCBC01C8017ADCCE010196E0DCCE
:103C3000CE014296DDDC8091B1068A3010F4C801D5
:103C4000BCDE4AE06091B106CE014296D6DCBE01F0
:103C50006E5E7F4FCE010196FCDC64E573E0CE0121
:103C6000019635DCBC01C8015ADCCE010196C0DCEE
:103C7000CE014296BDDC8091B2069091B3061B8ABC
:103C80001A8A1D8A1C8A1F8A1E8A4AE0BE016F5F3B
:103C90007F4F0E945B27BE016F5F7F4FCE01429630
:103CA00044DCBE016E5E7F4FCE010196D2DC66E53C
:103CB00073E0CE0101960BDCBC01C80130DCCE0103
:103CC000019696DCCE01429693DC8091AD068A3057
:103CD00010F4C80172DE4AE06091AD06CE01429652
:103CE0008CDCBE016E5E7F4FCE010196B2DC68E5D2
:103CF00073E0CE010196EBDBBC01C80110DCCE0104
:103D0000019676DCCE01429673DC8091AE068A3055
:103D100010F4C80152DE4AE06091AE06CE01429630
:103D20006CDCBE016E5E7F4FCE01019692DC68E5D1
:103D300073E0CE010196CBDBBC01C801F0DBCE0104
:103D4000019656DCCE01429653DC8091AF068A3054
:103D500010F4C80132DE4AE06091AF06CE01019650
:103D60004CDCBE016F5F7F4FC801D9DBCE010196ED
:103D70003FDCC80167960FB6F894DEBF0FBECDBF1B
:103D8000DF91CF911F910F9108959091130789179B
:103D900058F4E82FF0E0EE5CF84FE081F0E0EC5EE4
:103DA000F84F608381E0089580E0089561E080919C
:103DB000AB06EBCF90919F06891760F42091A00687
:103DC0003091A106A9016FE0869F400D511D11247D
:103DD000CA01089580E090E008950F931F93CF9358
:103DE000DF938C01C0E0D0E0F801EC0FFD1F64917F
:103DF000662371F0E0910206F09103060190F081D4
:103E0000E02D82E096E01995892B11F02196ECCFF8
:103E100082E096E03CDD8C0F9D1FDF91CF911F91DA
:103E20000F910895CF93DF93CDB7DEB7EB970FB621
:103E3000F894DEBF0FBECDBF789484B5826084BD98
:103E400084B5816084BD85B5826085BD85B581609E
:103E500085BD80916E00816080936E00109281001C
:103E600080918100826080938100809181008160D7
:103E70008093810080918000816080938000809198
:103E8000B10084608093B1008091B0008160809324
:103E9000B0008091910082608093910080919100A8
:103EA0008160809391008091900081608093900068
:103EB0008091A10082608093A1008091A100816027
:103EC0008093A1008091A00081608093A0008091E8
:103ED0002101826080932101809121018160809382
:103EE00021018091200181608093200180917A00DE
:103EF000846080937A0080917A00826080937A0057
:103F000080917A00816080937A0080917A00806845
:103F100080937A001092C100E0911206F09113068E
:103F200082E08083E0910E06F0910F061082E0910E
:103F30001006F091110680E1808310921A06E0913C
:103F40001606F091170686E08083E0911406F09142
:103F50001506808180618083E0911406F09115063A
:103F6000808188608083E0911406F091150680813D
:103F700080688083E0911406F091150680818F7D22
:103F8000808345E050E068ED72E082E096E00E94B8
:103F9000D51682E096E07BDC8DE0F6D90E94B30D69
:103FA00080E190E0D2D78C018FE192E0D8011196A8
:103FB0009C938E9388E11E968C931E9787E11F96A3
:103FC0008C931093B9060093B80688E1DDD961E0BF
:103FD000F80186850E945C12D8011F968C918F3F54
:103FE00061F44FE062E0C8010E94461362E370E0B2
:103FF00080E090E00E948B1223C0C6D9F80127858B
:1040000030E0F901EE5DFE4F8491F901E157FC4F7C
:10401000E490F901E75BFC4FF490FF2009F4AEC295
:1040200081110E940612EF2DF0E0EE0FFF1FE85FF6
:10403000FE4FA591B491EC91EE2109F49FC2D1CF2E
:1040400062E0C8010E94281384FDFACF40E064E2D8
:10405000C8010E94461340E066E2C8010E94461370
:1040600046E268E4C8010E94461340E864E5C801DE
:104070000E94461349EA66E5C8010E94461343E0E0
:1040800068E5C8010E94461348EE6AE5C8010E942F
:10409000461340E46AE2C8010E9446134DE362E21F
:1040A000C8010E94461368E2C8010E942813982F95
:1040B0009370933031F0482F436068E2C8010E944A
:1040C00046138FEF8093BA068093BB068093BC069D
:1040D0008093BD068093BE068093BF0691E09093C7
:1040E000080722E430E130930E0720930D0727EDF7
:1040F00030E130930C0720930B0780935207809395
:1041000093078093110710920A071092090782E023
:104110008093BA0028E832E0309368032093670365
:1041200024E932E030936603209365031092640320
:104130001092630310926203109261031092600365
:1041400090935F0310925E0361E084E10E945C1231
:1041500061E085E10E945C128091B9008E7F8093BE
:10416000B9008091B9008D7F8093B90088E4809375
:10417000B80085E48093BC0080E491E190935D03F6
:1041800080935C038FEB90E190935B0380935A03E1
:1041900039D98093A80630911207832F90E08D3192
:1041A0009105D4F422E0230F2093120720911307E6
:1041B000E22FF0E0EE5CF84F308331E0320F3093C5
:1041C0001307231750F48C53994FFC01E05BFF4F0A
:1041D00010823196108201C02FEF2093A90612D9C8
:1041E0008093AB060FD98093AC06EDD88093A206DE
:1041F000EAD88093A306E7D88093A406E4D88093F6
:10420000A506E1D88093A60630915307832F90E04E
:104210008D319105D4F422E0230F20935307209190
:104220005407E22FF0E0ED58F84F308331E0320FC1
:1042300030935407231750F48C53994FFC01EF56D9
:10424000FF4F10823196108201C02FEF2093A706F6
:1042500030915307832F90E08D319105D4F422E003
:10426000230F2093530720915407E22FF0E0ED58DD
:10427000F84F308331E0320F30935407231750F456
:104280008C53994FFC01EF56FF4F108231961082EC
:1042900001C02FEF2093AA06109223081092210844
:1042A00010921E0810921D0886E180931C080E943F
:1042B000C3128B0180911C0867D861E080911C08B3
:1042C0000E945C120E94B30D82E580931608109242
:1042D000170880911608909117080E945B057AE0F4
:1042E000F72E8FEF0E942005FA94F110FACF0E946A
:1042F000140588E198E00E945E0520E030E0A90105
:1043000060E088E198E00E947305F82E809322080F
:1043100081E0F81649F00E94C312601B710B613DE9
:10432000774058F381E056C02AEA31E040E050E09F
:1043300068E088E198E00E94730582FF03C0F09274
:10434000230810C064E0F62E0E94270580932208FF
:10435000FA94F110F9CF8A3A11F082E03BC082E082
:104360008093230880912308823021F0C12CD12C26
:10437000760105C0C12CD12CE12C50E4F52E20E0B3
:1043800030E0A90167E388E198E00E947305A70186
:10439000960169E288E198E00E9473058093220803
:1043A000882349F00E94C312601B710B613D774066
:1043B00030F388E00FC080912308823001F520E0BF
:1043C00030E0A9016AE388E198E00E947305882340
:1043D00041F086E080931D0888E198E00E94150571
:1043E000C1C00E942705807C803C19F483E0809343
:1043F00023080E9427050E9427050E94270588E1BF
:1044000098E00E94150580E5809316081092170821
:1044100081E00E949518882329F08091470888231D
:1044200041F0A0C080E00E949518882309F49AC04A
:10443000F4CF80913B08803109F582E080934708F2
:104440001092590810925A0810925B0810925C085A
:1044500080913C0890913D08A0E0B0E045E0880FD5
:10446000991FAA1FBB1F4A95D1F7809355089093B7
:104470005608A0935708B09358081FC0803209F01F
:1044800071C083E08093470840913E0850913F08F7
:1044900060914008709141084093590850935A0820
:1044A00060935B0870935C0825E538E084E298E04F
:1044B0000E941504882309F455C084E298E0909383
:1044C0005E0880935D0881E080934608109248085A
:1044D0001092490810924A0810924B0810924C080A
:1044E00010924D0810924E0810924F0810925008EA
:1044F00010925108109252081092530810925408CA
:1045000085E092E06ADC60916D0870916E0841E090
:10451000CE01019657DA81EB91E05FDCEA8DFB8DED
:10452000309719F08581811108C086E791E055DC4C
:1045300061E08DE00E945C1220C061E473E0CE0176
:10454000C4968FD839EEE32E33E0F32ECE010196D8
:104550000E941F02892B09F43BC1B1E0EB1AF1085C
:10456000D1F436C180EF91E038DC82EC91E035DCAB
:1045700061E08DE00E945C12FFCFFFCF61E0D801C7
:104580001F968C910E945C1262E370E080E090E0E4
:104590000E948B125BCDCE0101960E944308182F1A
:1045A0008C8F1D8E41E050E0BE01645E7F4FCE01D6
:1045B000C4960E943A1A1B3349F66EED72E0CE01A2
:1045C0004C964FD8BE01645E7F4FCE01C4960E94C8
:1045D000201A8C0161E173E0CE01829642D8BE01BF
:1045E0006E5D7F4FCE01C4960E94201AAC014F5FD2
:1045F0005F4F9801BE016C5C7F4FCE018E9603D950
:10460000CE0182960E94F81ACE014C960E94F81AAA
:104610006EED72E0CE01829624D888AD99AD2EA1C0
:104620003FA18C01021B130B2115310539F10097B5
:1046300029F18217930710F10817190718F08C0158
:10464000015011098CA89DA8AAA0BBA0C401662492
:104650006A9477247A946401C00ED11EC816D906D4
:1046600080F0B501C7D6009761F0AC01481959092F
:104670000417150708F03A010196F0CF2FEF3FEF2E
:1046800001C0930160EE72E0CE0188962AAF3BAF85
:104690000E94311BBE01685D7F4FCE01C4960E940F
:1046A000201A2AAD3BADAC01BE016C5C7F4FCE0140
:1046B0004C96A9D8BE01645E7F4FCE01C4960E947D
:1046C000BF1ACE014C960E94F81ACE0188960E941D
:1046D000F81ACE0182960E94F81A6EED72E0CE01B1
:1046E0004C960E94311BBE01645E7F4FCE01C49682
:1046F0000E94201A8C0161E173E0CE0182960E9433
:10470000311BBE016E5D7F4FCE01C4960E94201A00
:10471000AC014F5F5F4F9801BE016C5C7F4FCE01D3
:10472000889671D8CE0182960E94F81ACE014C96D6
:104730000E94F81A62EE72E0CE014C960E94311B84
:10474000BE01625D7F4FCE014C960E947E1A6EEED6
:1047500072E00E94671ABE01685D7F4F0E947E1A58
:1047600062EF72E00E94671ABC0182E096E09AD87C
:10477000CE014C960E94F81ABE01685D7F4FCE01B3
:104780004C960E94291BBE01625D7F4FCE0182962E
:104790000E94291BBE01645E7F4FCE0182960E945B
:1047A000451BCE0182960E94F81ACE014C960E94BB
:1047B000F81A61E473E0CE01C4960E94951ACE0106
:1047C00088960E94F81ACE018E960E94F81ABECEE4
:1047D00088E691E002DB8A8D9B8D009739F00E947C
:1047E000650B8A8D9B8D46D41B8E1A8ECE01C49686
:1047F0000E94F81A61E08091AC06C7DA882483949D
:10480000912CDD24DA9490E1B92E20E5722E80916E
:10481000B8069091B906DC01ED91FC910280F3811C
:10482000E02D1995882309F45BC261E08091A80608
:10483000ACDA61E473E0CE0188960E94311B80916E
:10484000B8069091B906DC01ED91FC910480F581E8
:10485000E02D1995811107C061E473E0CE018E96B9
:104860000E94311BC5C00091B8061091B906D8014D
:104870001D96EC91EF77E13428F4F0E0EB5DFD4F0D
:10488000808101C080E08350833030F7F80183815C
:104890008093C00684818093C10685818093C2067F
:1048A00086818093C306C280EBE0F2E0DE011196C0
:1048B0008B2D01900D928A95E1F761E473E0CE01B2
:1048C00082960E94311B0D5F1F4F78018E2D801B39
:1048D0008C1508F04CC02701D7018D917D01829580
:1048E0008F70E1E0F0E0EC0FFD1FE80FF11D80811B
:1048F0001D8E1C8E1F8E1E8E19A218A28EA71FA69B
:10490000BE01625D7F4FCE014C960E94951ABE019A
:10491000645E7F4FCE0182960E948F1ACE014C9624
:104920000E94F81AF20180818F70E1E0F0E0EC0F54
:10493000FD1FE80FF11D80811D8E1C8E1F8E1E8EA7
:1049400019A218A28EA71FA6BE01625D7F4FCE01DD
:104950004C960E94951ABE01645E7F4FCE018296EE
:104960000E948F1ACE014C960E94F81AAFCFBE015A
:104970006E5D7F4FCE0188960E94BF1ACE0182964F
:104980000E94F81A4090B8065090B90679821A82AF
:104990009E012D5F3F4F42E0BE016F5F7F4FC2011E
:1049A0000E946C1381110FC0A12CC12CE12CF12CA1
:1049B00000E010E020E030E044E0BE016F5F7F4F98
:1049C000C2010E94921748E060E18091B806909180
:1049D000B9060E94AF131FA61EA619AA18AA1BAAE1
:1049E0001AAABE01685D7F4FCE018E960E94BF1A43
:1049F000CE0188960E94F81A8AA99BA9089709F007
:104A000068C1C0909F06EEA4FFA4A12CAC1409F4C9
:104A10006AC18A2DCFD98C01DC011B968D919C91A6
:104A20001C97089709F053C117968D919C91189780
:104A3000009709F463C1E114F10429F4DC012C911D
:104A4000822F90E002C0B701B6D4892B09F03FC194
:104A500061E173E0CE0101960E94311BB801CE01E5
:104A600001960E947E1A6EED72E00E94671AFC01A8
:104A7000448155816081718182E096E00E94D51663
:104A8000CE0101960E94F81A86EF92E0A6D98A2DEF
:104A900091D9DC0116961C9161E473E0CE018296F7
:104AA0000E94311B812F86D97C01FC01858596856A
:104AB000892B09F051C08091B4069091B5060197F9
:104AC00021F48AE992E089D9EFC096868586812F04
:104AD00071D98C01CE0101967ED864EF72E0CE01CF
:104AE0004C960E94311BBE016F5F7F4FCE014C96EA
:104AF0000E947E1A66EF72E00E94671AB8010E9457
:104B00007E1A6AEF72E00E94671ABC01CE0182969B
:104B10000E94AA1ACE014C960E94F81ACE01019664
:104B20000E94F81ABE016E5D7F4F82E096E00E94FF
:104B3000521CCE0182960E946E1C811103C084E833
:104B400092E04BD9D092000282E792E046D961E030
:104B50008091AC061AD9A9C0809100028F3F09F458
:104B600063C02091B4063091B5062130310569F05B
:104B70002230310531F0232B09F097C082E492E016
:104B800002C08AE592E029D990C014D92C01CE0147
:104B9000019621D864EF72E0CE014C960E94311B41
:104BA000BE016F5F7F4FCE014C960E947E1A66EF6A
:104BB00072E00E94671AB7010E947E1A68E073E0F3
:104BC0000E94671AB2010E947E1A63E173E00E949C
:104BD000671ABC01CE0182960E94AA1ACE014C9699
:104BE0000E94F81ACE0101960E94F81ABE016E5D6D
:104BF0007F4F82E096E00E94521CCE0182960E9476
:104C00006E1C811103C08CE292E0E7D8812FD2D8CC
:104C1000FC011686158680910002CCD8DC011E9618
:104C20009C928E921D973EC0CE0101960E94EB1D74
:104C300064EF72E0CE014C960E94311BBE016F5FA3
:104C40007F4FCE014C960E947E1A66EF72E00E9462
:104C5000671AB7010E947E1A64E273E00E94671A25
:104C6000BC01CE0182960E94AA1ACE014C960E94E7
:104C7000F81ACE0101960E94F81ABE016E5D7F4FB0
:104C800082E096E00E94521CCE0182960E946E1C29
:104C9000811103C086E192E0A0D8812F8BD8FC015E
:104CA000168615861093000281D8809100028F3FEE
:104CB00029F49092B7068092B60604C01092B70607
:104CC0001092B606CE0182960E94F81A05C0A394EF
:104CD0009DCE85EC92E081D8CE018E960E94F81A86
:104CE0000E94E50F94CD6EA57FA548E050E082E0DC
:104CF00096E00E94D51680EE92E0EDCFE114F1042B
:104D000009F4A6CEF701208130E088279927821B7D
:104D1000930B9BCE8DE698E00E94F81A83E798E00B
:104D20000E94F81A89E798E00C94F81ACF92DF9263
:104D3000EF92FF92CF93DF93E2E0F6E013821282CC
:104D400088EEC82E83E0D82EE12CF12CC482D582C7
:104D5000E682F78282E892E09183808385EC90E09E
:104D60009587848784EC90E09787868780EC90E035
:104D7000918B808B81EC90E0938B828B82EC90E026
:104D8000958B848B86EC90E0978B868B118E128EA0
:104D9000138E148E1092A1061092A006C1E0D0E0EE
:104DA000D093B706C093B60661E473E089E798E054
:104DB0000E94311B1092B9061092B80684EC96E05E
:104DC0000E94191310920507109207071092060708
:104DD00084E992E09093C5068093C4061092080778
:104DE000D0930A07C093090710920C0710920B0783
:104DF00010920E0710920D078FE097E00E94191392
:104E000080E597E00E94191381E997E00E94191349
:104E100082ED97E00E9419138AE992E09093D307FC
:104E20008093D2071092130810921508109214085C
:104E3000E6E1F8E080E580831182E8E1F8E01582A0
:104E400016821186138682E090E0A0E0B0E08487AD
:104E50009587A687B78713A215A614A680EA92E0C5
:104E600093A782A717A6E1E6F8E013821282C48214
:104E7000D582E682F7828CEA92E09183808362E4B5
:104E800073E083E798E00E94311B6AE473E08DE6EB
:104E900098E0DF91CF91FF90EF90DF90CF900C944E
:104EA000311B4532510518F4423008F004C0FB01B3
:104EB0001082CB010895BB27FB015527AA27880F35
:104EC000991FAA1FA41710F0A41B83955051B9F77E
:104ED000A05DAA3308F0A95DA193009779F7B111FD
:104EE000B1931192CB0100C0DC01FC01672F7191DD
:104EF0007723E1F7329704C07C916D9370836291C0
:104F0000AE17BF07C8F3089509D0A59F900DB49FB1
:104F1000900DA49F800D911D11240895A29FB001B2
:104F2000B39FC001A39F700D811D1124911DB29FDD
:104F3000700D811D1124911D0895EE0FFF1F881F14
:104F40008BBF0790F691E02D1994CF93DF938230B9
:104F5000910510F482E090E0E0918108F0918208E0
:104F600020E030E0C0E0D0E0309711F14081518185
:104F700048175907C0F04817590761F48281938197
:104F8000209719F09B838A832BC09093820880938B
:104F9000810826C02115310519F04217530718F46E
:104FA0009A01BE01DF01EF010280F381E02DDCCF29
:104FB0002115310509F1281B390B2430310590F4F6
:104FC00012968D919C9113976115710521F0FB014B
:104FD0009383828304C09093820880938108FD01AB
:104FE000329644C0FD01E20FF31F8193919322504A
:104FF00031092D933C933AC020917F08309180086D
:10500000232B41F42091070230910802309380084D
:1050100020937F0820910502309106022115310569
:1050200041F42DB73EB74091090250910A02241B6A
:10503000350BE0917F08F0918008E217F307A0F4A8
:105040002E1B3F0B2817390778F0AC014E5F5F4FDE
:105050002417350748F04E0F5F1F50938008409388
:105060007F088193919302C0E0E0F0E0CF01DF91EF
:10507000CF9108950F931F93CF93DF93009709F477
:105080008CC0FC013297138212820091810810912A
:1050900082080115110581F420813181820F931F4F
:1050A00020917F08309180082817390779F5F0930F
:1050B0008008E0937F0871C0D80140E050E0AE174F
:1050C000BF0750F412962D913C911397AD01211515
:1050D000310509F1D901F3CF9D01DA013383228330
:1050E00060817181860F971F8217930769F4EC0125
:1050F00028813981260F371F2E5F3F4F3183208350
:105100008A819B8193838283452B29F4F0938208C3
:10511000E093810842C01396FC93EE931297ED0141
:10512000499159919E01240F351FE217F30771F43D
:1051300080819181840F951F029611969C938E9386
:105140008281938113969C938E931297E0E0F0E016
:10515000D80112968D919C911397009719F0F80140
:105160008C01F6CF8D919C9198012E5F3F4F820F5D
:10517000931F20917F08309180082817390769F420
:10518000309729F4109282081092810802C013828D
:1051900012821093800800937F08DF91CF911F91B6
:1051A0000F9108956F927F928F929F92AF92BF92CC
:1051B000CF92DF92EF92FF920F931F93CF93DF93E3
:1051C000EC01009781F4CB01DF91CF911F910F91FA
:1051D000FF90EF90DF90CF90BF90AF909F908F9017
:1051E0007F906F90B2CEFC01E60FF71F9C0122501A
:1051F0003109E217F30708F4A8C0D9010D911C91F9
:10520000119706171707A8F00530110508F49BC081
:10521000C80104978617970708F495C00250110932
:10522000061B170B019311936D937C93CF0122DF23
:105230008AC05B01A01AB10A4C01800E911EA09198
:105240008108B091820840E050E0E12CF12C1097E9
:1052500009F44AC0A815B905D1F56D907C90119755
:10526000630182E0C80ED11CCA14DB0480F1A301E3
:105270004A195B096A0182E0C80ED11C1296BC90E3
:1052800012971396AC91B5E0CB16D10440F0B282E0
:10529000A38351834083D9016D937C930AC00E5F31
:1052A0001F4FC301800F911FF90191838083EB2D64
:1052B000FA2FE114F10431F0D7011396FC93EE9329
:1052C000129741C0F0938208E09381083CC08D9111
:1052D0009C9111974817590708F4AC017D0112966B
:1052E0000D90BC91A02DB3CF80917F089091800844
:1052F00088159905E1F446175707C8F4809105020F
:1053000090910602009741F48DB79EB74091090233
:1053100050910A02841B950BE817F907B0F4F0933B
:105320008008E0937F08F901718360830CC0CB0192
:105330000CDE7C01009749F0A801BE0128D0CE0107
:1053400099DEC70104C0CE0102C080E090E0DF9189
:10535000CF911F910F91FF90EF90DF90CF90BF9072
:10536000AF909F908F907F906F90089581E090E034
:10537000F8945AC0FB01DC0104C08D9101908019A2
:1053800021F441505040C8F7881B990B0895FB0148
:10539000DC0102C001900D9241505040D8F70895B1
:1053A000FC018191861721F08823D9F79927089568
:1053B0003197CF010895FB01DC018D910190801997
:1053C0000110D9F3990B0895FB01DC0101900D92B6
:1053D0000020E1F70895FB01DC014150504048F006
:1053E00001900D920020C9F701C01D92415050401C
:1053F000E0F70895FB0151915523A9F0BF01DC01AD
:105400004D9145174111E1F759F4CD01019000206C
:1054100049F04D9140154111C9F3FB014111EFCF06
:1054200081E090E00197089511E0CCEED1E000E03A
:1054300005C0802FFE0181DD2196011DCD3ED107E3
:0A54400080E00807B1F7F894FFCFF1
:10544A00FFFFFFFFFF000083088000303132333452
:10545A003536373839414243444546000000002575
:10546A0014C713C71006090000FF00000004030058
:10547A00000000000007070000000000000500000F
:10548A000000000000010000000000000000000011
:10549A000000000000000000000000000000000002
:1054AA0000000000000200000000BD100000000023
:1054BA004002120D0F03700B1F0243084C08000034
:1054CA0000007E0FD516170FC40F480F260F3A0F8C
:1054DA0000000000BD1000000000BD100000000028
:1054EA00020DD5160F030E0300000000FE02EA02A9
:1054FA000F03BE02E202CE02BF0200000000D51076
:10550A00D5160F030E03D510D510D51000000000D4
:10551A00D510D5160F030E0348454C4C4F003E00DC
:10552A002C00474F5420555345523A20220022203E
:10553A002C2022005B005D203C003E204C4F474758
:10554A004544204F55540A003E204B49434B45449D
:10555A00203C003E20414E44204C4F4747454420C2
:10556A00494E0A003E204C4F4747454420494E0ABF
:10557A00004E554C4C003030303030303030000D59
:10558A000A006C6F672E7478740075736572732ED7
:0A559A00747874002F002D003A0011
:00000001FF
