:1000000096C10000C5C10000C3C10000C1C100000D
:10001000BFC10000BDC10000BBC10000B9C10000EC
:10002000B7C10000B5C10000B3C10000B1C10000FC
:10003000AFC100000C945B0EABC10000A9C1000071
:10004000A7C10000A5C10000A3C10000A1C100001C
:100050009FC100009DC100009BC1000060C4000062
:1000600097C1000087C300005CC3000091C100007D
:100070008FC100008DC100008BC1000089C100004C
:1000800087C1000085C1000083C1000081C100005C
:100090007FC100007DC100007BC100008AC4000058
:1000A00077C1000075C1000073C1000071C100007C
:1000B0006FC100006DC100006BC1000069C100008C
:1000C00067C1000065C1000063C1000061C100009C
:1000D0005FC100005DC100005BC1000059C10000AC
:1000E00057C10000EA02ED02DC02E002E60224034E
:1000F000F102F502FB02FF02030309030D031103E2
:10010000240317031B031F03000020002300260005
:1001100029002C002F00320000010000030106011D
:10012000090100000A0B02090C0D0E080703040167
:1001300000000000000000000000000000000000BF
:10014000000000000000000000000000000012118C
:10015000100000000000000000000000000000008F
:100160000000000000000000000021002400270023
:100170002A002D00300033000101000004010701B6
:100180000A01535441525420434F4445004C4F43BD
:100190004B4544004C4F434B205357495443482050
:1001A0004445414354495641544544004C4F434B08
:1001B00020535749544348204143544956415445DC
:1001C000440053484F5254204C4F434B20535749FF
:1001D000544348204143544956415445442C2043FC
:1001E000414E4E4F54204348414E4745204C4F43CB
:1001F0004B2053544154450053484F5254204C4FC8
:10020000434B20425554544F4E2052454C45415388
:1002100045440053484F5254204C4F434B205357B2
:1002200049544348204143544956415445442C20A5
:1002300043414E4E4F54204348414E4745204C4F7A
:10024000434B2053544154450053484F5254204C83
:100250004F434B20425554544F4E20434C49434B3F
:1002600045440001021020200808102040102040C2
:10027000800201020108040201010204081020406A
:100280008080402010080402018004020180402088
:1002900010080402010804020101020408102040B1
:1002A0008001020408102040800000220025002860
:1002B000002B002E0031003400020100000501086F
:1002C000010B0105050505070508080808020202DB
:1002D000020A0A08080404040401010101010101E1
:1002E000010303030303030303040707070C0C0CB8
:1002F0000C0C0C0C0C020202020606060606060690
:10030000060B0B0B0B0B0B0B0B021F1C1F1E1F1ED8
:100310001F1F1E1F1E1F554E4C4F434B454400537D
:10032000484F5254204C4F434B454400B3141124C2
:100330001FBECFEFD1E2DEBFCDBF00E00CBF28E093
:10034000A0ECB2E001C01D92A431B207E1F712E0C7
:10035000A0E0B2E0EEE3F1E300E00BBF02C00790E3
:100360000D92A03CB107D9F711E0C7E9D1E000E058
:1003700006C021970109802FFE010E947016C63920
:10038000D10780E00807A9F70E94FA0E0C949D1887
:1003900037CEFC01538D448D252F30E0842F90E023
:1003A000821B930B541710F0CF9608950197089570
:1003B000FC01918D828D981761F0828DDF01A80F6D
:1003C000B11D5D968C91928D9F5F9F73928F90E08F
:1003D00008958FEF9FEF0895FC01918D828D9817FE
:1003E00031F0828DE80FF11D858D90E008958FEF3B
:1003F0009FEF0895FC01918D228D892F90E0805C04
:100400009F4F821B91098F739927089584E693E08B
:10041000F1DF21E0892B09F420E0822F0895FC010F
:10042000848DDF01A80FB11DA35ABF4F2C91848D7D
:1004300090E001968F739927848FA689B7892C93B2
:10044000A089B1898C9180648C93938D848D98134D
:1004500006C00288F389E02D80818F7D8083089516
:10046000EF92FF920F931F93CF93DF93EC0181E004
:10047000888F9B8D8C8D981305C0E889F9898081C0
:1004800085FD23C0F62E0B8D10E00F5F1F4F0F73FD
:100490001127E02E8C8DE8120BC00FB607FCFACFA7
:1004A000E889F989808185FFF5CFCE01B8DFF2CFE9
:1004B0008B8DFE01E80FF11DE35AFF4FF0820B8F89
:1004C000EA89FB898081806207C0EE89FF896083A9
:1004D000E889F98980818064808381E090E0DF9100
:1004E000CF911F910F91FF90EF900895CF93DF93DD
:1004F000EC01888D8823C1F0EA89FB89808185FD24
:1005000005C0A889B9898C9186FD0EC00FB607FC7D
:10051000F5CF808185FFF2CFA889B9898C9185FFBD
:10052000EDCFCE017CDFE8CFDF91CF91089580E061
:1005300090E0892B19F06ADF811125C080E090E0FE
:10054000892B41F080E090E0892B21F00E9400008F
:1005500081111CC080E090E0892B41F080E090E0A8
:10056000892B21F00E940000811113C080E090E0EF
:10057000892BA1F080E090E0892B81F00E9400009F
:1005800081110AC008950E940000D8CF0E94000087
:10059000E1CF0E940000EACF0C940000089590E0A3
:1005A000FC013197E231F10508F04EC08827EE5882
:1005B000FF4F8F4F0C947016809180008F7703C08F
:1005C000809180008F7D80938000089580918000CD
:1005D000877FF9CF84B58F7702C084B58F7D84BDC6
:1005E00008958091B0008F7703C08091B0008F7D17
:1005F0008093B0000895809190008F7707C080911C
:1006000090008F7D03C080919000877F8093900041
:1006100008958091A0008F7707C08091A0008F7D02
:1006200003C08091A000877F8093A00008958091EF
:1006300020018F7707C0809120018F7D03C08091BA
:100640002001877F80932001089585ED8093BC0071
:100650008091BC0084FDFCCF109209030895409165
:10066000E302262F30E0240F311D21323105DCF466
:10067000209109032430C9F4FC0180E090E0861742
:1006800058F43091E3022191DC01AF53BD4FA30F29
:10069000B11D2C930196F3CF8091E302680F609314
:1006A000E30280E0089581E0089582E008950895CE
:1006B0008FEF9FEF08958FEF9FEF08958091C00215
:1006C00090E09195819591090895CF93DF931F92C2
:1006D0001F92CDB7DEB7CB01642F49835A83BFDFAA
:1006E0004981842F5A81952F0F900F90DF91CF91E0
:1006F0000895CF93DF931F92CDB7DEB7698361E092
:10070000CE010196ACDF81E090E00F90DF91CF91B8
:100710000895089580E090E00895059608950E9458
:1007200089181F920F920FB60F9211240BB60F92D9
:100730002F933F934F935F936F937F938F939F93E9
:10074000AF93BF93EF93FF9384E693E068DEFF914E
:10075000EF91BF91AF919F918F917F916F915F9139
:100760004F913F912F910F900BBE0F900FBE0F90A6
:100770001F9018951F920F920FB60F9211240BB66F
:100780000F922F938F939F93EF93FF93E0917403B6
:10079000F09175038081E0917A03F0917B0382FDF3
:1007A00012C0908180917D038F5F8F7320917E03B3
:1007B000821751F0E0917D03F0E0EC59FC4F958FEA
:1007C00080937D0301C08081FF91EF919F918F9174
:1007D0002F910F900BBE0F900FBE0F901F9018958A
:1007E000CF93DF93282F30E0F901EE5DFE4F849127
:1007F000F901ED59FD4FD491F901ED53FD4FC4912D
:10080000CC2389F08111CBDEEC2FF0E0EE0FFF1F3F
:10081000E85FFE4FA591B491EC91ED2381E090E06B
:1008200021F480E002C080E090E0DF91CF91089554
:100830001F93CF93DF93282F30E0F901EE5DFE4F39
:100840008491F901ED59FD4FD491F901ED53FD4F1C
:10085000C491CC23C1F0162F8111A1DEEC2FF0E062
:10086000EE0FFF1FE755FD4FA591B4918FB7F89498
:10087000111105C09C91ED2FE095E92302C0EC9188
:10088000ED2BEC938FBFDF91CF911F910895CF9304
:10089000DF9390E0FC01ED59FD4F2491FC01ED53F5
:1008A000FD4F8491882361F190E0880F991FFC012E
:1008B000E859FE4FC591D491FC01E755FD4FA59134
:1008C000B491611109C09FB7F89488812095822363
:1008D0008883EC912E230BC0623061F49FB7F894AB
:1008E0003881822F809583238883EC912E2B2C9343
:1008F0009FBF06C08FB7F894E8812E2B28838FBF47
:10090000DF91CF9108952FB7F894609134037091DF
:10091000350380913603909137032FBF08951F92BE
:100920000F920FB60F9211242F933F938F939F93A3
:10093000AF93BF938091340390913503A091360318
:10094000B09137033091330323E0230F2D3720F488
:100950000196A11DB11D05C026E8230F0296A11D19
:10096000B11D209333038093340390933503A093F8
:100970003603B093370380912F0390913003A091F9
:100980003103B09132030196A11DB11D80932F0355
:1009900090933003A0933103B0933203BF91AF9192
:1009A0009F918F913F912F910F900FBE0F901F90AD
:1009B00018951F920F920FB60F9211240BB60F923B
:1009C0002F933F934F935F936F937F938F939F9357
:1009D000AF93BF93EF93FF938091B900887F8036E8
:1009E00009F49CC068F5883209F45BC090F480314A
:1009F00009F454C038F4882309F4F6C0883009F4A7
:100A00004DC0F5C0883109F44CC0803209F45DC096
:100A1000EEC0803409F468C048F4803309F455C04E
:100A2000883309F0E4C080930803D8C0803509F406
:100A30004FC0883509F45DC0883409F0D8C0D6C0ED
:100A4000883909F4C7C0A8F4883709F467C038F4B6
:100A5000883609F463C0803709F460C0C8C088389C
:100A600009F4B8C0803909F45FC0803809F0BFC00C
:100A70005BC0803B09F486C038F4803A09F466C054
:100A8000883A09F47FC0B3C0803C09F4A7C0883C11
:100A900009F4A4C0883B09F48AC0A9C080912E0340
:100AA00010C090912D0380912C03981770F5E09160
:100AB0002D0381E08E0F80932D03F0E0E45FFC4F67
:100AC00080818093BB0085EC86C0809308038EC034
:100AD000E0912D0381E08E0F80932D038091BB0068
:100AE000F0E0E45FFC4F808390912D0380912C0314
:100AF0006EC0E0912D0381E08E0F80932D038091D5
:100B0000BB00F0E0E45FFC4F808380910B03811118
:100B10006DC081E080930A0384EA61C083E0809322
:100B2000090310920703CFCF80910703803208F0AA
:100B300051C0E091070381E08E0F809307038091FD
:100B4000BB00F0E0E951FD4F8083BDCF85EC809381
:100B5000BC001092090380910703803230F4E091C9
:100B60000703F0E0E951FD4F10826091070370E048
:100B7000E091E502F091E60287EE92E0199510927D
:100B8000070335C084E0809309031092E4021092B9
:100B9000E302E091E102F091E20219958091E30213
:100BA000811105C081E08093E3021092C102E091BF
:100BB000E40281E08E0F8093E402F0E0EF53FD4FFA
:100BC00080818093BB009091E4028091E3029817AA
:100BD00008F479CF85E88093BC0009C085EC809348
:100BE000BC001092090303C0109208032EDDFF9190
:100BF000EF91BF91AF919F918F917F916F915F9195
:100C00004F913F912F910F900BBE0F900FBE0F9001
:100C10001F9018958EBD00000DB407FEFDCF8EB558
:100C20000895FC018BE092E091838083128213820D
:100C3000148235968EE1DF011D928A95E9F70895B9
:100C4000E82FF0E0DF0193E0AA0FBB1F9A95E1F7D0
:100C5000AF5FBB4FA60FB11DA25BBE4F4C9320E808
:100C600030E002C0359527956A95E2F7EF5FFB4FBC
:100C7000442319F09681292B03C0209596812923BE
:100C8000268396818F5F809306049093050447E046
:100C900050E067E572E084E693E09ED542E050E0E4
:100CA0006FE572E084E693E097C50F931F93CF93AF
:100CB000DF938C01C0E0D0E0F801EC0FFD1F6491E0
:100CC000662371F0E0916403F09165030190F08177
:100CD000E02D84E693E01995892B11F02196ECCF55
:100CE00042E050E06FE572E084E693E075D58C0F4A
:100CF0009D1FDF91CF911F910F910895CF93DF93A7
:100D00002898EBE0F1E080818E7F8083C1E0D4E021
:100D10008D8180DF8C817EDF80E07CDF289A2898BF
:100D20008D8178DF8C8176DF8B8174DF289ADF916B
:100D3000CF9108953F924F925F926F927F928F92E0
:100D40009F92AF92BF92CF92DF92EF92FF920F935A
:100D50001F93CF93DF9300D01F92CDB7DEB7C09023
:100D60009C06D0909D06E0909E06F0909F06CBDDFD
:100D70006C157D058E059F0548F4C5DD60939C06C6
:100D800070939D0680939E0690939F06BCDD009114
:100D90009C0610919D0620919E0630919F06AB0106
:100DA000BC01401B510B620B730B80919405909119
:100DB0009505A0919605B09197050A96A11DB11DC4
:100DC000481759076A077B0708F44BC39CDD6093FB
:100DD0009C0670939D0680939E0690939F0680913B
:100DE00099058111CFC2409094055090950560906F
:100DF000960570909705009192051091930580914A
:100E00000002803321F08F3F09F02BC304C0E9E0DA
:100E1000F3E03490EDC080E380930002E9E0F3E07A
:100E2000E491EF3F09F41DC3E23009F474C054F5B6
:100E3000EE2309F453C0E13009F0D9C010928000CC
:100E40001092810080918100886080938100809160
:100E50008100816080938100E3EFF2E0E491F0E0B3
:100E6000EE0FFF1FE755FD4F8591949190938406F7
:100E700080938306E3E9F2E0E491E0938206332471
:100E80003394B8C0E43009F48EC00CF468C0E53087
:100E900009F0ADC010922001109221018091210132
:100EA00088608093210180912101816080932101DC
:100EB000E3EFF2E0E491F0E0EE0FFF1FE755FD4FA6
:100EC0008591949190937B0680937A06E3E9F2E012
:100ED000E491E093790665E0362E8CC014BC15BC15
:100EE00084B5826084BD85B5816085BDE3EFF2E0A5
:100EF000E491F0E0EE0FFF1FE755FD4F85919491CF
:100F00009093870680938606E3E9F2E0E491E0930C
:100F10008506312C6FC01092B0001092B100809104
:100F2000B00082608093B0008091B10081608093B6
:100F3000B100E3EFF2E0E491F0E0EE0FFF1FE755C0
:100F4000FD4F8591949190935F0380935E03E3E955
:100F5000F2E0E491E0935D0392E0392E4BC01092F1
:100F60009000109291008091910088608093910090
:100F700080919100816080939100E3EFF2E0E49131
:100F8000F0E0EE0FFF1FE755FD4F85919491909390
:100F9000810680938006E3E9F2E0E491E0937F0626
:100FA000B3E03B2E27C01092A0001092A1008091C8
:100FB000A10088608093A1008091A100816080934E
:100FC000A100E3EFF2E0E491F0E0EE0FFF1FE75540
:100FD000FD4F8591949190937E0680937D06E3E981
:100FE000F2E0E491E0937C06E4E03E2E03C03E2E66
:100FF00037FC37C261E080E34ADC4801A12CB12C08
:10100000832D8D7F09F0BBC060E072E18AE790E03C
:10101000A50194010E94541629833A834B835C8373
:1010200069017A0121E0C21AD108E108F1088FEFC5
:10103000C816D104E104F10409F008F44CC060E4DE
:1010400072E48FE090E0A50194010E9454166901BA
:101050007A0191E0C91AD108E108F108E2E03E12F4
:1010600020C0FFEFCF16D104E104F10409F008F429
:10107000F6C160E970ED83E090E0A50194010E9463
:10108000541669017A0181E0C81AD108E108F10813
:101090009FEFC916D104E104F10409F0D0F583E013
:1010A00067C0EFEFCE16D104E104F104B1F0A8F06F
:1010B00068E478EE81E090E0A50194010E94541666
:1010C00069017A01F1E0CF1AD108E108F108332073
:1010D00009F4A3C199C181E001C082E03320A1F0ED
:1010E00047C089819A81AB81BC812AE0B595A795DB
:1010F000979587952A95D1F76C017D01F1E0CF1A7C
:10110000D108E108F10885E095B5987F892B85BD68
:10111000A6C068E478EE81E090E0A50194010E9409
:10112000541669017A0181E0C81AD108E108F10872
:101130009FEFC916D104E104F10409F008F433C1AA
:1011400064E274EF80E090E0A50194010E945416DF
:1011500069017A0181E0C81AD108E108F1089FEF1E
:10116000C916D104E104F10411F008F01EC185E0B4
:101170009091B100987F892B8093B10070C060E09E
:1011800072E18AE790E0A50194010E94541669017A
:101190007A01F1E0CF1AD108E108F108C114D104B5
:1011A00021E0E206F10488F068E478EE81E090E066
:1011B000A50194010E94541669017A0181E0C81AC0
:1011C000D108E108F10883E001C081E091E0391223
:1011D00010C090918100987F892B809381004114E9
:1011E00051046104710409F03FC02FEF3FEFA901E2
:1011F00071C0E3E03E120FC090919100987F892B5F
:1012000080939100411451046104710469F52FEF3A
:101210003FEFA90181C0F4E03F120FC09091A100FF
:10122000987F892B8093A1004114510461047104BB
:10123000D9F42FEF3FEFA90181C025E032120FC092
:1012400090912101987F892B8093210141145104B1
:101250006104710449F42FEF3FEFA90181C04114EB
:1012600051046104710471F0D801AA0FBB1FA301DE
:1012700092010E94191628EE33E040E050E00E94EF
:10128000321603C02FEF3FEFA90182E03816A1F11B
:10129000831534F0332079F091E03916D9F0E1C0AC
:1012A000E4E03E1609F44AC03E16B4F1F5E03F16FC
:1012B00009F456C0D6C0C7BC20939806309399064F
:1012C00040939A0650939B0680916E0082608093B3
:1012D0006E00C7C0D0928900C09288002093940607
:1012E00030939506409396065093970680916F0031
:1012F000826080936F00B5C0C092B30020936003FA
:1013000030936103409362035093630380917000B4
:10131000826080937000A5C0D0929900C09298001E
:101320002093900630939106409392065093930633
:101330008091710082608093710093C0D092A90067
:10134000C092A80020938C0630938D0640938E06A1
:1013500050938F068091720082608093720081C0EA
:10136000D0922901C09228012093880630938906E3
:1013700040938A0650938B0680917300826080931D
:1013800073006FC081E080939A056091980580E3B7
:101390004FDAB9DA60939B0570939C0580939D05A5
:1013A00090939E055EC084E0E3CE62E17AE780E040
:1013B00090E0A50194010E94541669017A01E1E0D0
:1013C000CE1AD108E108F108FFEFCF16D104E104ED
:1013D000F104C1F0B8F089819A81AB81BC814AE007
:1013E000B595A795979587954A95D1F76C017D019D
:1013F000E1E0CE1AD108E108F108332009F483CEE8
:1014000087E0B6CE86E06ACE2FEFC216D104E104A3
:10141000F10409F050F684E061CEEFEFCE16D1046E
:10142000E104F104D1F0C8F062E17AE780E090E0F5
:10143000A50194010E94541669017A0181E0C81A3D
:10144000D108E108F1089FEFC916D104E104F104C5
:1014500011F008F046CE84E057CE83E055CE82E00E
:1014600087CE0F900F900F900F90DF91CF911F912B
:101470000F91FF90EF90DF90CF90BF90AF909F9033
:101480008F907F906F905F904F903F900895CF9393
:10149000DF93FC01448155816081718184E693E092
:1014A0009BD1EC0142E050E06FE572E084E693E00E
:1014B00093D18C0F9D1FDF91CF9108952F923F9272
:1014C0004F925F926F927F928F929F92AF92BF9254
:1014D000CF92DF92EF92FF920F931F93CF93DF9300
:1014E000CDB7DEB76F970FB6F894DEBF0FBECDBF96
:1014F000E82EB62E042FA22E262E28E0829F200C46
:10150000112410E02BE080917806181708F04AC1EA
:10151000312CC12ED12C2C9DC0012D9D900D11245C
:10152000AC014F5F5B4F4A013A0157EF651A5DEF1F
:10153000750AF3018081381608F032C12401430C8A
:10154000511C36EF431A3DEF530AF20160814AE025
:10155000CE0149962F8F5AD24AE0632DCE01439691
:1015600055D24AE0612FCE010D9650D24AE0622D4D
:10157000CE0107964BD262E672E0CE0101968FD281
:10158000BE01695F7F4FCE0101962AD26DE672E0FF
:1015900010D2BE01635F7F4F23D268E472E009D2AC
:1015A000BE016D5E7F4F1CD26FE672E002D2BE01BB
:1015B000675E7F4F15D26BDFCE01019622D2CE013E
:1015C00007961FD2CE010D961CD2CE01439619D29A
:1015D000CE01499616D2F201F0802F8D2F10DEC079
:1015E0004AE0612FCE01499611D24AE06F2DCE011B
:1015F00043960CD24AE06B2DCE010D9607D24AE0FD
:101600006E2DCE01079602D266E472E0CE010196FD
:1016100046D2BE01695F7F4FCE010196E1D168E4F9
:1016200072E0C7D1BE01635F7F4FDAD163E772E03A
:10163000C0D1BE016D5E7F4FD3D16AE772E0B9D1F0
:10164000BE01675E7F4FCCD122DFCE010196D9D19A
:10165000CE010796D6D1CE010D96D3D1CE014396B9
:10166000D0D1CE014996CDD18E2D90E0EB2DF0E07A
:10167000DC0123E0AA0FBB1F2A95E1F7AE0FBF1FC5
:10168000A15BBA4FA11006C021E03C91311120E0CE
:101690002C9305C0013011F40C9301C01C928C01F5
:1016A00093E0000F111F9A95E1F7E00FF11F8F01F2
:1016B000015B1A4FF80140816B2D8E2DC1DA4AE093
:1016C000F8016081CE014396A1D14AE06B2DCE0195
:1016D0000D969CD14AE06E2DCE01079697D16DE80C
:1016E00072E0CE010196DBD1BE01695F7F4FCE0172
:1016F000019676D168E472E05CD1BE01635F7F4FF2
:101700006FD16BE972E055D1BE016D5E7F4F68D13C
:10171000BEDECE01019675D1CE01079672D1CE0103
:101720000D966FD1CE0143966CD1F8018081813046
:1017300011F081E038C0E12C2BE02C9DC0012D9DE3
:10174000900D1124AC014F5F5B4F6A018A01075F66
:101750001D4F88EFB82EF8018081E81650F7F6018A
:10176000EE0DF11DE65FFD4F80818F15A9F06081C0
:10177000862F8695869586958B9D600D112428E091
:10178000829FF0011124EF5FFB4FE60FF11DE25B3A
:10179000FE4F108240E054DAE394DDCF3394C9CE9B
:1017A0001F5FB1CE80E06F960FB6F894DEBF0FBE1C
:1017B000CDBFDF91CF911F910F91FF90EF90DF9000
:1017C000CF90BF90AF909F908F907F906F905F90E1
:1017D0004F903F902F900895CF92DF92EF92FF921B
:1017E0000F931F93CF93DF936C017A018B01C0E0BD
:1017F000D0E0CE15DF0589F0D8016D918D01D601BD
:10180000ED91FC910190F081E02DC6011995892B95
:1018100011F47E0102C02196ECCFC701DF91CF9178
:101820001F910F91FF90EF90DF90CF9008950F934D
:101830001F93CF93DF93EC0188819981009729F062
:101840002A813B812617370788F48B016F5F7F4F12
:101850000E94A517009761F0998388831B830A83F0
:101860002C813D81232B11F4FC01108281E001C009
:1018700080E0DF91CF911F910F910895EF92FF9239
:101880000F931F93CF93DF93FC0124813581611562
:10189000710511F480E018C041155105A1F07B01DC
:1018A000EC018A01020F131FB801C1DF882391F3F5
:1018B000288139818C819D81B701820F931F0E94FD
:1018C00096181D830C8381E0DF91CF911F910F91BA
:1018D000FF90EF900895CF93DF93EC018881998179
:1018E000009711F00E940D17198218821D821C8228
:1018F0001B821A82DF91CF9108951092FB051092FE
:10190000FA058FE193E0D1D90E9483046093E0054A
:101910007093E1058093E2059093E305089580912B
:10192000FC050E94F0032091FD0530E041E08217A4
:10193000930709F040E0842F0895EF92FF921F93E0
:10194000CF93DF9382E090E09093FB058093FA05BC
:1019500086E193E0AAD981E0E82E84E0F82E10E039
:10196000C0E0D0E0F701EC0FFD1FDF01A256BE4F33
:101970008C91813021F446856C2F812F61D921967D
:10198000C830D10579F71F5F88E0E80EF11C1830E8
:1019900039F70E9483046093E0057093E10580931A
:1019A000E2059093E305DF91CF911F91FF90EF90B7
:1019B0000895CF93DF93EC016115710559F0FB0198
:1019C00001900020E9F73197AF01461B570B56DF16
:1019D000811102C0CE017FDFCE01DF91CF9108954A
:1019E000CF93DF93EC01FB014481558160817181CC
:1019F00045DF811102C0CE016EDFCE01DF91CF91B4
:101A00000895FC01808191810C940D17CF92DF9293
:101A1000EF92FF920F931F93CF93DF93CDB7DEB773
:101A200029970FB6F894DEBF0FBECDBF8C01862F6D
:101A3000F80111821082138212821582148250E002
:101A40009E012F5F3F4F6901B90190E00E94E615AA
:101A5000F60101900020E9F731977F01EC18FD08AD
:101A6000B701C801E4DE811103C0C80134DF08C03A
:101A7000F801F582E482B601808191810E94961876
:101A800029960FB6F894DEBF0FBECDBFDF91CF9180
:101A90001F910F91FF90EF90DF90CF900895EF92FC
:101AA000FF920F931F93CF93DF93EC01198218825B
:101AB0001B821A821D821C826115710511F18B0136
:101AC000FB0101900020E9F731977F01E61AF70A40
:101AD000B701ADDE811108C0CE01DF91CF911F911A
:101AE0000F91FF90EF90F7CEFD82EC82B8018881D4
:101AF0009981DF91CF911F910F91FF90EF900C94FE
:101B00009618DF91CF911F910F91FF90EF9008955C
:101B1000CF92DF92EF92FF920F931F93CF93DF93B9
:101B2000CDB7DEB769970FB6F894DEBF0FBECDBF55
:101B3000F82EE62E942FC62ED12C88E0F89E800138
:101B40001124F601E00FF11FE156FA4F8081811157
:101B500038C08091DF05813021F4413009F092C016
:101B600004C081118FC041118DC080917806811110
:101B700020C0F601E00FF11FE15BFA4F61E08081C8
:101B8000811160E0F601E00FF11FE15BFA4F608325
:101B90004AE0CE0143963ADF4AE06E2DCE010D9623
:101BA00035DF4AE06F2DCE01079630DF6DE872E039
:101BB00045C020E0492F6E2D8F2D80DC81116CC037
:101BC000D8CF8091780681111AC0913001F5F601C5
:101BD000E00FF11FE15BFA4F90834AE061E0CE0134
:101BE000439614DF4AE06E2DCE010D960FDF4AE0DA
:101BF0006F2DCE0107960ADF61EA72E01FC021E077
:101C00008F2D998F5BDC998D811146C0DECFF60157
:101C1000E00FF11FE15BFA4F10824AE060E0CE0175
:101C20004396F4DE4AE06E2DCE010D96EFDE4AE0DB
:101C30006F2DCE010796EADE60EB72E0CE010196D1
:101C40002EDFBE01695F7F4FCE010196C9DE68E4D9
:101C500072E0AFDEBE01635F7F4FC2DE6BE972E010
:101C6000A8DEBE016D5E7F4FBBDE11DCCE010196AA
:101C7000C8DECE010796C5DECE010D96C2DECE01CE
:101C80004396BFDE0C0D1D1DF801E15BFA4F40814C
:101C90006E2D8F2D0E94200669960FB6F894DEBF38
:101CA0000FBECDBFDF91CF911F910F91FF90EF90AD
:101CB000DF90CF9008951F920F920FB60F921124CC
:101CC0000BB60F922F933F934F935F936F937F9336
:101CD0008F939F93AF93BF93EF93FF938091600394
:101CE00090916103A0916203B0916303892B8A2BC9
:101CF0008B2B59F180915D03E0915E03F0915F03BE
:101D00009081892780838091600390916103A091E5
:101D10006203B0916303181619061A061B060CF02D
:101D200056C08091600390916103A0916203B091CD
:101D300063030197A109B109809360039093610344
:101D4000A0936203B093630342C080910002E9E074
:101D5000F3E0E4919FEF90930002E230C9F050F479
:101D6000EE2399F0E13081F590916F009D7F909383
:101D70006F002AC0E43019F1E0F0E53029F59091C8
:101D800073009D7F909373001FC010926E001CC063
:101D9000909170009D7F9093700091E09093B000BF
:101DA0009091B100987F94609093B1001092B3002D
:101DB0000BC0909171009D7F9093710005C0909130
:101DC00072009D7F9093720060E00E941804FF9162
:101DD000EF91BF91AF919F918F917F916F915F91A3
:101DE0004F913F912F910F900BBE0F900FBE0F9010
:101DF0001F901895CF93DF93CDB7DEB764970FB6DA
:101E0000F894DEBF0FBECDBF789484B5826084BDE8
:101E100084B5816084BD85B5826085BD85B58160EE
:101E200085BD80916E00816080936E00109281006C
:101E30008091810082608093810080918100816027
:101E400080938100809180008160809380008091E8
:101E5000B10084608093B1008091B0008160809374
:101E6000B0008091910082608093910080919100F8
:101E700081608093910080919000816080939000B8
:101E80008091A10082608093A1008091A100816077
:101E90008093A1008091A00081608093A000809138
:101EA00021018260809321018091210181608093D2
:101EB00021018091200181608093200180917A002E
:101EC000846080937A0080917A00826080937A00A7
:101ED00080917A00816080937A0080917A00806896
:101EE00080937A001092C100E0917403F091750321
:101EF00082E08083E0917003F09171031082E091A1
:101F00007203F091730380E1808310927C03E0916F
:101F10007803F091790386E08083E0917603F09175
:101F20007703808180618083E0917603F09177036D
:101F3000808188608083E0917603F09177038081CF
:101F400080688083E0917603F091770380818F7DB4
:101F5000808380E4EFE0F4E0DF01082F1D920A9512
:101F6000E9F7EFE9F5E0DF01082F1D920A95E9F79F
:101F7000EFE4F5E0DF011D928A95E9F7109206047F
:101F8000109205041092040461E085E30E94470466
:101F900061E081E30E94470461E080E30E9447041E
:101FA0000E949A061FB7F89480913803811127C0C8
:101FB000E8EFF2E08491E8E9F2E09491E82FF0E0B4
:101FC000EE0FFF1FE859FE4FA591B491EC91E92364
:101FD00021F461E085E30E94180461E085E30E943A
:101FE00047048CB580618CBD8CB580648CBD61E08C
:101FF00084E30E94470461E083E30E9447048091E8
:1020000038038F5F809338031FBF81E58CBD1DBCF3
:102010001FE010930604109205040E947E068AE0D9
:1020200080930604109305040E947E068BE0809343
:10203000060487E0809305040E947E0689E0809371
:102040000604109205040E947E068CE0809306042C
:1020500081E0809305040E947E0621E034E048E0A0
:1020600080E090E0FC01E25BFE4FE20FF31F108284
:10207000019688309105B1F74150285F3F4F4111DB
:10208000EFCF57E0E52E54E0F52E10E0F701119266
:102090007F011F5F10930604109205040E947E06C4
:1020A0001830A1F782E891E00E9455068AE08093FB
:1020B00006048FE08093050481E080939905809366
:1020C000980521E034E048E080E090E0FC01E25631
:1020D000FE4FE20FF31F1082019688309105B1F791
:1020E0004150285F3F4F4111EFCF81E08093DF05E2
:1020F0009AE0909307068093080661E08AE00E94C8
:10210000470460E0809107060E9418048CE08093E9
:10211000000660E00E944704109201061092E80554
:1021200088E59BE1A0E0B0E080930306909304066D
:10213000A0930506B09306061092E9051092EA05F1
:102140001092EB051092EC058BE08093FC0560E0AB
:102150000E9447041092FD058DE08093020661E025
:102160000E94470460E0809102060E9418048824BF
:102170008394912C80913A03811107C0D0DB91E0C8
:1021800089278093390390933A03C9DB90913903EF
:102190008917F1F00E949A06C2DB80933903BFDBF6
:1021A000882359F08CEA91E00E9455068091FA0547
:1021B0009091FB05029761F4B8C384E991E00E9415
:1021C00055068091FA059091FB05029709F0C0C36E
:1021D0000E9483046B017C018091FA059091FB05BC
:1021E0008130910571F082309105A1F00097D1F412
:1021F0001092E7051092E6059092E5058092E405BD
:1022000011C09093E7058093E6059093E5058093D0
:10221000E40508C01092E7051092E6051092E50566
:102220001092E405892B79F54091E9055091EA0572
:102230006091EB057091EC058091F6059091F705A2
:10224000A091F805B091F905840F951FA61FB71F3F
:10225000C816D906EA06FB06B0F4AC01BD01405130
:102260005742610971094C155D056E057F0528F01F
:1022700080319742A105B10530F402E010E01093DF
:10228000E7050093E605809102068F3F79F02091E3
:10229000E4053091E5052115310529F0213031059E
:1022A00029F461E001C060E00E9418048091F1050A
:1022B0008F3F09F488C02091E6053091E705213071
:1022C000310541F02230310539F0232B09F07BC074
:1022D00060E077C061E075C080914703909148034A
:1022E000A0914903B0914A03C816D906EA06FB0635
:1022F00040F4C0924703D0924803E0924903F09221
:102300004A038091430390914403A0914503B09107
:102310004603C816D906EA06FB0640F4C0924303FA
:10232000D0924403E0924503F09246038091420329
:10233000811122C08091470390914803A0914903E5
:10234000B0914A03A7019601281B390B4A0B5B0B7E
:10235000DA01C901893E9340A105B10568F081E029
:1023600080934203C0924303D0924403E09245031A
:10237000F09246030E949A06809142038823E9F076
:102380008091430390914403A0914503B09146038B
:1023900097018601081B190B2A0B3B0B053611050B
:1023A0002105310550F010924203C0924703D092AC
:1023B0004803E0924903F0924A03609142038091FE
:1023C000F1050E941804809100068F3F09F4CDC0EA
:1023D0000E9483046B017C018091030690910406A6
:1023E000A0910506B09106060097A105B10589F1F7
:1023F0004091E0055091E1056091E2057091E3059F
:10240000C416D506E606F70640F4C092E005D09261
:10241000E105E092E205F092E3054091E00550917C
:10242000E1056091E2057091E30597018601041BC7
:10243000150B260B370B80179107A207B30748F43B
:102440008091FA059091FB05029719F40E949A0673
:1024500054DA809100060E94F0032091010630E0DA
:1024600082179307B1F5C0924C03D0924D03E092CE
:102470004E03F0924F0380914B0381112AC081E0FB
:1024800080934B0389E492E00E9455060E949A06CD
:102490000E9483046093E0057093E1058093E20558
:1024A0009093E3058091DF05813099F438DA81114A
:1024B0000CC08091FA059091FB05009721F00297DE
:1024C00041F41BDA06C039DA04C083E192E00E94CD
:1024D000550680914C0390914D03A0914E03B0910D
:1024E0004F03C816D906EA06FB0640F4C0924C0317
:1024F000D0924D03E0924E03F0924F0380914C0333
:1025000090914D03A0914E03B0914F03C81AD90A80
:10251000EA0AFB0A8091910590E0A0E0B0E08C15FA
:102520009D05AE05BF0508F580914B038130E9F4A8
:1025300010924B0388EF91E00E9455068091DF05D1
:10254000811113C0ECD981110CC08091FA059091D2
:10255000FB05009721F0029741F4CFD906C0EDD9D1
:1025600004C082EC91E00E945506809107068F3FDF
:10257000A1F090910806E92FE695E695E69597700B
:1025800018E0E19FF0011124EF5FFB4FE90FF11D0F
:10259000E25BFE4F60810E94180480915503811117
:1025A0000DC00E9483046093510370935203809383
:1025B00053039093540381E080935503C0905103DB
:1025C000D0905203E0905303F09054030E94830490
:1025D0006C157D058E059F0550F40E948304609361
:1025E00051037093520380935303909354030E94BA
:1025F00083040091510310915203209153033091B1
:102600005403DC01CB01801B910BA20BB30B04978D
:10261000A105B10508F486C10E94830460935103AB
:102620007093520380935303909354030E94830446
:102630002B013C0180919905813049F580919B05E2
:1026400090919C05A0919D05B0919E05B301A201BA
:10265000481B590B6A0B7B0B809194059091950553
:10266000A0919605B091970584179507A607B7071F
:1026700070F480919A05882351F061E0809198056B
:10268000811160E080E30E94180410929A05C40151
:1026900000908F0502C0880F991F0A94E2F780937B
:1026A00004040E947E06289A80910B018160809329
:1026B0000B0180E00E940A068093030480910B01C5
:1026C0008E7F80930B011092900520919005283009
:1026D00008F07FC0E22FF0E08091030490E002C098
:1026E000959587952A95E2F780FF6DC060918F05DB
:1026F00033E0EE0FFF1F3A95E1F7EF5FFB4FE60F78
:10270000F11D868581114BC04AE0CE010D967ED920
:102710004AE060919005CE01079678D96DE372E0AA
:10272000CE010196BCD9BE01695F7F4FCE010196F3
:1027300057D968E472E03DD9BE01635F7F4F50D93D
:102740006AE472E036D90E94470ACE01019659D94F
:10275000CE01079656D9CE010D9653D980915003DC
:102760008F5F809350030E949A0660918F0580913D
:1027700090052091FA053091FB052230310509F4CE
:10278000EAC080918F05E091900528E0E29FF0017A
:102790001124EF5FFB4FE80FF11D81E086878091E8
:1027A0008F05E091900538E0E39FF0011124E80FD8
:1027B000F11DEE0FFF1FEE0FFF1FE15BFB4F40828D
:1027C000518262827382809190058F5F8093900521
:1027D0007CCF8091500318160CF09AC08FE4C82E5D
:1027E00084E0D82E91E0A92E94E0B92E1B8A8601B0
:1027F000E12CF12C2E2DA801F80180819181A2817C
:10280000B381481659066A067B0620F4408251823D
:10281000628273820C5F1F4FFA0180819181A281D5
:10282000B381B301A201481B590B6A0B7B0B80914A
:10283000910590E0A0E0B0E084179507A607B707E0
:1028400008F052C015012E0C3F1CD1011E968C9130
:10285000813009F049C04AE0622FCE010D962C8BE1
:10286000D5D84AE06B89CE010796D0D86CE472E0E7
:10287000CE01019614D9BE01695F7F4FCE0101964A
:10288000AFD868E472E095D8BE01635F7F4FA8D8E7
:102890006AE472E08ED80E94470ACE010196B1D850
:1028A000CE010796AED8CE010D96ABD880915003DD
:1028B00081502C8987FD03C08093500302C0109281
:1028C00050038091FA059091FB05029709F446C0E8
:1028D000F10116860E9483046093E0057093E10580
:1028E0008093E2059093E305FFEFEF1AFF0A28E0DB
:1028F000E216F10409F07ECF3B893F5F3B8B48E055
:10290000A40EB11C50E2C50ED11C383009F06FCFB7
:1029100080918F058F5F883018F480938F0502C0F7
:1029200010928F050E94970225CC9092FB05809211
:10293000FA058DE891E00E9455060E948304609399
:10294000E0057093E1058093E2059093E30540CCA8
:102950000E949D0C3DCC41E0DBD813CF40E0622FBC
:102960008B89D6D8B5CFCF931092670310926603A8
:1029700088EE93E0A0E0B0E0809368039093690351
:10298000A0936A03B0936B0321E132E030936503B7
:102990002093640325EC30E030937103209370039F
:1029A00024EC30E0309373032093720320EC30E08A
:1029B000309375032093740321EC30E03093770358
:1029C0002093760322EC30E0309379032093780350
:1029D00026EC30E030937B0320937A0310927D0342
:1029E00010927E0310927F03109280031092A30630
:1029F0001092A2068093A4069093A506A093A60623
:102A0000B093A70683E292E09093A1068093A0067C
:102A10001092B1061092B0061092AF061092AC065A
:102A200081E0E82FF0E0E75FFC4FE491823009F4A9
:102A3000EF5F91E0980FE11102C0892FF2CF8093F0
:102A4000AD06C1E0C093AE061092B20661E085E328
:102A50000E94470460E085E30E94180461E081E37E
:102A60000E94470460E081E30E94180410928F05E1
:102A7000109290058BE4809391058CED94E09093F7
:102A80009305809392058EE190E0A0E0B0E0809302
:102A9000940590939505A0939605B0939705C093E0
:102AA0009805C093990510929A0510929B05109273
:102AB0009C0510929D0510929E05C093DF05109213
:102AC000E0051092E1051092E2051092E3051092E4
:102AD000E5051092E4051092E7051092E6051092C4
:102AE000E8058FEF8093F1051092F2051092F3053F
:102AF0001092F4051092F5051092F6051092F70564
:102B00001092F8051092F9051092FB051092FA0543
:102B10008093FC051092FD0521E030E03093FF0525
:102B20002093FE0580930006109201068093020612
:102B3000809307061092090680E090E0FC01E65FB2
:102B4000F94F10820B968E369105C1F710927806D8
:102B50008EEB96E00E9411061092FF06109201077C
:102B60001092000785E392E09093BF068093BE0623
:102B70001092020781E090E090930407809303078E
:102B80001092060710920507109208071092070787
:102B900089E097E00E9411068AE497E00E941106FE
:102BA0008BE897E00E9411068CEC97E00E941106DA
:102BB0008BE392E09093CD078093CC0710920D08A1
:102BC00010920F0810920E08CF91089545325105CA
:102BD00018F4423008F004C0FB011082CB010895C4
:102BE000BB27FB015527AA27880F991FAA1FA417E7
:102BF00010F0A41B83955051B9F7A05DAA3308F0DB
:102C0000A95DA193009779F7B111B1931192CB010E
:102C100000C0DC01FC01672F71917723E1F7329747
:102C200004C07C916D9370836291AE17BF07C8F3A7
:102C3000089509D0A59F900DB49F900DA49F800D7D
:102C4000911D11240895A29FB001B39FC001A39FBD
:102C5000700D811D1124911DB29F700D811D1124D5
:102C6000911D0895A1E21A2EAA1BBB1BFD010DC0E8
:102C7000AA1FBB1FEE1FFF1FA217B307E407F5072C
:102C800020F0A21BB30BE40BF50B661F771F881F08
:102C9000991F1A9469F760957095809590959B019E
:102CA000AC01BD01CF010895052E97FB16F40094E9
:102CB0000FD057FD05D0D6DF07FC02D046F408C080
:102CC00050954095309521953F4F4F4F5F4F089558
:102CD00090958095709561957F4F8F4F9F4F089588
:102CE000EE0FFF1F881F8BBF0790F691E02D199400
:102CF000CF93DF938230910510F482E090E0E09171
:102D00001208F091130820E030E0C0E0D0E03097E6
:102D100011F14081518148175907C0F048175907F0
:102D200061F482819381209719F09B838A832BC061
:102D3000909313088093120826C02115310519F0CD
:102D40004217530718F49A01BE01DF01EF01028018
:102D5000F381E02DDCCF2115310509F1281B390B5A
:102D60002430310590F412968D919C911397611542
:102D7000710521F0FB019383828304C090931308B3
:102D800080931208FD01329644C0FD01E20FF31F4B
:102D900081939193225031092D933C933AC0209115
:102DA000100830911108232B41F420910302309137
:102DB00004023093110820931008209101023091F1
:102DC00002022115310541F42DB73EB740910502AD
:102DD00050910602241B350BE0911008F091110868
:102DE000E217F307A0F42E1B3F0B2817390778F0E2
:102DF000AC014E5F5F4F2417350748F04E0F5F1F41
:102E000050931108409310088193919302C0E0E021
:102E1000F0E0CF01DF91CF9108950F931F93CF93EF
:102E2000DF93009709F48CC0FC0132971382128261
:102E300000911208109113080115110581F42081E9
:102E40003181820F931F20911008309111082817AB
:102E5000390779F5F0931108E093100871C0D80193
:102E600040E050E0AE17BF0750F412962D913C9110
:102E70001397AD012115310509F1D901F3CF9D015A
:102E8000DA013383228360817181860F971F821755
:102E9000930769F4EC0128813981260F371F2E5FD3
:102EA0003F4F318320838A819B8193838283452B8B
:102EB00029F4F0931308E093120842C01396FC9390
:102EC000EE931297ED01499159919E01240F351F00
:102ED000E217F30771F480819181840F951F0296A8
:102EE00011969C938E938281938113969C938E93DB
:102EF0001297E0E0F0E0D80112968D919C91139723
:102F0000009719F0F8018C01F6CF8D919C919801F2
:102F10002E5F3F4F820F931F2091100830911108B0
:102F20002817390769F4309729F410921308109282
:102F3000120802C013821282109311080093100825
:102F4000DF91CF911F910F9108956F927F928F9291
:102F50009F92AF92BF92CF92DF92EF92FF920F9328
:102F60001F93CF93DF93EC01009781F4CB01DF91A6
:102F7000CF911F910F91FF90EF90DF90CF90BF9076
:102F8000AF909F908F907F906F90B2CEFC01E60F34
:102F9000F71F9C0122503109E217F30708F4A8C07B
:102FA000D9010D911C91119706171707A8F005304C
:102FB000110508F49BC0C80104978617970708F409
:102FC00095C002501109061B170B019311936D93C5
:102FD0007C93CF0122DF8AC05B01A01AB10A4C01A9
:102FE000800E911EA0911208B091130840E050E0AD
:102FF000E12CF12C109709F44AC0A815B905D1F5B8
:103000006D907C901197630182E0C80ED11CCA14A8
:10301000DB0480F1A3014A195B096A0182E0C80E52
:10302000D11C1296BC9012971396AC91B5E0CB16BA
:10303000D10440F0B282A38351834083D9016D93C0
:103040007C930AC00E5F1F4FC301800F911FF901CF
:1030500091838083EB2DFA2FE114F10431F0D70135
:103060001396FC93EE93129741C0F0931308E093EC
:1030700012083CC08D919C9111974817590708F48C
:10308000AC017D0112960D90BC91A02DB3CF809123
:1030900010089091110888159905E1F44617570713
:1030A000C8F48091010290910202009741F48DB71B
:1030B0009EB74091050250910602841B950BE817BC
:1030C000F907B0F4F0931108E0931008F901718347
:1030D00060830CC0CB010CDE7C01009749F0A80195
:1030E000BE011BD0CE0199DEC70104C0CE0102C0D3
:1030F00080E090E0DF91CF911F910F91FF90EF90D2
:10310000DF90CF90BF90AF909F908F907F906F9007
:10311000089581E090E0F89410C0FB01DC0102C04A
:1031200001900D9241505040D8F70895FB01DC0109
:0E31300001900D920020E1F70895F894FFCF72
:10313E00FF000014088000000000008D0300000056
:10314E00003002EC0BC9017602FA01D801EC010045
:10315E00000000790365038A0357035E035B03587F
:10316E0003000000008D03000000008D03434C4956
:10317E00434B4544202028002C00290052454C4545
:10318E0041534544202800536574204C6564000D5E
:10319E000A005052455353494E473A200009002029
:1031AE003D200029203C3D3E20002042454C4F4E04
:1031BE00475320544F2047524F55502000544F47ED
:1031CE00474C4544204C454420280029202D3E20C4
:1031DE00005052455353494E47204C454420280039
:1031EE0052454C4541534544204C4544202800004F
:020000023000CC
:10E000000D9489F10D94B2F10D94B2F10D94B2F129
:10E010000D94B2F10D94B2F10D94B2F10D94B2F1F0
:10E020000D94B2F10D94B2F10D94B2F10D94B2F1E0
:10E030000D94B2F10D94B2F10D94B2F10D94B2F1D0
:10E040000D94B2F10D94B2F10D94B2F10D94B2F1C0
:10E050000D94B2F10D94B2F10D94B2F10D94B2F1B0
:10E060000D94B2F10D94B2F10D94B2F10D94B2F1A0
:10E070000D94B2F10D94B2F10D94B2F10D94B2F190
:10E080000D94B2F10D94B2F10D94B2F10D94B2F180
:10E090000D94B2F10D94B2F10D94B2F10D94B2F170
:10E0A0000D94B2F10D94B2F10D94B2F10D94B2F160
:10E0B0000D94B2F10D94B2F10D94B2F10D94B2F150
:10E0C0000D94B2F10D94B2F10D94B2F10D94B2F140
:10E0D0000D94B2F10D94B2F10D94B2F10D94B2F130
:10E0E0000D94B2F141546D656761323536300041AF
:10E0F000726475696E6F206578706C6F72657220DE
:10E1000073746B3530305632206279204D4C530099
:10E11000426F6F746C6F616465723E004875683F52
:10E1200000436F6D70696C6564206F6E203D200048
:10E130004350552054797065202020203D20005FF9
:10E140005F4156525F415243485F5F3D2000415658
:10E1500052204C696243205665723D20004743437C
:10E160002056657273696F6E203D20004350552024
:10E1700049442020202020203D20004C6F7720663D
:10E18000757365202020203D20004869676820665F
:10E190007573652020203D200045787420667573D6
:10E1A00065202020203D20004C6F636B2066757336
:10E1B000652020203D20004D617220203720323024
:10E1C000313300312E362E3800342E332E350056A2
:10E1D00023202020414444522020206F7020636F70
:10E1E00064652020202020696E73747275637469E1
:10E1F0006F6E2061646472202020496E74657272B3
:10E20000757074006E6F20766563746F7200726A49
:10E210006D702020006A6D70200057686174207056
:10E220006F72743A00506F7274206E6F7420737541
:10E2300070706F72746564004D7573742062652030
:10E2400061206C6574746572002000577269747483
:10E25000696E672045450052656164696E672045B7
:10E26000450045452065727220636E743D00504F35
:10E27000525400303D5A65726F2061646472003FF1
:10E280003D43505520737461747300403D454550C3
:10E29000524F4D207465737400423D426C696E6B41
:10E2A000204C454400453D44756D70204545505215
:10E2B0004F4D00463D44756D7020464C415348001B
:10E2C000483D48656C70004C3D4C69737420492F83
:10E2D0004F20506F72747300513D51756974005234
:10E2E0003D44756D702052414D00563D73686F7707
:10E2F00020696E7465727275707420566563746FF0
:10E30000727300593D506F727420626C696E6B00BD
:10E310002A0011241FBECFEFD1E2DEBFCDBF01E046
:10E320000CBF12E0A0E0B2E0EEE1FDEF03E00BBFB6
:10E3300002C007900D92A030B107D9F712E0A0E01B
:10E34000B2E001C01D92AE30B107E1F70F9460F367
:10E350000D948DFE01E20EBF0FEF0DBF11241FBE05
:10E360000D9460F30D9400F020E030E040ED57E0B4
:10E3700005C0FA013197F1F72F5F3F4F2817390792
:10E38000C0F308959C01260F311DC901A0E0B0E043
:10E390002F5F3F4FABBFFC018791882361F08093D3
:10E3A000C6008091C00086FFFCCF8091C0008064D1
:10E3B0008093C000EACF08958DE08093C6008091DD
:10E3C000C00086FFFCCF8091C00080648093C000B5
:10E3D0008AE08093C6008091C00086FFFCCF8091C8
:10E3E000C00080648093C00008950F94C2F10F9420
:10E3F000DCF10895FC019081992359F09093C600B7
:10E400008091C00086FFFCCF8091C0008064809323
:10E41000C0003196992379F70895282F982F929567
:10E420009F70892F805D8A3308F0895F8093C600D2
:10E430008091C00086FFFCCF8091C00080648093F3
:10E44000C000822F8F70982F905D9A3308F0995FEB
:10E450009093C6008091C00086FFFCCF8091C000E1
:10E4600080648093C00008959C01FB01853691056E
:10E470001CF46330710594F0C90164E670E00F94F8
:10E480002EFE605D7F4F6093C6008091C00086FFC6
:10E49000FCCF8091C00080648093C0002B30310598
:10E4A00014F43297B4F0C90164E670E00F942EFEC4
:10E4B0006AE070E00F942EFE605D7F4F6093C600AF
:10E4C0008091C00086FFFCCF8091C0008064809363
:10E4D000C000C9016AE070E00F942EFEC0968093E0
:10E4E000C6008091C00086FFFCCF8091C000806490
:10E4F0008093C00008951F93182F8EE692EE60E07F
:10E500000F94C2F11093C6008091C00086FFFCCF2B
:10E510008091C00080648093C0000F94DCF11F9153
:10E5200008952F923F924F925F926F927F928F92B7
:10E530009F92AF92BF92CF92DF92EF92FF920F9392
:10E540001F93DF93CF93CDB7DEB762970FB6F894E2
:10E55000DEBF0FBECDBF382E622ECA01DB015C01CB
:10E560006D01772420E2222E2E010894411C511CBB
:10E570008BC081E0A81680E0B80681E0C80680E084
:10E58000D80628F0C601AA27BB270F940DF2BB2797
:10E59000AD2D9C2D8B2D0F940DF28A2D0F940DF225
:10E5A0002092C6008091C00086FFFCCF8091C00001
:10E5B00080648093C0009DE29093C6008091C0006B
:10E5C00086FFFCCF8091C00080648093C0002092C1
:10E5D000C6008091C00086FFFCCF8091C00080649F
:10E5E0008093C00019828601750188249924A1E0D6
:10E5F0003A1651F03A1620F0B2E03B1661F409C029
:10E600000BBFF701779007C0C7010F9477FE782EF4
:10E6100002C0F7017080872D0F940DF22092C60082
:10E620008091C00086FFFCCF8091C0008064809301
:10E63000C000872D8052F401EF70F0708F3520F408
:10E64000E40DF51D708204C0E40DF51D8EE280839B
:10E650000894E11CF11C011D111D0894811C911CE2
:10E6600090E18916910409F0C2CF80E190E0A0E02A
:10E67000B0E0A80EB91ECA1EDB1E198AC2010F9493
:10E68000FAF10F94DCF16A94662009F072CF629679
:10E690000FB6F894DEBF0FBECDBFCF91DF911F91B3
:10E6A0000F91FF90EF90DF90CF90BF90AF909F9031
:10E6B0008F907F906F905F904F903F902F90089534
:10E6C0002F923F924F925F926F927F928F929F9282
:10E6D000AF92BF92CF92DF92EF92FF920F931F9370
:10E6E000DF93CF93CDB7DEB7CD53D1400FB6F894BB
:10E6F000DEBF0FBECDBF01E20EBF0FEF0DBF94B75F
:10E70000F894A89514BE80916000886180936000A1
:10E7100010926000789493FF05C0E0910002F091A0
:10E7200001021995279A2F9A8091C00082608093E8
:10E73000C00080E18093C40088E18093C1000000A4
:10E74000EE24FF24870144E0A42EB12CCC24DD2448
:10E7500024C0C5010197F1F70894E11CF11C011DCB
:10E76000111D21E2E2162EE4F20620E0020720E06D
:10E77000120718F031E0C32ED12CC801B70127ECE5
:10E780003BE140E050E00F9441FE611571058105C9
:10E79000910519F485B1805885B98091C00087FD35
:10E7A00003C0C114D104A9F2A6014F5F5F4FC25E3E
:10E7B000DE4F59834883CE51D140C25EDE4F8881FF
:10E7C0009981CE51D140019711F00D9410FEC05D9A
:10E7D000DE4F19821882C053D14060E0C15DDE4F28
:10E7E0001882CF52D14088249924C35DDE4F19820C
:10E7F0001882CD52D140C05EDE4F188219821A8233
:10E800001B82C052D140CE5CDE4F188219821A8220
:10E810001B82C253D140EE24FF2487010BBFF701B6
:10E8200007911691C45CDE4F19830883CC53D14005
:10E830000D940BFEC25EDE4F28813981CE51D1404E
:10E840002130310509F52091C600C25EDE4F1982E4
:10E850001882CE51D14022C02F5F3F4F4F4F5F4FA4
:10E86000213082E138078AE7480780E0580780F0C6
:10E87000C45CDE4FE881F981CC53D140EF5FFF4F9C
:10E8800019F0EE27FF27099420E030E040E050E047
:10E890008091C00087FFE0CF2091C600C35DDE4FAE
:10E8A00048815981CD52D1404F5F5F4FC35DDE4FEC
:10E8B00059834883CD52D140213209F063C64A3092
:10E8C000510508F05FC60894811C911C53E0851621
:10E8D000910409F059C600E010E018C081E280936D
:10E8E000C6008091C00086FFFCCF8091C00080648C
:10E8F0008093C0002F5F3F4F2931310579F70F9486
:10E90000DCF10F5F1F4F0530110519F020E030E0FA
:10E91000E5CF10920A0210920B0210920C02109294
:10E920000D02109206021092070210920802109235
:10E930000902109202021092030210920402109235
:10E9400005028FEE90EE60E00F94F5F180E191EE1C
:10E9500060E00F94C2F18091C00087FFFCCF9091DE
:10E96000C600903608F09F759032B8F09093C600BC
:10E970008091C00086FFFCCF8091C00080648093AE
:10E98000C000A0E2A093C6008091C00086FFFCCF2B
:10E990008091C00080648093C000983409F4D7C18E
:10E9A0009934B8F4923409F459C1933458F490333B
:10E9B00019F1903308F4E3C59F33A1F1903409F0C5
:10E9C000DEC5BDC0953409F470C1963409F0D7C5D1
:10E9D00098C1923509F42BC2933538F49C3409F46C
:10E9E000F5C1913509F0CBC518C2963509F445C279
:10E9F000993509F0C4C567C483E792EE62E00F94CD
:10EA0000F5F110920602109207021092080210927D
:10EA1000090210920A0210920B0210920C0210923C
:10EA20000D0213C18FE792EE62E00F94F5F18FEEC5
:10EA300090EE60E00F94F5F181E291EE60E00F94CA
:10EA4000C2F187EB91EE60E00F94F5F180E391EE77
:10EA500060E00F94C2F184EE90EE60E00F94F5F167
:10EA60008FE391EE60E00F94C2F186E090E061E008
:10EA700070E00F9434F20F94DCF18DE591EE60E0DC
:10EA80000F94C2F189EC91EE60E00F94F5F18EE401
:10EA900091EE60E00F94C2F183EC91EE60E00F9490
:10EAA000F5F18CE691EE60E00F94C2F18EE10F94E7
:10EAB0000DF288E90F940DF281E00F940DF20F949E
:10EAC000DCF18BE791EE60E00F94C2F119E0E0E039
:10EAD000F0E010935700E4918E2F0F940DF20F94F5
:10EAE000DCF18AE891EE60E00F94C2F1E3E0F0E03F
:10EAF00010935700E4918E2F0F940DF20F94DCF1D8
:10EB000089E991EE60E00F94C2F1E2E0F0E0109349
:10EB10005700E4918E2F0F940DF20F94DCF188EAE8
:10EB200091EE60E00F94C2F1E1E0F0E01093570045
:10EB30001491812F0F940DF20F94DCF107CF8BE825
:10EB400092EE62E00F94F5F18BE492EE60E00F94A8
:10EB5000F5F10F94DCF100E010E019C0C8016F2D51
:10EB60000F947FFEFF2031F489E492EE60E00F9471
:10EB7000C2F10BC0F092C6008091C00086FFFCCFAE
:10EB80008091C00080648093C0000F5F1F4FC80158
:10EB900081519F41A0E0B0E0ABBFFC01F790BAE229
:10EBA000FB1621F0E2E000301E07C1F60F94DCF105
:10EBB0000F94DCF187E592EE60E00F94F5F10F948D
:10EBC000DCF1CC24DD2400E010E01EC0C8010F946D
:10EBD00077FEF82E882331F489E492EE60E00F94FA
:10EBE000C2F10BC08093C6008091C00086FFFCCFAD
:10EBF0008091C00080648093C000FE1419F00894D6
:10EC0000C11CD11C0F5F1F4FC80181519F41A0E063
:10EC1000B0E0ABBFFC01E790FAE2EF1621F022E092
:10EC20000030120799F60F94DCF10F94DCF182E6C4
:10EC300092EE60E00F94C2F1C60161E070E00F94C3
:10EC400034F20F94DCF10F94DCF110920202109276
:10EC50000302109204021092050278CE89E992EE26
:10EC600062E00F94F5F1279A2F9A16C02F9880E052
:10EC700090E0E0EDF7E03197F1F7019684369105E9
:10EC8000C1F72F9A80E090E0E0EDF7E03197F1F7DF
:10EC9000019684369105C1F78091C00087FFE6CFC9
:10ECA0008091C00087FFFCCF64C485EA92EE62E0E9
:10ECB0000F94F5F140910202509103026091040219
:10ECC0007091050281E020E10F9491F2809102029F
:10ECD00090910302A0910402B091050280509F4FD1
:10ECE000AF4FBF4F8093020290930302A0930402A0
:10ECF000B093050280509041A040B04008F426CE69
:10ED0000A4CF83EB92EE62E00F94F5F140910602FE
:10ED100050910702609108027091090280E020E1A1
:10ED20000F9491F28091060290910702A09108023F
:10ED3000B091090280509F4FAF4FBF4F80930602A2
:10ED400090930702A0930802B0930902FFCD80ECD4
:10ED500092EE62E00F94F5F183E792EE60E00F949B
:10ED6000F5F18FE792EE60E00F94F5F18BE892EE0B
:10ED700060E00F94F5F189E992EE60E00F94F5F10F
:10ED800085EA92EE60E00F94F5F183EB92EE60E09D
:10ED90000F94F5F180EC92EE60E00F94F5F187ECC2
:10EDA00092EE60E00F94F5F188ED92EE60E00F9442
:10EDB000F5F18FED92EE60E00F94F5F18AEE92EEB0
:10EDC00060E00F94F5F183E093EEBDCD87EC92EE19
:10EDD00062E00F94F5F181E40F947BF282E40F94EA
:10EDE0007BF283E40F947BF284E40F947BF285E45E
:10EDF0000F947BF286E40F947BF287E40F947BF20E
:10EE000088E40F947BF28AE40F947BF28BE40F94F6
:10EE10007BF28CE40F947BF299CD88ED92EE62E068
:10EE20000F94F5F1772473948824992409C48FED05
:10EE300092EE62E00F94F5F140910A0250910B02BC
:10EE400060910C0270910D0282E020E10F9491F22A
:10EE500080910A0290910B02A0910C02B0910D02D8
:10EE600080509F4FAF4FBF4F80930A0290930B0289
:10EE7000A0930C02B0930D0269CD8AEE92EE62E08F
:10EE80000F94F5F184EE90EE60E00F94F5F18FECC5
:10EE900091EE60E00F94F5F1662477244301CC5D98
:10EEA000DE4F19821882C452D140D401C301B695F5
:10EEB000A79597958795CA5DDE4F88839983AA8326
:10EEC000BB83C652D140CC5DDE4FA881B981C4520C
:10EED000D1401196CC5DDE4FB983A883C452D14096
:10EEE000CD0162E070E00F9434F2B0E2B093C6005E
:10EEF0008091C00086FFFCCF8091C0008064809329
:10EF0000C000EDE2E093C6008091C00086FFFCCF18
:10EF10008091C00080648093C000F0E2F093C6004E
:10EF20008091C00086FFFCCF8091C00080648093F8
:10EF3000C000CA5DDE4FE880F9800A811B81C6529D
:10EF4000D140BB27A12F902F8F2D0F940DF2CA5DBA
:10EF5000DE4F8881C652D1400F940DF2B0E2FB2EF5
:10EF6000F092C6008091C00086FFFCCF8091C00067
:10EF700080648093C0000DE30093C6008091C000C0
:10EF800086FFFCCF8091C00080648093C00010E2B7
:10EF90001093C6008091C00086FFFCCF8091C00016
:10EFA00080648093C0008BBEF3012791C65DDE4F65
:10EFB0002883CA52D140A22EBB24CC24DD2408943D
:10EFC000611C711C811C911C8BBEF3018791282E42
:10EFD0003324442455240894611C711C811C911C09
:10EFE0008BBEF3013791C55DDE4F3883CB52D140E4
:10EFF0000894611C711C811C911C8BBEF30147910C
:10F00000C45DDE4F4883CC52D140ADEFEA2EAFEF66
:10F01000FA2EAFEF0A2FAFEF1A2F6E0C7F1C801E57
:10F02000911E142D032DF22CEE24EA0CFB1C0C1D5A
:10F030001D1D0F940DF220E22093C6008091C000A8
:10F0400086FFFCCF8091C00080648093C000C65DC5
:10F05000DE4F8881CA52D1400F940DF230E23093D6
:10F06000C6008091C00086FFFCCF8091C000806404
:10F070008093C000C45DDE4F8881CC52D1400F9494
:10F080000DF240E24093C6008091C00086FFFCCFA5
:10F090008091C00080648093C000C55DDE4F888190
:10F0A000CB52D1400F940DF250E25093C6008091A4
:10F0B000C00086FFFCCF8091C00080648093C000B8
:10F0C0008FEFE8168FEFF80680E0080780E018075A
:10F0D00031F484E092EE60E00F94C2F1DFC0D80119
:10F0E000C7018070907CA070B0708050904CA040A0
:10F0F000B040D1F52FEF3FE340E050E0E222F322B1
:10F1000004231523CA5DDE4FA880B980CA80DB8046
:10F11000C652D140AE0CBF1CC01ED11EAA0CBB1CD7
:10F12000CC1CDD1C8EE092EE60E00F94C2F1BB2798
:10F13000A12F902F8F2D0F940DF28E2D0F940DF285
:10F1400030E23093C6008091C00086FFFCCF8091F2
:10F15000C00080648093C0004EE34093C60080915D
:10F16000C00086FFFCCF87C08EE09EEFA0E0B0E03D
:10F17000E822F9220A231B239CE0E91694E9F90608
:10F1800090E0090790E0190709F088C0C45DDE4FE0
:10F19000A881CC52D140EA2EFF2400E010E0102FCD
:10F1A0000F2DFE2CEE24C55DDE4FB881CB52D14031
:10F1B000EB0EF11C011D111DD601C501817090706F
:10F1C000A070B070DC0199278827E80EF91E0A1F8D
:10F1D0001B1F20EF30E040E050E0A222B322C42207
:10F1E000D52241E1AA0CBB1CCC1CDD1C4A95D1F7F1
:10F1F000EA0CFB1C0C1D1D1D81E090E0A0E0B0E0BE
:10F20000282239224A225B2235E1220C331C441C7D
:10F21000551C3A95D1F7E20CF31C041D151D57013E
:10F220006801AA0CBB1CCC1CDD1C85E192EE60E0E1
:10F230000F94C2F1C801AA27BB270F940DF2BB2778
:10F24000A12F902F8F2D0F940DF28E2D0F940DF274
:10F2500090E29093C6008091C00086FFFCCF809121
:10F26000C00080648093C000AEE3A093C60080918C
:10F27000C00086FFFCCF8091C00080648093C000F6
:10F28000C601AA27BB270F940DF2BB27AD2D9C2DDD
:10F290008B2D0F940DF28A2D0F940DF20F94DCF14B
:10F2A000CC5DDE4FE881F981C452D140F99709F471
:10F2B0004DCBF4E0EF2EF12C012D112D6E0C7F1CA7
:10F2C000801E911EF2CD83E093EE62E00F94F5F183
:10F2D0008AE192EE60E00F94C2F18091C00087FF56
:10F2E000FCCF1091C6001F751093C6008091C0001E
:10F2F00086FFFCCF8091C00080648093C0000F9493
:10F30000DCF1812F81548A3108F036C1163409F4BA
:10F3100095C0173490F4133409F44EC0143430F40B
:10F320001134F1F0123409F01DC130C0143409F465
:10F3300059C0153409F016C16BC01A3409F4C4C0A1
:10F340001B3438F4173409F48FC0183409F00AC19B
:10F35000A1C01B3409F4D2C01C3409F003C1E8C0B9
:10F360008FEF81B90DC082B1809582B980E090E0C5
:10F37000E0EDF7E03197F1F70196883C9105C1F790
:10F380008091C00087FFEFCF12B8EFC08FEF84B934
:10F390000DC085B1809585B980E090E0E0EDF7E0A3
:10F3A0003197F1F70196883C9105C1F78091C00033
:10F3B00087FFEFCF15B8D9C08FEF87B90DC088B1DF
:10F3C000809588B980E090E0E0EDF7E03197F1F7C3
:10F3D0000196883C9105C1F78091C00087FFEFCF6F
:10F3E00018B8C3C08FEF8AB90DC08BB180958BB9A7
:10F3F00080E090E0E0EDF7E03197F1F70196883C8E
:10F400009105C1F78091C00087FFEFCF1BB8ADC059
:10F410008FEF8DB90DC08EB180958EB980E090E0F0
:10F42000E0EDF7E03197F1F70196883C9105C1F7DF
:10F430008091C00087FFEFCF1EB897C08FEF80BBD1
:10F440000DC081B3809581BB80E090E0E0EDF7E0F6
:10F450003197F1F70196883C9105C1F78091C00082
:10F4600087FFEFCF11BA81C08FEF83BB0DC084B38C
:10F47000809584BB80E090E0E0EDF7E03197F1F714
:10F480000196883C9105C1F78091C00087FFEFCFBE
:10F4900014BA6BC08FEF809301010FC080910201FD
:10F4A00080958093020180E090E0E0EDF7E03197F5
:10F4B000F1F70196883C9105C1F78091C00087FF64
:10F4C000EDCF1092020151C08FEF809304010FC065
:10F4D0008091050180958093050180E090E0E0ED4A
:10F4E000F7E03197F1F70196883C9105C1F78091DB
:10F4F000C00087FFEDCF1092050137C08FEF8093DA
:10F5000007010FC08091080180958093080180E079
:10F5100090E0E0EDF7E03197F1F70196883C910536
:10F52000C1F78091C00087FFEDCF109208011DC088
:10F530008FEF80930A010FC080910B01809580931B
:10F540000B0180E090E0E0EDF7E03197F1F70196F4
:10F55000883C9105C1F78091C00087FFEDCF1092E4
:10F560000B0103C085E292EEEEC98091C00087FFD7
:10F57000FCCF8091C600EAC988E392EEE4C98CE131
:10F5800091EEE1C988249924933011F1943028F444
:10F59000913089F09230B8F408C0953061F195301F
:10F5A000F0F0963009F048C043C02B3109F042C951
:10F5B00091E06BE13FC96227C15DDE4F2883CF52E6
:10F5C000D14092E037C9B22FA0E0622793E032C960
:10F5D000822F90E0A82BB92B622794E02BC92E3004
:10F5E00009F039C3622795E0C05DDE4F19821882A9
:10F5F000C053D1401FC9E1E0F0E0EC0FFD1FC05D3A
:10F60000DE4F08811981C053D140E00FF11F2083E4
:10F610000F5F1F4FC05DDE4F19830883C053D14079
:10F6200062270A171B0709F005C9D80196E002C92D
:10F63000261709F010C303C0973009F0FBC87724E0
:10F640009981933109F412C19431C8F4963009F4C8
:10F65000D8C0973050F4923009F406C1933009F4C1
:10F660006DC0913009F059C253C0913109F477C08F
:10F67000923108F0BBC0903109F04FC2F5C098310B
:10F6800009F487C0993150F4953109F4EFC09531F0
:10F6900008F4C6C1963109F040C2C2C19A3109F4DA
:10F6A0006CC09A3108F491C09B3109F45BC09D3164
:10F6B00009F033C29D81903359F48F81882311F46E
:10F6C0009EE11CC0813011F091E018C098E916C08D
:10F6D000892F807591F0903539F4E0E0F0E089E011
:10F6E0008093570094910AC0983539F4E3E0F0E034
:10F6F00089E080935700949101C090E01A821B82A8
:10F700008D818C831D829E831F8227E030E009C299
:10F710001A8288E08B8381E48C8386E58D8382E581
:10F720008E8389E48F8383E5888780E589878FE5E9
:10F730008A8782E38B872BE030E0F3C18A818139AD
:10F7400041F0823941F0803911F48FE005C080E04A
:10F7500003C082E001C08AE01A828B8344C0772410
:10F76000739482C08D81882311F48EE12CC0813086
:10F7700011F081E028C088E926C01A82E1E0F0E0BB
:10F7800089E08093570084918B831C8224E030E0D1
:10F79000C8C18B81803589F48C81883039F4E2E0EE
:10F7A000F0E089E08093570084910DC0E0E0F0E044
:10F7B00089E080935700849106C0E3E0F0E089E09F
:10F7C0008093570084911A82DFCF8D81836C99E0FA
:10F7D000E1E0F0E0082E90935700E89507B600FCB2
:10F7E000FDCF1A821B8223E030E09BC180EC8A832C
:10F7F000CE5CDE4F188219821A821B82C253D1401E
:10F800008EC18A8190E0A0E0B0E0582F44273327D2
:10F8100022278B8190E0A0E0B0E0DC0199278827C7
:10F82000282B392B4A2B5B2B8D8190E0A0E0B0E098
:10F83000282B392B4A2B5B2B8C8190E0A0E0B0E089
:10F84000BA2FA92F982F8827282B392B4A2B5B2BCF
:10F85000220F331F441F551FC05EDE4F288339839C
:10F860004A835B83C052D1401A8259C13A81C95C34
:10F87000DE4F3883C753D140CA5CDE4F1882C6536F
:10F88000D1408B81C82EDD24CA5CDE4F488159816E
:10F89000C653D140C42AD52A933109F082C0CE5C28
:10F8A000DE4F88819981AA81BB81C253D1408050AB
:10F8B000904CA340B04030F583E0CE5CDE4FE88052
:10F8C000F9800A811B81C253D140F70100935B008C
:10F8D00080935700E89507B600FCFDCFCE5CDE4F65
:10F8E000088119812A813B81C253D14000501F4FAA
:10F8F0002F4F3F4FCE5CDE4F088319832A833B8313
:10F90000C253D140C05EDE4F488159816A817B81FC
:10F91000C052D140DE011B9631E08C9111962C91A2
:10F9200011971296C75CDE4F2883C953D140C85C3B
:10F93000DE4F1882C853D14090E0C85CDE4FE881AA
:10F94000F981C853D1408E2B9F2B0C01FA01609393
:10F950005B0030935700E89511244E5F5F4F6F4F67
:10F960007F4F0EEFE02E0FEFF02ECE0CDF1CC114F8
:10F97000D10499F685E0C05EDE4F088119812A81A5
:10F980003B81C052D140F80120935B008093570027
:10F99000E89507B600FCFDCF81E180935700E8951C
:10F9A00035C0C05EDE4F88819981AA81BB81C0527B
:10F9B000D140B695A795979587957C018601ABE0D8
:10F9C000AA2EB12CAC0EBD1E0BC0D5016D915D01F0
:10F9D000C7010F947FFE0894E11CF11C01501040F8
:10F9E0000115110591F7A60160E070E0440F551F65
:10F9F000661F771FC05EDE4FE880F9800A811B8199
:10FA0000C052D1404E0D5F1D601F711F1A82C05E33
:10FA1000DE4F488359836A837B83C052D1407FC0C5
:10FA2000FA80C55CDE4FF882CB53D140C65CDE4F16
:10FA30001882CA53D1408B81C82EDD24C65CDE4FAC
:10FA400008811981CA53D140C02AD12A1A828981DA
:10FA5000BE016D5F7F4F843121F59601C05EDE4FA0
:10FA6000E880F9800A811B81C052D1400BBFF701A9
:10FA700087919691DB018C9311969C936E5F7F4FDB
:10FA8000D801C7010296A11DB11DC05EDE4F88835B
:10FA90009983AA83BB83C052D14022503040F1F6F3
:10FAA00036C0C05EDE4F288139814A815B81C052F9
:10FAB000D1400894C108D108760100E010E0089414
:10FAC000C11CD11C0894E11CF11C011D111DE20E8A
:10FAD000F31E041F151F21BDBB27A52F942F832FB5
:10FAE00082BD2F5F3F4F4F4F5F4FF89A80B5DB01CC
:10FAF0008D93BD012E153F054007510761F7C05E8C
:10FB0000DE4F288339834A835B83C052D1409601FC
:10FB10002D5F3F4FFB01108204C080EC8A8322E0FE
:10FB200030E08BE18093C6008091C00086FFFCCF5F
:10FB30008091C00080648093C000C15DDE4FF88179
:10FB4000CF52D140F093C6008091C00086FFFCCF19
:10FB50008091C00080648093C000432F3093C60022
:10FB60008091C00086FFFCCF8091C00080648093AC
:10FB7000C000922F2093C6008091C00086FFFCCF6A
:10FB80008091C00080648093C0008EE08093C600A6
:10FB90008091C00086FFFCCF8091C000806480937C
:10FBA000C00065E1C15DDE4FE880CF52D1406E25D7
:10FBB00069276427FE01319610C090819093C6009A
:10FBC0008091C00086FFFCCF31968091C000806498
:10FBD0008093C0006927215030402115310569F715
:10FBE0006093C6008091C00086FFFCCF8091C0006A
:10FBF00080648093C00085B1805885B9772081F4F6
:10FC0000C15DDE4F0881CF52D1400F5FC15DDE4F35
:10FC10000883CF52D14090E0A0E0B0E00D941AF4F8
:10FC200027982F9880E090E020ED37E0F901319798
:10FC3000F1F7019684369105C9F700008091C00064
:10FC40008D7F8093C00081E180935700E895EE2777
:10FC5000FF270994FFCF90E00D941AF497FB092E2B
:10FC600007260AD077FD04D02ED006D000201AF443
:10FC7000709561957F4F0895F6F7909581959F4F08
:10FC80000895A1E21A2EAA1BBB1BFD010DC0AA1FDD
:10FC9000BB1FEE1FFF1FA217B307E407F50720F0F5
:10FCA000A21BB30BE40BF50B661F771F881F991F70
:10FCB0001A9469F760957095809590959B01AC01B9
:10FCC000BD01CF010895AA1BBB1B51E107C0AA1FAC
:10FCD000BB1FA617B70710F0A61BB70B881F991FED
:10FCE0005A95A9F780959095BC01CD010895F99991
:10FCF000FECF92BD81BDF89A992780B50895262F31
:10FD0000F999FECF1FBA92BD81BD20BD0FB6F89400
:0EFD1000FA9AF99A0FBE01960895F894FFCF63
:040000033000E000E9
:00000001FF