:100000007AC10000A9C10000A7C10000A5C100007D
:10001000A3C10000A1C100009FC100009DC100005C
:100020009BC1000099C1000097C1000095C100006C
:1000300093C100000C940A118FC100008DC1000013
:100040008BC1000089C1000087C1000085C100008C
:1000500083C1000081C100007FC100000C94B50A7B
:100060007BC100000C94BB090C94920975C100007F
:1000700073C1000071C100006FC100006DC10000BC
:100080006BC1000069C1000067C1000065C10000CC
:1000900063C1000061C100005FC100000C94FF0A51
:1000A0005BC1000059C1000057C1000055C10000EC
:1000B00053C1000051C100004FC100004DC10000FC
:1000C0004BC1000049C1000047C1000045C100000C
:1000D00043C1000041C100003FC100003DC100001C
:1000E0003BC100005C085F084E085208580896089B
:1000F000630867086D08710875087B087F08830826
:10010000960889088D089108000021002400270026
:100110002A002D0030003300010100000401070116
:100120000A01535441525420434F444500534C411B
:1001300056452049532052455155455354494E4741
:1001400020544F204C4F434B00534C4156452049BF
:10015000532052455155455354494E4720544F2042
:10016000554E4C4F434B00505245535320414E4443
:1001700020484F4C44204C4F434B20425554544F41
:100180004E2C204C4F434B494E472E2E2E005348A9
:100190004F5254204C4F434B20425554544F4E2005
:1001A00052454C45415345440053484F5254204C0E
:1001B0004F434B20425554544F4E20434C49434BE0
:1001C0004544000102102020080810204010204063
:1001D000800201020108040201010204081020400B
:1001E0008080402010080402018004020180402029
:1001F0001008040201080402010102040810204052
:100200008001020408102040800000220025002800
:10021000002B002E0031003400020100000501080F
:10022000010B01050505050705080808080202027B
:10023000020A0A0808040404040101010101010181
:10024000010303030303030303040707070C0C0C58
:100250000C0C0C0C0C020202020606060606060630
:10026000060B0B0B0B0B0B0B0B021F1C1F1E1F1E79
:100270001F1F1E1F1E1F0000200023002600290034
:100280002C002F00320000010000030106010901CB
:1002900000000A0B02090C0D0E0807030401000000
:1002A000000000000000000000000000000000004E
:1002B000000000000000000000000000121110000B
:1002C000000000000000000000000000000000002E
:1002D0000000000000004C4F434B454400554E4C7D
:1002E0004F434B45440053484F5254204C4F434BCF
:1002F00045440000A31A11241FBECFEFD1E2DEBF98
:10030000CDBF00E00CBF28E0A0ECB2E001C01D9220
:10031000A836B207E1F712E0A0E0B2E0E6E5FDE3BF
:1003200000E00BBF02C007900D92A03CB107D9F7C7
:1003300011E0CBE7D1E000E006C021970109802F52
:10034000FE010E947C1CCA37D10780E00807A9F78C
:100350000E94A8110C94A91E53CEE82FF0E0DF01F3
:1003600093E0AA0FBB1F9A95E1F7A45EBB4FA60FBF
:10037000B11DA25BBE4F4C9320E830E002C0359522
:1003800027956A95E2F7E45EFB4F442319F09681C6
:10039000292B03C0209596812923268396818F5F80
:1003A000809321049093200447E050E067E572E0D9
:1003B00081E693E00E94C10C42E050E06FE572E0FC
:1003C00081E693E00C94C10C0F931F93CF93DF93BE
:1003D0008C01C0E0D0E0F801EC0FFD1F64916623B2
:1003E00071F0E0916103F09162030190F081E02DE2
:1003F00081E693E01995892B11F02196ECCF42E02C
:1004000050E06FE572E081E693E00E94C10C8C0F32
:100410009D1FDF91CF911F910F9108958F929F9211
:10042000AF92BF92CF92DF92EF92FF920E94840A26
:100430004B015C018AE0C82ED12CE12CF12C0E94EA
:10044000840ADC01CB0188199909AA09BB09883EF5
:100450009340A105B10558F021E0C21AD108E10886
:10046000F10888EE880E83E0981EA11CB11CC1140F
:10047000D104E104F10419F7FF90EF90DF90CF90E1
:10048000BF90AF909F908F900895209160039091BE
:100490005F03213208F04AC080913C038111FCCFF8
:1004A00032E030933C0331E030933B033FEF309335
:1004B0003A031092390320933803AFE3B3E048E1E5
:1004C00053E0FA013E2F341B321718F43D9131935B
:1004D000F9CF1092170320911703990F922B909345
:1004E000170390911603913061F4109216039091C6
:1004F00017039093BB009091BC0093FDF8CF95EC4F
:1005000001C095EE9093BC0090913C039230E1F3D2
:1005100090913A039F3F79F080913A03803241F005
:1005200080913A03803331F084E005C081E003C05C
:1005300082E001C083E010923E03109260031092AB
:100540003D030895CF93C62F91E090933D0398E625
:1005500090935F0310923E0310926003682F8EEF1A
:1005600093E0A2D66C2F8EEF93E09ED6CF918DCFE5
:1005700090913C039111FCCF91E090933C039093B8
:100580003B032FEF20933A0310923903260F209359
:1005900038039093170390911703880F892B80934A
:1005A000170380911603813061F410921603809135
:1005B00017038093BB008091BC0083FDF8CF85ECCE
:1005C00001C085EE8093BC0080913C038130E1F353
:1005D00080913903861710F460913903A8E1B3E0E4
:1005E00025EF32E0F9018E2F821B861718F48D91CA
:1005F0008193F9CF862F0895813208F080E2682F29
:1006000088E6B6DF1092F4028093F3020895909189
:100610007007891758F4E82FF0E0E157F84FE081B0
:10062000F0E0EF58F84F608381E0089580E008958E
:1006300090916F07292F30E02E313105ACF481E025
:10064000890F80936F0780917007E82FF0E0E157E2
:10065000F84F908391E0980F9093700760E0D7DF98
:1006600080917007815008958FEF08959091ED0665
:10067000292F30E02E313105B4F481E0890F8093C9
:10068000ED068091EE06E82FF0E0E35FF84F9083EF
:1006900091E0980F9093EE06891730F4F901E1513B
:1006A000F94F108208958FEF0895CF93DF93289824
:1006B000EBE0F1E080818E7F8083CCE1D4E08D811E
:1006C0000E944C0C8C810E944C0C80E00E944C0CCF
:1006D000289A28988D810E944C0C8C810E944C0C89
:1006E0008B810E944C0C289ADF91CF9108953F9204
:1006F0004F925F926F927F928F929F92AF92BF9232
:10070000CF92DF92EF92FF920F931F93CF93DF93DD
:1007100000D01F92CDB7DEB7C0901408D090150856
:10072000E0901608F090170814D76C157D058E051B
:100730009F0548F40ED760931408709315088093B2
:1007400016089093170805D7009114081091150802
:100750002091160830911708AB01BC01401B510BCA
:10076000620B730B8091AF059091B005A091B1051C
:10077000B091B2050A96A11DB11D481759076A0725
:100780007B0708F44BC3E5D66093140870931508F3
:1007900080931608909317088091B4058111CFC2F9
:1007A0004090AF055090B0056090B1057090B205D3
:1007B0000091AD051091AE0580910002803321F0CB
:1007C0008F3F09F02BC304C0E9E6F2E03490EDC09E
:1007D00080E380930002E9E6F2E0E491EF3F09F460
:1007E0001DC3E23009F474C054F5EE2309F453C07C
:1007F000E13009F0D9C01092800010928100809100
:100800008100886080938100809181008160809365
:100810008100E3E5F2E0E491F0E0EE0FFF1FE75F17
:10082000FD4F859194919093FC078093FB07E3EF34
:10083000F1E0E491E093FA0733243394B8C0E43054
:1008400009F48EC00CF468C0E53009F0ADC0109218
:100850002001109221018091210188608093210163
:1008600080912101816080932101E3E5F2E0E49130
:10087000F0E0EE0FFF1FE75FFD4F8591949190939D
:10088000F3078093F207E3EFF1E0E491E093F107DF
:1008900065E0362E8CC014BC15BC84B5826084BD66
:1008A00085B5816085BDE3E5F2E0E491F0E0EE0F0F
:1008B000FF1FE75FFD4F859194919093FF07809311
:1008C000FE07E3EFF1E0E491E093FD07312C6FC008
:1008D0001092B0001092B1008091B00082608093BD
:1008E000B0008091B10081608093B100E3E5F2E057
:1008F000E491F0E0EE0FFF1FE75FFD4F85919491CB
:100900009093EE028093ED02E3EFF1E0E491E09347
:10091000EC0292E0392E4BC01092900010929100A0
:100920008091910088608093910080919100816016
:1009300080939100E3E5F2E0E491F0E0EE0FFF1F19
:10094000E75FFD4F859194919093F9078093F807A5
:10095000E3EFF1E0E491E093F707B3E03B2E27C02B
:100960001092A0001092A1008091A1008860809355
:10097000A1008091A10081608093A100E3E5F2E0F5
:10098000E491F0E0EE0FFF1FE75FFD4F859194913A
:100990009093F6078093F507E3EFF1E0E491E0939D
:1009A000F407E4E03E2E03C03E2E37FC37C261E080
:1009B00080E36ED54801A12CB12C832D8D7F09F0E9
:1009C000BBC060E072E18AE790E0A50194010E945B
:1009D000601C29833A834B835C8369017A0121E09F
:1009E000C21AD108E108F1088FEFC816D104E1045A
:1009F000F10409F008F44CC060E472E48FE090E088
:100A0000A50194010E94601C69017A0191E0C91A54
:100A1000D108E108F108E2E03E1220C0FFEFCF1656
:100A2000D104E104F10409F008F4F6C160E970EDC5
:100A300083E090E0A50194010E94601C69017A01A5
:100A400081E0C81AD108E108F1089FEFC916D10466
:100A5000E104F10409F0D0F583E067C0EFEFCE16B2
:100A6000D104E104F104B1F0A8F068E478EE81E08B
:100A700090E0A50194010E94601C69017A01F1E0F7
:100A8000CF1AD108E108F108332009F4A3C199C1B4
:100A900081E001C082E03320A1F047C089819A81C2
:100AA000AB81BC812AE0B595A795979587952A9546
:100AB000D1F76C017D01F1E0CF1AD108E108F1080E
:100AC00085E095B5987F892B85BDA6C068E478EE52
:100AD00081E090E0A50194010E94601C69017A0107
:100AE00081E0C81AD108E108F1089FEFC916D104C6
:100AF000E104F10409F008F433C164E274EF80E02A
:100B000090E0A50194010E94601C69017A0181E0D6
:100B1000C81AD108E108F1089FEFC916D104E10411
:100B2000F10411F008F01EC185E09091B100987FAA
:100B3000892B8093B10070C060E072E18AE790E099
:100B4000A50194010E94601C69017A01F1E0CF1AAD
:100B5000D108E108F108C114D10421E0E206F10452
:100B600088F068E478EE81E090E0A50194010E94AD
:100B7000601C69017A0181E0C81AD108E108F10816
:100B800083E001C081E091E0391210C090918100B2
:100B9000987F892B80938100411451046104710472
:100BA00009F03FC02FEF3FEFA90171C0E3E03E1213
:100BB0000FC090919100987F892B809391004114F0
:100BC00051046104710469F52FEF3FEFA90181C061
:100BD000F4E03F120FC09091A100987F892B809381
:100BE000A1004114510461047104D9F42FEF3FEFC7
:100BF000A90181C025E032120FC090912101987F98
:100C0000892B80932101411451046104710449F43A
:100C10002FEF3FEFA90181C0411451046104710419
:100C200071F0D801AA0FBB1FA30192010E94251CDD
:100C300028EE33E040E050E00E943E1C03C02FEF5E
:100C40003FEFA90182E03816A1F1831534F033207B
:100C500079F091E03916D9F0E1C0E4E03E1609F4EC
:100C60004AC03E16B4F1F5E03F1609F456C0D6C0AE
:100C7000C7BC20931008309311084093120850937A
:100C8000130880916E00826080936E00C7C0D0927E
:100C90008900C092880020930C0830930D0840937F
:100CA0000E0850930F0880916F00826080936F0050
:100CB000B5C0C092B3002093EF023093F00240938E
:100CC000F1025093F2028091700082608093700074
:100CD000A5C0D0929900C092980020930808309344
:100CE000090840930A0850930B08809171008260B4
:100CF0008093710093C0D092A900C092A800209365
:100D00000408309305084093060850930708809123
:100D1000720082608093720081C0D0922901C092DB
:100D20002801209300083093010840930208509353
:100D30000308809173008260809373006FC081E02C
:100D40008093B5056091B30580E373D302D46093BB
:100D5000B6057093B7058093B8059093B9055EC04A
:100D600084E0E3CE62E17AE780E090E0A5019401BF
:100D70000E94601C69017A01E1E0CE1AD108E10805
:100D8000F108FFEFCF16D104E104F104C1F0B8F08F
:100D900089819A81AB81BC814AE0B595A7959795E9
:100DA00087954A95D1F76C017D01E1E0CE1AD10813
:100DB000E108F108332009F483CE87E0B6CE86E05F
:100DC0006ACE2FEFC216D104E104F10409F050F607
:100DD00084E061CEEFEFCE16D104E104F104D1F04E
:100DE000C8F062E17AE780E090E0A50194010E94FA
:100DF000601C69017A0181E0C81AD108E108F10894
:100E00009FEFC916D104E104F10411F008F046CEB9
:100E100084E057CE83E055CE82E087CE0F900F90CE
:100E20000F900F90DF91CF911F910F91FF90EF9056
:100E3000DF90CF90BF90AF909F908F907F906F90FA
:100E40005F904F903F900895CF93DF93FC014481D2
:100E500055816081718181E693E093D5EC0142E098
:100E600050E06FE572E081E693E08BD58C0F9D1F1B
:100E7000DF91CF910895FC01538D448D252F30E0F3
:100E8000842F90E0821B930B541710F0CF96089597
:100E900001970895FC01918D828D981761F0828DE4
:100EA000DF01A80FB11D5D968C91928D9F5F9F739E
:100EB000928F90E008958FEF9FEF0895FC01918D40
:100EC000828D981731F0828DE80FF11D858D90E0AD
:100ED00008958FEF9FEF0895FC01918D228D892F4A
:100EE00090E0805C9F4F821B91098F739927089532
:100EF00081E693E0F1DF21E0892B09F420E0822FE5
:100F00000895FC01848DDF01A80FB11DA35ABF4FC6
:100F10002C91848D90E001968F739927848FA689F8
:100F2000B7892C93A089B1898C9180648C93938D1F
:100F3000848D981306C00288F389E02D80818F7D0F
:100F400080830895EF92FF920F931F93CF93DF93C7
:100F5000EC0181E0888F9B8D8C8D981305C0E8890A
:100F6000F989808185FD23C0F62E0B8D10E00F5F7F
:100F70001F4F0F731127E02E8C8DE8120BC00FB698
:100F800007FCFACFE889F989808185FFF5CFCE018A
:100F9000B8DFF2CF8B8DFE01E80FF11DE35AFF4F52
:100FA000F0820B8FEA89FB898081806207C0EE891D
:100FB000FF896083E889F98980818064808381E08A
:100FC00090E0DF91CF911F910F91FF90EF900895E6
:100FD000CF93DF93EC01888D8823C1F0EA89FB89E8
:100FE000808185FD05C0A889B9898C9186FD0EC0D8
:100FF0000FB607FCF5CF808185FFF2CFA889B989AC
:101000008C9185FFEDCFCE017CDFE8CFDF91CF91D2
:10101000089580E090E0892B19F06ADF811125C0E6
:1010200080E090E0892B41F080E090E0892B21F076
:101030000E94000081111CC080E090E0892B41F0EB
:1010400080E090E0892B21F00E940000811113C004
:1010500080E090E0892BA1F080E090E0892B81F086
:101060000E94000081110AC008950E940000D8CF9C
:101070000E940000E1CF0E940000EACF0C94000023
:10108000089590E0FC013197E231F10508F04EC07F
:101090008827EE58FF4F8F4F0C947C1C8091800066
:1010A0008F7703C0809180008F7D809380000895AA
:1010B00080918000877FF9CF84B58F7702C084B597
:1010C0008F7D84BD08958091B0008F7703C080919B
:1010D000B0008F7D8093B0000895809190008F774D
:1010E00007C0809190008F7D03C080919000877F22
:1010F0008093900008958091A0008F7707C0809121
:10110000A0008F7D03C08091A000877F8093A00006
:101110000895809120018F7707C0809120018F7DF5
:1011200003C080912001877F80932001089585ED81
:101130008093BC008091BC0084FDFCCF10923C03E6
:10114000089540913808262F30E0240F311D2132B8
:101150003105DCF420913C032430C9F4FC0180E02B
:1011600090E0861758F4309138082191DC01A85E90
:10117000B74FA30FB11D2C930196F3CF8091380880
:10118000680F6093380880E0089581E0089582E058
:101190000895E091C002F091C102309729F01092B9
:1011A0003E031092600319940895AC01E091C202CD
:1011B000F091C3023097E1F09091F4028091F30234
:1011C0009817B0F090E0292F30E02617370754F435
:1011D000DA01A20FB31F8C91D901AB50BD4F8C9394
:1011E0009F5FF1CF1092F4026093F302CB01199448
:1011F00008950895E091F4028091F302E81730F425
:10120000F0E0EB50FD4F808190E008958FEF9FEF6D
:1012100008959091F4028091F302981750F4E92F09
:10122000F0E0EB50FD4F208130E09F5F9093F4029F
:1012300002C02FEF3FEFC90108958091F30290E0C3
:101240002091F402821B91090895CF92DF92EF92D0
:10125000FF920F931F93CF93DF937C01262F972F3D
:101260008A0180913D03882391F0C62FD72F6E010C
:10127000C40ED51ECC15DD0569F06991D701ED913D
:10128000FC910190F081E02DC7011995F3CF642FF7
:10129000822F57DFC801DF91CF911F910F91FF90EF
:1012A000EF90DF90CF900895CF93DF931F92CDB74B
:1012B000DEB7698320913D032223D1F020916003A2
:1012C000203240F021E030E0FC013383228380E0D3
:1012D00090E014C080913E03E82FF0E0E15CFC4F09
:1012E000998190838F5F80933E038093600304C055
:1012F00061E0CE01019625DF81E090E00F90DF9163
:10130000CF910895089580E090E00895E091E60679
:10131000F091E706309709F019940895059608951D
:101320000E94951E1F920F920FB60F9211240BB6BA
:101330000F922F933F934F935F936F937F938F936E
:101340009F93AF93BF93EF93FF9381E693E0D9DD33
:10135000FF91EF91BF91AF919F918F917F916F918D
:101360005F914F913F912F910F900BBE0F900FBE49
:101370000F901F9018951F920F920FB60F92112485
:101380000BB60F922F938F939F93EF93FF93E09160
:101390007103F09172038081E0917703F0917803FB
:1013A00082FD12C0908180917A038F5F8F732091AC
:1013B0007B03821751F0E0917A03F0E0EF59FC4F84
:1013C000958F80937A0301C08081FF91EF919F9167
:1013D0008F912F910F900BBE0F900FBE0F901F900B
:1013E0001895CF93DF93282F30E0F901E057FD4F98
:1013F0008491F901ED53FE4FD491F901ED5DFD4F5C
:10140000C491CC2389F081113CDEEC2FF0E0EE0F8B
:10141000FF1FEA58FD4FA591B491EC91ED2381E0B7
:1014200090E021F480E002C080E090E0DF91CF9175
:1014300008951F93CF93DF93282F30E0F901E057F1
:10144000FD4F8491F901ED53FE4FD491F901ED5D0B
:10145000FD4FC491CC23C1F0162F811112DEEC2F69
:10146000F0E0EE0FFF1FE75FFD4FA591B4918FB73E
:10147000F894111105C09C91ED2FE095E92302C06D
:10148000EC91ED2BEC938FBFDF91CF911F910895DD
:10149000CF93DF9390E0FC01ED53FE4F2491FC01CC
:1014A000ED5DFD4F8491882361F190E0880F991FD5
:1014B000FC01E85FFE4FC591D491FC01E75FFD4F51
:1014C000A591B491611109C09FB7F89488812095C6
:1014D00082238883EC912E230BC0623061F49FB786
:1014E000F8943881822F809583238883EC912E2B6A
:1014F0002C939FBF06C08FB7F894E8812E2B2883CA
:101500008FBFDF91CF9108953FB7F8948091600825
:1015100090916108A0916208B091630826B5A89BDC
:1015200005C02F3F19F00196A11DB11D3FBFBA2F75
:10153000A92F982F8827820F911DA11DB11DBC01D5
:10154000CD0142E0660F771F881F991F4A95D1F79A
:1015500008952FB7F89460915C0870915D088091B0
:101560005E0890915F082FBF08951F920F920FB6EB
:101570000F9211242F933F938F939F93AF93BF9319
:1015800080915C0890915D08A0915E08B0915F0821
:1015900030915B0823E0230F2D3720F40196A11D25
:1015A000B11D05C026E8230F0296A11DB11D209391
:1015B0005B0880935C0890935D08A0935E08B093ED
:1015C0005F088091600890916108A0916208B091D5
:1015D00063080196A11DB11D809360089093610876
:1015E000A0936208B0936308BF91AF919F918F91D0
:1015F0003F912F910F900FBE0F901F9018951F9243
:101600000F920FB60F9211240BB60F922F933F93A8
:101610004F935F936F937F938F939F93AF93BF93FA
:10162000EF93FF938091B900887F803609F49CC0C6
:1016300068F5883209F45BC090F4803109F454C035
:1016400038F4882309F4F6C0883009F44DC0F5C099
:10165000883109F44CC0803209F45DC0EEC080349A
:1016600009F468C048F4803309F455C0883309F0A0
:10167000E4C080933A03D8C0803509F44FC0883560
:1016800009F45DC0883409F0D8C0D6C0883909F49F
:10169000C7C0A8F4883709F467C038F4883609F45D
:1016A00063C0803709F460C0C8C0883809F4B8C086
:1016B000803909F45FC0803809F0BFC05BC0803B4F
:1016C00009F486C038F4803A09F466C0883A09F40F
:1016D0007FC0B3C0803C09F4A7C0883C09F4A4C013
:1016E000883B09F48AC0A9C08091170310C090916B
:1016F000390380913803981770F5E091390381E040
:101700008E0F80933903F0E0E85EFC4F8081809378
:10171000BB0085EC86C080933A038EC0E09139030C
:1017200081E08E0F809339038091BB00F0E0E85E8A
:10173000FC4F808390913903809138036EC0E09113
:10174000390381E08E0F809339038091BB00F0E074
:10175000E85EFC4F808380913B0381116DC081E086
:101760008093160384EA61C083E080933C03109267
:101770005A08CFCF80915A08803208F051C0E091CA
:101780005A0881E08E0F80935A088091BB00F0E0E8
:10179000E65CF74F8083BDCF85EC8093BC00109250
:1017A0003C0380915A08803230F4E0915A08F0E00E
:1017B000E65CF74F108260915A0870E0E091C40235
:1017C000F091C5028AE398E0199510925A0835C045
:1017D00084E080933C031092390810923808E0911D
:1017E000C602F091C702199580913808811105C091
:1017F00081E08093380810921808E091390881E060
:101800008E0F80933908F0E0E85EF74F8081809377
:10181000BB009091390880913808981708F479CF67
:1018200085E88093BC0009C085EC8093BC001092D1
:101830003C0303C010923A037ADCFF91EF91BF9111
:10184000AF919F918F917F916F915F914F913F9158
:101850002F910F900BBE0F900FBE0F901F901895F9
:1018600010923C0381E080933B031092160361E0E9
:1018700084E1DFDD61E085E1DCDDE9EBF0E0808142
:101880008E7F808380818D7F808388E48093B80001
:1018900085E48093BC0008958EBD00000DB407FE62
:1018A000FDCF8EB50895FC0135968396DB012D9111
:1018B000BD012193E817F907C9F708950F931F9306
:1018C000CF93DF93CDB7DEB7A0970FB6F894DEBF06
:1018D0000FBECDBF10E09091F3028091F4029817F3
:1018E00071F0103250F48EEF93E093DCE1E0F0E021
:1018F000EC0FFD1FE10FF11D80831F5FECCF09810D
:101900001A811F3F31F4BE016D5F7F4F8BE297E07C
:1019100014C08091EE07181758F42091EF0730910A
:10192000F007C90141E4149F800D911D112402C0EC
:1019300080E090E0BE016D5F7F4FB5DFE091E8068B
:10194000F091E906309719F0612F802F1995A09634
:101950000FB6F894DEBF0FBECDBFDF91CF911F91C0
:101960000F910895FC018BE092E0918380831282B5
:101970001382148235968EE1DF011D928A95E9F774
:101980000895CF92DF92EF92FF920F931F93CF9320
:10199000DF936C017A018B01C0E0D0E0CE15DF054A
:1019A00089F0D8016D918D01D601ED91FC910190E6
:1019B000F081E02DC6011995892B11F47E0102C03A
:1019C0002196ECCFC701DF91CF911F910F91FF902E
:1019D000EF90DF90CF9008950F931F93CF93DF93F5
:1019E000EC0188819981009729F02A813B81261793
:1019F000370788F48B016F5F7F4F0E94B11D0097FE
:101A000061F0998388831B830A832C813D81232B7A
:101A100011F4FC01108281E001C080E0DF91CF91E0
:101A20001F910F910895EF92FF920F931F93CF9301
:101A3000DF93FC01248135816115710511F480E08B
:101A400018C041155105A1F07B01EC018A01020F7C
:101A5000131FB801C1DF882391F3288139818C815C
:101A60009D81B701820F931F0E94A21E1D830C83CC
:101A700081E0DF91CF911F910F91FF90EF9008953A
:101A8000CF93DF93EC0188819981009711F00E9438
:101A9000191D198218821D821C821B821A82DF91F5
:101AA000CF91089556DD6093FB057093FC058093FC
:101AB000FD059093FE054DDD60930E0670930F06B5
:101AC00080931006909311060895109213061092B9
:101AD0001206809118068F3F11F061E0AADC86EEB5
:101AE00092E00E94E401DECFEF92FF921F93CF932A
:101AF000DF9382E090E0909313068093120680912A
:101B000018068F3F11F060E094DC8DED92E00E94AA
:101B1000E4018CE1E82E84E0F82E10E0C0E0D0E093
:101B2000F701EC0FFD1FDF01A256BE4F8C918130F3
:101B300029F446856C2F812F0E94AD012196C83073
:101B4000D10571F71F5F88E0E80EF11C183031F7FE
:101B5000DF91CF911F91FF90EF90A4CF81E090E0B3
:101B60009093130680931206809118068F3F11F010
:101B700061E05FDC86ED92E00E94E40193CFCF93B9
:101B8000DF93EC016115710559F0FB010190002014
:101B9000E9F73197AF01461B570B45DF811102C0B2
:101BA000CE016EDFCE01DF91CF910895CF93DF9309
:101BB000EC01FB01448155816081718134DF811129
:101BC00002C0CE015DDFCE01DF91CF910895FC010F
:101BD000808191810C94191DCF92DF92EF92FF9238
:101BE0000F931F93CF93DF93CDB7DEB729970FB62F
:101BF000F894DEBF0FBECDBF8C01862FF801118295
:101C00001082138212821582148250E09E012F5F8F
:101C10003F4F6901B90190E00E94F21BF60101906B
:101C20000020E9F731977F01EC18FD08B701C801E2
:101C3000D3DE811103C0C80123DF08C0F801F5829B
:101C4000E482B601808191810E94A21E29960FB67E
:101C5000F894DEBF0FBECDBFDF91CF911F910F91E2
:101C6000FF90EF90DF90CF900895EF92FF920F9347
:101C70001F93CF93DF93EC01198218821B821A8283
:101C80001D821C826115710511F18B01FB01019010
:101C90000020E9F731977F01E61AF70AB7019CDEC9
:101CA000811108C0CE01DF91CF911F910F91FF905C
:101CB000EF90E6CEFD82EC82B80188819981DF91B8
:101CC000CF911F910F91FF90EF900C94A21EDF9186
:101CD000CF911F910F91FF90EF9008952F923F9217
:101CE0004F925F926F927F928F929F92AF92BF922C
:101CF000CF92DF92EF92FF920F931F93CF93DF93D8
:101D0000CDB7DEB76F970FB6F894DEBF0FBECDBF6D
:101D1000E82EB62E042FA22E262E28E0829F200C1D
:101D2000112410E02BE080919E06181708F04EC198
:101D3000312CC12ED12C2C9DC0012D9D900D112434
:101D4000AC01445E5B4F4A013A015CEE651A5DEFFF
:101D5000750AF3018081381608F036C12401430C5E
:101D6000511C3BEE431A3DEF530AF20160814AE0F9
:101D7000CE0149962F8F30DF4AE0632DCE01439686
:101D80002BDF4AE0612FCE010D9626DF4AE0622D5F
:101D9000CE01079621DF62E672E0CE01019665DF93
:101DA000BE01695F7F4FCE01019600DF6DE672E0F4
:101DB000E6DEBE01635F7F4FF9DE68E472E0DFDEDE
:101DC000BE016D5E7F4FF2DE6FE672E0D8DEBE01CF
:101DD000675E7F4FEBDE38D8CE010196F8DECE018C
:101DE0000796F5DECE010D96F2DECE014396EFDECC
:101DF000CE014996ECDEF201F0802F8D2F10E2C06B
:101E00004AE0612FCE014996E7DE4AE06F2DCE0110
:101E10004396E2DE4AE06B2DCE010D96DDDE4AE010
:101E20006E2DCE010796D8DE66E472E0CE010196F3
:101E30001CDFBE01695F7F4FCE010196B7DE68E40B
:101E400072E09DDEBE01635F7F4FB0DE63E772E04C
:101E500096DEBE016D5E7F4FA9DE6AE772E08FDE1F
:101E6000BE01675E7F4FA2DE0E942407CE0101966D
:101E7000AEDECE010796ABDECE010D96A8DECE011A
:101E80004396A5DECE014996A2DE8E2D90E0EB2D85
:101E9000F0E0DC0123E0AA0FBB1F2A95E1F7AE0FAB
:101EA000BF1FA659BA4FA11006C021E03C913111C5
:101EB00020E02C9305C0013011F40C9301C01C925A
:101EC0008C0193E0000F111F9A95E1F7E00FF11FCD
:101ED0008F0106591A4FF80140816B2D8E2D0E94FB
:101EE000AD014AE0F8016081CE01439675DE4AE01B
:101EF0006B2DCE010D9670DE4AE06E2DCE01079659
:101F00006BDE6DE872E0CE010196AFDEBE01695F67
:101F10007F4FCE0101964ADE68E472E030DEBE01FA
:101F2000635F7F4F43DE6BE972E029DEBE016D5EC9
:101F30007F4F3CDE0E942407CE01019648DECE0191
:101F4000079645DECE010D9642DECE0143963FDE7A
:101F5000F8018081813011F081E039C0E12C2BE063
:101F60002C9DC0012D9D900D1124AC01445E5B4F52
:101F70006A018A010C5E1D4F88EFB82EF80180813E
:101F8000E81650F7F601EE0DF11DEB5EFD4F808176
:101F90008F15B1F06081862F8695869586958B9DED
:101FA000600D112428E0829FF0011124E45EFB4FB4
:101FB000E60FF11DE25BFE4F108240E00E94AD0192
:101FC000E394DCCF3394C5CE1F5FADCE80E06F9637
:101FD0000FB6F894DEBF0FBECDBFDF91CF911F913A
:101FE0000F91FF90EF90DF90CF90BF90AF909F90B8
:101FF0008F907F906F905F904F903F902F900895BB
:10200000AF92BF92DF92EF92FF920F931F93CF9305
:10201000DF93CDB7DEB768970FB6F894DEBF0FBE7B
:10202000CDBFF82EE62ED42EA62EB12C28E0829F0E
:1020300080011124F501E00FF11FE654FA4F808171
:10204000811154C08091FA05813019F44813C8C039
:1020500004C08111C5C04111C3C0F501E00FF11FDB
:10206000E659FA4F8081811115C090911E068E2D80
:1020700028E0F29E800D112489130CC081E080932A
:102080002F0667DA60931F0670932006809321065F
:102090009093220680919E06811120C0F501E00FE9
:1020A000F11FE659FA4F61E08081811160E0F5018E
:1020B000E00FF11FE659FA4F60834AE0CE014396E4
:1020C0008BDD4AE06E2DCE010D9686DD4AE06F2D48
:1020D000CE01079681DD6DE872E05DC020E04D2DF8
:1020E0006E2D8F2DFBDD811185C0D8CF81E0481387
:1020F00014C090911E06862F28E0F29E800D1124B8
:1021000089130BC040932F0624DA60931F06709347
:102110002006809321069093220680919E068111CD
:102120001BC081E0D81220C0F501E00FF11FE65975
:10213000FA4FD0824AE061E0CE0143964DDD4AE09D
:102140006E2DCE010D9648DD4AE06F2DCE0107962B
:1021500043DD61EA72E01FC021E04D2D6E2D8F2D11
:10216000BDDD811147C0DDCFF501E00FF11FE6595C
:10217000FA4F10824AE060E0CE0143962DDD4AE03E
:102180006E2DCE010D9628DD4AE06F2DCE0107960B
:1021900023DD60EB72E0CE01019667DDBE01695F71
:1021A0007F4FCE01019602DD68E472E0E8DCBE01FB
:1021B000635F7F4FFBDC6BE972E0E1DCBE016D5ECB
:1021C0007F4FF4DC0E942407CE01019600DDCE0192
:1021D0000796FDDCCE010D96FADCCE014396F7DCC6
:1021E0000A0D1B1DF801E659FA4F40816E2D8F2D07
:1021F0000E94AD0168960FB6F894DEBF0FBECDBF4A
:10220000DF91CF911F910F91FF90EF90DF90BF90E2
:10221000AF9008951F920F920FB60F9211240BB634
:102220000F922F933F934F935F936F937F938F936F
:102230009F93AF93BF93EF93FF938091EF029091A1
:10224000F002A091F102B091F202892B8A2B8B2B24
:1022500059F18091EC02E091ED02F091EE02908153
:10226000892780838091EF029091F002A091F10282
:10227000B091F202181619061A061B060CF055C08A
:102280008091EF029091F002A091F102B091F202E0
:102290000197A109B1098093EF029093F002A093F6
:1022A000F102B093F20241C080910002E9E6F2E04F
:1022B000E4919FEF90930002E230C9F050F4EE23D6
:1022C00099F0E13081F590916F009D7F90936F00C0
:1022D0002AC0E43019F1E0F0E53029F5909173005F
:1022E0009D7F909373001FC010926E001CC0909150
:1022F00070009D7F9093700091E09093B00090915A
:10230000B100987F94609093B1001092B3000BC01D
:10231000909171009D7F9093710005C09091720023
:102320009D7F9093720060E084D8FF91EF91BF9100
:10233000AF919F918F917F916F915F914F913F915D
:102340002F910F900BBE0F900FBE0F901F901895FE
:10235000CF93DF93CDB7DEB7C155D1090FB6F8944F
:10236000DEBF0FBECDBF789484B5826084BD84B5D6
:10237000816084BD85B5826085BD85B5816085BD80
:1023800080916E00816080936E0010928100809138
:1023900081008260809381008091810081608093C0
:1023A0008100809180008160809380008091B100E5
:1023B00084608093B1008091B00081608093B00010
:1023C0008091910082608093910080919100816062
:1023D0008093910080919000816080939000809123
:1023E000A10082608093A1008091A1008160809310
:1023F000A1008091A00081608093A00080912101C4
:10240000826080932101809121018160809321016C
:102410008091200181608093200180917A00846006
:1024200080937A0080917A00826080937A00809114
:102430007A00816080937A0080917A00806880932E
:102440007A001092C100E0917103F091720382E072
:102450008083E0916D03F0916E031082E0916F0331
:10246000F091700380E1808310927903E09175030D
:10247000F091760386E08083E0917303F09174031A
:10248000808180618083E0917303F0917403808187
:1024900088608083E0917303F09174038081806889
:1024A0008083E0917303F091740380818F7D80833A
:1024B00080E4EAE2F4E0DF01882E1D928A94E9F7D5
:1024C000EAEBF5E0DF01882E1D928A94E9F7EAE64F
:1024D000F5E0DF011D928A95E9F710922104109230
:1024E000200410921F0461E085E30E94480A61E025
:1024F00081E30E94480A61E080E30E94480A0E944A
:1025000077031FB7F8948091C802811127C0E8E5CE
:10251000F2E08491E8EFF1E09491E82FF0E0EE0F23
:10252000FF1FE85FFE4FA591B491EC91E92321F4E0
:1025300061E085E30E94190A61E085E30E94480A90
:102540008CB580618CBD8CB580648CBD61E084E30A
:102550000E94480A61E083E30E94480A8091C80211
:102560008F5F8093C8021FBF81E58CBD1DBC1FE03B
:1025700010932104109220040E9455038AE0809356
:102580002104109320040E9455038BE080932104C2
:1025900087E0809320040E94550389E08093210402
:1025A000109220040E9455038CE08093210481E066
:1025B000809320040E9455034CE154E028E080E021
:1025C00090E0FC01E25BFE4FE40FF51F10820196E4
:1025D00088309105B1F72150485F5F4F2111EFCF4F
:1025E000A2E2EA2EA4E0FA2E10E0F70111927F0198
:1025F0001F5F10932104109220040E94550318308D
:10260000A1F71092F4021092F30210923E0310927E
:10261000600326D91092E5061092E4061092E306B4
:102620001092E9061092E8061092E7061092E6066C
:102630008FEF80932D0780936E078093EC061092A6
:10264000BA0089EC98E09093C7028093C60285EDAA
:1026500098E09093C5028093C4021092F402109205
:10266000F30210923E0310926003FAD88EE59CE0CC
:102670009093C3028093C20286E899E09093C102CE
:102680008093C0020E943603809318043091ED06B7
:10269000832F90E08D319105D4F422E0230F209315
:1026A000ED062091EE06E22FF0E0E35FF84F308375
:1026B00031E0320F3093EE06231750F48156994FD4
:1026C000FC01E05BFF4F10823196108201C02FEFBA
:1026D000209319040E94360380931A040E94360343
:1026E00080931B040E941803809311040E94180316
:1026F000809312040E941803809313040E9418030D
:10270000809314040E9418038093150430916F077E
:10271000832F90E08D319105D4F422E0230F209394
:102720006F0720917007E22FF0E0E157F84F3083F8
:1027300031E0320F30937007231750F48156994FD0
:10274000FC01EE52FF4F10823196108201C02FEF34
:102750002093160430916F07832F90E08D319105FF
:10276000D4F422E0230F20936F0720917007E22F0B
:10277000F0E0E157F84F308331E0320F30937007CB
:10278000231750F48156994FFC01EE52FF4F1082EF
:102790003196108201C02FEF209317046CE18EE078
:1027A0000E94A2020E940E0211E010933D0388E6EF
:1027B00080935F0310923E031092600362E08EEFFD
:1027C00093E00E9454090E94450281E090E00E943B
:1027D000FC028EEF93E00E940909682F6F7B82E074
:1027E0000E94A2020E940E0282E291E00E94E40195
:1027F0008AE0809321048FE0809320041093B40535
:102800001093B3054CE154E028E080E090E0FC0137
:10281000E256FE4FE40FF51F1082019688309105B5
:10282000B1F72150485F5F4F2111EFCF81E08093D6
:10283000FA059AE090931D0644EF51E060E070E0E5
:1028400040932706509328066093290670932A0622
:102850004AEF50E060E070E040932B0650932C0666
:1028600060932D0670932E0680931E0661E08AE029
:102870000E94480A60E080911D060E94190A8CE0BF
:102880008093160660E00E94480A1092170680E2C4
:102890009EE4A0E0B0E08093190690931A06A093FE
:1028A0001B06B0931C068BE08093FF0560E00E943E
:1028B000480A1092000680E197E2A0E0B0E0809321
:1028C000010690930206A0930306B093040688EED7
:1028D00093E0A0E0B0E08093050690930606A093F5
:1028E0000706B09308068DE08093180661E00E9409
:1028F000480A60E0809118060E94190A8EE08093D1
:10290000090661E00E94480A8E010F5F1F4FCE0149
:10291000849660969FAF8EAF60978091CD028111B3
:102920000DC00E94A90A6093C9027093CA028093E5
:10293000CB029093CC0281E08093CD02C090C9027B
:10294000D090CA02E090CB02F090CC020E94A90A7B
:102950006C157D058E059F0550F40E94A90A6093B1
:10296000C9027093CA028093CB029093CC020E945A
:10297000A90AC090C902D090CA02E090CB02F090A0
:10298000CC02DC01CB018C199D09AE09BF0985364B
:102990009105A105B10508F4A1C10E94A90A60939F
:1029A000C9027093CA028093CB029093CC0260E27A
:1029B00081E00E94B8021092F4028093F30280E258
:1029C000D8011D928A95E9F780E0F12C2091F3025D
:1029D0009091F402291771F0BFE1BF1540F08EEF1E
:1029E00093E00E940909F801EF0DF11D8083F39433
:1029F00081E0ECCF8823F1F02A812F3F31F4BE0132
:102A00006D5F7F4F8AEE96E013C08091EE07281726
:102A100050F48091EF079091F007E1E42E9F800D34
:102A2000911D112402C080E090E0BE016D5F7F4FD8
:102A30000E94530CE09118048091EE06E81758F4B8
:102A4000F0E0E35FF84FE081F0E0E151F94F808181
:102A500081110E947703E0911A048091EE06E81735
:102A600078F4F0E0E35FF84FE081F0E0E151F94FF6
:102A70008081882329F089E491E00E94E40134D820
:102A8000E0911B048091EE06E81778F4F0E0E35F34
:102A9000F84FE081F0E0E151F94F8081882329F07F
:102AA0008DE291E00E94E40159D8E09119048091EF
:102AB000EE06E81750F4F0E0E35FF84FE081F0E055
:102AC000E151F94F8081918102C080E090E09093C4
:102AD00015068093140681E080933D0388E6809379
:102AE0005F0310923E031092600360E08EEF93E06C
:102AF0000E9454090E94450288E090E00E94FC0276
:102B00008EEF93E00E9409099C01332744E035953C
:102B100027954A95E1F75AEFE52ED82EE29ED00C84
:102B200011248EEF93E00E9409099C01332764E091
:102B3000359527956A95E1F7C82EE29EC00C1124C1
:102B40008EEF93E00E9409098F73982F92959F70E2
:102B5000682F9E9D600D11248EEF93E062966FAFFB
:102B600062970E940909A82E8EEF93E00E9409093E
:102B70009C01332774E0359527957A95E1F7B82EB7
:102B8000E29EB00C11248EEF93E00E940909AC0183
:102B90005527E4E055954795EA95E1F7F82EE49E30
:102BA000F00C11248EEF93E00E940909AC01552727
:102BB000F4E055954795FA95E1F7282FE49E200D0E
:102BC000112420930A04F0920B04B0920C04629634
:102BD0006FAD629760930D04C0920E04D0920F0403
:102BE000A0921004809111040E94070360910E04CA
:102BF000809112040E94070360910F0480911304D6
:102C00000E94070360910C04809114040E94070342
:102C100060910B04809115040E94070320910A041F
:102C2000E091160440917007E41780F430E02053DF
:102C3000384FF0E0E157F84F808190E08156994F8E
:102C4000FC01EE52FF4F2083319630833091120603
:102C500020911306E0911704E41768F4F0E0E157BF
:102C6000F84F808190E08156994FFC01EE52FF4F62
:102C7000308331962083F0906E078EE1E1E7F7E034
:102C8000DE01169601900D928A95E1F781E080931E
:102C90003D0380935F0310923E03109260036091A6
:102CA000E3068EEF93E00E9454096F2D8EEF93E0C0
:102CB0000E9454097E01F6E0EF0EF11CD7016D91E0
:102CC0007D018EEF93E00E94540960968EAC9FAC1C
:102CD0006097E814F90491F70E9445028091FF057E
:102CE0008F3F09F4D4C00E94A90A6B017C01809136
:102CF000010690910206A0910306B0910406009788
:102D0000A105B10591F140910E0650910F06609119
:102D1000100670911106C416D506E606F70640F4B3
:102D2000C0920E06D0920F06E0921006F0921106A5
:102D300040910E0650910F06609110067091110699
:102D400046015701841A950AA60AB70A88159905FB
:102D5000AA05BB0550F48091120690911306892BA9
:102D600021F40E9477030E94AE0D809116060E9406
:102D7000F1092091000630E08217930709F05AC04C
:102D8000C092D602D092D702E092D802F092D90235
:102D90008091D502811110C00E947703C0920A066B
:102DA000D0920B06E0920C06F0920D0681E0809323
:102DB000D5020E94520D6BC08091120690911306AD
:102DC000019709F464C080910A0690910B06A091C6
:102DD0000C06B0910D06C816D906EA06FB0640F4AB
:102DE000C0920A06D0920B06E0920C06F0920D06F5
:102DF00080910A0690910B06A0910C06B0910D06E9
:102E0000C81AD90AEA0AFB0A8091050690910606BB
:102E1000A0910706B09108068C159D05AE05BF056B
:102E2000B0F587E691E00E94E4010E94AE0D0E9499
:102E300077032DC08091D6029091D702A091D8023D
:102E4000B091D902C816D906EA06FB0640F4C09232
:102E5000D602D092D702E092D802F092D9028091A5
:102E6000D6029091D702A091D802B091D902C81A87
:102E7000D90AEA0AFB0A8091AC0590E0A0E0B0E034
:102E80008C159D05AE05BF0510F41092D5028091FA
:102E900009068F3F51F061E020911406309115062C
:102EA000232B09F060E00E94190A809116068F3FDB
:102EB00009F4BAC00E94A90A6B017C01809119062D
:102EC00090911A06A0911B06B0911C060097A105CF
:102ED000B10591F14091FB055091FC056091FD0514
:102EE0007091FE05C416D506E606F70640F4C092BA
:102EF000FB05D092FC05E092FD05F092FE054091A5
:102F0000FB055091FC056091FD057091FE054601A1
:102F10005701841A950AA60AB70A88159905AA05C1
:102F2000BB0550F48091120690911306029721F48C
:102F30000E9477030E94650D809116060E94F10998
:102F40002091170630E08217930741F5C092DB020B
:102F5000D092DC02E092DD02F092DE028091DA0291
:102F600081111CC081E08093DA0289EA91E00E941D
:102F7000E4010E9477030E94520D8091FA0581308E
:102F800069F48091120690911306009729F0029738
:102F900029F40E94650D02C00E94740D8091DB022D
:102FA0009091DC02A091DD02B091DE02C816D90634
:102FB000EA06FB0640F4C092DB02D092DC02E0920B
:102FC000DD02F092DE028091DB029091DC02A091A2
:102FD000DD02B091DE02C81AD90AEA0AFB0A809122
:102FE000AC0590E0A0E0B0E08C159D05AE05BF05F6
:102FF000D8F48091DA028130B9F41092DA028EE8C6
:1030000091E00E94E4018091FA0581110DC0809148
:10301000120690911306009729F0029729F40E9456
:10302000650D02C00E94740D80911D068F3F09F44A
:1030300059C00E94F109892B29F480912F06882319
:1030400009F450C0C0901F06D0902006E0902106E1
:10305000F09022060E94A90A6C157D058E059F0539
:1030600050F40E94A90A60931F0670932006809373
:10307000210690932206C0902306D0902406E0906B
:103080002506F09026060E94A90A6C157D058E057E
:103090009F0550F40E94A90A6093230670932406AA
:1030A00080932506909326060E94A90AC0901F06C9
:1030B000D0902006E0902106F0902206DC01CB01A2
:1030C0008C199D09AE09BF09C0902706D09028062B
:1030D000E0902906F0902A068C159D05AE05BF05E7
:1030E00008F0ECC18091E40281110DC00E94A90A90
:1030F0006093E0027093E1028093E2029093E30216
:1031000081E08093E402C090E002D090E102E09080
:10311000E202F090E3020E94A90A6C157D058E057B
:103120009F0550F40E94A90A6093E0027093E102A7
:103130008093E2029093E3020E94A90AC090E00209
:10314000D090E102E090E202F090E302DC01CB01DA
:103150008C199D09AE09BF090497A105B10508F4B2
:10316000AAC10E94A90A6093E0027093E1028093D1
:10317000E2029093E3020E94A90A2B013C01809194
:10318000B405813049F58091B6059091B705A091BD
:10319000B805B091B905B301A201481B590B6A0BE0
:1031A0007B0B8091AF059091B005A091B105B091D6
:1031B000B20584179507A607B70770F48091B50587
:1031C000882351F061E08091B305811160E080E3D4
:1031D0000E94190A1092B50581E090E00090AA05BE
:1031E00002C0880F991F0A94E2F780931F040E947F
:1031F0005503289A80910B01816080930B0180E038
:103200000E944C0C80931E0480910B018E7F809352
:103210000B011092AB052091AB05283008F08AC055
:10322000E22FF0E080911E0490E002C09595879512
:103230002A95E2F780FF78C06091AA0533E0EE0F8F
:10324000FF1F3A95E1F7E45EFB4FE60FF11D86851F
:10325000811156C04AE0CE01885B9F4F0E94EC0D61
:103260004AE06091AB05CE018E5B9F4F0E94EC0D52
:103270006DE372E0C8010E94350EBE016E5B7F4FA8
:10328000C8010E94D60D68E472E00E94BF0DBE0125
:10329000685B7F4F0E94D60D6AE472E00E94BF0D0A
:1032A0000E942407C8010E94E70DCE018E5B9F4F4C
:1032B0000E94E70DCE01885B9F4F0E94E70D809131
:1032C000DF028F5F8093DF020E9477036091AA057F
:1032D0008091AB0520911206309113062230310502
:1032E00009F425C18091AA05E091AB0538E0E39F80
:1032F000F0011124E45EFB4FE80FF11D81E08687A9
:103300008091AA05E091AB0598E0E99FF0011124B6
:10331000E80FF11DEE0FFF1FEE0FFF1FE659FB4FE9
:1033200040825182628273828091AB058F5F80936D
:10333000AB0571CF8091DF0218160CF0B2C08AE69F
:10334000A82E84E0B82E9CE1892E94E0992E6196F7
:103350001FAE61977501C12CD12C2C2DA701F7014F
:1033600080819181A281B381481659066A067B0645
:1033700020F44082518262827382B4E0EB0EF11C31
:10338000FA0180819181A281B381B301A201481B1E
:10339000590B6A0B7B0B8091AC0590E0A0E0B0E08C
:1033A00084179507A607B70708F063C014012C0C13
:1033B0003D1CD1011E968C91813009F05AC04AE023
:1033C000622FCE01885B9F4F62962FAF62970E945B
:1033D000EC0D4AE061966FAD6197CE018E5B9F4F19
:1033E0000E94EC0D6CE472E0C8010E94350EBE0133
:1033F0006E5B7F4FC8010E94D60D68E472E00E94A8
:10340000BF0DBE01685B7F4F0E94D60D6AE472E07B
:103410000E94BF0D0E942407C8010E94E70DCE0143
:103420008E5B9F4F0E94E70DCE01885B9F4F0E94ED
:10343000E70D8091DF02815062962FAD629787FD84
:1034400003C08093DF0202C01092DF028091120657
:1034500090911306029709F46EC0F10116860E943E
:10346000A90A6093FB057093FC058093FD0590937A
:10347000FE05FFEFCF1ADF0A38E0C316D10409F0CA
:103480006CCF61963FAD61973F5F61963FAF6197AB
:1034900088E0880E911C90E2A90EB11C383009F02A
:1034A00059CF8091AA058F5F883018F48093AA05C0
:1034B00002C01092AA050E9409082FCA80912F0607
:1034C000882389F010922F0661E080911D060E94EA
:1034D000190A0E94A90A6093230670932406809318
:1034E0002506909326060E94A90AC0902306D09034
:1034F0002406E0902506F0902606DC01CB018C190D
:103500009D09AE09BF09C0902B06D0902C06E09013
:103510002D06F0902E06C816D906EA06FB0608F01E
:10352000E1CD60E080911D060E94190ADBCD41E0EB
:103530000E940010D7CE40E0622F61968FAD619758
:103540000E9400108ACFCF931092640310926303FD
:1035500088EE93E0A0E0B0E080936503909366036B
:10356000A0936703B093680321E132E030936203D4
:103570002093610325EC30E030936E0320936D03BC
:1035800024EC30E03093700320936F0320EC30E0A4
:10359000309372032093710321EC30E03093740375
:1035A0002093730322EC30E030937603209375036D
:1035B00026EC30E0309378032093770310927A035F
:1035C00010927B0310927C0310927D0310920104F1
:1035D000109200048093020490930304A0930404C7
:1035E000B093050483E292E09093FF038093FE037F
:1035F00010920F0410920E0410920D0410920A04FF
:1036000081E0E82FF0E0E759FD4FE491823009F4C2
:10361000EF5F91E0980FE11102C0892FF2CF809304
:103620000B04C1E0C0930C041092100461E085E328
:103630000E94480A60E085E30E94190A61E081E384
:103640000E94480A60E081E30E94190A1092AA05CC
:103650001092AB058BE48093AC058CED94E09093D5
:10366000AE058093AD058EE190E0A0E0B0E08093E0
:10367000AF059093B005A093B105B093B205C09388
:10368000B305C093B4051092B5051092B60510921B
:10369000B7051092B8051092B905C093FA051092BB
:1036A000FB051092FC051092FD051092FE058FEFB0
:1036B0008093FF05109200068093090610920A0677
:1036C00010920B0610920C0610920D0610920E0628
:1036D00010920F06109210061092110622E030E0B0
:1036E000309313062093120621E030E03093150644
:1036F00020931406809316061092170680931806DE
:1037000080931D0610921F0610922006109221062B
:10371000109222061092230610922406109225067B
:10372000109226061092270610922806109229065B
:1037300010922A0684E690E0A0E0B0E080932B0689
:1037400090932C06A0932D06B0932E0610922F0670
:1037500080E090E0FC01E05DF94F10820B968E3620
:103760009105C1F710929E068FE996E00E94B20C77
:103770001092E0061092E2061092E10685E392E0D4
:103780009093A00680939F061092E30681E090E05C
:103790009093E5068093E4061092E7061092E60601
:1037A0001092E9061092E8068AEE96E00E94B20CAA
:1037B0008BE297E00E94B20C8CE697E00E94B20C7C
:1037C0008DEA97E00E94B20C8BE392E09093AE07F3
:1037D0008093AD071092EE071092F0071092EF075A
:1037E000CF9108954532510518F4423008F004C0D5
:1037F000FB011082CB010895BB27FB015527AA27A7
:10380000880F991FAA1FA41710F0A41B839550516D
:10381000B9F7A05DAA3308F0A95DA193009779F7E5
:10382000B111B1931192CB0100C0DC01FC01672FF3
:1038300071917723E1F7329704C07C916D93708387
:103840006291AE17BF07C8F3089509D0A59F900DE8
:10385000B49F900DA49F800D911D11240895A29FE7
:10386000B001B39FC001A39F700D811D1124911D54
:10387000B29F700D811D1124911D0895A1E21A2E91
:10388000AA1BBB1BFD010DC0AA1FBB1FEE1FFF1F04
:10389000A217B307E407F50720F0A21BB30BE40B54
:1038A000F50B661F771F881F991F1A9469F760959B
:1038B0007095809590959B01AC01BD01CF01089555
:1038C000052E97FB16F400940FD057FD05D0D6DFD8
:1038D00007FC02D046F408C05095409530952195DC
:1038E0003F4F4F4F5F4F089590958095709561952C
:1038F0007F4F8F4F9F4F0895EE0FFF1F881F8BBF85
:103900000790F691E02D1994CF93DF9382309105C3
:1039100010F482E090E0E0916608F091670820E002
:1039200030E0C0E0D0E0309711F14081518148177C
:103930005907C0F04817590761F482819381209795
:1039400019F09B838A832BC0909367088093660845
:1039500026C02115310519F04217530718F49A01B2
:10396000BE01DF01EF010280F381E02DDCCF2115E4
:10397000310509F1281B390B2430310590F41296DA
:103980008D919C9113976115710521F0FB01938333
:10399000828304C09093670880936608FD01329685
:1039A00044C0FD01E20FF31F81939193225031092E
:1039B0002D933C933AC02091640830916508232BE5
:1039C00041F4209103023091040230936508209362
:1039D000640820910102309102022115310541F461
:1039E0002DB73EB74091050250910602241B350BBE
:1039F000E0916408F0916508E217F307A0F42E1B2C
:103A00003F0B2817390778F0AC014E5F5F4F241742
:103A1000350748F04E0F5F1F5093650840936408C8
:103A20008193919302C0E0E0F0E0CF01DF91CF916C
:103A300008950F931F93CF93DF93009709F48CC0E1
:103A4000FC01329713821282009166081091670878
:103A50000115110581F420813181820F931F20917E
:103A60006408309165082817390779F5F0936508DF
:103A7000E093640871C0D80140E050E0AE17BF0782
:103A800050F412962D913C911397AD0121153105FB
:103A900009F1D901F3CF9D01DA01338322836081DB
:103AA0007181860F971F8217930769F4EC012881B3
:103AB0003981260F371F2E5F3F4F318320838A8144
:103AC0009B8193838283452B29F4F0936708E093CD
:103AD000660842C01396FC93EE931297ED0149914C
:103AE00059919E01240F351FE217F30771F480816D
:103AF0009181840F951F029611969C938E938281DB
:103B0000938113969C938E931297E0E0F0E0D80196
:103B100012968D919C911397009719F0F8018C01E2
:103B2000F6CF8D919C9198012E5F3F4F820F931F8E
:103B300020916408309165082817390769F4309797
:103B400029F4109267081092660802C0138212824C
:103B50001093650800936408DF91CF911F910F9136
:103B600008956F927F928F929F92AF92BF92CF9261
:103B7000DF92EF92FF920F931F93CF93DF93EC01AD
:103B8000009781F4CB01DF91CF911F910F91FF90AE
:103B9000EF90DF90CF90BF90AF909F908F907F90ED
:103BA0006F90B2CEFC01E60FF71F9C012250310945
:103BB000E217F30708F4A8C0D9010D911C911197E1
:103BC00006171707A8F00530110508F49BC0C801B7
:103BD00004978617970708F495C002501109061B31
:103BE000170B019311936D937C93CF0122DF8AC051
:103BF0005B01A01AB10A4C01800E911EA0916608CB
:103C0000B091670840E050E0E12CF12C109709F4E6
:103C10004AC0A815B905D1F56D907C901197630144
:103C200082E0C80ED11CCA14DB0480F1A3014A193A
:103C30005B096A0182E0C80ED11C1296BC901297F3
:103C40001396AC91B5E0CB16D10440F0B282A383B9
:103C500051834083D9016D937C930AC00E5F1F4F3F
:103C6000C301800F911FF90191838083EB2DFA2FFF
:103C7000E114F10431F0D7011396FC93EE931297FF
:103C800041C0F0936708E09366083CC08D919C9119
:103C900011974817590708F4AC017D0112960D9051
:103CA000BC91A02DB3CF80916408909165088815D0
:103CB0009905E1F446175707C8F4809101029091E5
:103CC0000202009741F48DB79EB7409105025091D2
:103CD0000602841B950BE817F907B0F4F09365080A
:103CE000E0936408F901718360830CC0CB010CDEA2
:103CF0007C01009749F0A801BE011BD0CE0199DEDE
:103D0000C70104C0CE0102C080E090E0DF91CF91F6
:103D10001F910F91FF90EF90DF90CF90BF90AF90E9
:103D20009F908F907F906F90089581E090E0F8943D
:103D300010C0FB01DC0102C001900D9241505040C7
:103D4000D8F70895FB01DC0101900D920020E1F706
:063D50000895F894FFCF76
:103D5600FF000068088000000000008E09000000D7
:103D660000A207C10C3B07E8076C074A075E07007D
:103D7600000000540925098309F9081D090909FAF3
:103D860008000000008E09000000008E09434C491F
:103D9600434B4544202028002C00290052454C4521
:103DA60041534544202800536574204C6564000D3A
:103DB6000A005052455353494E473A200009002005
:103DC6003D200029203C3D3E20002042454C4F4EE0
:103DD600475320544F2047524F55502000544F47C9
:103DE600474C4544204C454420280029202D3E20A0
:103DF600005052455353494E47204C454420280015
:103E060052454C4541534544204C4544202800002A
:020000023000CC
:10E000000D9489F10D94B2F10D94B2F10D94B2F129
:10E010000D94B2F10D94B2F10D94B2F10D94B2F1F0
:10E020000D94B2F10D94B2F10D94B2F10D94B2F1E0
:10E030000D94B2F10D94B2F10D94B2F10D94B2F1D0
:10E040000D94B2F10D94B2F10D94B2F10D94B2F1C0
:10E050000D94B2F10D94B2F10D94B2F10D94B2F1B0
:10E060000D94B2F10D94B2F10D94B2F10D94B2F1A0
:10E070000D94B2F10D94B2F10D94B2F10D94B2F190
:10E080000D94B2F10D94B2F10D94B2F10D94B2F180
:10E090000D94B2F10D94B2F10D94B2F10D94B2F170
:10E0A0000D94B2F10D94B2F10D94B2F10D94B2F160
:10E0B0000D94B2F10D94B2F10D94B2F10D94B2F150
:10E0C0000D94B2F10D94B2F10D94B2F10D94B2F140
:10E0D0000D94B2F10D94B2F10D94B2F10D94B2F130
:10E0E0000D94B2F141546D656761323536300041AF
:10E0F000726475696E6F206578706C6F72657220DE
:10E1000073746B3530305632206279204D4C530099
:10E11000426F6F746C6F616465723E004875683F52
:10E1200000436F6D70696C6564206F6E203D200048
:10E130004350552054797065202020203D20005FF9
:10E140005F4156525F415243485F5F3D2000415658
:10E1500052204C696243205665723D20004743437C
:10E160002056657273696F6E203D20004350552024
:10E1700049442020202020203D20004C6F7720663D
:10E18000757365202020203D20004869676820665F
:10E190007573652020203D200045787420667573D6
:10E1A00065202020203D20004C6F636B2066757336
:10E1B000652020203D20004D617220203720323024
:10E1C000313300312E362E3800342E332E350056A2
:10E1D00023202020414444522020206F7020636F70
:10E1E00064652020202020696E73747275637469E1
:10E1F0006F6E2061646472202020496E74657272B3
:10E20000757074006E6F20766563746F7200726A49
:10E210006D702020006A6D70200057686174207056
:10E220006F72743A00506F7274206E6F7420737541
:10E2300070706F72746564004D7573742062652030
:10E2400061206C6574746572002000577269747483
:10E25000696E672045450052656164696E672045B7
:10E26000450045452065727220636E743D00504F35
:10E27000525400303D5A65726F2061646472003FF1
:10E280003D43505520737461747300403D454550C3
:10E29000524F4D207465737400423D426C696E6B41
:10E2A000204C454400453D44756D70204545505215
:10E2B0004F4D00463D44756D7020464C415348001B
:10E2C000483D48656C70004C3D4C69737420492F83
:10E2D0004F20506F72747300513D51756974005234
:10E2E0003D44756D702052414D00563D73686F7707
:10E2F00020696E7465727275707420566563746FF0
:10E30000727300593D506F727420626C696E6B00BD
:10E310002A0011241FBECFEFD1E2DEBFCDBF01E046
:10E320000CBF12E0A0E0B2E0EEE1FDEF03E00BBFB6
:10E3300002C007900D92A030B107D9F712E0A0E01B
:10E34000B2E001C01D92AE30B107E1F70F9460F367
:10E350000D948DFE01E20EBF0FEF0DBF11241FBE05
:10E360000D9460F30D9400F020E030E040ED57E0B4
:10E3700005C0FA013197F1F72F5F3F4F2817390792
:10E38000C0F308959C01260F311DC901A0E0B0E043
:10E390002F5F3F4FABBFFC018791882361F08093D3
:10E3A000C6008091C00086FFFCCF8091C0008064D1
:10E3B0008093C000EACF08958DE08093C6008091DD
:10E3C000C00086FFFCCF8091C00080648093C000B5
:10E3D0008AE08093C6008091C00086FFFCCF8091C8
:10E3E000C00080648093C00008950F94C2F10F9420
:10E3F000DCF10895FC019081992359F09093C600B7
:10E400008091C00086FFFCCF8091C0008064809323
:10E41000C0003196992379F70895282F982F929567
:10E420009F70892F805D8A3308F0895F8093C600D2
:10E430008091C00086FFFCCF8091C00080648093F3
:10E44000C000822F8F70982F905D9A3308F0995FEB
:10E450009093C6008091C00086FFFCCF8091C000E1
:10E4600080648093C00008959C01FB01853691056E
:10E470001CF46330710594F0C90164E670E00F94F8
:10E480002EFE605D7F4F6093C6008091C00086FFC6
:10E49000FCCF8091C00080648093C0002B30310598
:10E4A00014F43297B4F0C90164E670E00F942EFEC4
:10E4B0006AE070E00F942EFE605D7F4F6093C600AF
:10E4C0008091C00086FFFCCF8091C0008064809363
:10E4D000C000C9016AE070E00F942EFEC0968093E0
:10E4E000C6008091C00086FFFCCF8091C000806490
:10E4F0008093C00008951F93182F8EE692EE60E07F
:10E500000F94C2F11093C6008091C00086FFFCCF2B
:10E510008091C00080648093C0000F94DCF11F9153
:10E5200008952F923F924F925F926F927F928F92B7
:10E530009F92AF92BF92CF92DF92EF92FF920F9392
:10E540001F93DF93CF93CDB7DEB762970FB6F894E2
:10E55000DEBF0FBECDBF382E622ECA01DB015C01CB
:10E560006D01772420E2222E2E010894411C511CBB
:10E570008BC081E0A81680E0B80681E0C80680E084
:10E58000D80628F0C601AA27BB270F940DF2BB2797
:10E59000AD2D9C2D8B2D0F940DF28A2D0F940DF225
:10E5A0002092C6008091C00086FFFCCF8091C00001
:10E5B00080648093C0009DE29093C6008091C0006B
:10E5C00086FFFCCF8091C00080648093C0002092C1
:10E5D000C6008091C00086FFFCCF8091C00080649F
:10E5E0008093C00019828601750188249924A1E0D6
:10E5F0003A1651F03A1620F0B2E03B1661F409C029
:10E600000BBFF701779007C0C7010F9477FE782EF4
:10E6100002C0F7017080872D0F940DF22092C60082
:10E620008091C00086FFFCCF8091C0008064809301
:10E63000C000872D8052F401EF70F0708F3520F408
:10E64000E40DF51D708204C0E40DF51D8EE280839B
:10E650000894E11CF11C011D111D0894811C911CE2
:10E6600090E18916910409F0C2CF80E190E0A0E02A
:10E67000B0E0A80EB91ECA1EDB1E198AC2010F9493
:10E68000FAF10F94DCF16A94662009F072CF629679
:10E690000FB6F894DEBF0FBECDBFCF91DF911F91B3
:10E6A0000F91FF90EF90DF90CF90BF90AF909F9031
:10E6B0008F907F906F905F904F903F902F90089534
:10E6C0002F923F924F925F926F927F928F929F9282
:10E6D000AF92BF92CF92DF92EF92FF920F931F9370
:10E6E000DF93CF93CDB7DEB7CD53D1400FB6F894BB
:10E6F000DEBF0FBECDBF01E20EBF0FEF0DBF94B75F
:10E70000F894A89514BE80916000886180936000A1
:10E7100010926000789493FF05C0E0910002F091A0
:10E7200001021995279A2F9A8091C00082608093E8
:10E73000C00080E18093C40088E18093C1000000A4
:10E74000EE24FF24870144E0A42EB12CCC24DD2448
:10E7500024C0C5010197F1F70894E11CF11C011DCB
:10E76000111D21E2E2162EE4F20620E0020720E06D
:10E77000120718F031E0C32ED12CC801B70127ECE5
:10E780003BE140E050E00F9441FE611571058105C9
:10E79000910519F485B1805885B98091C00087FD35
:10E7A00003C0C114D104A9F2A6014F5F5F4FC25E3E
:10E7B000DE4F59834883CE51D140C25EDE4F8881FF
:10E7C0009981CE51D140019711F00D9410FEC05D9A
:10E7D000DE4F19821882C053D14060E0C15DDE4F28
:10E7E0001882CF52D14088249924C35DDE4F19820C
:10E7F0001882CD52D140C05EDE4F188219821A8233
:10E800001B82C052D140CE5CDE4F188219821A8220
:10E810001B82C253D140EE24FF2487010BBFF701B6
:10E8200007911691C45CDE4F19830883CC53D14005
:10E830000D940BFEC25EDE4F28813981CE51D1404E
:10E840002130310509F52091C600C25EDE4F1982E4
:10E850001882CE51D14022C02F5F3F4F4F4F5F4FA4
:10E86000213082E138078AE7480780E0580780F0C6
:10E87000C45CDE4FE881F981CC53D140EF5FFF4F9C
:10E8800019F0EE27FF27099420E030E040E050E047
:10E890008091C00087FFE0CF2091C600C35DDE4FAE
:10E8A00048815981CD52D1404F5F5F4FC35DDE4FEC
:10E8B00059834883CD52D140213209F063C64A3092
:10E8C000510508F05FC60894811C911C53E0851621
:10E8D000910409F059C600E010E018C081E280936D
:10E8E000C6008091C00086FFFCCF8091C00080648C
:10E8F0008093C0002F5F3F4F2931310579F70F9486
:10E90000DCF10F5F1F4F0530110519F020E030E0FA
:10E91000E5CF10920A0210920B0210920C02109294
:10E920000D02109206021092070210920802109235
:10E930000902109202021092030210920402109235
:10E9400005028FEE90EE60E00F94F5F180E191EE1C
:10E9500060E00F94C2F18091C00087FFFCCF9091DE
:10E96000C600903608F09F759032B8F09093C600BC
:10E970008091C00086FFFCCF8091C00080648093AE
:10E98000C000A0E2A093C6008091C00086FFFCCF2B
:10E990008091C00080648093C000983409F4D7C18E
:10E9A0009934B8F4923409F459C1933458F490333B
:10E9B00019F1903308F4E3C59F33A1F1903409F0C5
:10E9C000DEC5BDC0953409F470C1963409F0D7C5D1
:10E9D00098C1923509F42BC2933538F49C3409F46C
:10E9E000F5C1913509F0CBC518C2963509F445C279
:10E9F000993509F0C4C567C483E792EE62E00F94CD
:10EA0000F5F110920602109207021092080210927D
:10EA1000090210920A0210920B0210920C0210923C
:10EA20000D0213C18FE792EE62E00F94F5F18FEEC5
:10EA300090EE60E00F94F5F181E291EE60E00F94CA
:10EA4000C2F187EB91EE60E00F94F5F180E391EE77
:10EA500060E00F94C2F184EE90EE60E00F94F5F167
:10EA60008FE391EE60E00F94C2F186E090E061E008
:10EA700070E00F9434F20F94DCF18DE591EE60E0DC
:10EA80000F94C2F189EC91EE60E00F94F5F18EE401
:10EA900091EE60E00F94C2F183EC91EE60E00F9490
:10EAA000F5F18CE691EE60E00F94C2F18EE10F94E7
:10EAB0000DF288E90F940DF281E00F940DF20F949E
:10EAC000DCF18BE791EE60E00F94C2F119E0E0E039
:10EAD000F0E010935700E4918E2F0F940DF20F94F5
:10EAE000DCF18AE891EE60E00F94C2F1E3E0F0E03F
:10EAF00010935700E4918E2F0F940DF20F94DCF1D8
:10EB000089E991EE60E00F94C2F1E2E0F0E0109349
:10EB10005700E4918E2F0F940DF20F94DCF188EAE8
:10EB200091EE60E00F94C2F1E1E0F0E01093570045
:10EB30001491812F0F940DF20F94DCF107CF8BE825
:10EB400092EE62E00F94F5F18BE492EE60E00F94A8
:10EB5000F5F10F94DCF100E010E019C0C8016F2D51
:10EB60000F947FFEFF2031F489E492EE60E00F9471
:10EB7000C2F10BC0F092C6008091C00086FFFCCFAE
:10EB80008091C00080648093C0000F5F1F4FC80158
:10EB900081519F41A0E0B0E0ABBFFC01F790BAE229
:10EBA000FB1621F0E2E000301E07C1F60F94DCF105
:10EBB0000F94DCF187E592EE60E00F94F5F10F948D
:10EBC000DCF1CC24DD2400E010E01EC0C8010F946D
:10EBD00077FEF82E882331F489E492EE60E00F94FA
:10EBE000C2F10BC08093C6008091C00086FFFCCFAD
:10EBF0008091C00080648093C000FE1419F00894D6
:10EC0000C11CD11C0F5F1F4FC80181519F41A0E063
:10EC1000B0E0ABBFFC01E790FAE2EF1621F022E092
:10EC20000030120799F60F94DCF10F94DCF182E6C4
:10EC300092EE60E00F94C2F1C60161E070E00F94C3
:10EC400034F20F94DCF10F94DCF110920202109276
:10EC50000302109204021092050278CE89E992EE26
:10EC600062E00F94F5F1279A2F9A16C02F9880E052
:10EC700090E0E0EDF7E03197F1F7019684369105E9
:10EC8000C1F72F9A80E090E0E0EDF7E03197F1F7DF
:10EC9000019684369105C1F78091C00087FFE6CFC9
:10ECA0008091C00087FFFCCF64C485EA92EE62E0E9
:10ECB0000F94F5F140910202509103026091040219
:10ECC0007091050281E020E10F9491F2809102029F
:10ECD00090910302A0910402B091050280509F4FD1
:10ECE000AF4FBF4F8093020290930302A0930402A0
:10ECF000B093050280509041A040B04008F426CE69
:10ED0000A4CF83EB92EE62E00F94F5F140910602FE
:10ED100050910702609108027091090280E020E1A1
:10ED20000F9491F28091060290910702A09108023F
:10ED3000B091090280509F4FAF4FBF4F80930602A2
:10ED400090930702A0930802B0930902FFCD80ECD4
:10ED500092EE62E00F94F5F183E792EE60E00F949B
:10ED6000F5F18FE792EE60E00F94F5F18BE892EE0B
:10ED700060E00F94F5F189E992EE60E00F94F5F10F
:10ED800085EA92EE60E00F94F5F183EB92EE60E09D
:10ED90000F94F5F180EC92EE60E00F94F5F187ECC2
:10EDA00092EE60E00F94F5F188ED92EE60E00F9442
:10EDB000F5F18FED92EE60E00F94F5F18AEE92EEB0
:10EDC00060E00F94F5F183E093EEBDCD87EC92EE19
:10EDD00062E00F94F5F181E40F947BF282E40F94EA
:10EDE0007BF283E40F947BF284E40F947BF285E45E
:10EDF0000F947BF286E40F947BF287E40F947BF20E
:10EE000088E40F947BF28AE40F947BF28BE40F94F6
:10EE10007BF28CE40F947BF299CD88ED92EE62E068
:10EE20000F94F5F1772473948824992409C48FED05
:10EE300092EE62E00F94F5F140910A0250910B02BC
:10EE400060910C0270910D0282E020E10F9491F22A
:10EE500080910A0290910B02A0910C02B0910D02D8
:10EE600080509F4FAF4FBF4F80930A0290930B0289
:10EE7000A0930C02B0930D0269CD8AEE92EE62E08F
:10EE80000F94F5F184EE90EE60E00F94F5F18FECC5
:10EE900091EE60E00F94F5F1662477244301CC5D98
:10EEA000DE4F19821882C452D140D401C301B695F5
:10EEB000A79597958795CA5DDE4F88839983AA8326
:10EEC000BB83C652D140CC5DDE4FA881B981C4520C
:10EED000D1401196CC5DDE4FB983A883C452D14096
:10EEE000CD0162E070E00F9434F2B0E2B093C6005E
:10EEF0008091C00086FFFCCF8091C0008064809329
:10EF0000C000EDE2E093C6008091C00086FFFCCF18
:10EF10008091C00080648093C000F0E2F093C6004E
:10EF20008091C00086FFFCCF8091C00080648093F8
:10EF3000C000CA5DDE4FE880F9800A811B81C6529D
:10EF4000D140BB27A12F902F8F2D0F940DF2CA5DBA
:10EF5000DE4F8881C652D1400F940DF2B0E2FB2EF5
:10EF6000F092C6008091C00086FFFCCF8091C00067
:10EF700080648093C0000DE30093C6008091C000C0
:10EF800086FFFCCF8091C00080648093C00010E2B7
:10EF90001093C6008091C00086FFFCCF8091C00016
:10EFA00080648093C0008BBEF3012791C65DDE4F65
:10EFB0002883CA52D140A22EBB24CC24DD2408943D
:10EFC000611C711C811C911C8BBEF3018791282E42
:10EFD0003324442455240894611C711C811C911C09
:10EFE0008BBEF3013791C55DDE4F3883CB52D140E4
:10EFF0000894611C711C811C911C8BBEF30147910C
:10F00000C45DDE4F4883CC52D140ADEFEA2EAFEF66
:10F01000FA2EAFEF0A2FAFEF1A2F6E0C7F1C801E57
:10F02000911E142D032DF22CEE24EA0CFB1C0C1D5A
:10F030001D1D0F940DF220E22093C6008091C000A8
:10F0400086FFFCCF8091C00080648093C000C65DC5
:10F05000DE4F8881CA52D1400F940DF230E23093D6
:10F06000C6008091C00086FFFCCF8091C000806404
:10F070008093C000C45DDE4F8881CC52D1400F9494
:10F080000DF240E24093C6008091C00086FFFCCFA5
:10F090008091C00080648093C000C55DDE4F888190
:10F0A000CB52D1400F940DF250E25093C6008091A4
:10F0B000C00086FFFCCF8091C00080648093C000B8
:10F0C0008FEFE8168FEFF80680E0080780E018075A
:10F0D00031F484E092EE60E00F94C2F1DFC0D80119
:10F0E000C7018070907CA070B0708050904CA040A0
:10F0F000B040D1F52FEF3FE340E050E0E222F322B1
:10F1000004231523CA5DDE4FA880B980CA80DB8046
:10F11000C652D140AE0CBF1CC01ED11EAA0CBB1CD7
:10F12000CC1CDD1C8EE092EE60E00F94C2F1BB2798
:10F13000A12F902F8F2D0F940DF28E2D0F940DF285
:10F1400030E23093C6008091C00086FFFCCF8091F2
:10F15000C00080648093C0004EE34093C60080915D
:10F16000C00086FFFCCF87C08EE09EEFA0E0B0E03D
:10F17000E822F9220A231B239CE0E91694E9F90608
:10F1800090E0090790E0190709F088C0C45DDE4FE0
:10F19000A881CC52D140EA2EFF2400E010E0102FCD
:10F1A0000F2DFE2CEE24C55DDE4FB881CB52D14031
:10F1B000EB0EF11C011D111DD601C501817090706F
:10F1C000A070B070DC0199278827E80EF91E0A1F8D
:10F1D0001B1F20EF30E040E050E0A222B322C42207
:10F1E000D52241E1AA0CBB1CCC1CDD1C4A95D1F7F1
:10F1F000EA0CFB1C0C1D1D1D81E090E0A0E0B0E0BE
:10F20000282239224A225B2235E1220C331C441C7D
:10F21000551C3A95D1F7E20CF31C041D151D57013E
:10F220006801AA0CBB1CCC1CDD1C85E192EE60E0E1
:10F230000F94C2F1C801AA27BB270F940DF2BB2778
:10F24000A12F902F8F2D0F940DF28E2D0F940DF274
:10F2500090E29093C6008091C00086FFFCCF809121
:10F26000C00080648093C000AEE3A093C60080918C
:10F27000C00086FFFCCF8091C00080648093C000F6
:10F28000C601AA27BB270F940DF2BB27AD2D9C2DDD
:10F290008B2D0F940DF28A2D0F940DF20F94DCF14B
:10F2A000CC5DDE4FE881F981C452D140F99709F471
:10F2B0004DCBF4E0EF2EF12C012D112D6E0C7F1CA7
:10F2C000801E911EF2CD83E093EE62E00F94F5F183
:10F2D0008AE192EE60E00F94C2F18091C00087FF56
:10F2E000FCCF1091C6001F751093C6008091C0001E
:10F2F00086FFFCCF8091C00080648093C0000F9493
:10F30000DCF1812F81548A3108F036C1163409F4BA
:10F3100095C0173490F4133409F44EC0143430F40B
:10F320001134F1F0123409F01DC130C0143409F465
:10F3300059C0153409F016C16BC01A3409F4C4C0A1
:10F340001B3438F4173409F48FC0183409F00AC19B
:10F35000A1C01B3409F4D2C01C3409F003C1E8C0B9
:10F360008FEF81B90DC082B1809582B980E090E0C5
:10F37000E0EDF7E03197F1F70196883C9105C1F790
:10F380008091C00087FFEFCF12B8EFC08FEF84B934
:10F390000DC085B1809585B980E090E0E0EDF7E0A3
:10F3A0003197F1F70196883C9105C1F78091C00033
:10F3B00087FFEFCF15B8D9C08FEF87B90DC088B1DF
:10F3C000809588B980E090E0E0EDF7E03197F1F7C3
:10F3D0000196883C9105C1F78091C00087FFEFCF6F
:10F3E00018B8C3C08FEF8AB90DC08BB180958BB9A7
:10F3F00080E090E0E0EDF7E03197F1F70196883C8E
:10F400009105C1F78091C00087FFEFCF1BB8ADC059
:10F410008FEF8DB90DC08EB180958EB980E090E0F0
:10F42000E0EDF7E03197F1F70196883C9105C1F7DF
:10F430008091C00087FFEFCF1EB897C08FEF80BBD1
:10F440000DC081B3809581BB80E090E0E0EDF7E0F6
:10F450003197F1F70196883C9105C1F78091C00082
:10F4600087FFEFCF11BA81C08FEF83BB0DC084B38C
:10F47000809584BB80E090E0E0EDF7E03197F1F714
:10F480000196883C9105C1F78091C00087FFEFCFBE
:10F4900014BA6BC08FEF809301010FC080910201FD
:10F4A00080958093020180E090E0E0EDF7E03197F5
:10F4B000F1F70196883C9105C1F78091C00087FF64
:10F4C000EDCF1092020151C08FEF809304010FC065
:10F4D0008091050180958093050180E090E0E0ED4A
:10F4E000F7E03197F1F70196883C9105C1F78091DB
:10F4F000C00087FFEDCF1092050137C08FEF8093DA
:10F5000007010FC08091080180958093080180E079
:10F5100090E0E0EDF7E03197F1F70196883C910536
:10F52000C1F78091C00087FFEDCF109208011DC088
:10F530008FEF80930A010FC080910B01809580931B
:10F540000B0180E090E0E0EDF7E03197F1F70196F4
:10F55000883C9105C1F78091C00087FFEDCF1092E4
:10F560000B0103C085E292EEEEC98091C00087FFD7
:10F57000FCCF8091C600EAC988E392EEE4C98CE131
:10F5800091EEE1C988249924933011F1943028F444
:10F59000913089F09230B8F408C0953061F195301F
:10F5A000F0F0963009F048C043C02B3109F042C951
:10F5B00091E06BE13FC96227C15DDE4F2883CF52E6
:10F5C000D14092E037C9B22FA0E0622793E032C960
:10F5D000822F90E0A82BB92B622794E02BC92E3004
:10F5E00009F039C3622795E0C05DDE4F19821882A9
:10F5F000C053D1401FC9E1E0F0E0EC0FFD1FC05D3A
:10F60000DE4F08811981C053D140E00FF11F2083E4
:10F610000F5F1F4FC05DDE4F19830883C053D14079
:10F6200062270A171B0709F005C9D80196E002C92D
:10F63000261709F010C303C0973009F0FBC87724E0
:10F640009981933109F412C19431C8F4963009F4C8
:10F65000D8C0973050F4923009F406C1933009F4C1
:10F660006DC0913009F059C253C0913109F477C08F
:10F67000923108F0BBC0903109F04FC2F5C098310B
:10F6800009F487C0993150F4953109F4EFC09531F0
:10F6900008F4C6C1963109F040C2C2C19A3109F4DA
:10F6A0006CC09A3108F491C09B3109F45BC09D3164
:10F6B00009F033C29D81903359F48F81882311F46E
:10F6C0009EE11CC0813011F091E018C098E916C08D
:10F6D000892F807591F0903539F4E0E0F0E089E011
:10F6E0008093570094910AC0983539F4E3E0F0E034
:10F6F00089E080935700949101C090E01A821B82A8
:10F700008D818C831D829E831F8227E030E009C299
:10F710001A8288E08B8381E48C8386E58D8382E581
:10F720008E8389E48F8383E5888780E589878FE5E9
:10F730008A8782E38B872BE030E0F3C18A818139AD
:10F7400041F0823941F0803911F48FE005C080E04A
:10F7500003C082E001C08AE01A828B8344C0772410
:10F76000739482C08D81882311F48EE12CC0813086
:10F7700011F081E028C088E926C01A82E1E0F0E0BB
:10F7800089E08093570084918B831C8224E030E0D1
:10F79000C8C18B81803589F48C81883039F4E2E0EE
:10F7A000F0E089E08093570084910DC0E0E0F0E044
:10F7B00089E080935700849106C0E3E0F0E089E09F
:10F7C0008093570084911A82DFCF8D81836C99E0FA
:10F7D000E1E0F0E0082E90935700E89507B600FCB2
:10F7E000FDCF1A821B8223E030E09BC180EC8A832C
:10F7F000CE5CDE4F188219821A821B82C253D1401E
:10F800008EC18A8190E0A0E0B0E0582F44273327D2
:10F8100022278B8190E0A0E0B0E0DC0199278827C7
:10F82000282B392B4A2B5B2B8D8190E0A0E0B0E098
:10F83000282B392B4A2B5B2B8C8190E0A0E0B0E089
:10F84000BA2FA92F982F8827282B392B4A2B5B2BCF
:10F85000220F331F441F551FC05EDE4F288339839C
:10F860004A835B83C052D1401A8259C13A81C95C34
:10F87000DE4F3883C753D140CA5CDE4F1882C6536F
:10F88000D1408B81C82EDD24CA5CDE4F488159816E
:10F89000C653D140C42AD52A933109F082C0CE5C28
:10F8A000DE4F88819981AA81BB81C253D1408050AB
:10F8B000904CA340B04030F583E0CE5CDE4FE88052
:10F8C000F9800A811B81C253D140F70100935B008C
:10F8D00080935700E89507B600FCFDCFCE5CDE4F65
:10F8E000088119812A813B81C253D14000501F4FAA
:10F8F0002F4F3F4FCE5CDE4F088319832A833B8313
:10F90000C253D140C05EDE4F488159816A817B81FC
:10F91000C052D140DE011B9631E08C9111962C91A2
:10F9200011971296C75CDE4F2883C953D140C85C3B
:10F93000DE4F1882C853D14090E0C85CDE4FE881AA
:10F94000F981C853D1408E2B9F2B0C01FA01609393
:10F950005B0030935700E89511244E5F5F4F6F4F67
:10F960007F4F0EEFE02E0FEFF02ECE0CDF1CC114F8
:10F97000D10499F685E0C05EDE4F088119812A81A5
:10F980003B81C052D140F80120935B008093570027
:10F99000E89507B600FCFDCF81E180935700E8951C
:10F9A00035C0C05EDE4F88819981AA81BB81C0527B
:10F9B000D140B695A795979587957C018601ABE0D8
:10F9C000AA2EB12CAC0EBD1E0BC0D5016D915D01F0
:10F9D000C7010F947FFE0894E11CF11C01501040F8
:10F9E0000115110591F7A60160E070E0440F551F65
:10F9F000661F771FC05EDE4FE880F9800A811B8199
:10FA0000C052D1404E0D5F1D601F711F1A82C05E33
:10FA1000DE4F488359836A837B83C052D1407FC0C5
:10FA2000FA80C55CDE4FF882CB53D140C65CDE4F16
:10FA30001882CA53D1408B81C82EDD24C65CDE4FAC
:10FA400008811981CA53D140C02AD12A1A828981DA
:10FA5000BE016D5F7F4F843121F59601C05EDE4FA0
:10FA6000E880F9800A811B81C052D1400BBFF701A9
:10FA700087919691DB018C9311969C936E5F7F4FDB
:10FA8000D801C7010296A11DB11DC05EDE4F88835B
:10FA90009983AA83BB83C052D14022503040F1F6F3
:10FAA00036C0C05EDE4F288139814A815B81C052F9
:10FAB000D1400894C108D108760100E010E0089414
:10FAC000C11CD11C0894E11CF11C011D111DE20E8A
:10FAD000F31E041F151F21BDBB27A52F942F832FB5
:10FAE00082BD2F5F3F4F4F4F5F4FF89A80B5DB01CC
:10FAF0008D93BD012E153F054007510761F7C05E8C
:10FB0000DE4F288339834A835B83C052D1409601FC
:10FB10002D5F3F4FFB01108204C080EC8A8322E0FE
:10FB200030E08BE18093C6008091C00086FFFCCF5F
:10FB30008091C00080648093C000C15DDE4FF88179
:10FB4000CF52D140F093C6008091C00086FFFCCF19
:10FB50008091C00080648093C000432F3093C60022
:10FB60008091C00086FFFCCF8091C00080648093AC
:10FB7000C000922F2093C6008091C00086FFFCCF6A
:10FB80008091C00080648093C0008EE08093C600A6
:10FB90008091C00086FFFCCF8091C000806480937C
:10FBA000C00065E1C15DDE4FE880CF52D1406E25D7
:10FBB00069276427FE01319610C090819093C6009A
:10FBC0008091C00086FFFCCF31968091C000806498
:10FBD0008093C0006927215030402115310569F715
:10FBE0006093C6008091C00086FFFCCF8091C0006A
:10FBF00080648093C00085B1805885B9772081F4F6
:10FC0000C15DDE4F0881CF52D1400F5FC15DDE4F35
:10FC10000883CF52D14090E0A0E0B0E00D941AF4F8
:10FC200027982F9880E090E020ED37E0F901319798
:10FC3000F1F7019684369105C9F700008091C00064
:10FC40008D7F8093C00081E180935700E895EE2777
:10FC5000FF270994FFCF90E00D941AF497FB092E2B
:10FC600007260AD077FD04D02ED006D000201AF443
:10FC7000709561957F4F0895F6F7909581959F4F08
:10FC80000895A1E21A2EAA1BBB1BFD010DC0AA1FDD
:10FC9000BB1FEE1FFF1FA217B307E407F50720F0F5
:10FCA000A21BB30BE40BF50B661F771F881F991F70
:10FCB0001A9469F760957095809590959B01AC01B9
