:1000000085C10000B4C10000B2C10000B0C1000051
:10001000AEC10000ACC10000AAC10000A8C1000030
:10002000A6C10000A4C10000A2C10000A0C1000040
:100030009EC100000C9413119AC1000098C10000E9
:1000400096C1000094C1000092C1000090C1000060
:100050008EC100008CC100008AC100000C94070B07
:1000600086C100000C940D0A0C94E40980C10000C4
:100070007EC100007CC100007AC1000078C1000090
:1000800076C1000074C1000072C1000070C10000A0
:100090006EC100006CC100006AC100000C94510BDD
:1000A00066C1000064C1000062C1000060C10000C0
:1000B0005EC100005CC100005AC1000058C10000D0
:1000C00056C1000054C1000052C1000050C10000E0
:1000D0004EC100004CC100004AC1000048C10000F0
:1000E00046C10000AE08B108A008A408AA08E808A4
:1000F000B508B908BF08C308C708CD08D108D50896
:10010000E808DB08DF08E3080000210024002700DE
:100110002A002D0030003300010100000401070116
:100120000A01535441525420434F4445007D20540A
:100130004F2047524F555020002C00414444454425
:100140003A207B00534C415645204953205245519B
:1001500055455354494E4720544F204C4F434B0074
:10016000534C41564520495320524551554553540F
:10017000494E4720544F20554E4C4F434B00505250
:1001800045535320414E4420484F4C44204C4F434C
:100190004B20425554544F4E2C204C4F434B494E0C
:1001A000472E2E2E0053484F5254204C4F434B2085
:1001B000425554544F4E2052454C454153454400FE
:1001C00053484F5254204C4F434B20425554544FA8
:1001D0004E20434C49434B45440001021020200867
:1001E0000810204010204080020102010804020192
:1001F0000102040810204080804020100804020101
:100200008004020180402010080402010804020159
:1002100001020408102040800102040810204080E0
:1002200000002200250028002B002E0031003400A1
:1002300002010000050108010B0105050505070580
:1002400008080808020202020A0A08080404040452
:10025000010101010101010103030303030303037E
:10026000040707070C0C0C0C0C0C0C0C020202020D
:1002700006060606060606060B0B0B0B0B0B0B0BF6
:10028000021F1C1F1E1F1E1F1F1E1F1E1F000020DF
:10029000002300260029002C002F0032000001005E
:1002A0000003010601090100000A0B02090C0D0EF2
:1002B0000807030401000000000000000000000027
:1002C000000000000000000000000000000000002E
:1002D00000000012111000000000000000000000EB
:1002E000000000000000000000000000004C4F4330
:1002F0004B454400554E4C4F434B45440053484FEB
:100300005254204C4F434B454400911B11241FBEB7
:10031000CFEFD1E2DEBFCDBF00E00CBF28E0A4EC00
:10032000B2E001C01D92A836B207E1F712E0A0E0EA
:10033000B2E0EAE0FFE300E00BBF02C007900D92DD
:10034000A43CB107D9F711E0C6E8D1E000E006C04F
:1003500021970109802FFE010E94561DC538D10743
:1003600080E00807A9F70E94B1110C94831F48CEC2
:10037000009769F0FC0101900020E9F73197AF0187
:10038000481B590BBC018EE693E00C94130D80E0E2
:1003900090E00895E82FF0E0DF0193E0AA0FBB1F83
:1003A0009A95E1F7A75DBB4FA60FB11DA25BBE4FAB
:1003B0004C9320E830E002C0359527956A95E2F726
:1003C000E75DFB4F442319F09681292B03C020954C
:1003D00096812923268396818F5F80932E049093A4
:1003E0002D048FE592E0C4DF82E492E0C1CF0F9349
:1003F0001F93CF93DF938C01C0E0D0E0F801EC0FA6
:10040000FD1F6491662371F0E0916E03F0916F031C
:100410000190F081E02D8EE693E01995892B11F083
:100420002196ECCFCE01DF91CF911F910F910895CE
:100430008F929F92AF92BF920F931F93CF93DF93B0
:10044000CDB7DEB7A1970FB6F894DEBF0FBECDBF14
:1004500019A2423008F44AE08E010F5D1F4F842E2E
:10046000912CA12CB12CA50194010E94181DE62FFE
:10047000B901CA0101501109EA3014F4E05D01C06C
:10048000E95CD801EC93232B242B252B61F7C801C1
:100490006FDFA1960FB6F894DEBF0FBECDBFDF9120
:1004A000CF911F910F91BF90AF909F908F90089523
:1004B000CF93DF939CDFEC0182E492E059DF8C0F55
:1004C0009D1FDF91CF9108958F929F92AF92BF921F
:1004D000CF92DF92EF92FF920E94D60A4B015C010D
:1004E0008AE0C82ED12CE12CF12C0E94D60ADC0126
:1004F000CB0188199909AA09BB09883E9340A10537
:10050000B10558F021E0C21AD108E108F10888EEDF
:10051000880E83E0981EA11CB11CC114D104E10413
:10052000F10419F7FF90EF90DF90CF90BF90AF905C
:100530009F908F90089520916D0390916C032132CC
:1005400008F04AC0809149038111FCCF32E030931A
:10055000490331E0309348033FEF30934703109253
:10056000460320934503ACE4B3E045E253E0FA01CF
:100570003E2F341B321718F43D913193F9CF10926E
:10058000240320912403990F922B9093240390919C
:100590002303913061F410922303909124039093EC
:1005A000BB009091BC0093FDF8CF95EC01C095EE97
:1005B0009093BC00909149039230E1F390914703EE
:1005C0009F3F79F080914703803241F0809147034B
:1005D000803331F084E005C081E003C082E001C0D7
:1005E00083E010924B0310926D0310924A0308951A
:1005F000CF93C62F91E090934A0398E690936C03B3
:1006000010924B0310926D03682F8BE094E09ED6FE
:100610006C2F8BE094E09AD6CF918DCF90914903C7
:100620009111FCCF91E090934903909348032FEFF1
:100630002093470310924603260F2093450390937F
:10064000240390912403880F892B809324038091A5
:100650002303813061F4109223038091240380935B
:10066000BB008091BC0083FDF8CF85EC01C085EE16
:100670008093BC00809149038130E1F3809146036F
:10068000861710F460914603A5E2B3E022E033E060
:10069000F9018E2F821B861718F48D918193F9CF63
:1006A000862F0895813208F080E2682F88E6B6DF51
:1006B00010920103809300030895909170078917A9
:1006C00058F4E82FF0E0E157F84FE081F0E0EF5800
:1006D000F84F608381E0089580E0089590916F075E
:1006E000292F30E02E313105ACF481E0890F809361
:1006F0006F0780917007E82FF0E0E157F84F908383
:1007000091E0980F9093700760E0D7DF80917007B9
:10071000815008958FEF08959091ED06292F30E0D4
:100720002E313105B4F481E0890F8093ED0680917C
:10073000EE06E82FF0E0E35FF84F908391E0980F2A
:100740009093EE06891730F4F901E151F94F1082C8
:1007500008958FEF0895CF93DF932898EBE0F1E0B1
:1007600080818E7F8083C9E2D4E08D810E949E0CBF
:100770008C810E949E0C80E00E949E0C289A2898F2
:100780008D810E949E0C8C810E949E0C8B810E9408
:100790009E0C289ADF91CF9108953F924F925F92DD
:1007A0006F927F928F929F92AF92BF92CF92DF9281
:1007B000EF92FF920F931F93CF93DF9300D01F927E
:1007C000CDB7DEB7C0901408D0901508E090160899
:1007D000F090170810D76C157D058E059F0548F41D
:1007E0000AD76093140870931508809316089093A5
:1007F000170801D7009114081091150820911608C8
:1008000030911708AB01BC01401B510B620B730BFD
:100810008091BC059091BD05A091BE05B091BF052A
:100820000A96A11DB11D481759076A077B0708F4EE
:100830004BC3E1D660931408709315088093160893
:10084000909317088091C1058111CFC24090BC05DB
:100850005090BD056090BE057090BF050091BA052F
:100860001091BB0580910002803321F08F3F09F089
:100870002BC304C0E0E8F2E03490EDC080E3809345
:100880000002E0E8F2E0E491EF3F09F41DC3E2303A
:1008900009F474C054F5EE2309F453C0E13009F0B3
:1008A000D9C01092800010928100809181008860F0
:1008B0008093810080918100816080938100EAE6CD
:1008C000F2E0E491F0E0EE0FFF1FE05EFD4F859156
:1008D00094919093FC078093FB07EAE0F2E0E491A7
:1008E000E093FA0733243394B8C0E43009F48EC09F
:1008F0000CF468C0E53009F0ADC0109220011092F0
:100900002101809121018860809321018091210142
:10091000816080932101EAE6F2E0E491F0E0EE0FDD
:10092000FF1FE05EFD4F859194919093F3078093B4
:10093000F207EAE0F2E0E491E093F10765E0362E99
:100940008CC014BC15BC84B5826084BD85B5816043
:1009500085BDEAE6F2E0E491F0E0EE0FFF1FE05E15
:10096000FD4F859194919093FF078093FE07EAE0F5
:10097000F2E0E491E093FD07312C6FC01092B000DB
:100980001092B1008091B00082608093B00080919D
:10099000B10081608093B100EAE6F2E0E491F0E01A
:1009A000EE0FFF1FE05EFD4F859194919093FB0247
:1009B0008093FA02EAE0F2E0E491E093F90292E037
:1009C000392E4BC0109290001092910080919100AE
:1009D0008860809391008091910081608093910064
:1009E000EAE6F2E0E491F0E0EE0FFF1FE05EFD4F7B
:1009F000859194919093F9078093F807EAE0F2E0EB
:100A0000E491E093F707B3E03B2E27C01092A000DB
:100A10001092A1008091A10088608093A100809134
:100A2000A10081608093A100EAE6F2E0E491F0E0A9
:100A3000EE0FFF1FE05EFD4F859194919093F607B6
:100A40008093F507EAE0F2E0E491E093F407E4E054
:100A50003E2E03C03E2E37FC37C261E080E36AD5EC
:100A60004801A12CB12C832D8D7F09F0BBC060E023
:100A700072E18AE790E0A50194010E943A1D298362
:100A80003A834B835C8369017A0121E0C21AD10861
:100A9000E108F1088FEFC816D104E104F10409F070
:100AA00008F44CC060E472E48FE090E0A50194018A
:100AB0000E943A1D69017A0191E0C91AD108E10842
:100AC000F108E2E03E1220C0FFEFCF16D104E104AE
:100AD000F10409F008F4F6C160E970ED83E090E0FC
:100AE000A50194010E943A1D69017A0181E0C81AAA
:100AF000D108E108F1089FEFC916D104E104F1041F
:100B000009F0D0F583E067C0EFEFCE16D104E10421
:100B1000F104B1F0A8F068E478EE81E090E0A5017E
:100B200094010E943A1D69017A01F1E0CF1AD108BF
:100B3000E108F108332009F4A3C199C181E001C0A3
:100B400082E03320A1F047C089819A81AB81BC81CA
:100B50002AE0B595A795979587952A95D1F76C01C9
:100B60007D01F1E0CF1AD108E108F10885E095B5E3
:100B7000987F892B85BDA6C068E478EE81E090E07F
:100B8000A50194010E943A1D69017A0181E0C81A09
:100B9000D108E108F1089FEFC916D104E104F1047E
:100BA00009F008F433C164E274EF80E090E0A5013D
:100BB00094010E943A1D69017A0181E0C81AD108A6
:100BC000E108F1089FEFC916D104E104F10411F026
:100BD00008F01EC185E09091B100987F892B809329
:100BE000B10070C060E072E18AE790E0A501940175
:100BF0000E943A1D69017A01F1E0CF1AD108E1089B
:100C0000F108C114D10421E0E206F10488F068E49F
:100C100078EE81E090E0A50194010E943A1D6901FF
:100C20007A0181E0C81AD108E108F10883E001C027
:100C300081E091E0391210C090918100987F892B5A
:100C400080938100411451046104710409F03FC094
:100C50002FEF3FEFA90171C0E3E03E120FC090916A
:100C60009100987F892B8093910041145104610475
:100C7000710469F52FEF3FEFA90181C0F4E03F1245
:100C80000FC09091A100987F892B8093A1004114FF
:100C9000510461047104D9F42FEF3FEFA90181C021
:100CA00025E032120FC090912101987F892B80930B
:100CB0002101411451046104710449F42FEF3FEF05
:100CC000A90181C0411451046104710471F0D8017B
:100CD000AA0FBB1FA30192010E94FF1C28EE33E064
:100CE00040E050E00E94181D03C02FEF3FEFA90124
:100CF00082E03816A1F1831534F0332079F091E0C9
:100D00003916D9F0E1C0E4E03E1609F44AC03E16B7
:100D1000B4F1F5E03F1609F456C0D6C0C7BC209325
:100D200010083093110840931208509313088091D3
:100D30006E00826080936E00C7C0D0928900C0921E
:100D4000880020930C0830930D0840930E085093B0
:100D50000F0880916F00826080936F00B5C0C092D1
:100D6000B3002093FC023093FD024093FE025093A7
:100D7000FF0280917000826080937000A5C0D092C5
:100D80009900C09298002093080830930908409376
:100D90000A0850930B088091710082608093710063
:100DA00093C0D092A900C092A80020930408309369
:100DB00005084093060850930708809172008260EE
:100DC0008093720081C0D0922901C09228012093A3
:100DD0000008309301084093020850930308809163
:100DE00073008260809373006FC081E08093C205BE
:100DF0006091C00580E36FD3FED36093C305709309
:100E0000C4058093C5059093C6055EC084E0E3CE1B
:100E100062E17AE780E090E0A50194010E943A1D2A
:100E200069017A01E1E0CE1AD108E108F108FFEF8B
:100E3000CF16D104E104F104C1F0B8F089819A81A0
:100E4000AB81BC814AE0B595A795979587954A9562
:100E5000D1F76C017D01E1E0CE1AD108E108F1087B
:100E6000332009F483CE87E0B6CE86E06ACE2FEF3A
:100E7000C216D104E104F10409F050F684E061CE19
:100E8000EFEFCE16D104E104F104D1F0C8F062E135
:100E90007AE780E090E0A50194010E943A1D690183
:100EA0007A0181E0C81AD108E108F1089FEFC9165C
:100EB000D104E104F10411F008F046CE84E057CEED
:100EC00083E055CE82E087CE0F900F900F900F9069
:100ED000DF91CF911F910F91FF90EF90DF90CF9016
:100EE000BF90AF909F908F907F906F905F904F904A
:100EF0003F900895CF93DF93FC0144815581608139
:100F000071818EE693E08FD5EC0182E492E030DAD5
:100F10008C0F9D1FDF91CF910895FC01538D448D5F
:100F2000252F30E0842F90E0821B930B541710F094
:100F3000CF96089501970895FC01918D828D9817A1
:100F400061F0828DDF01A80FB11D5D968C91928DAD
:100F50009F5F9F73928F90E008958FEF9FEF0895AA
:100F6000FC01918D828D981731F0828DE80FF11D73
:100F7000858D90E008958FEF9FEF0895FC01918D8E
:100F8000228D892F90E0805C9F4F821B91098F7387
:100F9000992708958EE693E0F1DF21E0892B09F48B
:100FA00020E0822F0895FC01848DDF01A80FB11D80
:100FB000A35ABF4F2C91848D90E001968F7399278F
:100FC000848FA689B7892C93A089B1898C9180647C
:100FD0008C93938D848D981306C00288F389E02D3D
:100FE00080818F7D80830895EF92FF920F931F93EE
:100FF000CF93DF93EC0181E0888F9B8D8C8D9813CC
:1010000005C0E889F989808185FD23C0F62E0B8D06
:1010100010E00F5F1F4F0F731127E02E8C8DE81229
:101020000BC00FB607FCFACFE889F989808185FFEC
:10103000F5CFCE01B8DFF2CF8B8DFE01E80FF11DA9
:10104000E35AFF4FF0820B8FEA89FB89808180622F
:1010500007C0EE89FF896083E889F989808180640F
:10106000808381E090E0DF91CF911F910F91FF90FD
:10107000EF900895CF93DF93EC01888D8823C1F022
:10108000EA89FB89808185FD05C0A889B9898C9191
:1010900086FD0EC00FB607FCF5CF808185FFF2CF2D
:1010A000A889B9898C9185FFEDCFCE017CDFE8CF8F
:1010B000DF91CF91089580E090E0892B19F06ADFED
:1010C000811125C080E090E0892B41F080E090E024
:1010D000892B21F00E94000081111CC080E090E06B
:1010E000892B41F080E090E0892B21F00E940000E4
:1010F000811113C080E090E0892BA1F080E090E0A6
:10110000892B81F00E94000081110AC008950E947D
:101110000000D8CF0E940000E1CF0E940000EACF7B
:101120000C940000089590E0FC013197E231F10544
:1011300008F04EC08827EE58FF4F8F4F0C94561D75
:10114000809180008F7703C0809180008F7D809395
:101150008000089580918000877FF9CF84B58F77D4
:1011600002C084B58F7D84BD08958091B0008F77D3
:1011700003C08091B0008F7D8093B000089580916E
:1011800090008F7707C0809190008F7D03C0809181
:101190009000877F8093900008958091A0008F77C2
:1011A00007C08091A0008F7D03C08091A000877F41
:1011B0008093A0000895809120018F7707C08091CF
:1011C00020018F7D03C080912001877F80932001C3
:1011D000089585ED8093BC008091BC0084FDFCCF18
:1011E00010924903089540913808262F30E0240FCB
:1011F000311D21323105DCF4209149032430C9F43A
:10120000FC0180E090E0861758F430913808219175
:10121000DC01A85EB74FA30FB11D2C930196F3CF4D
:1012200080913808680F6093380880E0089581E065
:10123000089582E00895E091C402F091C5023097CC
:1012400029F010924B0310926D0319940895AC018C
:10125000E091C602F091C7023097E1F0909101034E
:10126000809100039817B0F090E0292F30E0261706
:10127000370754F4DA01A20FB31F8C91D901AE5F86
:10128000BC4F8C939F5FF1CF1092010360930003DA
:10129000CB01199408950895E09101038091000312
:1012A000E81730F4F0E0EE5FFC4F808190E00895A5
:1012B0008FEF9FEF0895909101038091000398179D
:1012C00050F4E92FF0E0EE5FFC4F208130E09F5FAB
:1012D0009093010302C02FEF3FEFC9010895809161
:1012E000000390E020910103821B91090895CF92A1
:1012F000DF92EF92FF920F931F93CF93DF937C01C6
:10130000262F972F8A0180914A03882391F0C62FB8
:10131000D72F6E01C40ED51ECC15DD0569F069917D
:10132000D701ED91FC910190F081E02DC701199555
:10133000F3CF642F822F57DFC801DF91CF911F9128
:101340000F91FF90EF90DF90CF900895CF93DF93B0
:101350001F92CDB7DEB7698320914A032223D1F0D3
:1013600020916D03203240F021E030E0FC01338316
:10137000228380E090E014C080914B03E82FF0E0DE
:10138000E45BFC4F998190838F5F80934B03809344
:101390006D0304C061E0CE01019625DF81E090E09D
:1013A0000F90DF91CF910895089580E090E0089527
:1013B000E091E606F091E706309709F01994089558
:1013C000059608950E946F1F1F920F920FB60F92FD
:1013D00011240BB60F922F933F934F935F936F930C
:1013E0007F938F939F93AF93BF93EF93FF938EE67B
:1013F00093E0D9DDFF91EF91BF91AF919F918F91D4
:101400007F916F915F914F913F912F910F900BBE04
:101410000F900FBE0F901F9018951F920F920FB64E
:101420000F9211240BB60F922F938F939F93EF93EC
:10143000FF93E0917E03F0917F038081E09184032C
:10144000F091850382FD12C09081809187038F5FA8
:101450008F7320918803821751F0E0918703F0E0A9
:10146000E259FC4F958F8093870301C08081FF91E3
:10147000EF919F918F912F910F900BBE0F900FBE08
:101480000F901F901895CF93DF93282F30E0F9012C
:10149000E955FD4F8491F901E652FE4FD491F901CF
:1014A000E65CFD4FC491CC2389F081113CDEEC2F2A
:1014B000F0E0EE0FFF1FE357FD4FA591B491EC91C3
:1014C000ED2381E090E021F480E002C080E090E034
:1014D000DF91CF9108951F93CF93DF93282F30E0B2
:1014E000F901E955FD4F8491F901E652FE4FD4917F
:1014F000F901E65CFD4FC491CC23C1F0162F811198
:1015000012DEEC2FF0E0EE0FFF1FE05EFD4FA59125
:10151000B4918FB7F894111105C09C91ED2FE0950F
:10152000E92302C0EC91ED2BEC938FBFDF91CF91BB
:101530001F910895CF93DF9390E0FC01E652FE4F98
:101540002491FC01E65CFD4F8491882361F190E0D9
:10155000880F991FFC01E85FFE4FC591D491FC01F3
:10156000E05EFD4FA591B491611109C09FB7F89459
:101570008881209582238883EC912E230BC06230D2
:1015800061F49FB7F8943881822F809583238883F4
:10159000EC912E2B2C939FBF06C08FB7F894E88157
:1015A0002E2B28838FBFDF91CF9108953FB7F894FA
:1015B0008091600890916108A0916208B0916308E1
:1015C00026B5A89B05C02F3F19F00196A11DB11D9E
:1015D0003FBFBA2FA92F982F8827820F911DA11DD9
:1015E000B11DBC01CD0142E0660F771F881F991F16
:1015F0004A95D1F708952FB7F89460915C087091DF
:101600005D0880915E0890915F082FBF08951F923A
:101610000F920FB60F9211242F933F938F939F93A6
:10162000AF93BF9380915C0890915D08A0915E0894
:10163000B0915F0830915B0823E0230F2D3720F431
:101640000196A11DB11D05C026E8230F0296A11D1C
:10165000B11D20935B0880935C0890935D08A09374
:101660005E08B0935F088091600890916108A09136
:101670006208B09163080196A11DB11D80936008B6
:1016800090936108A0936208B0936308BF91AF91F3
:101690009F918F913F912F910F900FBE0F901F90B0
:1016A00018951F920F920FB60F9211240BB60F923E
:1016B0002F933F934F935F936F937F938F939F935A
:1016C000AF93BF93EF93FF938091B900887F8036EB
:1016D00009F49CC068F5883209F45BC090F480314D
:1016E00009F454C038F4882309F4F6C0883009F4AA
:1016F0004DC0F5C0883109F44CC0803209F45DC09A
:10170000EEC0803409F468C048F4803309F455C051
:10171000883309F0E4C080934703D8C0803509F4CA
:101720004FC0883509F45DC0883409F0D8C0D6C0F0
:10173000883909F4C7C0A8F4883709F467C038F4B9
:10174000883609F463C0803709F460C0C8C088389F
:1017500009F4B8C0803909F45FC0803809F0BFC00F
:101760005BC0803B09F486C038F4803A09F466C057
:10177000883A09F47FC0B3C0803C09F4A7C0883C14
:1017800009F4A4C0883B09F48AC0A9C0809124034D
:1017900010C09091460380914503981770F5E09131
:1017A000460381E08E0F80934603F0E0EB5DFC4F33
:1017B00080818093BB0085EC86C0809347038EC0F8
:1017C000E091460381E08E0F809346038091BB0039
:1017D000F0E0EB5DFC4F80839091460380914503E0
:1017E0006EC0E091460381E08E0F809346038091A6
:1017F000BB00F0E0EB5DFC4F8083809148038111DA
:101800006DC081E08093230384EA61C083E080930C
:10181000490310925A08CFCF80915A08803208F0BD
:1018200051C0E0915A0881E08E0F80935A08809150
:10183000BB00F0E0E65CF74F8083BDCF85EC809382
:10184000BC001092490380915A08803230F4E09134
:101850005A08F0E0E65CF74F108260915A0870E099
:10186000E091C802F091C9028AE398E019951092BC
:101870005A0835C084E080934903109239081092C9
:101880003808E091CA02F091CB021995809138088E
:10189000811105C081E08093380810921808E0910A
:1018A000390881E08E0F80933908F0E0E85EF74F49
:1018B00080818093BB0090913908809138089817F7
:1018C00008F479CF85E88093BC0009C085EC80934B
:1018D000BC001092490303C0109247037ADCFF91C9
:1018E000EF91BF91AF919F918F917F916F915F9198
:1018F0004F913F912F910F900BBE0F900FBE0F9005
:101900001F9018951092490381E08093480310922C
:10191000230361E084E1DFDD61E085E1DCDDE9EB0B
:10192000F0E080818E7F808380818D7F808388E45A
:101930008093B80085E48093BC0008958EBD0000BC
:101940000DB407FEFDCF8EB50895FC013596839644
:10195000DB012D91BD012193E817F907C9F708951F
:101960000F931F93CF93DF93CDB7DEB7A0970FB63A
:10197000F894DEBF0FBECDBF10E0909100038091C0
:101980000103981771F0103250F48BE094E093DC6F
:10199000E1E0F0E0EC0FFD1FE10FF11D80831F5F20
:1019A000ECCF09811A811F3F31F4BE016D5F7F4F7B
:1019B0008BE297E014C08091EE07181758F420913D
:1019C000EF073091F007C90141E4149F800D911D8C
:1019D000112402C080E090E0BE016D5F7F4FB5DF53
:1019E000E091E806F091E906309719F0612F802F19
:1019F0001995A0960FB6F894DEBF0FBECDBFDF914C
:101A0000CF911F910F910895FC0180E192E09183A5
:101A1000808312821382148235968EE1DF011D923B
:101A20008A95E9F70895CF92DF92EF92FF920F9394
:101A30001F93CF93DF936C017A018B01C0E0D0E05C
:101A4000CE15DF0589F0D8016D918D01D601ED919C
:101A5000FC910190F081E02DC6011995892B11F4BC
:101A60007E0102C02196ECCFC701DF91CF911F917B
:101A70000F91FF90EF90DF90CF9008950F931F93F9
:101A8000CF93DF93EC0188819981009729F02A8117
:101A90003B812617370788F48B016F5F7F4F0E94C9
:101AA0008B1E009761F0998388831B830A832C81A6
:101AB0003D81232B11F4FC01108281E001C080E004
:101AC000DF91CF911F910F910895EF92FF920F93A5
:101AD0001F93CF93DF93FC0124813581611571053C
:101AE00011F480E018C041155105A1F07B01EC0113
:101AF0008A01020F131FB801C1DF882391F32881E7
:101B000039818C819D81B701820F931F0E947C1FB8
:101B10001D830C8381E0DF91CF911F910F91FF9086
:101B2000EF900895CF93DF93EC018881998100971E
:101B300011F00E94F31D198218821D821C821B82E3
:101B40001A82DF91CF91089556DD60930806709355
:101B5000090680930A0690930B064DDD60931E06DE
:101B600070931F068093200690932106089510928B
:101B70002306109222068DEF92E00E945802E4CFD5
:101B8000EF92FF921F93CF93DF9382E090E09093C8
:101B900023068093220684EF92E00E94580289E295
:101BA000E82E84E0F82E10E0C0E0D0E0F701EC0F62
:101BB000FD1FDF01A256BE4F8C91813029F446856E
:101BC0006C2F812F0E94CA012196C830D10571F770
:101BD0001F5F88E0E80EF11C183031F7DF91CF91DC
:101BE0001F91FF90EF90B0CF81E090E0909323069B
:101BF000809322068DEE92E00E945802A5CFCF93EB
:101C0000DF93EC016115710559F0FB010190002093
:101C1000E9F73197AF01461B570B57DF811102C01F
:101C2000CE0180DFCE01DF91CF910895CF93DF9376
:101C3000EC01FB01448155816081718146DF811196
:101C400002C0CE016FDFCE01DF91CF910895FC017C
:101C5000808191810C94F31DCF92DF92EF92FF92DD
:101C60000F931F93CF93DF93CDB7DEB729970FB6AE
:101C7000F894DEBF0FBECDBF8C01862FF801118214
:101C80001082138212821582148250E09E012F5F0F
:101C90003F4F6901B90190E00E94CC1CF601019010
:101CA0000020E9F731977F01EC18FD08B701C80162
:101CB000E5DE811103C0C80135DF08C0F801F582F7
:101CC000E482B601808191810E947C1F29960FB623
:101CD000F894DEBF0FBECDBFDF91CF911F910F9162
:101CE000FF90EF90DF90CF900895EF92FF920F93C7
:101CF0001F93CF93DF93EC01198218821B821A8203
:101D00001D821C826115710511F18B01FB0101908F
:101D10000020E9F731977F01E61AF70AB701AEDE36
:101D2000811108C0CE01DF91CF911F910F91FF90DB
:101D3000EF90F8CEFD82EC82B80188819981DF9125
:101D4000CF911F910F91FF90EF900C947C1FDF912A
:101D5000CF911F910F91FF90EF9008952F923F9296
:101D60004F925F926F927F928F929F92AF92BF92AB
:101D7000CF92DF92EF92FF920F931F93CF93DF9357
:101D8000CDB7DEB76F970FB6F894DEBF0FBECDBFED
:101D9000E82EB62E042FA22E262E28E0829F200C9D
:101DA000112410E02BE080919E06181708F04DC119
:101DB000312CC12ED12C2C9DC0012D9D900D1124B4
:101DC000AC01475D5B4F4A013A0159EF651A5DEF7F
:101DD000750AF3018081381608F035C12401430CDF
:101DE000511C38EF431A3DEF530AF20160814AE07B
:101DF000CE0149962F8F30DF4AE0632DCE01439606
:101E00002BDF4AE0612FCE010D9626DF4AE0622DDE
:101E1000CE01079621DF67E672E0CE01019665DF0D
:101E2000BE01695F7F4FCE01019600DF62E772E07D
:101E3000E6DEBE01635F7F4FF9DE60E572E0DFDE64
:101E4000BE016D5E7F4FF2DE64E772E0D8DEBE0158
:101E5000675E7F4FEBDE4ED8CE010196F8DECE01F5
:101E60000796F5DECE010D96F2DECE014396EFDE4B
:101E7000CE014996ECDEF201F0802F8D2F10E1C0EB
:101E80004AE0612FCE014996E7DE4AE06F2DCE0190
:101E90004396E2DE4AE06B2DCE010D96DDDE4AE090
:101EA0006E2DCE010796D8DE6EE472E0CE0101966B
:101EB0001CDFBE01695F7F4FCE010196B7DE60E592
:101EC00072E09DDEBE01635F7F4FB0DE68E772E0C7
:101ED00096DEBE016D5E7F4FA9DE6FE772E08FDE9A
:101EE000BE01675E7F4FA2DE05D8CE010196AFDE50
:101EF000CE010796ACDECE010D96A9DECE0143964B
:101F0000A6DECE014996A3DE8E2D90E0EB2DF0E00B
:101F1000DC0123E0AA0FBB1F2A95E1F7AE0FBF1F1C
:101F2000A958BA4FA11006C021E03C91311120E020
:101F30002C9305C0013011F40C9301C01C928C014C
:101F400093E0000F111F9A95E1F7E00FF11F8F0149
:101F500009581A4FF80140816B2D8E2D0E94CA013D
:101F60004AE0F8016081CE01439676DE4AE06B2DAF
:101F7000CE010D9671DE4AE06E2DCE0107966CDE25
:101F800062E972E0CE010196B0DEBE01695F7F4F6B
:101F9000CE0101964BDE60E572E031DEBE01635F8B
:101FA0007F4F44DE60EA72E02ADEBE016D5E7F4F45
:101FB0003DDE0E947A07CE01019649DECE010796EA
:101FC00046DECE010D9643DECE01439640DEF8019B
:101FD0008081813011F081E039C0E12C2BE02C9D13
:101FE000C0012D9D900D1124AC01475D5B4F6A012E
:101FF0008A01095F1D4F88EFB82EF8018081E8162D
:1020000050F7F601EE0DF11DE85FFD4F80818F1551
:10201000B1F06081862F8695869586958B9D600DA3
:10202000112428E0829FF0011124E75DFB4FE60FA9
:10203000F11DE25BFE4F108240E00E94CA01E39472
:10204000DCCF3394C6CE1F5FAECE80E06F960FB666
:10205000F894DEBF0FBECDBFDF91CF911F910F91DE
:10206000FF90EF90DF90CF90BF90AF909F908F90B8
:102070007F906F905F904F903F902F900895CF92F8
:10208000DF92EF92FF920F931F93CF93DF93CDB721
:10209000DEB769970FB6F894DEBF0FBECDBFF82E3E
:1020A000E62E942FC62ED12C88E0F89E80011124B4
:1020B000F601E00FF11FE953FA4F8081811138C01A
:1020C00080910706813021F4413009F093C004C0AB
:1020D000811190C041118EC080919E06811120C057
:1020E000F601E00FF11FE958FA4F61E0808181119C
:1020F00060E0F601E00FF11FE958FA4F60834AE013
:10210000CE014396A9DD4AE06E2DCE010D96A4DDE9
:102110004AE06F2DCE0107969FDD62E972E045C06F
:1021200020E0492F6E2D8F2D19DE81116DC0D8CF83
:1021300080919E0681111AC0913001F5F601E00FE1
:10214000F11FE958FA4F90834AE061E0CE014396CF
:1021500083DD4AE06E2DCE010D967EDD4AE06F2DC7
:10216000CE01079679DD66EA72E01FC021E08F2D6F
:10217000998FF4DD998D811147C0DECFF601E00F14
:10218000F11FE958FA4F10824AE060E0CE01439611
:1021900063DD4AE06E2DCE010D965EDD4AE06F2DC7
:1021A000CE01079659DD65EB72E0CE0101969DDD0B
:1021B000BE01695F7F4FCE01019638DD60E572E0B8
:1021C0001EDDBE01635F7F4F31DD60EA72E017DD27
:1021D000BE016D5E7F4F2ADD0E947A07CE01019617
:1021E00036DDCE01079633DDCE010D9630DDCE0112
:1021F00043962DDD0C0D1D1DF801E958FA4F408165
:102200006E2D8F2D0E94CA0169960FB6F894DEBF1D
:102210000FBECDBFDF91CF911F910F91FF90EF9037
:10222000DF90CF9008951F920F920FB60F92112456
:102230000BB60F922F933F934F935F936F937F93C0
:102240008F939F93AF93BF93EF93FF938091FC0283
:102250009091FD02A091FE02B091FF02892B8A2B82
:102260008B2B59F18091F902E091FA02F091FB0277
:102270009081892780838091FC029091FD02A0913A
:10228000FE02B091FF02181619061A061B060CF082
:1022900055C08091FC029091FD02A091FE02B09188
:1022A000FF020197A109B1098093FC029093FD02FE
:1022B000A093FE02B093FF0241C080910002E0E8CB
:1022C000F2E0E4919FEF90930002E230C9F050F405
:1022D000EE2399F0E13081F590916F009D7F90930E
:1022E0006F002AC0E43019F1E0F0E53029F5909153
:1022F00073009D7F909373001FC010926E001CC0EE
:10230000909170009D7F9093700091E09093B00049
:102310009091B100987F94609093B1001092B300B7
:102320000BC0909171009D7F9093710005C09091BA
:1023300072009D7F9093720060E0CDD8FF91EF9185
:10234000BF91AF919F918F917F916F915F914F91CD
:102350003F912F910F900BBE0F900FBE0F901F90CB
:102360001895CF93DF93CDB7DEB7C355D1090FB61C
:10237000F894DEBF0FBECDBF789484B5826084BD73
:1023800084B5816084BD85B5826085BD85B5816079
:1023900085BD80916E00816080936E0010928100F7
:1023A00080918100826080938100809181008160B2
:1023B0008093810080918000816080938000809173
:1023C000B10084608093B1008091B00081608093FF
:1023D000B000809191008260809391008091910083
:1023E0008160809391008091900081608093900043
:1023F0008091A10082608093A1008091A100816002
:102400008093A1008091A00081608093A0008091C2
:10241000210182608093210180912101816080935C
:1024200021018091200181608093200180917A00B8
:10243000846080937A0080917A00826080937A0031
:1024400080917A00816080937A0080917A00806820
:1024500080937A001092C100E0917E03F0917F0397
:1024600082E08083E0917A03F0917B031082E09117
:102470007C03F0917D0380E1808310928603E091DC
:102480008203F091830386E08083E0918003F091E2
:102490008103808180618083E0918003F0918103DA
:1024A000808188608083E0918003F0918103808146
:1024B00080688083E0918003F091810380818F7D2B
:1024C000808380E4E7E3F4E0DF01882E1D928A94A4
:1024D000E9F7E7ECF5E0DF01882E1D928A94E9F731
:1024E000E7E7F5E0DF011D928A95E9F710922E04E7
:1024F00010922D0410922C0461E085E31BD861E05A
:1025000081E318D861E080E315D80E94CD031FB79E
:10251000F8948091CC02811127C0EFE6F2E084911B
:10252000EFE0F2E09491E82FF0E0EE0FFF1FE85F9C
:10253000FE4FA591B491EC91E92321F461E085E38C
:102540000E946B0A61E085E30E949A0A8CB5806163
:102550008CBD8CB580648CBD61E084E30E949A0AD6
:1025600061E083E30E949A0A8091CC028F5F80939E
:10257000CC021FBF81E58CBD1DBC1FE010932E0453
:1025800010922D040E94AB038AE080932E041093D6
:102590002D040E94AB038BE080932E0487E0809390
:1025A0002D040E94AB0389E080932E0410922D0429
:1025B0000E94AB038CE080932E0481E080932D0475
:1025C0000E94AB0349E254E028E080E090E0FC0187
:1025D000E25BFE4FE40FF51F1082019688309105F3
:1025E000B1F72150485F5F4F2111EFCFBFE2EB2ED3
:1025F000B4E0FB2E10E0F70111927F011F5F1093F2
:102600002E0410922D040E94AB031830A1F71092F3
:1026100001031092000310924B0310926D0372D9C4
:102620001092E5061092E4061092E3061092E90675
:102630001092E8061092E7061092E6068FEF80935C
:102640002D0780936E078093EC061092BA008BE101
:1026500099E09093CB028093CA0287E299E090932D
:10266000C9028093C80210920103109200031092D5
:102670004B0310926D0346D980EB9CE09093C70208
:102680008093C60288ED99E09093C5028093C402BE
:102690000E948C03809325043091ED06832F90E0F7
:1026A0008D319105D4F422E0230F2093ED06209183
:1026B000EE06E22FF0E0E35FF84F308331E0320FB7
:1026C0003093EE06231750F48156994FFC01E05BDE
:1026D000FF4F10823196108201C02FEF2093260405
:1026E0000E948C03809327040E948C03809328040B
:1026F0000E946E0380931E040E946E0380931F0449
:102700000E946E03809320040E946E038093210434
:102710000E946E038093220430916F07832F90E014
:102720008D319105D4F422E0230F20936F0720917F
:102730007007E22FF0E0E157F84F308331E0320FBD
:1027400030937007231750F48156994FFC01EE52D5
:10275000FF4F10823196108201C02FEF2093230487
:1027600030916F07832F90E08D319105D4F422E0F2
:10277000230F20936F0720917007E22FF0E0E157BD
:10278000F84F308331E0320F30937007231750F445
:102790008156994FFC01EE52FF4F10823196108204
:1027A00001C02FEF209324046CE18EE00E94F80218
:1027B0000E94640211E010934A0388E680936C0340
:1027C00010924B0310926D0362E08BE094E00E9444
:1027D000A6090E949B0281E090E00E9452038BE0D8
:1027E00094E00E945B09682F6F7B82E00E94F802F0
:1027F0000E94640282E291E00E9458028AE0809383
:102800002E049FE090932D041093C1051093C005F2
:1028100080932D0610932E0661E00E949A0A60E0D4
:1028200080912D060E946B0A8CE08093260660E062
:102830000E949A0A109227061092100680E197E2F1
:10284000A0E0B0E08093290690932A06A0932B067F
:10285000B0932C0680E395E7A0E0B0E080931106EA
:1028600090931206A0931306B09314068EE0809303
:10287000280661E00E949A0A60E0809128060E9482
:102880006B0A8DE08093190661E00E949A0A49E282
:1028900054E028E080E090E0FC01E256FE4FE40FB7
:1028A000F51F1082019688309105B1F72150485FDD
:1028B0005F4F2111EFCF21E02093070680919E0604
:1028C0008A3008F05EC0FBE08F9FC0011124875D55
:1028D0009B4FFC01E95FFD4F34E03083319610825D
:1028E00031962083319622E02083319683E08083E5
:1028F0008BE391E00E94F70100E01BE080919E06CF
:10290000189FC0011124875D9B4FFC01E95FFD4FBB
:102910002081021708F5E02EF12C8E0D9F1DFC0181
:10292000E85FFD4F608170E080E090E04AE00E9447
:102930001802E0919E061E9FF0011124E05DF94F00
:10294000808190E00197E816F90624F489E391E08C
:102950000E94F7010F5FD2CF8DE291E00E94F70154
:1029600060919E0670E080E090E04AE00E941802CC
:1029700082E492E00E94B80180919E068F5F80936E
:102980009E061092CC0585E0E7E0F2E08E010F5F35
:102990001F4FD80101900D928A95E1F7D80128EFD9
:1029A00095E0900F8D91E82FE695E695E695E29FEC
:1029B000800D112438E0E39FF0011124E75DFB4F07
:1029C000E80FF11DE256FE4F10829A13EBCF29E279
:1029D00034E048E080E090E0FC01E256FE4FE20F78
:1029E000F31F1082019688309105B1F74150285F9E
:1029F0003F4F4111EFCF41E067E081E00E94CA0103
:102A00009E012C5D3F4F60963FAF2EAF6097222412
:102A10002394312C8091D10281110DC00E94FB0AB8
:102A20006093CD027093CE028093CF029093D00238
:102A300081E08093D102C090CD02D090CE02E09090
:102A4000CF02F090D0020E94FB0A6C157D058E0526
:102A50009F0550F40E94FB0A6093CD027093CE0252
:102A60008093CF029093D0020E94FB0AC090CD02C7
:102A7000D090CE02E090CF02F090D002DC01CB01EA
:102A80008C199D09AE09BF0985369105A105B105CF
:102A900008F4A1C10E94FB0A6093CD027093CE029C
:102AA0008093CF029093D00260E281E00E940E03F7
:102AB000109201038093000380E2D8011D928A9551
:102AC000E9F780E0F12C2091000390910103291790
:102AD00071F0BFE1BF1540F08BE094E00E945B090C
:102AE000F801EF0DF11D8083F39481E0ECCF882392
:102AF000F1F02A812F3F31F4BE016D5F7F4F8AEEE6
:102B000096E013C08091EE07281750F48091EF07EC
:102B10009091F007E1E42E9F800D911D112402C0D9
:102B200080E090E0BE016D5F7F4F0E94A50CE091B8
:102B300025048091EE06E81758F4F0E0E35FF84FC3
:102B4000E081F0E0E151F94F808181110E94CD03D5
:102B5000E09127048091EE06E81778F4F0E0E35F57
:102B6000F84FE081F0E0E151F94F8081882329F0AE
:102B700080E691E00E94580203D8E09128048091F9
:102B8000EE06E81778F4F0E0E35FF84FE081F0E05C
:102B9000E151F94F8081882329F084E491E00E947B
:102BA000580222D8E09126048091EE06E81750F4EE
:102BB000F0E0E35FF84FE081F0E0E151F94F808110
:102BC000918102C080E090E09093250680932406D6
:102BD00081E080934A0388E680936C0310924B0354
:102BE00010926D0360E08BE094E00E94A6090E94C1
:102BF0009B0288E090E00E9452038BE094E00E94E8
:102C00005B099C01332744E0359527954A95E1F708
:102C10005AEFF52EE82EF29EE00C11248BE094E0A2
:102C20000E945B099C01332764E0359527956A95DE
:102C3000E1F7D82EF29ED00C11248BE094E00E9494
:102C40005B098F73982F92959F70682F9F9D600DE1
:102C500011248BE094E064966FAF64970E945B0947
:102C6000B82E8BE094E00E945B099C01332774E04E
:102C7000359527957A95E1F7C82EF29EC00C112460
:102C80008BE094E00E945B099C013327E4E03595DA
:102C90002795EA95E1F7A82EF29EA00C11248BE06F
:102CA00094E00E945B09AC015527F4E055954795E7
:102CB000FA95E1F7282FF49E200D11242093170494
:102CC000A0921804C092190464966FAD6497609343
:102CD0001A04D0921B04E0921C04B0921D0480914F
:102CE0001E040E945D0360911B0480911F040E94DA
:102CF0005D0360911C04809120040E945D0360913B
:102D00001904809121040E945D0360911804809150
:102D100022040E945D0320911704E0912304409156
:102D20007007E41780F430E02053384FF0E0E157AB
:102D3000F84F808190E08156994FFC01EE52FF4F91
:102D40002083319630833091220620912306E09132
:102D50002404E41768F4F0E0E157F84F808190E034
:102D60008156994FFC01EE52FF4F308331962083FC
:102D7000F0906E078EE1E1E7F7E0DE011696019034
:102D80000D928A95E1F781E080934A0380936C036A
:102D900010924B0310926D036091E3068BE094E078
:102DA0000E94A6096F2D8BE094E00E94A6097E0187
:102DB000F6E0EF0EF11CD7016D917D018BE094E000
:102DC0000E94A60960968EAC9FAC6097E814F90447
:102DD00091F70E949B02809126068F3F09F4D4C090
:102DE0000E94FB0A6B017C018091110690911206F2
:102DF000A0911306B09114060097A105B10591F1B9
:102E000040911E0650911F06609120067091210688
:102E1000C416D506E606F70640F4C0921E06D09208
:102E20001F06E0922006F092210640911E06509166
:102E30001F06609120067091210646015701841AF1
:102E4000950AA60AB70A88159905AA05BB0550F484
:102E50008091220690912306892B21F40E94CD03B4
:102E60000E94F40D809126060E94430A20911006CC
:102E700030E08217930709F05AC0C092DA02D0926C
:102E8000DB02E092DC02F092DD028091D902811136
:102E900010C00E94CD03C0921A06D0921B06E09289
:102EA0001C06F0921D0681E08093D9020E94A40DB9
:102EB0006BC08091220690912306019709F464C0AB
:102EC00080911A0690911B06A0911C06B0911D06D8
:102ED000C816D906EA06FB0640F4C0921A06D0923C
:102EE0001B06E0921C06F0921D0680911A06909136
:102EF0001B06A0911C06B0911D06C81AD90AEA0A41
:102F0000FB0A8091150690911606A0911706B091C4
:102F100018068C159D05AE05BF05B0F58EE791E04E
:102F20000E9458020E94F40D0E94CD032DC0809192
:102F3000DA029091DB02A091DC02B091DD02C816AA
:102F4000D906EA06FB0640F4C092DA02D092DB0210
:102F5000E092DC02F092DD028091DA029091DB02D5
:102F6000A091DC02B091DD02C81AD90AEA0AFB0A74
:102F70008091B90590E0A0E0B0E08C159D05AE050C
:102F8000BF0510F41092D9020E94FB0A6B017C016C
:102F900080912206909123068130910571F0823054
:102FA000910581F00097B1F410920F0610920E0671
:102FB00030920D0620920C060DC090930F06809360
:102FC0000E0604C010920F0610920E0610920D0607
:102FD00010920C06892B79F540911106509112063A
:102FE000609113067091140680911E0690911F0641
:102FF000A0912006B0912106840F951FA61FB71F30
:10300000C816D906EA06FB06B0F4AC01BD01405172
:103010005742610971094C155D056E057F0528F061
:1030200080319742A105B10530F442E050E0509361
:103030000F0640930E06809128068F3F79F020916D
:103040000C0630910D062115310529F0213031058E
:1030500029F461E001C060E00E946B0A80911906CA
:103060008F3F09F48AC020910E0630910F0621305F
:10307000310541F02230310539F0232B09F07DC0B4
:1030800060E079C061E077C08091E3029091E40252
:10309000A091E502B091E602C816D906EA06FB0641
:1030A00040F4C092E302D092E402E092E502F09292
:1030B000E6028091DF029091E002A091E102B091DE
:1030C000E202C816D906EA06FB0640F4C092DF0207
:1030D000D092E002E092E102F092E2028091DE0200
:1030E000811122C08091E3029091E402A091E50257
:1030F000B091E60246015701881A990AAA0ABB0A4A
:1031000029EE821623E09206A104B10468F081E062
:103110008093DE02C092DF02D092E002E092E102F0
:10312000F092E2020E94CD038091DE028823F9F042
:103130008091DF029091E002A091E102B091E20261
:1031400046015701881A990AAA0ABB0AD501C40187
:1031500085369105A105B10550F01092DE02C092AE
:10316000E302D092E402E092E502F092E60260917E
:10317000DE02809119060E946B0A809126068F3F1D
:1031800009F4BAC00E94FB0A6B017C0180912906F8
:1031900090912A06A0912B06B0912C060097A105CC
:1031A000B10591F1409108065091090660910A0617
:1031B00070910B06C416D506E606F70640F4C092D9
:1031C0000806D0920906E0920A06F0920B0640919A
:1031D00008065091090660910A0670910B06460197
:1031E0005701841A950AA60AB70A88159905AA05EF
:1031F000BB0550F48091220690912306029721F49A
:103200000E94CD030E94B70D809126060E94430ABA
:103210002091270630E08217930741F5C092E8021B
:10322000D092E902E092EA02F092EB028091E7028A
:1032300081111CC081E08093E70280EC91E00E9444
:1032400058020E94CD030E94A40D80910706813090
:1032500069F48091220690912306009729F0029745
:1032600029F40E94B70D02C00E94C00D8091E802AF
:103270009091E902A091EA02B091EB02C816D9063A
:10328000EA06FB0640F4C092E802D092E902E0921E
:10329000EA02F092EB028091E8029091E902A0919B
:1032A000EA02B091EB02C81AD90AEA0AFB0A809135
:1032B000B90590E0A0E0B0E08C159D05AE05BF0516
:1032C000D8F48091E7028130B9F41092E70285EAE0
:1032D00091E00E9458028091070681110DC08091F3
:1032E000220690912306009729F0029729F40E9464
:1032F000B70D02C00E94C00D80912D068F3FA1F036
:1033000090912E06E92FE695E695E695977028E0D0
:10331000E29FF0011124E75DFB4FE90FF11DE25B35
:10332000FE4F60810E946B0A8091F10281110DC0F5
:103330000E94FB0A6093ED027093EE028093EF020D
:103340009093F00281E08093F102C090ED02D09062
:10335000EE02E090EF02F090F0020E94FB0A6C1582
:103360007D058E059F0550F40E94FB0A6093ED02D7
:103370007093EE028093EF029093F0020E94FB0A9A
:10338000C090ED02D090EE02E090EF02F090F002DB
:10339000DC01CB018C199D09AE09BF090497A10579
:1033A000B10508F4AFC10E94FB0A6093ED0270936F
:1033B000EE028093EF029093F0020E94FB0A2B0131
:1033C0003C018091C105813049F58091C305909100
:1033D000C405A091C505B091C605B301A201481B63
:1033E000590B6A0B7B0B8091BC059091BD05A09198
:1033F000BE05B091BF0584179507A607B70770F4FF
:103400008091C205882351F061E08091C00581114F
:1034100060E080E30E946B0A1092C205C101009037
:10342000B70502C0880F991F0A94E2F780932C0415
:103430000E94AB03289A80910B01816080930B015D
:1034400080E00E949E0C80932B0480910B018E7F64
:1034500080930B011092B8052091B805283008F030
:103460008AC0E22FF0E080912B0490E002C0959595
:1034700087952A95E2F780FF78C06091B70533E021
:10348000EE0FFF1F3A95E1F7E75DFB4FE60FF11DE9
:103490008685811156C04AE0CE01885B9F4F0E940D
:1034A0002C0E4AE06091B805CE018E5B9F4F0E94C2
:1034B0002C0E65E472E0C8010E94750EBE016E5BC1
:1034C0007F4FC8010E94160E60E572E00E94FF0D5A
:1034D000BE01685B7F4F0E94160E62E572E00E949B
:1034E000FF0D0E947A07C8010E94270ECE018E5B55
:1034F0009F4F0E94270ECE01885B9F4F0E94270E90
:103500008091EC028F5F8093EC020E94CD0360916A
:10351000B7058091B805209122063091230622300C
:10352000310509F4F2C08091B705E091B80538E0A3
:10353000E39FF0011124E75DFB4FE80FF11D81E0EF
:1035400086878091B705E091B80548E0E49FF001D7
:103550001124E80FF11DEE0FFF1FEE0FFF1FE958BA
:10356000FB4F40825182628273828091B8058F5FE7
:103570008093B80571CF8091EC0218160CF0B8C09A
:1035800087E7A82E84E0B82E99E2892E94E0992E40
:1035900061961FAE61977501C12CD12C2C2DA7010E
:1035A000F70180819181A281B381481659066A068C
:1035B0007B0620F44082518262827382B4E0EB0E7B
:1035C000F11CFA0180819181A281B381B301A20132
:1035D000481B590B6A0B7B0B8091B90590E0A0E06A
:1035E000B0E084179507A607B70708F069C0A401E3
:1035F0004C0D5D1D63965FAF4EAF6397DA011E966B
:103600008C91813009F05CC04AE0622FCE01885B6A
:103610009F4F64962FAF64970E942C0E4AE06196EC
:103620006FAD6197CE018E5B9F4F0E942C0E64E5BB
:1036300072E0C8010E94750EBE016E5B7F4FC8012B
:103640000E94160E60E572E00E94FF0DBE01685BED
:103650007F4F0E94160E62E572E00E94FF0D0E94ED
:103660007A07C8010E94270ECE018E5B9F4F0E94F1
:10367000270ECE01885B9F4F0E94270E8091EC029F
:10368000815064962FAD649787FD03C08093EC0250
:1036900002C01092EC0280912206909123060297BC
:1036A000C1F16396EEADFFAD639716860E94FB0AEB
:1036B000609308067093090680930A0690930B06A0
:1036C000FFEFCF1ADF0A28E0C216D10409F066CF57
:1036D00061963FAD61973F5F61963FAF619748E06C
:1036E000840E911C50E2A50EB11C383009F053CF66
:1036F0008091B7058F5F883018F48093B70502C0BA
:103700001092B7050E945B0885C941E00E943F10F6
:103710000ACF40E0622F61968FAD61970E943F1003
:10372000C0CFCF93109271031092700388EE93E094
:10373000A0E0B0E08093720390937303A0937403AE
:10374000B093750326E132E030936F0320936E034C
:1037500025EC30E030937B0320937A0324EC30E0B7
:1037600030937D0320937C0320EC30E030937F0383
:1037700020937E0321EC30E030938103209380037B
:1037800022EC30E0309383032093820326EC30E078
:10379000309385032093840310928703109288034B
:1037A0001092890310928A0310920E0410920D0455
:1037B00080930F0490931004A0931104B09312040B
:1037C00088E292E090930C0480930B0410921C0406
:1037D00010921B0410921A041092170481E0E82F33
:1037E000F0E0E058FD4FE491823009F4EF5F91E0A2
:1037F000980FE11102C0892FF2CF80931804C1E025
:10380000C093190410921D0461E085E30E949A0A96
:1038100060E085E30E946B0A61E081E30E949A0AFE
:1038200060E081E30E946B0A1092B7051092B80520
:103830008BE48093B9058CED94E09093BB05809365
:10384000BA058EE190E0A0E0B0E08093BC059093D3
:10385000BD05A093BE05B093BF05C093C005C0933E
:10386000C1051092C2051092C3051092C4051092B2
:10387000C5051092C605C09307061092080610925F
:10388000090610920A0610920B0610920D0610926D
:103890000C0610920F0610920E061092100688EE7B
:1038A00093E0A0E0B0E08093150690931606A093F5
:1038B0001706B09318068FEF8093190610921A0618
:1038C00010921B0610921C0610921D0610921E06E6
:1038D00010921F06109220061092210621E030E07F
:1038E0003093230620932206309325062093240646
:1038F00080932606109227068093280680932D0633
:1039000010922F0680E090E0FC01E05DF94F1082FC
:103910000B968E369105C1F710929E068FE996E0C0
:103920000E94040D1092E0061092E2061092E10649
:103930008AE392E09093A00680939F061092E3069C
:1039400081E090E09093E5068093E4061092E7060C
:103950001092E6061092E9061092E8068AEE96E0CA
:103960000E94040D8BE297E00E94040D8CE697E024
:103970000E94040D8DEA97E00E94040D80E492E01D
:103980009093AE078093AD071092EE071092F00768
:103990001092EF07CF9108954532510518F4423047
:1039A00008F004C0FB011082CB010895BB27FB0186
:1039B0005527AA27880F991FAA1FA41710F0A41B28
:1039C00083955051B9F7A05DAA3308F0A95DA19382
:1039D000009779F7B111B1931192CB0100C0DC01CE
:1039E000FC01672F71917723E1F7329704C07C9136
:1039F0006D9370836291AE17BF07C8F3089509D025
:103A0000A59F900DB49F900DA49F800D911D112432
:103A10000895A29FB001B39FC001A39F700D811DA7
:103A20001124911DB29F700D811D1124911D0895C7
:103A3000A1E21A2EAA1BBB1BFD010DC0AA1FBB1FB2
:103A4000EE1FFF1FA217B307E407F50720F0A21B24
:103A5000B30BE40BF50B661F771F881F991F1A9491
:103A600069F760957095809590959B01AC01BD01BB
:103A7000CF010895052E97FB16F400940FD057FD43
:103A800005D0D6DF07FC02D046F408C0509540951B
:103A9000309521953F4F4F4F5F4F089590958095FA
:103AA000709561957F4F8F4F9F4F0895EE0FFF1FC9
:103AB000881F8BBF0790F691E02D1994CF93DF9369
:103AC0008230910510F482E090E0E0916608F09178
:103AD000670820E030E0C0E0D0E0309711F140818D
:103AE000518148175907C0F04817590761F482817E
:103AF0009381209719F09B838A832BC0909367084A
:103B00008093660826C02115310519F04217530726
:103B100018F49A01BE01DF01EF010280F381E02D6C
:103B2000DCCF2115310509F1281B390B2430310573
:103B300090F412968D919C9113976115710521F067
:103B4000FB019383828304C0909367088093660887
:103B5000FD01329644C0FD01E20FF31F8193919362
:103B6000225031092D933C933AC020916408309142
:103B70006508232B41F42091030230910402309315
:103B800065082093640820910102309102022115FA
:103B9000310541F42DB73EB7409105025091060220
:103BA000241B350BE0916408F0916508E217F307D8
:103BB000A0F42E1B3F0B2817390778F0AC014E5F9D
:103BC0005F4F2417350748F04E0F5F1F509365086D
:103BD000409364088193919302C0E0E0F0E0CF014C
:103BE000DF91CF9108950F931F93CF93DF930097A9
:103BF00009F48CC0FC01329713821282009166088E
:103C0000109167080115110581F420813181820F1F
:103C1000931F20916408309165082817390779F5BA
:103C2000F0936508E093640871C0D80140E050E06B
:103C3000AE17BF0750F412962D913C911397AD012A
:103C40002115310509F1D901F3CF9D01DA01338343
:103C5000228360817181860F971F8217930769F411
:103C6000EC0128813981260F371F2E5F3F4F3183AA
:103C700020838A819B8193838283452B29F4F0934F
:103C80006708E093660842C01396FC93EE93129780
:103C9000ED01499159919E01240F351FE217F30759
:103CA00071F480819181840F951F029611969C93E7
:103CB0008E938281938113969C938E931297E0E06A
:103CC000F0E0D80112968D919C911397009719F00E
:103CD000F8018C01F6CF8D919C9198012E5F3F4F9A
:103CE000820F931F209164083091650828173907C7
:103CF00069F4309729F4109267081092660802C0A0
:103D0000138212821093650800936408DF91CF91AB
:103D10001F910F9108956F927F928F929F92AF9211
:103D2000BF92CF92DF92EF92FF920F931F93CF93A8
:103D3000DF93EC01009781F4CB01DF91CF911F91CC
:103D40000F91FF90EF90DF90CF90BF90AF909F903A
:103D50008F907F906F90B2CEFC01E60FF71F9C0111
:103D600022503109E217F30708F4A8C0D9010D91D8
:103D70001C91119706171707A8F00530110508F4D4
:103D80009BC0C80104978617970708F495C0025096
:103D90001109061B170B019311936D937C93CF01AF
:103DA00022DF8AC05B01A01AB10A4C01800E911E6D
:103DB000A0916608B091670840E050E0E12CF12C3A
:103DC000109709F44AC0A815B905D1F56D907C90FB
:103DD0001197630182E0C80ED11CCA14DB0480F184
:103DE000A3014A195B096A0182E0C80ED11C129630
:103DF000BC9012971396AC91B5E0CB16D10440F06D
:103E0000B282A38351834083D9016D937C930AC00E
:103E10000E5F1F4FC301800F911FF90191838083B3
:103E2000EB2DFA2FE114F10431F0D7011396FC9336
:103E3000EE93129741C0F0936708E09366083CC088
:103E40008D919C9111974817590708F4AC017D0199
:103E500012960D90BC91A02DB3CF809164089091E3
:103E6000650888159905E1F446175707C8F480914D
:103E7000010290910202009741F48DB79EB74091E4
:103E8000050250910602841B950BE817F907B0F460
:103E9000F0936508E0936408F901718360830CC0B6
:103EA000CB010CDE7C01009749F0A801BE011BD0BC
:103EB000CE0199DEC70104C0CE0102C080E090E0CF
:103EC000DF91CF911F910F91FF90EF90DF90CF90F6
:103ED000BF90AF909F908F907F906F90089581E0FA
:103EE00090E0F89410C0FB01DC0102C001900D923B
:103EF00041505040D8F70895FB01DC0101900D922C
:0A3F00000020E1F70895F894FFCFC8
:103F0A00FF00006808800005060708090000000095
:103F1A00E00900000000F407130D8D073A08BE07F8
:103F2A009C07B00700000000A6097709D5094B09CC
:103F3A006F095B094C0900000000E009000000005D
:103F4A00E0090D0A00434C49434B45442020280010
:103F5A002C00290052454C45415345442028005322
:103F6A006574204C6564005052455353494E473A94
:103F7A0020000900203D200029203C3D3E20002051
:103F8A0042454C4F4E475320544F2047524F5550AD
:103F9A002000544F47474C4544204C4544202800B4
:103FAA0029202D3E20005052455353494E47204C5C
:103FBA00454420280052454C4541534544204C4530
:043FCA004420280067
:00000001FF
