:1000000096C10000C5C10000C3C10000C1C100000D
:10001000BFC10000BDC10000BBC10000B9C10000EC
:10002000B7C10000B5C10000B3C10000B1C10000FC
:10003000AFC10000ADC10000ABC10000A9C100000C
:10004000A7C10000A5C10000A3C10000A1C100001C
:100050009FC100009DC100009BC100000C949D0B3E
:1000600097C100000C94B10A0C94880A91C1000059
:100070008FC100008DC100008BC1000089C100004C
:1000800087C1000085C1000083C1000081C100005C
:100090007FC100007DC100007BC10000E3C70000FC
:1000A00077C1000075C1000073C1000071C100007C
:1000B0006FC100006DC100006BC1000069C100008C
:1000C00067C1000065C1000063C1000061C100009C
:1000D0005FC100005DC100005BC1000059C10000AC
:1000E00057C10000020B050BF40AF80AFE0A3C0B8C
:1000F000090B0D0B130B170B1B0B210B250B290BDE
:100100003C0B2F0B330B370B000020002300260085
:1001100029002C002F00320000010000030106011D
:10012000090100000A0B02090C0D0E080703040167
:1001300000000000000000000000000000000000BF
:10014000000000000000000000000000000012118C
:10015000100000000000000000000000000000008F
:100160000000000000000000436F64652063616EC2
:1001700027742072756E20776974686F75742053C8
:1001800044206361726421212120537475636B20C4
:10019000686572652100496E69742053442063616B
:1001A0007264206661696C65642100496E6974201F
:1001B00053442063617264204F4B2100414E4F54E1
:1001C0004845522055534552204C4F4747454420FF
:1001D000494E2100414E4F544845522055534552F7
:1001E000204C4F4747454420494E21004C4F434B3C
:1001F000494E47204D41535445522E2E2E004C4F10
:100200004747454420494E204245464F52452C2001
:100210004C4F434B45442C204E4F5720554E4C4F8E
:10022000434B494E472E2E2E00796F757220746114
:1002300067206973206E6F7420737570706F7274AD
:1002400065642100206973206E6F742061207661DF
:100250006C69642075736572210020776173206476
:100260006574656374656421000000220025002820
:10027000002B002E003100340002010000050108AF
:10028000010B0100002100240027002A002D00306E
:1002900000330001010000040107010A0105050502
:1002A00005070508080808020202020A0A080804ED
:1002B000040404010101010101010103030303031B
:1002C000030303040707070C0C0C0C0C0C0C0C02AA
:1002D00002020206060606060606060B0B0B0B0BB1
:1002E0000B0B0B01021020200808102040102040AA
:1002F00080020102010804020101020408102040EA
:100300008080402010080402018004020180402007
:100310001008040201080402010102040810204030
:1003200080010204081020408000091D001D1124D6
:100330001FBECFEFD1E2DEBFCDBF00E00CBF28E093
:10034000A0E4B3E001C01D92A936B207E1F713E0C3
:10035000A0E0B2E0E4E9F0E400E00BBF02C00790E7
:100360000D92A034B107D9F711E0C6E9D1E000E061
:1003700006C021970109802FFE010E94031EC53986
:10038000D10780E00807A9F70E9491160C94392044
:1003900037CE85ED8093BC008091BC0084FDFCCFFE
:1003A00010924603089540918F03262F30E0240FCA
:1003B000311D21323105DCF4209146032430C9F48B
:1003C000FC0180E090E0861758F430918F03219172
:1003D000DC01A159BC4FA30FB11D2C930196F3CFA3
:1003E00080918F03680F60938F0380E0089581E010
:1003F000089582E00895E0914003F0914103309721
:1004000029F0109248031092470319940895CF934E
:10041000DF93AC01E0914203F09143033097F1F098
:1004200090914A03809149039817C0F090E0292FDA
:1004300030E02617370754F4D901A15BBC4FEA011D
:10044000C20FD31F88818C939F5FF1CF10924A0314
:1004500060934903CB01DF91CF911994DF91CF9144
:1004600008950895E0914A0380914903E81730F414
:10047000F0E0E15BFC4F808190E008958FEF9FEF0B
:10048000089590914A0380914903981750F4E92FF9
:10049000F0E0E15BFC4F208130E09F5F90934A03E6
:1004A00002C02FEF3FEFC90108958091490390E00A
:1004B00020914A03821B91090895CF93DF931F92E5
:1004C0001F92CDB7DEB7CB01642F49835A836BDF10
:1004D0004981842F5A81952F0F900F90DF91CF91F2
:1004E0000895CF93DF931F92CDB7DEB7698361E0A4
:1004F000CE01019658DF81E090E00F90DF91CF911F
:100500000895089580E090E00895E091DF068091DD
:100510009107E81748F4F0E0E055F84FE081F0E08B
:10052000EE56F84F908101C090E09093EA06E0917A
:10053000E006E81748F4F0E0E055F84FE081F0E01D
:10054000EE56F84F908101C090E09093EB06E09159
:10055000E106E81748F4F0E0E055F84FE081F0E0FC
:10056000EE56F84F908101C090E09093EC06E09138
:10057000E206E81748F4F0E0E055F84FE081F0E0DB
:10058000EE56F84F908101C090E09093ED06E09117
:10059000E306E81748F4F0E0E055F84FE081F0E0BA
:1005A000EE56F84F908101C090E09093EE06E091F6
:1005B000E406E81750F4F0E0E055F84FE081F0E091
:1005C000EE56F84F2081318102C020E030E03093B8
:1005D000F0062093EF06E091E706E81750F4F0E00C
:1005E000E055F84FE081F0E0EE56F84F80819181C0
:1005F00002C080E090E09093F2068093F1060895A7
:1006000005960895E0914807F0914907309709F061
:10061000199408951F93CF93DF93CDB7DEB7A097BA
:100620000FB6F894DEBF0FBECDBF10E09091490326
:1006300080914A03981771F0103250F480ED96E0E3
:1006400020DFE1E0F0E0EC0FFD1FE10FF11D808302
:100650001F5FECCF89816A816F3FE1F4FE01339621
:10066000A2E9B7E09E012F5D3F4F91919D93E21764
:10067000F307D9F7E0914A07F0914B07309731F132
:10068000A0960FB6F894DEBF0FBECDBFDF91CF911D
:100690001F91199490915008691750F420915108B6
:1006A0003091520891E4699F200D311D112402C040
:1006B00020E030E0FE013396D90115962D5D3F4FC5
:1006C00091919D93A217B307D9F7D4CFA0960FB6F7
:1006D000F894DEBF0FBECDBFDF91CF911F9108957B
:1006E0003F924F925F926F927F928F929F92AF92C2
:1006F000BF92CF92DF92EF92FF920F931F93CF930F
:10070000DF93CDB7DEB72C970FB6F894DEBF0FBEE0
:10071000CDBF5C01DC015B968D909C905C9716963A
:10072000CD90DD90ED90FC901997C114D104E104B7
:10073000F10439F0BFEFCB1ADB0AEB0AFB0A312CCC
:1007400007C0F401C080D180E280F3803324339469
:10075000F40181859285A385B4859C01AD012F5F4D
:100760003F4F4F4F5F4F29873A874B875C87260162
:1007700037011D821E821F821886F40181859285B1
:10078000A385B4852D813E814F815885281739076F
:100790004A075B0708F063C089859A85AB85BC85ED
:1007A0008C159D05AE05BF0550F482E0C82ED12CF6
:1007B000E12CF12C92E0492E512C612C712C9E01E0
:1007C0002F5F3F4FB701A601C4010E94A60F8823E7
:1007D00009F445C089819A81AB81BC81892B8A2B20
:1007E0008B2B41F0260137019FEF491A590A690AFC
:1007F000790A05C0C414D504E604F70491F02D81EC
:100800003E814F8158852F5F3F4F4F4F5F4F2D8364
:100810003E834F8358873FEFC31AD30AE30AF30A94
:10082000ACCF0FEF1FEF2FEF3FE0B301A201C401E8
:100830000E94070F882399F0D50116964D915D917E
:100840006D917C911997411551056105710549F02C
:1008500093018201C4010E94070F811102C080E050
:100860002AC0D50116964D925D926D927C92199791
:10087000332051F0D301C2010196A11DB11DF40135
:1008800080839183A283B383F5018789908DA18DA5
:10089000B28D892B8A2B8B2B69F4D50157964D92FB
:1008A0005D926D927C925A9714968C911497806801
:1008B00014968C9381E02C960FB6F894DEBF0FBE91
:1008C000CDBFDF91CF911F910F91FF90EF90DF90FF
:1008D000CF90BF90AF909F908F907F906F905F90E0
:1008E0004F903F900895EF92FF920F931F93CF93F5
:1008F000DF93CDB7DEB7C154D1090FB6F894DEBF90
:100900000FBECDBF3091F3062091F406E091E606CC
:1009100080915007E81768F4F0E0E159F84F8081C2
:1009200090E08F5F984FFC01E05BFF4F3083319682
:10093000208310914E078EE1E1E5F7E0DE01169687
:1009400001900D928A95E1F76091450780ED96E060
:10095000C8DD612F80ED96E0C4DD8E010A5F1F4F78
:100960007E0184E2E80EF11CF80161918F0180EDB7
:1009700096E0B7DD0E151F05B9F760E08091E5063A
:100980000E94311160E08091E8060E94311160E020
:100990008091E906CF5BDF4F0FB6F894DEBF0FBE44
:1009A000CDBFDF91CF911F910F91FF90EF900C94ED
:1009B0003111089561E0FC0184815FD68091D703F5
:1009C00081111092D70308958EBD00000DB407FE6B
:1009D000FDCF8EB508958FEFF7CF0F931F93CF9371
:1009E000DF93EB019ED68B01F6DF8F3F41F099D666
:1009F000601B710B6C177D07B8F380E001C081E0CC
:100A0000DF91CF911F910F910895CF93DF93EC0168
:100A10008E81882379F08F8198859C012F5F3F4FCD
:100A200038872F838230924010F4D5DFF4CFCE0187
:100A3000C1DF1E82DF91CF9108958CBD9DBD0895C9
:100A4000CF93DF93EC018091D703811108C081E03F
:100A50008093D7038091850690918606EEDF60E053
:100A60008C81DF91CF9109C6CF92DF92FF920F93D5
:100A70001F93CF93DF9300D01F92CDB7DEB76C01E9
:100A8000F62E29833A834B835C83BFDFC601D8DF10
:100A90006CE271E0C601A1DF8F2D806495DF08E173
:100AA00010E05C814B813A812981DA01C901002E75
:100AB00004C0B695A795979587950A94D2F7298390
:100AC0003A834B835C8380DF0850110929813A8186
:100AD0004B815C81083F8FEF180739F7FF2029F021
:100AE000E8E0FE1204C087E803C085E901C08FEF8B
:100AF0006BDF10E070DFF601828787FF04C01F3FC5
:100B000011F01F5FF7CF0F900F900F900F90DF91B4
:100B1000CF911F910F91FF90DF90CF900895EF92AA
:100B2000FF920F931F93CF93DF93EC01790141154F
:100B300051056105710511F482E134C08B85833064
:100B400039F089E0440F551F661F771F8A95D1F74A
:100B50009A01AB0168E1CE0187DF882311F084E0C0
:100B600021C08EEF31DF87018EEFF81AF8018191F5
:100B70008F012ADF0E151F05C9F78FEF25DF8FEFD5
:100B800023DF29DF8A878F71853029F081E18D830A
:100B9000CE0110DF08C068E572E0CE011EDF8111D2
:100BA00006C085E18D83CE0105DF80E010C020E026
:100BB00030E0A9016DE0CE0157DF811103C00BDFEA
:100BC000882311F084E1EECFCE01F4DE81E0DF91E5
:100BD000CF911F910F91FF90EF9008958091D803CE
:100BE000882399F140910102509102026091030221
:100BF0007091040226EE33E08091E6059091E705BE
:100C00008EDF811102C080E008954091D903509198
:100C1000DA036091DB037091DC0341155105610536
:100C2000710589F026EE33E08091E6059091E705A5
:100C300076DF882341F31092D9031092DA031092E1
:100C4000DB031092DC031092D80381E008954F92E9
:100C50005F926F927F928F929F92AF92BF92EF922C
:100C6000FF920F931F93CF93DF9300D01F921F9299
:100C7000CDB7DEB78C016D83DC0115968C9115978D
:100C8000813009F057C014968C9181FF53C05AC02F
:100C9000038CF48DE02D258530E0275F3F4F2A013E
:100CA0003B01B1E04B1A510861087108022E04C0E3
:100CB00076946794579447940A94D2F7D501C40167
:100CC0000197A109B10904C0B695A7959795879595
:100CD0002A95D2F784159505A605B70508F070C0CA
:100CE000F8014789508D618D728D468357836087E7
:100CF00071872C013D017801E6E0EE0EF11CD80170
:100D0000411451046104710409F464C016964D91B4
:100D10005D916D917C91199797015B968D919C9156
:100D20005C970E94A60FB1E04B1A51086108710848
:100D30008111E5CF81E090E0F8019383828380E028
:100D400090E04AC182FF0EC0F80142855385648558
:100D5000758583889488A588B688481559056A05DD
:100D60007B05F1F4D8011A964D915D916D917C91BE
:100D70001D975B968D919C915C97FC0174807A9491
:100D80004A015B0129E0B694A794979487942A9529
:100D9000D1F778207A01F1E0FF22772011F163C0CA
:100DA00081149104A104B10409F072CF1682178254
:100DB00010861186F8011286138614861586D2CF06
:100DC000452B462B472B09F48BCF84199509A6098F
:100DD000B7098FCF1A968D929D92AD92BC921D97B6
:100DE000C1CFE114F10409F03EC0F80146815781FA
:100DF00060857185411551056105710549F4878943
:100E0000908DA18DB28D0097A105B10539F521C056
:100E10009E012F5F3F4F0E94A60F882309F48FCFBA
:100E200089819A81AB81BC81F801238D348DF901D0
:100E30002789203129F048EF5FEF6FEF7FE004C092
:100E400048EF5FEF60E070E084179507A607B707EB
:100E500028F0C80145DC811106C06CCFF8018683FB
:100E60009783A087B187D8015B96ED91FC915C9741
:100E700016968D909D90AD90BC901997B2E08B1A0C
:100E80009108A108B108058404C0880C991CAA1C0B
:100E9000BB1C0A94D2F786859785A089B189880EF4
:100EA000991EAA1EBB1E870C911CA11CB11CE1142B
:100EB000F10401F5F80142855385648575858389C0
:100EC0009489A589B689481759076A077B0790F066
:100ED00085DE882309F42ECF8092010290920202CF
:100EE000A0920302B09204028091D80381608093A3
:100EF000D80307C041E0C501B401EAD6882309F44C
:100F000019CFF701EA51FC4F8D818083F80182856A
:100F10009385A485B5850196A11DB11D8287938710
:100F2000A487B58743895489658976894817590705
:100F30006A077B0738F4838B948BA58BB68B8481EF
:100F400080688483D80114968C9183FD03C081E06E
:100F500090E042C0F8019581992309F4EBCE87FF18
:100F600037C0668577858089918941E0B1D688232D
:100F700009F4E0CED8015296EC91B0E2EB9F9001DB
:100F80001124D901AA51BC4F109709F4D3CEF8010E
:100F90008581823050F443895489658976895C96CD
:100FA0004D935D936D937C935F97F8018789908D46
:100FB000A18DB28DF901EA51FC4F938F828FB58BD1
:100FC000A48BD80114968C9114978F7714968C93D8
:100FD00005DE8111BCCFAECE0F900F900F900F9019
:100FE0000F90DF91CF911F910F91FF90EF90BF90E5
:100FF000AF909F908F907F906F905F904F900895EB
:10100000CF93CFB7F8948091D603811123C0E2ED3E
:10101000F2E08491E8E1F3E09491E82FF0E0EE0F44
:10102000FF1FED57FD4FA591B491EC91E92319F401
:1010300061E085E322D385E30E9458138CB580617B
:101040008CBD8CB580648CBD84E30E94581383E30F
:101050000E9458138091D6038F5F8093D603CFBF31
:10106000CF9108951F920F920FB60F9211240BB6D5
:101070000F922F933F934F935F936F937F938F9331
:101080009F93AF93BF93EF93FF938091B900887FB5
:10109000803609F49CC068F5883209F45BC090F48E
:1010A000803109F454C038F4882309F4F6C088303C
:1010B00009F44DC0F5C0883109F44CC0803209F400
:1010C0005DC0EEC0803409F468C048F4803309F490
:1010D00055C0883309F0E4C08093B203D8C080358E
:1010E00009F44FC0883509F45DC0883409F0D8C0D0
:1010F000D6C0883909F4C7C0A8F4883709F467C096
:1011000038F4883609F463C0803709F460C0C8C079
:10111000883809F4B8C0803909F45FC0803809F014
:10112000BFC05BC0803B09F486C038F4803A09F444
:1011300066C0883A09F47FC0B3C0803C09F4A7C0F8
:10114000883C09F4A4C0883B09F48AC0A9C08091F6
:10115000D50310C09091D4038091D303981770F5F4
:10116000E091D40381E08E0F8093D403F0E0ED543E
:10117000FC4F80818093BB0085EC86C08093B203D6
:101180008EC0E091D40381E08E0F8093D4038091D0
:10119000BB00F0E0ED54FC4F80839091D40380912C
:1011A000D3036EC0E091D40381E08E0F8093D4030B
:1011B0008091BB00F0E0ED54FC4F808380914503AB
:1011C00081116DC081E08093440384EA61C083E0B3
:1011D000809346031092B103CFCF8091B103803248
:1011E00008F051C0E091B10381E08E0F8093B1030C
:1011F0008091BB00F0E0EF56FC4F8083BDCF85ECC3
:101200008093BC00109246038091B103803230F489
:10121000E091B103F0E0EF56FC4F10826091B10312
:1012200070E0E0914B03F0914C0381E993E0199554
:101230001092B10335C084E080934603109290036E
:1012400010928F03E0914D03F0914E031995809118
:101250008F03811105C081E080938F0310926F038B
:10126000E091900381E08E0F80939003F0E0E159CC
:10127000FC4F80818093BB009091900380918F03FD
:10128000981708F479CF85E88093BC0009C085ECF5
:101290008093BC001092460303C01092B20379D829
:1012A000FF91EF91BF91AF919F918F917F916F913E
:1012B0005F914F913F912F910F900BBE0F900FBEFA
:1012C0000F901F901895FC018AE692E0918380832D
:1012D00012821382148235968EE1DF011D928A9567
:1012E000E9F70895FC01538D448D252F30E0842FBC
:1012F00090E0821B930B541710F0CF96089501973E
:101300000895FC01918D828D981761F0828DDF0127
:10131000A80FB11D5D968C91928D9F5F9F73928FE8
:1013200090E008958FEF9FEF0895FC01918D828DDD
:10133000981731F0828DE80FF11D858D90E00895AA
:101340008FEF9FEF0895FC01918D228D892F90E002
:10135000805C9F4F821B91098F739927089588EEB7
:1013600095E0F1DF21E0892B09F420E0822F089538
:10137000FC01848DDF01A80FB11DA35ABF4F2C9132
:10138000848D90E001968F739927848FA689B78901
:101390002C93A089B1898C9180648C93938D848DDA
:1013A000981306C00288F389E02D80818F7D8083A9
:1013B0000895EF92FF920F931F93CF93DF93EC0169
:1013C00081E0888F9B8D8C8D981305C0E889F98901
:1013D000808185FD23C0F62E0B8D10E00F5F1F4F1F
:1013E0000F731127E02E8C8DE8120BC00FB607FC8F
:1013F000FACFE889F989808185FFF5CFCE01B8DF82
:10140000F2CF8B8DFE01E80FF11DE35AFF4FF08202
:101410000B8FEA89FB898081806207C0EE89FF8992
:101420006083E889F98980818064808381E090E02D
:10143000DF91CF911F910F91FF90EF900895CF937F
:10144000DF93EC01888D8823C1F0EA89FB898081D4
:1014500085FD05C0A889B9898C9186FD0EC00FB69F
:1014600007FCF5CF808185FFF2CFA889B9898C91DF
:1014700085FFEDCFCE017CDFE8CFDF91CF910895DE
:1014800080E090E0892B19F06ADF811125C080E0AF
:1014900090E0892B41F080E090E0892B21F00E94C0
:1014A000000081111CC080E090E0892B41F080E0B9
:1014B00090E0892B21F00E940000811113C080E090
:1014C00090E0892BA1F080E090E0892B81F00E94D0
:1014D000000081110AC008950E940000D8CF0E9428
:1014E0000000E1CF0E940000EACF0C9400000895B4
:1014F000DC01ED91FD91BD010190F081E02D40E016
:10150000199591E0811190E0892F08950E941C2087
:101510001F920F920FB60F9211240BB60F922F93BA
:101520003F934F935F936F937F938F939F93AF936B
:10153000BF93EF93FF9388EE95E01ADFFF91EF9151
:10154000BF91AF919F918F917F916F915F914F91DB
:101550003F912F910F900BBE0F900FBE0F901F90D9
:1015600018951F920F920FB60F9211240BB60F927F
:101570002F938F939F93EF93FF93E091F805F09152
:10158000F9058081E091FE05F091FF0582FD12C012
:101590009081809101068F5F8F73209102068217E0
:1015A00051F0E0910106F0E0E851FA4F958F8093F9
:1015B000010601C08081FF91EF919F918F912F9142
:1015C0000F900BBE0F900FBE0F901F90189590E0DC
:1015D000FC013197E231F10508F04EC08827EE5842
:1015E000FF4F8F4F0C94031E809180008F7703C0B4
:1015F000809180008F7D809380000895809180008D
:10160000877FF9CF84B58F7702C084B58F7D84BD85
:1016100008958091B0008F7703C08091B0008F7DD6
:101620008093B0000895809190008F7707C08091DB
:1016300090008F7D03C080919000877F8093900001
:1016400008958091A0008F7707C08091A0008F7DC2
:1016500003C08091A000877F8093A00008958091AF
:1016600020018F7707C0809120018F7D03C080917A
:101670002001877F8093200108951F93CF93DF93EC
:10168000282F30E0F901EE5DFE4F8491F901ED5114
:10169000FD4FD491F901E356FD4FC491CC23C1F025
:1016A000162F811194DFEC2FF0E0EE0FFF1FE759AA
:1016B000FD4FA591B4918FB7F894111105C09C917D
:1016C000ED2FE095E92302C0EC91ED2BEC938FBF59
:1016D000DF91CF911F9108953FB7F8948091E20375
:1016E0009091E303A091E403B091E50326B5A89B94
:1016F00005C02F3F19F00196A11DB11D3FBFBA2FA4
:10170000A92F982F8827820F911DA11DB11DBC0103
:10171000CD0142E0660F771F881F991F4A95D1F7C8
:1017200008952FB7F8946091DE037091DF038091E4
:10173000E0039091E1032FBF08951F920F920FB61F
:101740000F9211242F933F938F939F93AF93BF9347
:101750008091DE039091DF03A091E003B091E1035B
:101760003091DD0323E0230F2D3720F40196A11DD6
:10177000B11D05C026E8230F0296A11DB11D2093BF
:10178000DD038093DE039093DF03A093E003B09327
:10179000E1038091E2039091E303A091E403B0910F
:1017A000E5030196A11DB11D8093E2039093E3032D
:1017B000A093E403B093E503BF91AF919F918F9104
:1017C0003F912F910F900FBE0F901F9018951F9370
:1017D000CF93DF93EC01162F83E590E02ED960E0E4
:1017E0008E854BDF812F8068EFD880E0EDD8182FF1
:1017F00061E08E8542DFDDD8812FDF91CF911F918F
:101800000895EF92FF921F93CF93DF931F92CDB76E
:10181000DEB77C01162F83E590E049830ED960E0A6
:10182000F70186852ADF812FCFD84981842FCCD834
:1018300061E0F701868521DF0F90DF91CF911F9145
:10184000FF90EF90B6C8CF92DF92EF92FF920F9386
:101850001F93CF93DF93EC016B01142F790140E0CC
:1018600062E0CFDF44E06AE0CE01CBDF40E864E134
:10187000CE01C7DFA601612FCE010E94731443E0A1
:1018800062E0CE01BEDF08E813E16AE0CE019FDF2F
:1018900082FF10C040E062E0CE01B3DF64E4CE011D
:1018A00096DFF701808362E4CE0191DFF701818347
:1018B00080E004C00150110941F783E0DF91CF912E
:1018C0001F910F91FF90EF90DF90CF900895EF92CE
:1018D000FF921F93CF93DF931F92CDB7DEB77C01AA
:1018E000162F498374DF498140954823612FC70132
:1018F0000F90DF91CF911F91FF90EF9082CF8F9249
:101900009F92AF92CF92EF92FF920F931F93CF933C
:10191000DF9300D01F921F92CDB7DEB74C0182E05B
:101920008D8340E064E2C4016CDF40E066E2C40104
:1019300068DF46E268E4C40164DF86E28C838D815F
:10194000823008F140E86CE1C401C1DF87E08B839D
:10195000A12CC12CCE0103967C018E010B5F1F4F81
:101960009E012F5F3F4F41E0BE016C5F7F4FC4017E
:10197000F6D781110BC08D81823039F481E09B81D3
:10198000911104C008C084E001C081E091E0823080
:1019900019F090E001C091E0892F0F900F900F9007
:1019A0000F900F90DF91CF911F910F91FF90EF90CB
:1019B000CF90AF909F908F9008952F923F924F922B
:1019C0005F926F927F928F929F92AF92BF92CF92CF
:1019D000DF92EF92FF920F931F93CF93DF93CDB7D8
:1019E000DEB72D970FB6F894DEBF0FBECDBF4135E1
:1019F00008F006C1342E3B014C0140E86CE167DF82
:101A0000BB24B39422E0B21691F033E0B316E1F0B8
:101A100041E0B412F9C083E989833320D1F081E039
:101A2000F3019081953008F480E0D12C17C085E94E
:101A30008983332081F081E0F3019081983008F4AC
:101A400080E053E0D52E0AC087E9898346E0D42E92
:101A500004C0D12C02C033E0D32E80E0532DF8EF28
:101A6000DF9E500D112457FD50E0882321F098E8A7
:101A70009B8343E001C042E021E0952F977009F479
:101A800020E0952F959595959595290F21F488231C
:101A900011F1585F20C0811102C094E001C093E0B1
:101AA000291708F4922F20E030E06D2D70E0E42F2C
:101AB000E20FA1E0B0E0AC0FBD1FAE0FB11DF90108
:101AC000E60FF71FE60DF71DE181EC932F5F3F4F07
:101AD000291768F3DCCF23E0222E5032F4F020E700
:101AE0002A839C818B8189279D8189279E818927D3
:101AF0008F839E01285F3F4F47E0BE016F5F7F4F9E
:101B0000C4015D87A0DE5D858111C9C01B862A8660
:101B1000CE0107962C0179E01EC0952F97709B8708
:101B2000252F25952595259582E0820F392FE0E117
:101B30008E9F300D11243A8371E0911101C070E045
:101B4000780F44244394512C4C0E5D1E480E511CBA
:101B500087E0821B8A87CB844C2D4295407F4C0DB9
:101B60006AE1C4015D877C874CDEA12C9E01255F64
:101B70003F4F79018E01065F1F4F92017C85472FF1
:101B8000BE016F5F7F4FC401EAD65D85823091F55B
:101B90006CE1C4011CDE5D8585FD34C08F7109F4E4
:101BA00080E2282F30E0452F550F550B4217530781
:101BB0005CF5582FC90101978770992725952595C0
:101BC000259531E0320F21E0009709F420E0230F42
:101BD000E1E0F0E0EC0FFD1FE20FF11D21E030E04D
:101BE00002C0220F331F8A95E2F7C9019081892B29
:101BF000808373CF811153C0503244F450E26FCFD1
:101C000086E04DC082E04BC085E049C08B818838BA
:101C100009F042C033E023E080E090E06D2D70E0F9
:101C2000FC01E60FF71FE60DF71D432F480FA1E05B
:101C3000B0E0AC0FBD1FA40FB11D4C9141830196C4
:101C4000821770F38A85833019F58B85811120C046
:101C50009E012D5F3F4F41E0B201C401F4DD8111CF
:101C60001EC09B81F2018181981314C09C818281E6
:101C7000981310C0808182FF02C0B394C3CEF301D9
:101C800083878B2D880FB80EB394B08280E007C095
:101C900081E005C087E003C032E024E0BDCF2D968F
:101CA0000FB6F894DEBF0FBECDBFDF91CF911F916D
:101CB0000F91FF90EF90DF90CF90BF90AF909F90EB
:101CC0008F907F906F905F904F903F902F900895EE
:101CD000BF92CF92DF92EF92FF920F931F93CF9319
:101CE000DF936B017C01B42E80910102909102027E
:101CF000A0910302B09104028C159D05AE05BF05AD
:101D000009F474C00E94EE05882309F476C0C091DE
:101D1000E605D091E7058E81882369F08881998155
:101D2000AA81BB81C816D906EA06FB0621F48F8179
:101D30009885892BA1F1C882D982EA82FB828B85A2
:101D4000A7019601833039F089E0220F331F441F29
:101D5000551F8A95D1F761E1CE010E943405882391
:101D600019F083E08D8335C0DCDC8B010E94EB042D
:101D70008A878F3F41F4D5DC601B710B6D32714057
:101D8000A8F38FE003C08E3F31F08DE08D83CE014C
:101D90000E94DA041EC018861F8281E08E8306EE40
:101DA00013E00E94EB04F80181938F01F5E0063EF9
:101DB0001F07B9F78F8198859E5F98878F83298544
:101DC000222319F08115924048F0CE010E940505AA
:101DD00005C0CE010E94DA0480E00FC0C09201026B
:101DE000D0920202E0920302F09204028091D803A2
:101DF000482F4B294093D80381E0DF91CF911F9169
:101E00000F91FF90EF90DF90CF90BF9008954F9289
:101E10005F926F927F928F929F92AF92BF92CF927A
:101E2000DF92EF92FF920F931F93CF93DF93EC011A
:101E30006A017B01280139014230510561057105B4
:101E400010F480E072C089859A85AB85BC850196C7
:101E5000A11DB11D84179507A607B70790F38B88BE
:101E60009C88AD88BE888F89803129F4BB27AF2D2F
:101E70009E2D8D2D09C0DB01CA0147E0B695A795BF
:101E8000979587954A95D1F7880E991EAA1EBB1E75
:101E90008091010290910202A0910302B09104028C
:101EA00088169906AA06BB0679F48F89803199F4C1
:101EB000DD24EE24FF24C601880F991FFC01EA519E
:101EC000FC4F5182408218C040E0C501B40100DFE0
:101ED0008111EBCFB6CFE894C7F8DD24EE24FF24C0
:101EE000C601880F991F880F991FFC01EA51FC4F0A
:101EF00040825182628273828091D8038160809394
:101F0000D8038A89823080F08D819E81AF81B88527
:101F1000880E991EAA1EBB1E8092D9039092DA03E6
:101F2000A092DB03B092DC0381E0DF91CF911F919F
:101F30000F91FF90EF90DF90CF90BF90AF909F9068
:101F40008F907F906F905F904F9008958F929F92A7
:101F5000AF92BF92CF92DF92EF92FF920F931F93B7
:101F6000CF93DF93FC0181859285A385B48501968B
:101F7000A11DB11D84179507A607B70710F480E0CF
:101F80005BC083899489A589B689C789C03129F442
:101F9000852E962EA72EBB2409C04A015B01C7E0FF
:101FA000B694A79497948794CA95D1F7E9016A01EA
:101FB0007B018F01BC01CD01680D791D8A1D9B1D20
:101FC0008090010290900202A0900302B09004025F
:101FD000681579058A059B0599F4F8018789803190
:101FE000A1F4B701A601552766277727440F551F8F
:101FF000FA01EA51FC4F80819181A0E0B0E017C066
:1020000040E066DE8111E9CFBACFB701A6014F7774
:10201000552766277727440F551F440F551FFA0190
:10202000EA51FC4F80819181A281B381BF70888386
:102030009983AA83BB8381E0DF91CF911F910F9198
:10204000FF90EF90DF90CF90BF90AF909F908F90D8
:10205000089541E050E06EE373E092C50F931F9343
:10206000CF93DF93CDB7DEB767970FB6F894DEBF97
:102070000FBECDBF8C0160EB72E03FD68091ED06C4
:102080008A3010F4C801E5DF4AE06091ED06CE0128
:10209000429600D6BE016E5E7F4FCE01019625D6D8
:1020A0006CE273E0CE01019698D5BC01C801BDD5A4
:1020B000CE010196EAD5CE014296E7D58091EE0693
:1020C0008A3010F4C801C5DF4AE06091EE06CE0107
:1020D0004296E0D5BE016E5E7F4FCE01019605D6D9
:1020E0006CE273E0CE01019678D5BC01C8019DD5A4
:1020F000CE010196CAD5CE014296C7D58091EF0692
:102100009091F0061B8A1A8A1D8A1C8A1F8A1E8AD1
:102110004AE0BE016F5F7F4F0E94C11DBE016F5F2D
:102120007F4FCE01429687D5BE016E5E7F4FCE01B6
:102130000196DBD56EE273E0CE0101964ED5BC016F
:10214000C80173D5CE010196A0D5CE0142969DD58A
:102150008091EA068A3010F4C8017BDF4AE0609182
:10216000EA06CE01429696D5BE016E5E7F4FCE0145
:102170000196BBD560E373E0CE0101962ED5BC017C
:10218000C80153D5CE01019680D5CE0142967DD5AA
:102190008091EB068A3010F4C8015BDF4AE0609161
:1021A000EB06CE01429676D5BE016E5E7F4FCE0124
:1021B00001969BD560E373E0CE0101960ED5BC017C
:1021C000C80133D5CE01019660D5CE0142965DD5CA
:1021D0008091EC068A3010F4C8013BDF4AE0609140
:1021E000EC06CE01019656D5BE016F5F7F4FC80148
:1021F0001CD5CE01019649D5C80167960FB6F89453
:10220000DEBF0FBECDBFDF91CF911F910F9108951B
:102210000F931F93CF93DF938C01C0E0D0E0F801C0
:10222000EC0FFD1F6491662371F0E091E805F091D9
:10223000E9050190F081E02D88EE95E01995892B54
:1022400011F02196ECCF42E050E06EEA72E088EEA9
:1022500095E0C2D28C0F9D1FDF91CF911F910F91FE
:10226000089590915007891758F4E82FF0E0E1594C
:10227000F84FE081F0E0EF5AF84F608381E0089575
:1022800080E008958F929F92AF92BF92CF92DF929B
:10229000EF92FF920F931F93CF93DF935C016B013B
:1022A000E090DC06F12C47012FEF821A920A2FE012
:1022B000289DC001299D900D112402960E940B1E9D
:1022C000EC01899299928C01075F1F4F88248394B7
:1022D000912C62E373E0C80107970FD5F80131979D
:1022E000108267E373E0C80108D5F80197828682FF
:1022F000F1E0EF1AF108015F1F4F2FEFE216F2062F
:1023000041F710E08091DC06181708F53FE0139FB5
:10231000700111248090DD069090DE068E0C9F1CCB
:10232000EC0EFD1EB401C7019BD4F4018681F701B8
:102330008683B401695F7F4FC701079691D4F4018A
:1023400085859685F701968785871F5FDBCFB50169
:102350009E014FE0849F200D311D1124C90180D4BE
:102360002091DC06CE01EFE02E9F800D911D1124FF
:10237000FC012683B601079673D42091DD063091C7
:10238000DE0621153105F9F0F901329740815181BE
:102390006FE0649FC001659F900D1124820F931F11
:1023A0002091DD063091DE068C010F5011092817AF
:1023B000390731F0089769D4C80167D4C801F0CF54
:1023C00002970E94A01ED093DE06C093DD06809186
:1023D000DC068F5F8093DC06FFE08F9FC00DD11D70
:1023E00011242F978E81DF91CF911F910F91FF9034
:1023F000EF90DF90CF90BF90AF909F908F90089517
:10240000FC01448155816081718188EE95E0E4C1D1
:10241000CF93DF93F5DFEC0142E050E06EEA72E02B
:1024200088EE95E0D9D18C0F9D1FDF91CF91089553
:102430009091DC06891760F42091DD063091DE066C
:10244000A9016FE0869F400D511D1124CA01089516
:1024500080E090E008958F929F92AF92BF92CF92CA
:10246000DF92EF92FF92CF93DF93C82F87E896E039
:102470009093E7058093E605CC2361F1C53010F019
:1024800080E00BC140E060E070E0CB0121DC8823FC
:10249000B9F320E1C29FC00111248A529C4FFC0174
:1024A000E254FE4F20812F7759F73C9640815181AD
:1024B00062817381443651056105710508F33497D3
:1024C000C080D180E280F380C114D104E104F10422
:1024D00021F4D6CFC12CD12C760140E0C701B60142
:1024E000F7DB882369F28091F1039091F203811563
:1024F000924031F6A091F603AA2309F4C1CF60916E
:10250000F4037091F5036115710509F4B9CF2091B9
:10251000F303222309F4B4CFA093A50620939706D2
:1025200080E030E0E1E0F0E0C82FAF01082E02C00B
:10253000440F551F0A94E2F72417350741F0982FEE
:102540008F5F983089F789E08093A00699CF8093B8
:10255000A0062091FC033091FD032115310519F0EF
:1025600040E050E008C020910A0430910B044091F3
:102570000C0450910D0420939806309399064093D3
:102580009A0650939B0646015701860E971EA11C82
:10259000B11C8092A6069092A706A092A806B092BF
:1025A000A906E091F703F091F803F093AC06E093ED
:1025B000AB06B0E00E94EA1D860E971EA81EB91E4B
:1025C0008092AD069092AE06A092AF06B092B00691
:1025D00085E0EE0FFF1F8A95E1F7E150FE4FEF2FE8
:1025E000FF27E6958E0E9F1EA11CB11C8092A106AE
:1025F0009092A206A092A306B092A4062091F9039D
:102600003091FA032115310521F0A90160E070E055
:1026100008C040910604509107046091080470912D
:102620000904D701C60188199909AA09BB09840FB1
:10263000951FA61FB71F04C0B695A79597958795B8
:10264000CA95D2F780939C0690939D06A0939E0610
:10265000B0939F06853F2FE09207A105B10510F4C6
:102660008CE018C0853F9F4FA105B10510F480E1B3
:1026700011C08091120490911304A0911404B091A0
:1026800015048093AD069093AE06A093AF06B09369
:10269000B00680E28093AA0681E0DF91CF91FF909F
:1026A000EF90DF90CF90BF90AF909F908F90089564
:1026B00090E0FC01ED51FD4F2491FC01E356FD4FEC
:1026C0008491882399F090E0880F991FFC01ED57C1
:1026D000FD4FA591B491FC01E759FD4F859194916F
:1026E0008FB7F894EC91E22BEC938FBF0895909103
:1026F0009007292F30E02E313105B4F481E0890FA5
:102700008093900780919107E82FF0E0E055F84F13
:10271000908391E0980F90939107891730F4F90115
:10272000EE56F84F108208958FEF089590914F075D
:10273000292F30E02E313105ACF481E0890F8093F0
:102740004F0780915007E82FF0E0E159F84F908350
:1027500091E0980F9093500760E083DD80915007DF
:10276000815008958FEF08958F929F92AF92BF92FC
:10277000CF92DF92EF92FF920E946C0B4B015C01B3
:1027800082E3C82ED12CE12CF12C0E946C0BDC01D1
:10279000CB0188199909AA09BB09883E9340A10574
:1027A000B10558F021E0C21AD108E108F10888EE1D
:1027B000880E83E0981EA11CB11CC114D104E10451
:1027C000F10419F7FF90EF90DF90CF90BF90AF909A
:1027D0009F908F9008950895CF92DF92EF92FF928D
:1027E0000F931F93CF93DF936C017A018B01C0E0AD
:1027F000D0E0CE15DF0589F0D8016D918D01D601AD
:10280000ED91FC910190F081E02DC6011995892B85
:1028100011F47E0102C02196ECCFC701DF91CF9168
:102820001F910F91FF90EF90DF90CF9008950F933D
:102830001F93CF93DF93EC0188819981009729F052
:102840002A813B812617370788F48B016F5F7F4F02
:102850000E94381F009761F0998388831B830A8345
:102860002C813D81232B11F4FC01108281E001C0F9
:1028700080E0DF91CF911F910F910895CF93DF9367
:10288000EC0188819981009711F00E94A01E1982A5
:1028900018821D821C821B821A82DF91CF910895BB
:1028A000EF92FF920F931F93CF93DF93EC017B0185
:1028B0008A01BA01BCDF811103C0CE01DFDF07C08E
:1028C0001D830C83B701888199810E943220CE013B
:1028D000DF91CF911F910F91FF90EF90089561E0EC
:1028E0008091E806BECCCF92DF92EF92FF920F93D9
:1028F0001F93CF93DF931F921F92CDB7DEB78C014A
:10290000F62E83E590E049835A830E941D0560E01E
:10291000F80186850E943D0B82E10E94E404498112
:10292000E42EC42E5A81D52E8C2D8E198F1530F49D
:10293000F60181916F010E94E404F6CF61E0F80195
:1029400086850E943D0B0F900F90DF91CF911F91D4
:102950000F91FF90EF90DF90CF900C94D9044F929D
:102960005F926F927F928F929F92AF92BF92CF921F
:10297000DF92EF92FF920F931F93CF93DF931F92FB
:102980001F92CDB7DEB74C012B01D42E3901E114D3
:10299000F10419F0F701408101C040E0B42EF0E1EC
:1029A000CF9EB00C112440E062E0C4010E94010CF3
:1029B0004FE768E0C4010E94010C40E864E1C401F3
:1029C0000E94010CA2016D2DC4018DDF4B2D6AE127
:1029D000C4010E94010C4CE062E0C4010E94010CA1
:1029E0006AE1C4010E94E70B482F40686AE1C40114
:1029F0000E94010C80ED482E87E0582E68E0C4014B
:102A00000E94E70B982F907341F480FD04C081E091
:102A1000481A510899F783E0A0C06CE0C4010E94F5
:102A2000E70BD82E837109F097C06114710409F483
:102A300059C00115110509F455C064E1C4010E9493
:102A4000E70BB82EF80180818B1508F47FC0B082A7
:102A5000BB20E9F183E590E00E941D0560E0F401F0
:102A600086850E943D0B82E90E94E404CC20A1F0FF
:102A70008FEF90E02C0101C0440CCA94EAF782E980
:102A80000E94E40484214094F30190814922842926
:102A90008083CC24C39401C0C12CBA944C2C512CFB
:102AA000460C571CCB1438F482E90E94E404F2016E
:102AB0008083C394F3CF80E00E94E404F20180831A
:102AC00061E0F40186850E943D0B0E94D90468E113
:102AD000C4010E94E70B8770E114F10421F0F701B3
:102AE000808301C080E0D3FC33C06114710491F194
:102AF0000115110579F1AA2069F1F80140814130F1
:102B000019F4843019F420C0423010F487E025C055
:102B10008111FCCF42509E012F5F3F4FB301C40192
:102B20000E94230C811119C0F8018081680E711C6C
:102B3000F3013297908189819813E8CF3196908183
:102B40008A819813E3CF06C08FEF07C084E005C0E9
:102B500082E003C080E001C081E00F900F90DF9120
:102B6000CF911F910F91FF90EF90DF90CF90BF908A
:102B7000AF909F908F907F906F905F904F9008954F
:102B8000EF92FF920F931F93CF93DF93FC01248169
:102B900035816115710511F480E018C041155105AA
:102BA000A1F07B01EC018A01020F131FB8013FDE87
:102BB000882391F3288139818C819D81B701820F0F
:102BC000931F0E9432201D830C8381E0DF91CF91FF
:102BD0001F910F91FF90EF900895CF93DF93EC0139
:102BE0006115710559F0FB0101900020E9F731975B
:102BF000AF01461B570BC4DF811102C0CE013EDE80
:102C0000CE01DF91CF910895CF93DF93EC01FB01CB
:102C10004481558160817181B3DF811102C0CE0191
:102C20002DDECE01DF91CF910895FB0144815581C6
:102C300060817181A5CFCF93DF93EC0161157105A0
:102C400051F0FB0101900020E9F73197AF01461BDD
:102C5000570B26DE01C012DECE01DF91CF91089521
:102C6000CF93DF93EC01FB018617970751F060814A
:102C700071816115710521F04481558111DE01C01A
:102C8000FDDDCE01DF91CF910895FC01808191811E
:102C90000C94A01E0F931F93CF93DF93CDB7DEB795
:102CA00029970FB6F894DEBF0FBECDBF8C01862FDB
:102CB000F80111821082138212821582148250E070
:102CC000BE016F5F7F4F90E052D7BE016F5F7F4FB5
:102CD000C801B1DF29960FB6F894DEBF0FBECDBF95
:102CE000DF91CF911F910F910895FC011182108205
:102CF0001382128215821482B3CFFC0111821082DA
:102D000013821282158214826115710549F0FB014C
:102D100001900020E9F73197AF01461B570BC0CD5A
:102D20000895CF93DF93CDB7DEB7AC970FB6F89485
:102D3000DEBF0FBECDBF789484B5826084BD84B5FC
:102D4000816084BD85B5826085BD85B5816085BDA6
:102D500080916E00816080936E001092810080915E
:102D600081008260809381008091810081608093E6
:102D70008100809180008160809380008091B1000B
:102D800084608093B1008091B00081608093B00036
:102D90008091910082608093910080919100816088
:102DA0008093910080919000816080939000809149
:102DB000A10082608093A1008091A1008160809336
:102DC000A1008091A00081608093A00080912101EA
:102DD0008260809321018091210181608093210193
:102DE0008091200181608093200180917A0084602D
:102DF00080937A0080917A00826080937A0080913B
:102E00007A00816080937A0080917A008068809354
:102E10007A001092C100E091F805F091F90582E086
:102E20008083E091F405F091F5051082E091F605BC
:102E3000F091F70580E1808310920006E091FC0597
:102E4000F091FD0586E08083E091FA05F091FB05A5
:102E5000808180618083E091FA05F091FB0580819B
:102E600088608083E091FA05F091FB05808180689D
:102E70008083E091FA05F091FB0580818F7D80834E
:102E800045E050E068EA72E088EE95E0A5DC42E0BB
:102E900050E06EEA72E088EE95E09EDC8DE008DCA2
:102EA0000E94000880E190E0B6D68C018FE192E0AC
:102EB000D80111969C938E9381E31E968C931E9756
:102EC00080E31F968C931093F6060093F50681E33A
:102ED000EFDB61E0F80186850E943D0BD8011F966B
:102EE0008C918F3F39F44FE062E0C8010E94010CE1
:102EF0003BDC23C0DDDBF801278530E0F901EE5D26
:102F0000FE4F8491F901ED51FD4FE490F901E35634
:102F1000FD4FF490FF2009F4B9C281110E94E70A25
:102F2000EF2DF0E0EE0FFF1FE85FFE4FA591B4918B
:102F3000EC91EE2109F4AAC2D6CF62E0C8010E944A
:102F4000E70B84FDFACF40E064E2C8010E94010C67
:102F500040E066E2C8010E94010C46E268E4C80154
:102F60000E94010C40E864E5C8010E94010C49EA96
:102F700066E5C8010E94010C43E068E5C8010E94B3
:102F8000010C48EE6AE5C8010E94010C40E46AE2C7
:102F9000C8010E94010C4DE362E2C8010E94010CCD
:102FA00068E2C8010E94E70B982F9370933031F0CC
:102FB000482F436068E2C8010E94010C8FEF8093A4
:102FC000F7068093F8068093F9068093FA068093BB
:102FD000FB068093FC0691E09093450725E832E0DC
:102FE00030934B0720934A0723E734E03093490797
:102FF0002093480780938F078093D00780934E07D4
:10300000109247071092460782E08093BA002BEF98
:1030100031E030934E0320934D0327E032E03093AC
:103020004C0320934B0310924A03109249031092D1
:103030004803109247031092460390934503109261
:10304000440361E084E10E943D0B61E085E10E9460
:103050003D0B8091B9008E7F8093B9008091B900BB
:103060008D7F8093B90088E48093B80085E48093D5
:10307000BC008AE093E0909343038093420382E094
:1030800093E0909341038093400350DB8093E506E7
:1030900030914F07832F90E08D319105D4F422E0D9
:1030A000230F20934F0720915007E22FF0E0E159C2
:1030B000F84F308331E0320F30935007231750F42C
:1030C0008F5F984FFC01E05BFF4F108231961082BA
:1030D00001C02FEF2093E60629DB8093E80626DB6C
:1030E0008093E90604DB8093DF0601DB8093E00632
:1030F000FEDA8093E106FBDA8093E206F8DA809349
:10310000E30630919007832F90E08D319105D4F440
:1031100022E0230F2093900720919107E22FF0E007
:10312000E055F84F308331E0320F30939107231789
:1031300050F48F5F984FFC01EF56FF4F108231968D
:10314000108201C02FEF2093E40630919007832F67
:1031500090E08D319105D4F422E0230F2093900765
:1031600020919107E22FF0E0E055F84F308331E0F5
:10317000320F30939107231750F48F5F984FFC0163
:10318000EF56FF4F10823196108201C02FEF20932F
:10319000E706109292061092900610928D061092F9
:1031A0008C068FE280938B060E94910B6B017C0151
:1031B00080918B067DDA61E080918B060E943D0B49
:1031C0000E94000882E58093850610928606809111
:1031D0008506909186060E941D051AE08FEF0E94D9
:1031E000E4041150D9F786010E94D90487E896E0DB
:1031F0000E94200520E030E0A90160E087E896E029
:103200000E943405F82E8093910681E0F81649F06B
:103210000E94910B601B710B613D774058F381E078
:1032200056C02AEA31E040E050E068E087E896E0E6
:103230000E94340582FF03C0F092920610C064E041
:10324000F62E0E94EB0480939106FA94F110F9CFC8
:103250008A3A11F082E03BC082E08093920680912E
:103260009206823021F0C12CD12C760105C0C12CF0
:10327000D12CE12C50E4F52E20E030E0A90167E3E9
:1032800087E896E00E943405A701960169E287E885
:1032900096E00E94340580939106882349F00E94AD
:1032A000910B601B710B613D774030F388E00FC0DC
:1032B00080919206823001F520E030E0A9016AE3B6
:1032C00087E896E00E943405882341F086E08093E9
:1032D0008C0687E896E00E94DA04DFC00E94EB04C7
:1032E000807C803C19F483E0809392060E94EB047A
:1032F0000E94EB040E94EB0487E896E00E94DA0447
:1033000080E5809385061092860681E0A4D8882304
:1033100029F08091B606882339F0BFC080E09BD8A1
:10332000882309F4BAC0F5CF8091AA06803109F547
:1033300082E08093B6061092C8061092C9061092D9
:10334000CA061092CB068091AB069091AC06A0E025
:10335000B0E045E0880F991FAA1FBB1F4A95D1F71F
:103360008093C4069093C506A093C606B093C70683
:103370005DC0803209F091C083E08093B6068091F1
:10338000AD069091AE06A091AF06B091B0068093C5
:10339000C8069093C906A093CA06B093CB0689A726
:1033A0009AA7ABA7BCA7C12CD12C7601812C32E007
:1033B000932EA12CB12C49A55AA56BA57CA59E01E5
:1033C000275D3F4F83E996E00E94A60F882309F40A
:1033D00064C0D501C4010090A00604C0880F991FE5
:1033E000AA1FBB1F0A94D2F7C80ED91EEA1EFB1EE5
:1033F00049A55AA56BA57CA58091AA06803129F024
:1034000088EF9FEFAFEFBFE004C088EF9FEFA0E031
:10341000B0E0481759076A077B0768F2C092C406F4
:10342000D092C506E092C606F092C70683E996E000
:103430009093CD068093CC0681E08093B5061092E0
:10344000B7061092B8061092B9061092BA061092FA
:10345000BB061092BC061092BD061092BE061092DA
:10346000BF061092C0061092C1061092C2061092BA
:10347000C30686E991E00E94081188E691E00E9467
:10348000081161E08DE00E943D0BFFCF61E0F80183
:1034900087850E943D0B68D956CD8BEA91E00E944A
:1034A000081164E073E0CE01019627DC6DE073E063
:1034B000CE01419622DCBE016F5F7F4FCE01419667
:1034C0000E944211CE014196E0DBCE010196DDDB88
:1034D0008091DC06882329F08091DD069091DE063C
:1034E00002C080E090E00E94081261EB72E0CE0121
:1034F000019603DC6AEB72E0CE014196FEDBBE0171
:103500006F5F7F4FCE0141960E944211CE014196DE
:10351000BCDBCE010196B9DB61E08091E9060E9437
:10352000311188248394912CDD24DA9490E1B92E12
:1035300020E5722E8091F5069091F606DC01ED9162
:10354000FC910280F381E02D1995882309F442C291
:1035500061E08091E5060E94311160EB72E0CE01DE
:103560004D96CBDB8091F5069091F606DC01ED914E
:10357000FC910480F581E02D1995811106C060EB66
:1035800072E0CE018396B9DBE3C00091F50610919D
:10359000F606D8011D96EC91EF77E13428F4F0E0BF
:1035A000EB5DFD4F808101C080E08350833038F7B0
:1035B000F80183818093FD0684818093FE068581D6
:1035C0008093FF06868180930007C280EBE0F2E0E3
:1035D000DE0111968B2D01900D928A95E1F760EB3B
:1035E00072E0CE01479689DB0D5F1F4F78018E2D6B
:1035F000801B8C1508F046C02701D7018D917D01F5
:1036000082958F70E1E0F0E0EC0FFD1FE80FF11DF7
:1036100080811A8A198A1C8A1B8A1E8A1D8A8BA39A
:103620001CA2BE016D5D7F4FCE01419604DBBE0141
:103630006F5E7F4FCE014796F8DACE01419625DBCB
:10364000F20180818F70E1E0F0E0EC0FFD1FE80FE8
:10365000F11D80811A8A198A1C8A1B8A1E8A1D8A7A
:103660008BA31CA2BE016D5D7F4FCE014196E3DAB4
:10367000BE016F5E7F4FCE014796D7DACE014196ED
:1036800004DBB5CF8D8D9E8D009799F06F89788D75
:103690006115710569F04F8D58A12B8D3C8D421736
:1036A000530730F0DFD48B8D9C8D9AA389A311C072
:1036B00047D38F89988D9E8F8D8F898D9A8D98A3F2
:1036C0008F8F8B8D9C8D9AA389A3188E1F8A1A8E3B
:1036D000198E1C8E1B8ECE014796D7DA4090F506C8
:1036E0005090F60679821A829E012D5F3F4F42E08C
:1036F000BE016F5F7F4FC2010E94230C81110EC07B
:10370000A12CC12CE12CF12C00E010E020E030E0F5
:1037100044E0BE016F5F7F4FC20121D948E060E104
:103720008091F5069091F6060E94670C8D8D9E8D16
:103730009CA38BA38F8D98A19EA38DA389A19AA1F1
:1037400098A78FA31E8E1D8E18A21F8E1AA219A2D3
:10375000CE014D969ADA8FA198A5089709F033C14A
:10376000C090DC06EBA0FCA0A12CAC1409F435C180
:103770008A2D0E9418128C01DC011B968D919C9160
:103780001C97089709F01DC117968D919C91189769
:10379000009709F429C1E114F10429F4DC012C910A
:1037A000822F90E002C0B70154D4892B09F009C1DF
:1037B00064EE72E0CE010196A0DAB801CE01019666
:1037C00023DA65EC72E009DA0E940012CE0101965C
:1037D0005CDA8AE592E00E9408118A2D0E94181294
:1037E000FC01168160EB72E0CE01479686DA812FEC
:1037F0000E9418127C01DC011D968D919C911E97F0
:10380000892B09F043C08091F1069091F20601974F
:1038100029F48EEF91E00E940811C0C0F70196864E
:103820008586812F0E9418128C01CE0101960E947C
:103830002E1067EC72E0CE0141965FDABE016F5F39
:103840007F4FCE014196E0D969EC72E0C6D9B8014C
:10385000DBD96DEC72E0C1D9BC01CE01479600DA2C
:10386000CE01419612DACE0101960FDACE014796CB
:103870000E940812D09200028CEE91E00E94081182
:1038800061E08091E9060E9431118AC080910002B6
:103890008F3F09F454C02090F1063090F206F1E019
:1038A0002F16310479F082E02816310431F02328F4
:1038B00009F076C08CEB91E002C084ED91E00E94AB
:1038C00008116EC00E9418122C01CE0101960E94B0
:1038D0002E1067EC72E0CE0141960FDABE016F5FE9
:1038E0007F4FCE01419690D969EC72E076D9B7014D
:1038F0008BD96BED72E071D9B20186D966EE72E0B8
:103900006CD9BC01CE014796ABD9CE014196BDD949
:10391000CE010196BAD9CE0147960E940812812F96
:103920000E941812DC011E961C921E921D97809117
:1039300000020E941812FC01368625862DC0CE0199
:1039400001960E942E1067EC72E0CE014196D5D907
:10395000BE016F5F7F4FCE01419656D969EC72E090
:103960003CD9B70151D967EF72E037D9BC01CE011C
:10397000479676D9CE01419688D9CE01019685D950
:10398000CE0147960E940812812F0E941812DC0176
:103990001E961C921E921D97109300020E946F1497
:1039A000809100028F3F29F49092F4068092F306F2
:1039B00004C01092F4061092F306CE01479665D922
:1039C00006C0A394D2CE89E292E00E940811CE01F3
:1039D00083965BD90E94400AADCDCE0183960E94AA
:1039E000001284E492E0F1CFE114F10409F4E0CE96
:1039F000F701208130E088279927821B930BD5CED1
:103A00008FE598E042D983E598E03FD989E598E0D1
:103A10003CC9CF93DF93E8EEF5E01382128288EE83
:103A200093E0A0E0B0E084839583A683B78320E78A
:103A300032E03183208325EC30E03587248724EC85
:103A400030E03787268720EC30E0318B208B21EC6B
:103A500030E0338B228B22EC30E0358B248B26EC4C
:103A600030E0378B268B118E128E138E148EE5E884
:103A7000F6E020E520831182E7E8F6E01582168261
:103A80001186138642E050E060E070E0448755877D
:103A90006687778713A215A614A622E832E033A71B
:103AA00022A717A6E0EDF6E01382128284839583A5
:103AB000A683B7838EE892E0918380831092DE061E
:103AC0001092DD06C1E0D0E0D093F406C093F30677
:103AD00060EB72E089E598E010D91092F60610923A
:103AE000F50681E097E00E94630910924207109268
:103AF00044071092430780EA92E090930207809374
:103B0000010710924507D0934707C09346071092CC
:103B100049071092480710924B0710924A078CE40D
:103B200097E00E9463098DE897E00E9463098EEC9C
:103B300097E00E9463098FE098E00E94630986EA9B
:103B400092E09093100880930F0810925008109202
:103B50005208109251086AE173E083E598E0CDD8ED
:103B600062E273E08FE598E0DF91CF91C6C84532FD
:103B7000510518F4423008F004C0FB011082CB015B
:103B80000895BB27FB015527AA27880F991FAA1F55
:103B9000A41710F0A41B83955051B9F7A05DAA3368
:103BA00008F0A95DA193009779F7B111B193119233
:103BB000CB0100C0DC01FC01672F71917723E1F795
:103BC000329704C07C916D9370836291AE17BF07EA
:103BD000C8F3089509D0A59F900DB49F900DA49FA0
:103BE000800D911D11240895A29FB001B39FC001C3
:103BF000A39F700D811D1124911DB29F700D811D19
:103C00001124911D0895EE0FFF1F881F8BBF079091
:103C1000F691E02D1994CF93DF938230910510F443
:103C200082E090E0E0916708F091680820E030E0E1
:103C3000C0E0D0E0309711F1408151814817590719
:103C4000C0F04817590761F482819381209719F0D9
:103C50009B838A832BC0909368088093670826C053
:103C60002115310519F04217530718F49A01BE01C6
:103C7000DF01EF010280F381E02DDCCF211531055A
:103C800009F1281B390B2430310590F412968D91DF
:103C90009C9113976115710521F0FB019383828339
:103CA00004C09093680880936708FD01329644C071
:103CB000FD01E20FF31F81939193225031092D935F
:103CC0003C933AC02091650830916608232B41F45B
:103CD000209107023091080230936608209365080E
:103CE00020910502309106022115310541F42DB7CE
:103CF0003EB74091090250910A02241B350BE09116
:103D00006508F0916608E217F307A0F42E1B3F0B3D
:103D10002817390778F0AC014E5F5F4F241735073D
:103D200048F04E0F5F1F50936608409365088193DB
:103D3000919302C0E0E0F0E0CF01DF91CF910895D0
:103D40000F931F93CF93DF93009709F48CC0FC016E
:103D5000329713821282009167081091680801154A
:103D6000110581F420813181820F931F2091650814
:103D7000309166082817390779F5F0936608E093C3
:103D8000650871C0D80140E050E0AE17BF0750F49D
:103D900012962D913C911397AD012115310509F132
:103DA000D901F3CF9D01DA013383228360817181D0
:103DB000860F971F8217930769F4EC0128813981D8
:103DC000260F371F2E5F3F4F318320838A819B81CF
:103DD00093838283452B29F4F0936808E093670866
:103DE00042C01396FC93EE931297ED0149915991BD
:103DF0009E01240F351FE217F30771F48081918132
:103E0000840F951F029611969C938E9382819381C5
:103E100013969C938E931297E0E0F0E0D8011296EF
:103E20008D919C911397009719F0F8018C01F6CFB2
:103E30008D919C9198012E5F3F4F820F931F20918F
:103E40006508309166082817390769F4309729F416
:103E5000109268081092670802C0138212821093B1
:103E6000660800936508DF91CF911F910F91089527
:103E70006F927F928F929F92AF92BF92CF92DF927A
:103E8000EF92FF920F931F93CF93DF93EC01009774
:103E900081F4CB01DF91CF911F910F91FF90EF90B3
:103EA000DF90CF90BF90AF909F908F907F906F905A
:103EB000B2CEFC01E60FF71F9C0122503109E21738
:103EC000F30708F4A8C0D9010D911C9111970617AA
:103ED0001707A8F00530110508F49BC0C801049726
:103EE0008617970708F495C002501109061B170B97
:103EF000019311936D937C93CF0122DF8AC05B0104
:103F0000A01AB10A4C01800E911EA0916708B091D1
:103F1000680840E050E0E12CF12C109709F44AC009
:103F2000A815B905D1F56D907C901197630182E0D9
:103F3000C80ED11CCA14DB0480F1A3014A195B0925
:103F40006A0182E0C80ED11C1296BC90129713969B
:103F5000AC91B5E0CB16D10440F0B282A38351837B
:103F60004083D9016D937C930AC00E5F1F4FC3013C
:103F7000800F911FF90191838083EB2DFA2FE114BB
:103F8000F10431F0D7011396FC93EE93129741C0E0
:103F9000F0936808E09367083CC08D919C9111975D
:103FA0004817590708F4AC017D0112960D90BC9199
:103FB000A02DB3CF8091650890916608881599056A
:103FC000E1F446175707C8F4809105029091060264
:103FD000009741F48DB79EB74091090250910A02B3
:103FE000841B950BE817F907B0F4F0936608E0938B
:103FF0006508F901718360830CC0CB010CDE7C0184
:10400000009749F0A801BE011BD0CE0199DEC7017F
:1040100004C0CE0102C080E090E0DF91CF911F91FB
:104020000F91FF90EF90DF90CF90BF90AF909F9057
:104030008F907F906F90089581E090E0F89419C080
:10404000FB01DC0102C001900D9241505040D8F7B5
:104050000895FB01DC018D91019080190110D9F3C5
:10406000990B0895FB01DC0101900D920020E1F70E
:10407000089511E0C6E9D1E000E005C0802FFE01FF
:10408000C2DD2196011DC739D10780E00807B1F7CD
:04409000F894FFCFD2
:10409400FFFFFFFFFF000069088000303132333436
:1040A400353637383941424344454600000000DD87
:1040B4000C7F0C780A06090000FF000000040300CE
:1040C40000000000000707000000000000050000D9
:1040D40000000000000100000000000000000000DB
:1040E40000000000000000000000000000000000CC
:1040F40000000000000200000000000300000000B7
:10410400D909EC1372091F0AA30981099509000052
:1041140000002706EC1382028102000000007102F5
:104124005D028202310255024102320200000000A7
:10413400000300000000000348454C4C4F000D0AEA
:10414400003836423737374131005068616D2056A8
:10415400616E2042003E005B005D203C003E204C2E
:104164004F47474544204F55540A003E204B49438E
:104174004B4544203C003E20414E44204C4F474791
:10418400454420494E0A003E204C4F4747454420B1
:10419400494E0A003336393545424130004E677581
:1041A40079656E2056616E2041006C6F672E7478BD
:1041B400740075736572732E747874002F002D006B
:1041C4003A004E554C4C00303030303030303000F6
:020000023000CC
:10E000000D9489F10D94B2F10D94B2F10D94B2F129
:10E010000D94B2F10D94B2F10D94B2F10D94B2F1F0
:10E020000D94B2F10D94B2F10D94B2F10D94B2F1E0
:10E030000D94B2F10D94B2F10D94B2F10D94B2F1D0
:10E040000D94B2F10D94B2F10D94B2F10D94B2F1C0
:10E050000D94B2F10D94B2F10D94B2F10D94B2F1B0
:10E060000D94B2F10D94B2F10D94B2F10D94B2F1A0
:10E070000D94B2F10D94B2F10D94B2F10D94B2F190
:10E080000D94B2F10D94B2F10D94B2F10D94B2F180
:10E090000D94B2F10D94B2F10D94B2F10D94B2F170
:10E0A0000D94B2F10D94B2F10D94B2F10D94B2F160
:10E0B0000D94B2F10D94B2F10D94B2F10D94B2F150
:10E0C0000D94B2F10D94B2F10D94B2F10D94B2F140
:10E0D0000D94B2F10D94B2F10D94B2F10D94B2F130
:10E0E0000D94B2F141546D656761323536300041AF
:10E0F000726475696E6F206578706C6F72657220DE
:10E1000073746B3530305632206279204D4C530099
:10E11000426F6F746C6F616465723E004875683F52
:10E1200000436F6D70696C6564206F6E203D200048
:10E130004350552054797065202020203D20005FF9
:10E140005F4156525F415243485F5F3D2000415658
:10E1500052204C696243205665723D20004743437C
:10E160002056657273696F6E203D20004350552024
:10E1700049442020202020203D20004C6F7720663D
:10E18000757365202020203D20004869676820665F
:10E190007573652020203D200045787420667573D6
:10E1A00065202020203D20004C6F636B2066757336
:10E1B000652020203D20004D617220203720323024
:10E1C000313300312E362E3800342E332E350056A2
:10E1D00023202020414444522020206F7020636F70
:10E1E00064652020202020696E73747275637469E1
:10E1F0006F6E2061646472202020496E74657272B3
:10E20000757074006E6F20766563746F7200726A49
:10E210006D702020006A6D70200057686174207056
:10E220006F72743A00506F7274206E6F7420737541
:10E2300070706F72746564004D7573742062652030
:10E2400061206C6574746572002000577269747483
:10E25000696E672045450052656164696E672045B7
:10E26000450045452065727220636E743D00504F35
:10E27000525400303D5A65726F2061646472003FF1
:10E280003D43505520737461747300403D454550C3
:10E29000524F4D207465737400423D426C696E6B41
:10E2A000204C454400453D44756D70204545505215
:10E2B0004F4D00463D44756D7020464C415348001B
:10E2C000483D48656C70004C3D4C69737420492F83
:10E2D0004F20506F72747300513D51756974005234
:10E2E0003D44756D702052414D00563D73686F7707
:10E2F00020696E7465727275707420566563746FF0
:10E30000727300593D506F727420626C696E6B00BD
:10E310002A0011241FBECFEFD1E2DEBFCDBF01E046
:10E320000CBF12E0A0E0B2E0EEE1FDEF03E00BBFB6
:10E3300002C007900D92A030B107D9F712E0A0E01B
:10E34000B2E001C01D92AE30B107E1F70F9460F367
:10E350000D948DFE01E20EBF0FEF0DBF11241FBE05
:10E360000D9460F30D9400F020E030E040ED57E0B4
:10E3700005C0FA013197F1F72F5F3F4F2817390792
:10E38000C0F308959C01260F311DC901A0E0B0E043
:10E390002F5F3F4FABBFFC018791882361F08093D3
:10E3A000C6008091C00086FFFCCF8091C0008064D1
:10E3B0008093C000EACF08958DE08093C6008091DD
:10E3C000C00086FFFCCF8091C00080648093C000B5
:10E3D0008AE08093C6008091C00086FFFCCF8091C8
:10E3E000C00080648093C00008950F94C2F10F9420
:10E3F000DCF10895FC019081992359F09093C600B7
:10E400008091C00086FFFCCF8091C0008064809323
:10E41000C0003196992379F70895282F982F929567
:10E420009F70892F805D8A3308F0895F8093C600D2
:10E430008091C00086FFFCCF8091C00080648093F3
:10E44000C000822F8F70982F905D9A3308F0995FEB
:10E450009093C6008091C00086FFFCCF8091C000E1
:10E4600080648093C00008959C01FB01853691056E
:10E470001CF46330710594F0C90164E670E00F94F8
:10E480002EFE605D7F4F6093C6008091C00086FFC6
:10E49000FCCF8091C00080648093C0002B30310598
:10E4A00014F43297B4F0C90164E670E00F942EFEC4
:10E4B0006AE070E00F942EFE605D7F4F6093C600AF
:10E4C0008091C00086FFFCCF8091C0008064809363
:10E4D000C000C9016AE070E00F942EFEC0968093E0
:10E4E000C6008091C00086FFFCCF8091C000806490
:10E4F0008093C00008951F93182F8EE692EE60E07F
:10E500000F94C2F11093C6008091C00086FFFCCF2B
:10E510008091C00080648093C0000F94DCF11F9153
:10E5200008952F923F924F925F926F927F928F92B7
:10E530009F92AF92BF92CF92DF92EF92FF920F9392
:10E540001F93DF93CF93CDB7DEB762970FB6F894E2
:10E55000DEBF0FBECDBF382E622ECA01DB015C01CB
:10E560006D01772420E2222E2E010894411C511CBB
:10E570008BC081E0A81680E0B80681E0C80680E084
:10E58000D80628F0C601AA27BB270F940DF2BB2797
:10E59000AD2D9C2D8B2D0F940DF28A2D0F940DF225
:10E5A0002092C6008091C00086FFFCCF8091C00001
:10E5B00080648093C0009DE29093C6008091C0006B
:10E5C00086FFFCCF8091C00080648093C0002092C1
:10E5D000C6008091C00086FFFCCF8091C00080649F
:10E5E0008093C00019828601750188249924A1E0D6
:10E5F0003A1651F03A1620F0B2E03B1661F409C029
:10E600000BBFF701779007C0C7010F9477FE782EF4
:10E6100002C0F7017080872D0F940DF22092C60082
:10E620008091C00086FFFCCF8091C0008064809301
:10E63000C000872D8052F401EF70F0708F3520F408
:10E64000E40DF51D708204C0E40DF51D8EE280839B
:10E650000894E11CF11C011D111D0894811C911CE2
:10E6600090E18916910409F0C2CF80E190E0A0E02A
:10E67000B0E0A80EB91ECA1EDB1E198AC2010F9493
:10E68000FAF10F94DCF16A94662009F072CF629679
:10E690000FB6F894DEBF0FBECDBFCF91DF911F91B3
:10E6A0000F91FF90EF90DF90CF90BF90AF909F9031
:10E6B0008F907F906F905F904F903F902F90089534
:10E6C0002F923F924F925F926F927F928F929F9282
:10E6D000AF92BF92CF92DF92EF92FF920F931F9370
:10E6E000DF93CF93CDB7DEB7CD53D1400FB6F894BB
:10E6F000DEBF0FBECDBF01E20EBF0FEF0DBF94B75F
:10E70000F894A89514BE80916000886180936000A1
:10E7100010926000789493FF05C0E0910002F091A0
:10E7200001021995279A2F9A8091C00082608093E8
:10E73000C00080E18093C40088E18093C1000000A4
:10E74000EE24FF24870144E0A42EB12CCC24DD2448
:10E7500024C0C5010197F1F70894E11CF11C011DCB
:10E76000111D21E2E2162EE4F20620E0020720E06D
:10E77000120718F031E0C32ED12CC801B70127ECE5
:10E780003BE140E050E00F9441FE611571058105C9
:10E79000910519F485B1805885B98091C00087FD35
:10E7A00003C0C114D104A9F2A6014F5F5F4FC25E3E
:10E7B000DE4F59834883CE51D140C25EDE4F8881FF
:10E7C0009981CE51D140019711F00D9410FEC05D9A
:10E7D000DE4F19821882C053D14060E0C15DDE4F28
:10E7E0001882CF52D14088249924C35DDE4F19820C
:10E7F0001882CD52D140C05EDE4F188219821A8233
:10E800001B82C052D140CE5CDE4F188219821A8220
:10E810001B82C253D140EE24FF2487010BBFF701B6
:10E8200007911691C45CDE4F19830883CC53D14005
:10E830000D940BFEC25EDE4F28813981CE51D1404E
:10E840002130310509F52091C600C25EDE4F1982E4
:10E850001882CE51D14022C02F5F3F4F4F4F5F4FA4
:10E86000213082E138078AE7480780E0580780F0C6
:10E87000C45CDE4FE881F981CC53D140EF5FFF4F9C
:10E8800019F0EE27FF27099420E030E040E050E047
:10E890008091C00087FFE0CF2091C600C35DDE4FAE
:10E8A00048815981CD52D1404F5F5F4FC35DDE4FEC
:10E8B00059834883CD52D140213209F063C64A3092
:10E8C000510508F05FC60894811C911C53E0851621
:10E8D000910409F059C600E010E018C081E280936D
:10E8E000C6008091C00086FFFCCF8091C00080648C
:10E8F0008093C0002F5F3F4F2931310579F70F9486
:10E90000DCF10F5F1F4F0530110519F020E030E0FA
:10E91000E5CF10920A0210920B0210920C02109294
:10E920000D02109206021092070210920802109235
:10E930000902109202021092030210920402109235
:10E9400005028FEE90EE60E00F94F5F180E191EE1C
:10E9500060E00F94C2F18091C00087FFFCCF9091DE
:10E96000C600903608F09F759032B8F09093C600BC
:10E970008091C00086FFFCCF8091C00080648093AE
:10E98000C000A0E2A093C6008091C00086FFFCCF2B
:10E990008091C00080648093C000983409F4D7C18E
:10E9A0009934B8F4923409F459C1933458F490333B
:10E9B00019F1903308F4E3C59F33A1F1903409F0C5
:10E9C000DEC5BDC0953409F470C1963409F0D7C5D1
:10E9D00098C1923509F42BC2933538F49C3409F46C
:10E9E000F5C1913509F0CBC518C2963509F445C279
:10E9F000993509F0C4C567C483E792EE62E00F94CD
:10EA0000F5F110920602109207021092080210927D
:10EA1000090210920A0210920B0210920C0210923C
:10EA20000D0213C18FE792EE62E00F94F5F18FEEC5
:10EA300090EE60E00F94F5F181E291EE60E00F94CA
:10EA4000C2F187EB91EE60E00F94F5F180E391EE77
:10EA500060E00F94C2F184EE90EE60E00F94F5F167
:10EA60008FE391EE60E00F94C2F186E090E061E008
:10EA700070E00F9434F20F94DCF18DE591EE60E0DC
:10EA80000F94C2F189EC91EE60E00F94F5F18EE401
:10EA900091EE60E00F94C2F183EC91EE60E00F9490
:10EAA000F5F18CE691EE60E00F94C2F18EE10F94E7
:10EAB0000DF288E90F940DF281E00F940DF20F949E
:10EAC000DCF18BE791EE60E00F94C2F119E0E0E039
:10EAD000F0E010935700E4918E2F0F940DF20F94F5
:10EAE000DCF18AE891EE60E00F94C2F1E3E0F0E03F
:10EAF00010935700E4918E2F0F940DF20F94DCF1D8
:10EB000089E991EE60E00F94C2F1E2E0F0E0109349
:10EB10005700E4918E2F0F940DF20F94DCF188EAE8
:10EB200091EE60E00F94C2F1E1E0F0E01093570045
:10EB30001491812F0F940DF20F94DCF107CF8BE825
:10EB400092EE62E00F94F5F18BE492EE60E00F94A8
:10EB5000F5F10F94DCF100E010E019C0C8016F2D51
:10EB60000F947FFEFF2031F489E492EE60E00F9471
:10EB7000C2F10BC0F092C6008091C00086FFFCCFAE
:10EB80008091C00080648093C0000F5F1F4FC80158
:10EB900081519F41A0E0B0E0ABBFFC01F790BAE229
:10EBA000FB1621F0E2E000301E07C1F60F94DCF105
:10EBB0000F94DCF187E592EE60E00F94F5F10F948D
:10EBC000DCF1CC24DD2400E010E01EC0C8010F946D
:10EBD00077FEF82E882331F489E492EE60E00F94FA
:10EBE000C2F10BC08093C6008091C00086FFFCCFAD
:10EBF0008091C00080648093C000FE1419F00894D6
:10EC0000C11CD11C0F5F1F4FC80181519F41A0E063
:10EC1000B0E0ABBFFC01E790FAE2EF1621F022E092
:10EC20000030120799F60F94DCF10F94DCF182E6C4
:10EC300092EE60E00F94C2F1C60161E070E00F94C3
:10EC400034F20F94DCF10F94DCF110920202109276
:10EC50000302109204021092050278CE89E992EE26
:10EC600062E00F94F5F1279A2F9A16C02F9880E052
:10EC700090E0E0EDF7E03197F1F7019684369105E9
:10EC8000C1F72F9A80E090E0E0EDF7E03197F1F7DF
:10EC9000019684369105C1F78091C00087FFE6CFC9
:10ECA0008091C00087FFFCCF64C485EA92EE62E0E9
:10ECB0000F94F5F140910202509103026091040219
:10ECC0007091050281E020E10F9491F2809102029F
:10ECD00090910302A0910402B091050280509F4FD1
:10ECE000AF4FBF4F8093020290930302A0930402A0
:10ECF000B093050280509041A040B04008F426CE69
:10ED0000A4CF83EB92EE62E00F94F5F140910602FE
:10ED100050910702609108027091090280E020E1A1
:10ED20000F9491F28091060290910702A09108023F
:10ED3000B091090280509F4FAF4FBF4F80930602A2
:10ED400090930702A0930802B0930902FFCD80ECD4
:10ED500092EE62E00F94F5F183E792EE60E00F949B
:10ED6000F5F18FE792EE60E00F94F5F18BE892EE0B
:10ED700060E00F94F5F189E992EE60E00F94F5F10F
:10ED800085EA92EE60E00F94F5F183EB92EE60E09D
:10ED90000F94F5F180EC92EE60E00F94F5F187ECC2
:10EDA00092EE60E00F94F5F188ED92EE60E00F9442
:10EDB000F5F18FED92EE60E00F94F5F18AEE92EEB0
:10EDC00060E00F94F5F183E093EEBDCD87EC92EE19
:10EDD00062E00F94F5F181E40F947BF282E40F94EA
:10EDE0007BF283E40F947BF284E40F947BF285E45E
:10EDF0000F947BF286E40F947BF287E40F947BF20E
:10EE000088E40F947BF28AE40F947BF28BE40F94F6
:10EE10007BF28CE40F947BF299CD88ED92EE62E068
:10EE20000F94F5F1772473948824992409C48FED05
:10EE300092EE62E00F94F5F140910A0250910B02BC
:10EE400060910C0270910D0282E020E10F9491F22A
:10EE500080910A0290910B02A0910C02B0910D02D8
:10EE600080509F4FAF4FBF4F80930A0290930B0289
:10EE7000A0930C02B0930D0269CD8AEE92EE62E08F
:10EE80000F94F5F184EE90EE60E00F94F5F18FECC5
:10EE900091EE60E00F94F5F1662477244301CC5D98
:10EEA000DE4F19821882C452D140D401C301B695F5
:10EEB000A79597958795CA5DDE4F88839983AA8326
:10EEC000BB83C652D140CC5DDE4FA881B981C4520C
:10EED000D1401196CC5DDE4FB983A883C452D14096
:10EEE000CD0162E070E00F9434F2B0E2B093C6005E
:10EEF0008091C00086FFFCCF8091C0008064809329
:10EF0000C000EDE2E093C6008091C00086FFFCCF18
:10EF10008091C00080648093C000F0E2F093C6004E
:10EF20008091C00086FFFCCF8091C00080648093F8
:10EF3000C000CA5DDE4FE880F9800A811B81C6529D
:10EF4000D140BB27A12F902F8F2D0F940DF2CA5DBA
:10EF5000DE4F8881C652D1400F940DF2B0E2FB2EF5
:10EF6000F092C6008091C00086FFFCCF8091C00067
:10EF700080648093C0000DE30093C6008091C000C0
:10EF800086FFFCCF8091C00080648093C00010E2B7
:10EF90001093C6008091C00086FFFCCF8091C00016
:10EFA00080648093C0008BBEF3012791C65DDE4F65
:10EFB0002883CA52D140A22EBB24CC24DD2408943D
:10EFC000611C711C811C911C8BBEF3018791282E42
:10EFD0003324442455240894611C711C811C911C09
:10EFE0008BBEF3013791C55DDE4F3883CB52D140E4
:10EFF0000894611C711C811C911C8BBEF30147910C
:10F00000C45DDE4F4883CC52D140ADEFEA2EAFEF66
:10F01000FA2EAFEF0A2FAFEF1A2F6E0C7F1C801E57
:10F02000911E142D032DF22CEE24EA0CFB1C0C1D5A
:10F030001D1D0F940DF220E22093C6008091C000A8
:10F0400086FFFCCF8091C00080648093C000C65DC5
:10F05000DE4F8881CA52D1400F940DF230E23093D6
:10F06000C6008091C00086FFFCCF8091C000806404
:10F070008093C000C45DDE4F8881CC52D1400F9494
:10F080000DF240E24093C6008091C00086FFFCCFA5
:10F090008091C00080648093C000C55DDE4F888190
:10F0A000CB52D1400F940DF250E25093C6008091A4
:10F0B000C00086FFFCCF8091C00080648093C000B8
:10F0C0008FEFE8168FEFF80680E0080780E018075A
:10F0D00031F484E092EE60E00F94C2F1DFC0D80119
:10F0E000C7018070907CA070B0708050904CA040A0
:10F0F000B040D1F52FEF3FE340E050E0E222F322B1
:10F1000004231523CA5DDE4FA880B980CA80DB8046
:10F11000C652D140AE0CBF1CC01ED11EAA0CBB1CD7
:10F12000CC1CDD1C8EE092EE60E00F94C2F1BB2798
:10F13000A12F902F8F2D0F940DF28E2D0F940DF285
:10F1400030E23093C6008091C00086FFFCCF8091F2
:10F15000C00080648093C0004EE34093C60080915D
:10F16000C00086FFFCCF87C08EE09EEFA0E0B0E03D
:10F17000E822F9220A231B239CE0E91694E9F90608
:10F1800090E0090790E0190709F088C0C45DDE4FE0
:10F19000A881CC52D140EA2EFF2400E010E0102FCD
:10F1A0000F2DFE2CEE24C55DDE4FB881CB52D14031
:10F1B000EB0EF11C011D111DD601C501817090706F
:10F1C000A070B070DC0199278827E80EF91E0A1F8D
:10F1D0001B1F20EF30E040E050E0A222B322C42207
:10F1E000D52241E1AA0CBB1CCC1CDD1C4A95D1F7F1
:10F1F000EA0CFB1C0C1D1D1D81E090E0A0E0B0E0BE
:10F20000282239224A225B2235E1220C331C441C7D
:10F21000551C3A95D1F7E20CF31C041D151D57013E
:10F220006801AA0CBB1CCC1CDD1C85E192EE60E0E1
:10F230000F94C2F1C801AA27BB270F940DF2BB2778
:10F24000A12F902F8F2D0F940DF28E2D0F940DF274
:10F2500090E29093C6008091C00086FFFCCF809121
:10F26000C00080648093C000AEE3A093C60080918C
:10F27000C00086FFFCCF8091C00080648093C000F6
:10F28000C601AA27BB270F940DF2BB27AD2D9C2DDD
:10F290008B2D0F940DF28A2D0F940DF20F94DCF14B
:10F2A000CC5DDE4FE881F981C452D140F99709F471
:10F2B0004DCBF4E0EF2EF12C012D112D6E0C7F1CA7
:10F2C000801E911EF2CD83E093EE62E00F94F5F183
:10F2D0008AE192EE60E00F94C2F18091C00087FF56
:10F2E000FCCF1091C6001F751093C6008091C0001E
:10F2F00086FFFCCF8091C00080648093C0000F9493
:10F30000DCF1812F81548A3108F036C1163409F4BA
:10F3100095C0173490F4133409F44EC0143430F40B
:10F320001134F1F0123409F01DC130C0143409F465
:10F3300059C0153409F016C16BC01A3409F4C4C0A1
:10F340001B3438F4173409F48FC0183409F00AC19B
:10F35000A1C01B3409F4D2C01C3409F003C1E8C0B9
:10F360008FEF81B90DC082B1809582B980E090E0C5
:10F37000E0EDF7E03197F1F70196883C9105C1F790
:10F380008091C00087FFEFCF12B8EFC08FEF84B934
:10F390000DC085B1809585B980E090E0E0EDF7E0A3
:10F3A0003197F1F70196883C9105C1F78091C00033
:10F3B00087FFEFCF15B8D9C08FEF87B90DC088B1DF
:10F3C000809588B980E090E0E0EDF7E03197F1F7C3
:10F3D0000196883C9105C1F78091C00087FFEFCF6F
:10F3E00018B8C3C08FEF8AB90DC08BB180958BB9A7
:10F3F00080E090E0E0EDF7E03197F1F70196883C8E
:10F400009105C1F78091C00087FFEFCF1BB8ADC059
:10F410008FEF8DB90DC08EB180958EB980E090E0F0
:10F42000E0EDF7E03197F1F70196883C9105C1F7DF
:10F430008091C00087FFEFCF1EB897C08FEF80BBD1
:10F440000DC081B3809581BB80E090E0E0EDF7E0F6
:10F450003197F1F70196883C9105C1F78091C00082
:10F4600087FFEFCF11BA81C08FEF83BB0DC084B38C
:10F47000809584BB80E090E0E0EDF7E03197F1F714
:10F480000196883C9105C1F78091C00087FFEFCFBE
:10F4900014BA6BC08FEF809301010FC080910201FD
:10F4A00080958093020180E090E0E0EDF7E03197F5
:10F4B000F1F70196883C9105C1F78091C00087FF64
:10F4C000EDCF1092020151C08FEF809304010FC065
:10F4D0008091050180958093050180E090E0E0ED4A
:10F4E000F7E03197F1F70196883C9105C1F78091DB
:10F4F000C00087FFEDCF1092050137C08FEF8093DA
:10F5000007010FC08091080180958093080180E079
:10F5100090E0E0EDF7E03197F1F70196883C910536
:10F52000C1F78091C00087FFEDCF109208011DC088
:10F530008FEF80930A010FC080910B01809580931B
:10F540000B0180E090E0E0EDF7E03197F1F70196F4
:10F55000883C9105C1F78091C00087FFEDCF1092E4
:10F560000B0103C085E292EEEEC98091C00087FFD7
:10F57000FCCF8091C600EAC988E392EEE4C98CE131
:10F5800091EEE1C988249924933011F1943028F444
:10F59000913089F09230B8F408C0953061F195301F
:10F5A000F0F0963009F048C043C02B3109F042C951
:10F5B00091E06BE13FC96227C15DDE4F2883CF52E6
:10F5C000D14092E037C9B22FA0E0622793E032C960
:10F5D000822F90E0A82BB92B622794E02BC92E3004
:10F5E00009F039C3622795E0C05DDE4F19821882A9
:10F5F000C053D1401FC9E1E0F0E0EC0FFD1FC05D3A
:10F60000DE4F08811981C053D140E00FF11F2083E4
:10F610000F5F1F4FC05DDE4F19830883C053D14079
:10F6200062270A171B0709F005C9D80196E002C92D
:10F63000261709F010C303C0973009F0FBC87724E0
:10F640009981933109F412C19431C8F4963009F4C8
:10F65000D8C0973050F4923009F406C1933009F4C1
:10F660006DC0913009F059C253C0913109F477C08F
:10F67000923108F0BBC0903109F04FC2F5C098310B
:10F6800009F487C0993150F4953109F4EFC09531F0
:10F6900008F4C6C1963109F040C2C2C19A3109F4DA
:10F6A0006CC09A3108F491C09B3109F45BC09D3164
:10F6B00009F033C29D81903359F48F81882311F46E
:10F6C0009EE11CC0813011F091E018C098E916C08D
:10F6D000892F807591F0903539F4E0E0F0E089E011
:10F6E0008093570094910AC0983539F4E3E0F0E034
:10F6F00089E080935700949101C090E01A821B82A8
:10F700008D818C831D829E831F8227E030E009C299
:10F710001A8288E08B8381E48C8386E58D8382E581
:10F720008E8389E48F8383E5888780E589878FE5E9
:10F730008A8782E38B872BE030E0F3C18A818139AD
:10F7400041F0823941F0803911F48FE005C080E04A
:10F7500003C082E001C08AE01A828B8344C0772410
:10F76000739482C08D81882311F48EE12CC0813086
:10F7700011F081E028C088E926C01A82E1E0F0E0BB
:10F7800089E08093570084918B831C8224E030E0D1
:10F79000C8C18B81803589F48C81883039F4E2E0EE
:10F7A000F0E089E08093570084910DC0E0E0F0E044
:10F7B00089E080935700849106C0E3E0F0E089E09F
:10F7C0008093570084911A82DFCF8D81836C99E0FA
:10F7D000E1E0F0E0082E90935700E89507B600FCB2
:10F7E000FDCF1A821B8223E030E09BC180EC8A832C
:10F7F000CE5CDE4F188219821A821B82C253D1401E
:10F800008EC18A8190E0A0E0B0E0582F44273327D2
:10F8100022278B8190E0A0E0B0E0DC0199278827C7
:10F82000282B392B4A2B5B2B8D8190E0A0E0B0E098
:10F83000282B392B4A2B5B2B8C8190E0A0E0B0E089
:10F84000BA2FA92F982F8827282B392B4A2B5B2BCF
:10F85000220F331F441F551FC05EDE4F288339839C
:10F860004A835B83C052D1401A8259C13A81C95C34
:10F87000DE4F3883C753D140CA5CDE4F1882C6536F
:10F88000D1408B81C82EDD24CA5CDE4F488159816E
:10F89000C653D140C42AD52A933109F082C0CE5C28
:10F8A000DE4F88819981AA81BB81C253D1408050AB
:10F8B000904CA340B04030F583E0CE5CDE4FE88052
:10F8C000F9800A811B81C253D140F70100935B008C
:10F8D00080935700E89507B600FCFDCFCE5CDE4F65
:10F8E000088119812A813B81C253D14000501F4FAA
:10F8F0002F4F3F4FCE5CDE4F088319832A833B8313
